{"abi":[{"type":"function","name":"P","inputs":[],"outputs":[{"name":"","type":"uint256","internalType":"uint256"}],"stateMutability":"view"},{"type":"function","name":"S","inputs":[{"name":"_depositor","type":"address","internalType":"address"},{"name":"_asset","type":"address","internalType":"address"}],"outputs":[{"name":"","type":"uint256","internalType":"uint256"}],"stateMutability":"view"},{"type":"function","name":"SCALE_FACTOR","inputs":[],"outputs":[{"name":"","type":"uint256","internalType":"uint256"}],"stateMutability":"view"},{"type":"function","name":"addCollateralType","inputs":[{"name":"_collateral","type":"address","internalType":"address"}],"outputs":[],"stateMutability":"nonpayable"},{"type":"function","name":"currentEpoch","inputs":[],"outputs":[{"name":"","type":"uint128","internalType":"uint128"}],"stateMutability":"view"},{"type":"function","name":"currentScale","inputs":[],"outputs":[{"name":"","type":"uint128","internalType":"uint128"}],"stateMutability":"view"},{"type":"function","name":"debtToken","inputs":[],"outputs":[{"name":"","type":"address","internalType":"address"}],"stateMutability":"view"},{"type":"function","name":"deposit","inputs":[{"name":"_amount","type":"uint256","internalType":"uint256"},{"name":"_assets","type":"address[]","internalType":"address[]"}],"outputs":[],"stateMutability":"nonpayable"},{"type":"function","name":"depositSnapshots","inputs":[{"name":"","type":"address","internalType":"address"}],"outputs":[{"name":"P","type":"uint256","internalType":"uint256"},{"name":"G","type":"uint256","internalType":"uint256"},{"name":"scale","type":"uint128","internalType":"uint128"},{"name":"epoch","type":"uint128","internalType":"uint128"}],"stateMutability":"view"},{"type":"function","name":"deposits","inputs":[{"name":"","type":"address","internalType":"address"}],"outputs":[{"name":"","type":"uint256","internalType":"uint256"}],"stateMutability":"view"},{"type":"function","name":"epochToScaleToG","inputs":[{"name":"","type":"uint128","internalType":"uint128"},{"name":"","type":"uint128","internalType":"uint128"}],"outputs":[{"name":"","type":"uint256","internalType":"uint256"}],"stateMutability":"view"},{"type":"function","name":"epochToScaleToSum","inputs":[{"name":"","type":"address","internalType":"address"},{"name":"","type":"uint128","internalType":"uint128"},{"name":"","type":"uint128","internalType":"uint128"}],"outputs":[{"name":"","type":"uint256","internalType":"uint256"}],"stateMutability":"view"},{"type":"function","name":"getCompoundedDebtTokenDeposits","inputs":[{"name":"_depositor","type":"address","internalType":"address"}],"outputs":[{"name":"","type":"uint256","internalType":"uint256"}],"stateMutability":"view"},{"type":"function","name":"getDepositorGains","inputs":[{"name":"_depositor","type":"address","internalType":"address"},{"name":"_assets","type":"address[]","internalType":"address[]"}],"outputs":[{"name":"","type":"address[]","internalType":"address[]"},{"name":"","type":"uint256[]","internalType":"uint256[]"}],"stateMutability":"view"},{"type":"function","name":"getTotalDebtTokenDeposits","inputs":[],"outputs":[{"name":"","type":"uint256","internalType":"uint256"}],"stateMutability":"view"},{"type":"function","name":"getValidCollateral","inputs":[],"outputs":[{"name":"","type":"address[]","internalType":"address[]"}],"stateMutability":"view"},{"type":"function","name":"isAddressSetupInitialized","inputs":[],"outputs":[{"name":"","type":"bool","internalType":"bool"}],"stateMutability":"view"},{"type":"function","name":"keikoDeployer","inputs":[],"outputs":[{"name":"","type":"address","internalType":"address"}],"stateMutability":"view"},{"type":"function","name":"lastAssetError_Offset","inputs":[{"name":"","type":"uint256","internalType":"uint256"}],"outputs":[{"name":"","type":"uint256","internalType":"uint256"}],"stateMutability":"view"},{"type":"function","name":"lastDebtTokenLossError_Offset","inputs":[],"outputs":[{"name":"","type":"uint256","internalType":"uint256"}],"stateMutability":"view"},{"type":"function","name":"offsetDebt","inputs":[{"name":"_debtToOffset","type":"uint256","internalType":"uint256"},{"name":"_asset","type":"address","internalType":"address"},{"name":"_amountAdded","type":"uint256","internalType":"uint256"}],"outputs":[],"stateMutability":"nonpayable"},{"type":"function","name":"owner","inputs":[],"outputs":[{"name":"","type":"address","internalType":"address"}],"stateMutability":"view"},{"type":"function","name":"priceFeed","inputs":[],"outputs":[{"name":"","type":"address","internalType":"address"}],"stateMutability":"view"},{"type":"function","name":"renounceOwnership","inputs":[],"outputs":[],"stateMutability":"nonpayable"},{"type":"function","name":"setAddresses","inputs":[{"name":"_addresses","type":"address[]","internalType":"address[]"}],"outputs":[],"stateMutability":"nonpayable"},{"type":"function","name":"stabilityPool","inputs":[],"outputs":[{"name":"","type":"address","internalType":"address"}],"stateMutability":"view"},{"type":"function","name":"totalDebtTokenDeposits","inputs":[],"outputs":[{"name":"","type":"uint256","internalType":"uint256"}],"stateMutability":"view"},{"type":"function","name":"transferOwnership","inputs":[{"name":"newOwner","type":"address","internalType":"address"}],"outputs":[],"stateMutability":"nonpayable"},{"type":"function","name":"treasuryAddress","inputs":[],"outputs":[{"name":"","type":"address","internalType":"address"}],"stateMutability":"view"},{"type":"function","name":"validCollaterals","inputs":[{"name":"","type":"uint256","internalType":"uint256"}],"outputs":[{"name":"","type":"address","internalType":"address"}],"stateMutability":"view"},{"type":"function","name":"vaultManager","inputs":[],"outputs":[{"name":"","type":"address","internalType":"address"}],"stateMutability":"view"},{"type":"function","name":"vaultOperations","inputs":[],"outputs":[{"name":"","type":"address","internalType":"address"}],"stateMutability":"view"},{"type":"function","name":"vaultSorter","inputs":[],"outputs":[{"name":"","type":"address","internalType":"address"}],"stateMutability":"view"},{"type":"function","name":"withdraw","inputs":[{"name":"_amount","type":"uint256","internalType":"uint256"},{"name":"_assets","type":"address[]","internalType":"address[]"}],"outputs":[],"stateMutability":"nonpayable"},{"type":"event","name":"AssetSent","inputs":[{"name":"_asset","type":"address","indexed":false,"internalType":"address"},{"name":"_to","type":"address","indexed":false,"internalType":"address"},{"name":"_amount","type":"uint256","indexed":false,"internalType":"uint256"}],"anonymous":false},{"type":"event","name":"DepositSnapshotUpdated","inputs":[{"name":"_depositor","type":"address","indexed":true,"internalType":"address"},{"name":"_P","type":"uint256","indexed":false,"internalType":"uint256"},{"name":"_G","type":"uint256","indexed":false,"internalType":"uint256"}],"anonymous":false},{"type":"event","name":"EpochUpdated","inputs":[{"name":"_currentEpoch","type":"uint128","indexed":false,"internalType":"uint128"}],"anonymous":false},{"type":"event","name":"G_Updated","inputs":[{"name":"_G","type":"uint256","indexed":false,"internalType":"uint256"},{"name":"_epoch","type":"uint128","indexed":false,"internalType":"uint128"},{"name":"_scale","type":"uint128","indexed":false,"internalType":"uint128"}],"anonymous":false},{"type":"event","name":"GainsWithdrawn","inputs":[{"name":"_depositor","type":"address","indexed":true,"internalType":"address"},{"name":"_collaterals","type":"address[]","indexed":false,"internalType":"address[]"},{"name":"_amounts","type":"uint256[]","indexed":false,"internalType":"uint256[]"},{"name":"_debtTokenLoss","type":"uint256","indexed":false,"internalType":"uint256"}],"anonymous":false},{"type":"event","name":"OwnershipTransferred","inputs":[{"name":"previousOwner","type":"address","indexed":true,"internalType":"address"},{"name":"newOwner","type":"address","indexed":true,"internalType":"address"}],"anonymous":false},{"type":"event","name":"P_Updated","inputs":[{"name":"_P","type":"uint256","indexed":false,"internalType":"uint256"}],"anonymous":false},{"type":"event","name":"S_Updated","inputs":[{"name":"_asset","type":"address","indexed":false,"internalType":"address"},{"name":"_S","type":"uint256","indexed":false,"internalType":"uint256"},{"name":"_epoch","type":"uint128","indexed":false,"internalType":"uint128"},{"name":"_scale","type":"uint128","indexed":false,"internalType":"uint128"}],"anonymous":false},{"type":"event","name":"ScaleUpdated","inputs":[{"name":"_currentScale","type":"uint128","indexed":false,"internalType":"uint128"}],"anonymous":false},{"type":"event","name":"StabilityPoolAssetBalanceUpdated","inputs":[{"name":"_asset","type":"address","indexed":false,"internalType":"address"},{"name":"_newBalance","type":"uint256","indexed":false,"internalType":"uint256"}],"anonymous":false},{"type":"event","name":"StabilityPoolDebtTokenBalanceUpdated","inputs":[{"name":"_newBalance","type":"uint256","indexed":false,"internalType":"uint256"}],"anonymous":false},{"type":"event","name":"StakeChanged","inputs":[{"name":"_newSystemStake","type":"uint256","indexed":false,"internalType":"uint256"},{"name":"_depositor","type":"address","indexed":false,"internalType":"address"}],"anonymous":false},{"type":"event","name":"SystemSnapshotUpdated","inputs":[{"name":"_P","type":"uint256","indexed":false,"internalType":"uint256"},{"name":"_G","type":"uint256","indexed":false,"internalType":"uint256"}],"anonymous":false},{"type":"event","name":"UserDepositChanged","inputs":[{"name":"_depositor","type":"address","indexed":true,"internalType":"address"},{"name":"_newDeposit","type":"uint256","indexed":false,"internalType":"uint256"}],"anonymous":false},{"type":"event","name":"UserWithdrawal","inputs":[{"name":"_user","type":"address","indexed":true,"internalType":"address"},{"name":"_amount","type":"uint256","indexed":false,"internalType":"uint256"}],"anonymous":false},{"type":"error","name":"StabilityPool__ActivePoolOnly","inputs":[{"name":"sender","type":"address","internalType":"address"},{"name":"expected","type":"address","internalType":"address"}]},{"type":"error","name":"StabilityPool__AdminContractOnly","inputs":[{"name":"sender","type":"address","internalType":"address"},{"name":"expected","type":"address","internalType":"address"}]},{"type":"error","name":"StabilityPool__ArrayNotInAscendingOrder","inputs":[]},{"type":"error","name":"StabilityPool__VesselManagerOnly","inputs":[{"name":"sender","type":"address","internalType":"address"},{"name":"expected","type":"address","internalType":"address"}]}],"bytecode":{"object":"0x608080604052346100675760008054336001600160a01b0319821681178355916001600160a01b03909116907f8be0079c531659141344cd1fd0a4f28419497f9722a3daafe3b4186f6b6457e09080a3670de0b6b3a7640000600d55611e6b908161006d8239f35b600080fdfe608060408181526004918236101561001657600080fd5b600092833560e01c918263048c661d14610ece575081630a68f2d714610eaf5781630d9a6b3514610eaf578163121f2b2614610e8257816313afb18814610e415781634e8338eb14610df857816359caa99614610d72578163715018a614610d14578163741bef1a14610ceb5781637667180814610cc95781637ee4196b14610c5957816382e0a57414610c0d578163841f0ebb14610be457816385d7cf86146109ff57816386da08241461099c5781638a4adf24146109735781638b8fbd92146109545781638da5cb5b1461092c5781639718cf591461090357816399eca69f146107905781639d6aea0a146106fb578163a4e59ac8146106d3578163a7a48884146106b4578163ad3018f014610632578163b95717211461045f578163be35d3bd14610423578163c5f956af146103fa578163c8564c62146103d3578163ce4b5bbe146103b4578163ea8db4621461038b578163ec0d5e0c146102c8578163f2fde38b146101fd57508063f8d89898146101d55763fc7e286d1461019b57600080fd5b346101d15760203660031901126101d15760209181906001600160a01b036101c1610ef2565b168152600b845220549051908152f35b5080fd5b50346101d157816003193601126101d15760015490516001600160a01b039091168152602090f35b9050346102c45760203660031901126102c457610218610ef2565b83546001600160a01b03808216939192610233338614611171565b169384156102725750506001600160a01b031916821783557f8be0079c531659141344cd1fd0a4f28419497f9722a3daafe3b4186f6b6457e08380a380f35b906020608492519162461bcd60e51b8352820152602660248201527f4f776e61626c653a206e6577206f776e657220697320746865207a65726f206160448201526564647265737360d01b6064820152fd5b8280fd5b8390346101d15760203660031901126101d1576102e3610ef2565b82546001600160a01b0392906102fc9084163314611171565b60115490680100000000000000009182811015610378578060016103239201601155610f70565b8154906000199060031b1b19169055600a5491821015610365575080600161034e9201600a55610f23565b90928084549260031b9316831b921b191617905580f35b634e487b7160e01b855260419052602484fd5b634e487b7160e01b865260418252602486fd5b5050346101d157816003193601126101d15760085490516001600160a01b039091168152602090f35b5050346101d157816003193601126101d15760209051633b9aca008152f35b5050346101d157816003193601126101d15760209060ff60085460a01c1690519015158152f35b5050346101d157816003193601126101d15760075490516001600160a01b039091168152602090f35b9050346102c45760203660031901126102c457359160115483101561045c575061044e602092610f70565b91905490519160031b1c8152f35b80fd5b919050346102c45760203660031901126102c457813567ffffffffffffffff811161062e576104919036908401610fbd565b906008549360ff8560a01c166105eb5782156105b2576001600160a01b0392836104ba8461115d565b16946bffffffffffffffffffffffff60a01b9586600154161760015581600110156105d857846104ec6020860161115d565b1686600254161760025581600210156105d85761050b8591850161115d565b1685600354161760035580600310156105c5578361052b6060850161115d565b1685835416178255808210156105c557836105486080850161115d565b1685600554161760055580600510156105c5578361056860a0850161115d565b16856006541617600655600610156105b2575060c0610587910161115d565b6007805490931691161790556001600160a81b0319163360ff60a01b191617600160a01b1760085580f35b634e487b7160e01b865260329052602485fd5b634e487b7160e01b875260328252602487fd5b634e487b7160e01b885260328352602488fd5b606490602085519162461bcd60e51b8352820152601c60248201527f536574757020697320616c726561647920696e697469616c697a6564000000006044820152fd5b8380fd5b9050346102c457816003193601126102c45761064c610ef2565b926024359067ffffffffffffffff821161045c573660238301121561045c57509261068661068c928560246106b0973693013591016110cb565b9061182f565b6106a28394929451948486958652850190611022565b908382036020850152611129565b0390f35b5050346101d157816003193601126101d1576020906012549051908152f35b5050346101d157816003193601126101d1576020906001600160801b03600e54169051908152f35b5050346101d157816003193601126101d157805190818093600a5490818552602080950191600a82527fc65a7bb8d6351c1cf70c95a316cc6a92839c986682d98bc35f958f4883f9d2a8915b868282106107705785906106b08861076184890385611091565b51928284938452830190611022565b83546001600160a01b031685528895509093019260019283019201610747565b919050346102c4576107a136610fee565b338652600b60205283862054929483156108a757506107c961086f93926107cf9236916110cb565b3361182f565b916108006107dc336119f9565b918288101561089c576107f08389926111bc565b926107fb8233611bfe565b6111bc565b61080a8133611c83565b85519081527fbce78369dccab09eec1986f4d409ab09ffbb47d65423e5148fcf98411c5111c960203392a27ff20651f7c9cd4e1c112f77cbf2a13a44f79d4165dd781c41b52052bfc888174a8551806108663394878784611204565b0390a233611ae0565b519081527fc7c8ab309277169a63ed070feed2a9c7de84e71be9d50f6f06c898458562561c60203392a280f35b6107f08380926111bc565b608490602086519162461bcd60e51b8352820152603060248201527f53746162696c697479506f6f6c3a2055736572206d757374206861766520612060448201526f1b9bdb8b5e995c9bc819195c1bdcda5d60821b6064820152fd5b5050346101d157816003193601126101d15760065490516001600160a01b039091168152602090f35b5050346101d157816003193601126101d157905490516001600160a01b039091168152602090f35b5050346101d157816003193601126101d157602090600d549051908152f35b5050346101d157816003193601126101d15760055490516001600160a01b039091168152602090f35b5050346101d15760203660031901126101d15760809181906001600160a01b036109c4610ef2565b168152600c602052206001810154916003600283015492015491815193845260208401526001600160801b03821690830152821c6060820152f35b9050346102c457610a0f36610fee565b928215610b9257338652610a326107c9602093600b8552878920549636916110cb565b929094610abd82610a4c610a45336119f9565b80946111bc565b96610a6381610a5d816009546111df565b956111df565b9584600955610a728733611c83565b610a7d888b33611ae0565b6001548b516323b872dd60e01b8152339281019283523060208401526040830193909352919384926001600160a01b03169183918e918391606090910190565b03925af18015610b8857927f8c9268469ff6265448f46f8119962e815f393b25b87bb55bda5e709a412b85d781610b5596947fbce78369dccab09eec1986f4d409ab09ffbb47d65423e5148fcf98411c5111c9947ff20651f7c9cd4e1c112f77cbf2a13a44f79d4165dd781c41b52052bfc888174a9b9c97610b5b575b508651908152a183519283523392a251928392339684611204565b0390a280f35b610b7a90833d8511610b81575b610b728183611091565b8101906111ec565b5038610b3a565b503d610b68565b88513d8b823e3d90fd5b608490602086519162461bcd60e51b8352820152602660248201527f53746162696c697479506f6f6c3a20416d6f756e74206d757374206265206e6f6044820152656e2d7a65726f60d01b6064820152fd5b5050346101d157816003193601126101d15760035490516001600160a01b039091168152602090f35b9050346102c457816003193601126102c457356001600160801b0380821680920361062e57928291602094610c40610fa7565b9183526010865283832091168252845220549051908152f35b5050346101d15760603660031901126101d157610c74610ef2565b610c7c610fa7565b604435916001600160801b0390818416809403610cc5576001600160a01b03168552600f6020908152848620919092168552815282842091845290815291819020549051908152f35b8580fd5b5050346101d157816003193601126101d157602090600e5460801c9051908152f35b5050346101d157816003193601126101d15760025490516001600160a01b039091168152602090f35b833461045c578060031936011261045c57805481906001600160a01b03811690610d3f338314611171565b6001600160a01b03191682557f8be0079c531659141344cd1fd0a4f28419497f9722a3daafe3b4186f6b6457e08280a380f35b919050346102c45760603660031901126102c457610d8e610f0d565b6006549091906001600160a01b03163303610db6575090610db3916044359135611232565b80f35b5162461bcd60e51b8152602081840181905260248201527f4f6e6c792063616c6c61626c65206279205661756c744f7065726174696f6e736044820152606490fd5b5050346101d157806003193601126101d15780602092610e16610ef2565b610e1e610f0d565b6001600160a01b039182168352600c865283832091168252845220549051908152f35b9050346102c45760203660031901126102c4573591600a5483101561045c5750610e6c602092610f23565b905491519160018060a01b039160031b1c168152f35b5050346101d15760203660031901126101d157602090610ea8610ea3610ef2565b6119f9565b9051908152f35b5050346101d157816003193601126101d1576020906009549051908152f35b8491346102c457826003193601126102c457546001600160a01b0316815260209150f35b600435906001600160a01b0382168203610f0857565b600080fd5b602435906001600160a01b0382168203610f0857565b600a54811015610f5a57600a6000527fc65a7bb8d6351c1cf70c95a316cc6a92839c986682d98bc35f958f4883f9d2a80190600090565b634e487b7160e01b600052603260045260246000fd5b601154811015610f5a5760116000527f31ecc21a745e3968a04e9570e4425bc18fa8019c68028196b546d1669c200c680190600090565b602435906001600160801b0382168203610f0857565b9181601f84011215610f085782359167ffffffffffffffff8311610f08576020808501948460051b010111610f0857565b906040600319830112610f0857600435916024359067ffffffffffffffff8211610f085761101e91600401610fbd565b9091565b90815180825260208080930193019160005b828110611042575050505090565b83516001600160a01b031685529381019392810192600101611034565b6020810190811067ffffffffffffffff82111761107b57604052565b634e487b7160e01b600052604160045260246000fd5b90601f8019910116810190811067ffffffffffffffff82111761107b57604052565b67ffffffffffffffff811161107b5760051b60200190565b92916110d6826110b3565b916110e46040519384611091565b829481845260208094019160051b8101928311610f0857905b82821061110a5750505050565b81356001600160a01b0381168103610f085781529083019083016110fd565b90815180825260208080930193019160005b828110611149575050505090565b83518552938101939281019260010161113b565b356001600160a01b0381168103610f085790565b1561117857565b606460405162461bcd60e51b815260206004820152602060248201527f4f776e61626c653a2063616c6c6572206973206e6f7420746865206f776e65726044820152fd5b919082039182116111c957565b634e487b7160e01b600052601160045260246000fd5b919082018092116111c957565b90816020910312610f0857518015158103610f085790565b93929161122d9061121f604093606088526060880190611022565b908682036020880152611129565b930152565b60095492600090841580156117a0575b6117995760018060a01b039485600554166040948786518099819963b31610db60e01b83521694600494868684015260209b8c9160249c8d915afa91821561178f57889261175c575b50670de0b6b3a76400009182880288810484148915171561162d576112c0906112b383610f70565b90549060031b1c906111df565b908286116117005785830361169e576112fc6112f685938c6012555b6112f06112e987836117bb565b96876117a8565b906111bc565b91610f70565b819291549060031b91821b91600019901b191617905582811161165c57600d54908084039284841161164a578b938e9361139b937fe799d8213ffd47c58af0bad222f3f83a7bacf689130d897017d6c2cb9346e8cb60808f958e908a600e548b6001600160801b039d8e83169b8c93881c9d8e96888352600f8552838320888452855283832086845285526113958d85852054926117a8565b906111df565b938493888352600f8152838320888452815283832091835252205581519384528b840152820152866060820152a187036115af57505050906113fd7fb50f0f59e7cb5b421dc77581c3a9919e3806e076e5fa78a874c3f120cb7d874d926117db565b928b519084168152a16001600160801b03199060801b16600e557f1f9dfc70cd666adb18a39d60a797518f7b4febf4b6e24ef37d44f6e1e7219fbe8a8951898152a15b80156115765789817fc1a9618cb59ebca77cbdbc2949f126823c407ff13edb285fd0262519a9c18e8c92600d558951908152a161147c826117f3565b6001541690813b15610cc5578651632770a7eb60e21b815230848201908152602081019290925291869183919082908490829060400103925af1801561156c57908894939291611530575b5085516323b872dd60e01b815233918101918252306020830152604082019390935291955085918290859082906060015b03925af191821561152657505061150d575050565b8161152392903d10610b8157610b728183611091565b50565b51903d90823e3d90fd5b919350949567ffffffffffffffff829593951161155b5750918594939187936114f8975293386114c7565b634e487b7160e01b83526041865282fd5b86513d87823e3d90fd5b875162461bcd60e51b81528085018b90526014818b015273053746162696c697479506f6f6c3a2050203d20360641b6044820152606490fd5b90919593506115be92506117a8565b633b9aca00908281048281101561163f575081810291818304149015171561162d579161160f8d927f1f9dfc70cd666adb18a39d60a797518f7b4febf4b6e24ef37d44f6e1e7219fbe9404946117db565b16806001600160801b0319600e541617600e558a51908152a1611440565b634e487b7160e01b8a52601187528b8afd5b945050505050611440565b634e487b7160e01b8b52601188528c8bfd5b895162461bcd60e51b81528087018d90526017818d01527f53746162696c697479506f6f6c3a204c6f7373203c20310000000000000000006044820152606490fd5b83860286810485148715171561164a576012546116ba916111bc565b916116c584846117bb565b92600184018094116116ee576112fc916116e66112f6926107fb88886117a8565b6012556112dc565b634e487b7160e01b8c52601189528d8cfd5b50895162461bcd60e51b81528087018d90526030818d01527f53746162696c697479506f6f6c3a2044656274206973206c617267657220746860448201526f616e20746f74616c4465706f7369747360801b6064820152608490fd5b9091508a81813d8311611788575b6117748183611091565b810103126117845751903861128b565b8780fd5b503d61176a565b89513d8a823e3d90fd5b5050505050565b508215611242565b818102929181159184041417156111c957565b81156117c5570490565b634e487b7160e01b600052601260045260246000fd5b9060016001600160801b03809316019182116111c957565b60206118227f8c9268469ff6265448f46f8119962e815f393b25b87bb55bda5e709a412b85d7926009546111bc565b80600955604051908152a1565b919060018060a01b03809316600090808252602090600b8252604090818420549081156119ba578493929352600c825282842091855193600195865b868110611978575061188c99611880876110b3565b9383519b8c9586611091565b878552601f1961189b896110b3565b013682870137829189880154976003810154918c8360801c956001600160801b03809516995b8d82106118db575050505050505050505050505050509190565b61196d8f93670de0b6b3a76400008f8f908f8f928f8f928f8f968f938f96633b9aca00938f9c9a61195b976119619a8f611918906119669f6119e5565b5116855282528484205492600f8352858520908552825261194e61194886862094898752858552878720546111bc565b976117db565b16835252205404906111df565b906117a8565b6117bb565b04926119e5565b52018f908e916118c1565b8a611986828b9996996119e5565b51168b61199760001984018c6119e5565b511610156119a957870195929561186b565b8251637243bc1760e11b8152600490fd5b505092505092508051906119cd8261105f565b83825251926119db8461105f565b8084523681379190565b8051821015610f5a5760209160051b010190565b6001600160a01b03166000908152600b60205260409020548015611a2d57600c6020526040600020611a2a91611a33565b90565b50600090565b9190916003600184015493015492600e548060801c8560801c10611ad7576000906001600160801b038080971691160394808611611ac357633b9aca00939495168015600014611a9b575050611a8f90611961600d54856117a8565b915b048110611a2d5790565b600103611abb5750611ab48291611961600d54866117a8565b0491611a91565b905091611a91565b634e487b7160e01b82526011600452602482fd5b50600093505050565b9080519183518303611bb957600093845b848110611b0057505050505050565b611b0a81836119e5565b518015611baf57611b66906001600160a01b03611b2784886119e5565b516040805163a9059cbb60e01b81526001600160a01b0389166004820152602481019490945260209490928592859291169082908d9082906044820190565b03925af1908115611ba65750906001939291611b88575b505001935b93611af1565b81611b9e92903d10610b8157610b728183611091565b503880611b7d565b513d8a823e3d90fd5b5060010193611b82565b60405162461bcd60e51b815260206004820152601e60248201527f53746162696c697479506f6f6c3a204c656e677468206d69736d6174636800006044820152606490fd5b908015611c7f5760015460405163a9059cbb60e01b81526001600160a01b039384166004820152602481018390529260209184916044918391600091165af1918215611c7357611c5392611c55575b506117f3565b565b611c6c9060203d8111610b8157610b728183611091565b5038611c4d565b6040513d6000823e3d90fd5b5050565b91909160018060a01b0380911690600090828252602091600b83526040928684832055835196878883600a549283815201600a86527fc65a7bb8d6351c1cf70c95a316cc6a92839c986682d98bc35f958f4883f9d2a892865b86828210611e5357505050611cf392500389611091565b8751868452600c938484528681209215611dd457600e54946001600160801b038616928660801c91600d5498845b838110611d8d57505050507fc48943df4095f4f20d171fd2872eafdc0eed4d9014ac3672f3bde7fd425449d598999a5081889160039493526010865281812083825286522054948660018501558560028501556001600160801b031916179101558351928352820152a2565b808f8d8f91611d9f60019587926119e5565b511690818a52600f8d52808a20898b528d52808a208b8b528d52808a2054928a52868d5289209089528b528d88205501611d21565b98919389959193955b848110611e2b57505050505094806003878260017fc48943df4095f4f20d171fd2872eafdc0eed4d9014ac3672f3bde7fd425449d598999a01558260028201550155825191818352820152a2565b600190898c52828852888c2084611e4283886119e5565b51168d5288528b8981205501611ddd565b85548a1684526001958601958e955093019201611cdc56","linkReferences":{}},"methodIdentifiers":{"P()":"8b8fbd92","S(address,address)":"4e8338eb","SCALE_FACTOR()":"ce4b5bbe","addCollateralType(address)":"ec0d5e0c","currentEpoch()":"76671808","currentScale()":"a4e59ac8","debtToken()":"f8d89898","deposit(uint256,address[])":"85d7cf86","depositSnapshots(address)":"86da0824","deposits(address)":"fc7e286d","epochToScaleToG(uint128,uint128)":"82e0a574","epochToScaleToSum(address,uint128,uint128)":"7ee4196b","getCompoundedDebtTokenDeposits(address)":"121f2b26","getDepositorGains(address,address[])":"ad3018f0","getTotalDebtTokenDeposits()":"0d9a6b35","getValidCollateral()":"9d6aea0a","isAddressSetupInitialized()":"c8564c62","keikoDeployer()":"ea8db462","lastAssetError_Offset(uint256)":"be35d3bd","lastDebtTokenLossError_Offset()":"a7a48884","offsetDebt(uint256,address,uint256)":"59caa996","owner()":"8da5cb5b","priceFeed()":"741bef1a","renounceOwnership()":"715018a6","setAddresses(address[])":"b9571721","stabilityPool()":"048c661d","totalDebtTokenDeposits()":"0a68f2d7","transferOwnership(address)":"f2fde38b","treasuryAddress()":"c5f956af","validCollaterals(uint256)":"13afb188","vaultManager()":"8a4adf24","vaultOperations()":"9718cf59","vaultSorter()":"841f0ebb","withdraw(uint256,address[])":"99eca69f"},"id":19}