{"abi":[{"type":"function","name":"contains","inputs":[{"name":"_asset","type":"address","internalType":"address"},{"name":"_id","type":"address","internalType":"address"}],"outputs":[{"name":"","type":"bool","internalType":"bool"}],"stateMutability":"view"},{"type":"function","name":"data","inputs":[{"name":"","type":"address","internalType":"address"}],"outputs":[{"name":"head","type":"address","internalType":"address"},{"name":"tail","type":"address","internalType":"address"},{"name":"size","type":"uint256","internalType":"uint256"}],"stateMutability":"view"},{"type":"function","name":"debtToken","inputs":[],"outputs":[{"name":"","type":"address","internalType":"address"}],"stateMutability":"view"},{"type":"function","name":"findInsertPosition","inputs":[{"name":"_asset","type":"address","internalType":"address"},{"name":"_ARS","type":"uint256","internalType":"uint256"},{"name":"_prevId","type":"address","internalType":"address"},{"name":"_nextId","type":"address","internalType":"address"}],"outputs":[{"name":"","type":"address","internalType":"address"},{"name":"","type":"address","internalType":"address"}],"stateMutability":"nonpayable"},{"type":"function","name":"getFirst","inputs":[{"name":"_asset","type":"address","internalType":"address"}],"outputs":[{"name":"","type":"address","internalType":"address"}],"stateMutability":"view"},{"type":"function","name":"getLast","inputs":[{"name":"_asset","type":"address","internalType":"address"}],"outputs":[{"name":"","type":"address","internalType":"address"}],"stateMutability":"view"},{"type":"function","name":"getNext","inputs":[{"name":"_asset","type":"address","internalType":"address"},{"name":"_id","type":"address","internalType":"address"}],"outputs":[{"name":"","type":"address","internalType":"address"}],"stateMutability":"view"},{"type":"function","name":"getPrev","inputs":[{"name":"_asset","type":"address","internalType":"address"},{"name":"_id","type":"address","internalType":"address"}],"outputs":[{"name":"","type":"address","internalType":"address"}],"stateMutability":"view"},{"type":"function","name":"getSize","inputs":[{"name":"_asset","type":"address","internalType":"address"}],"outputs":[{"name":"","type":"uint256","internalType":"uint256"}],"stateMutability":"view"},{"type":"function","name":"insertVault","inputs":[{"name":"_asset","type":"address","internalType":"address"},{"name":"_id","type":"address","internalType":"address"},{"name":"_ARS","type":"uint256","internalType":"uint256"},{"name":"_prevId","type":"address","internalType":"address"},{"name":"_nextId","type":"address","internalType":"address"}],"outputs":[],"stateMutability":"nonpayable"},{"type":"function","name":"isAddressSetupInitialized","inputs":[],"outputs":[{"name":"","type":"bool","internalType":"bool"}],"stateMutability":"view"},{"type":"function","name":"isEmpty","inputs":[{"name":"_asset","type":"address","internalType":"address"}],"outputs":[{"name":"","type":"bool","internalType":"bool"}],"stateMutability":"view"},{"type":"function","name":"keikoDeployer","inputs":[],"outputs":[{"name":"","type":"address","internalType":"address"}],"stateMutability":"view"},{"type":"function","name":"owner","inputs":[],"outputs":[{"name":"","type":"address","internalType":"address"}],"stateMutability":"view"},{"type":"function","name":"priceFeed","inputs":[],"outputs":[{"name":"","type":"address","internalType":"address"}],"stateMutability":"view"},{"type":"function","name":"reInsertVault","inputs":[{"name":"_asset","type":"address","internalType":"address"},{"name":"_id","type":"address","internalType":"address"},{"name":"_newARS","type":"uint256","internalType":"uint256"},{"name":"_prevId","type":"address","internalType":"address"},{"name":"_nextId","type":"address","internalType":"address"}],"outputs":[],"stateMutability":"nonpayable"},{"type":"function","name":"removeVault","inputs":[{"name":"_asset","type":"address","internalType":"address"},{"name":"_id","type":"address","internalType":"address"}],"outputs":[],"stateMutability":"nonpayable"},{"type":"function","name":"renounceOwnership","inputs":[],"outputs":[],"stateMutability":"nonpayable"},{"type":"function","name":"setAddresses","inputs":[{"name":"_addresses","type":"address[]","internalType":"address[]"}],"outputs":[],"stateMutability":"nonpayable"},{"type":"function","name":"stabilityPool","inputs":[],"outputs":[{"name":"","type":"address","internalType":"address"}],"stateMutability":"view"},{"type":"function","name":"transferOwnership","inputs":[{"name":"newOwner","type":"address","internalType":"address"}],"outputs":[],"stateMutability":"nonpayable"},{"type":"function","name":"treasuryAddress","inputs":[],"outputs":[{"name":"","type":"address","internalType":"address"}],"stateMutability":"view"},{"type":"function","name":"validInsertPosition","inputs":[{"name":"_asset","type":"address","internalType":"address"},{"name":"_ARS","type":"uint256","internalType":"uint256"},{"name":"_prevId","type":"address","internalType":"address"},{"name":"_nextId","type":"address","internalType":"address"}],"outputs":[{"name":"","type":"bool","internalType":"bool"}],"stateMutability":"nonpayable"},{"type":"function","name":"vaultManager","inputs":[],"outputs":[{"name":"","type":"address","internalType":"address"}],"stateMutability":"view"},{"type":"function","name":"vaultOperations","inputs":[],"outputs":[{"name":"","type":"address","internalType":"address"}],"stateMutability":"view"},{"type":"function","name":"vaultSorter","inputs":[],"outputs":[{"name":"","type":"address","internalType":"address"}],"stateMutability":"view"},{"type":"event","name":"NodeAdded","inputs":[{"name":"_asset","type":"address","indexed":true,"internalType":"address"},{"name":"_id","type":"address","indexed":false,"internalType":"address"},{"name":"_NICR","type":"uint256","indexed":false,"internalType":"uint256"}],"anonymous":false},{"type":"event","name":"NodeRemoved","inputs":[{"name":"_asset","type":"address","indexed":true,"internalType":"address"},{"name":"_id","type":"address","indexed":false,"internalType":"address"}],"anonymous":false},{"type":"event","name":"OwnershipTransferred","inputs":[{"name":"previousOwner","type":"address","indexed":true,"internalType":"address"},{"name":"newOwner","type":"address","indexed":true,"internalType":"address"}],"anonymous":false}],"bytecode":{"object":"0x6080806040523461005b5760008054336001600160a01b0319821681178355916001600160a01b03909116907f8be0079c531659141344cd1fd0a4f28419497f9722a3daafe3b4186f6b6457e09080a361185190816100618239f35b600080fdfe608060408181526004918236101561001657600080fd5b600092833560e01c918263048c661d14610920575081631bdb4c8d146108e557816339ed25cd146108915781633b725b2314610851578163504f167114610815578163715018a6146107b7578163741bef1a1461078e578163760827151461074f578163841f0ebb146107265781638a4adf24146106fd5781638da5cb5b146106d55781639718cf59146106ac578163b7d3824314610682578163b90d3d0c1461062d578163b957172114610443578163bff365c4146103ff578163c5f956af146103d6578163c8564c62146103af578163e71b84001461035f578163ea8db46214610336578163eac514e014610318578163eceea2fb146102f0578163ecf9db141461028a578163ed26cae814610239578163f2fde38b1461016e575063f8d898981461014357600080fd5b3461016a578160031936011261016a5760015490516001600160a01b039091168152602090f35b5080fd5b90503461023557602036600319011261023557610189610944565b83546001600160a01b038082169391926101a4338614611806565b169384156101e35750506001600160a01b031916821783557f8be0079c531659141344cd1fd0a4f28419497f9722a3daafe3b4186f6b6457e08380a380f35b906020608492519162461bcd60e51b8352820152602660248201527f4f776e61626c653a206e6577206f776e657220697320746865207a65726f206160448201526564647265737360d01b6064820152fd5b8280fd5b50503461016a578060031936011261016a5760ff81602093610259610944565b61026161095f565b6001600160a01b0391821683526009875283832091168252600301855220549151911615158152f35b50503461016a576102d36102ed9160ff6102a3366109b7565b969194909560018060a09695961b038085168b5260096020526003828c20019086168b5260205289205416610d97565b6102de831515610a19565b6102e88282610df7565b610a71565b80f35b50503461016a5760209061030f61030636610975565b92919091610fe3565b90519015158152f35b8334610333576102ed61032a366109b7565b93929092610a71565b80fd5b50503461016a578160031936011261016a5760085490516001600160a01b039091168152602090f35b50503461016a578060031936011261016a5760209160018261037f610944565b9261038861095f565b838060a01b0380951682526009875284600384842001911682528652200154169051908152f35b50503461016a578160031936011261016a5760209060ff60085460a01c1690519015158152f35b50503461016a578160031936011261016a5760075490516001600160a01b039091168152602090f35b50503461016a5761043f9061041f61041636610975565b92919091611337565b91516001600160a01b039182168152911660208201529081906040820190565b0390f35b9050346102355760203660031901126102355767ffffffffffffffff9080358281116106295736602382011215610629578082013592831161062957602436818560051b84010111610625576008549460ff8660a01c166105e3575083156105d2576001600160a01b0392836104ba848401610a05565b16946001600160601b0360a01b9586600154161760015580600110156105c057846104e760448601610a05565b1686600254161760025580600210156105c0578461050760648601610a05565b1686600354161760035580600310156105c0578461052760848601610a05565b1686835416178255808210156105c0578461054460a48601610a05565b1686600554161760055580600510156105c0578461056460c48601610a05565b16866006541617600655600610156105af57505060e46105849101610a05565b6007805490931691161790556001600160a81b0319163360ff60a01b191617600160a01b1760085580f35b634e487b7160e01b87526032905285fd5b50634e487b7160e01b87526032905285fd5b634e487b7160e01b86526032835285fd5b601c60649260208693519362461bcd60e51b85528401528201527f536574757020697320616c726561647920696e697469616c697a6564000000006044820152fd5b8580fd5b8480fd5b50503461016a57602036600319011261016a576060916001600160a01b039190819083610658610944565b16815260096020522090600283835416936001840154169201549181519384526020840152820152f35b50503461016a57366003190112610333576102ed61069e610944565b6106a661095f565b90610df7565b50503461016a578160031936011261016a5760065490516001600160a01b039091168152602090f35b50503461016a578160031936011261016a57905490516001600160a01b039091168152602090f35b50503461016a578160031936011261016a5760055490516001600160a01b039091168152602090f35b50503461016a578160031936011261016a5760035490516001600160a01b039091168152602090f35b50503461016a57602036600319011261016a576020916001600160a01b039060019083908361077c610944565b16815260098652200154169051908152f35b50503461016a578160031936011261016a5760025490516001600160a01b039091168152602090f35b8334610333578060031936011261033357805481906001600160a01b038116906107e2338314611806565b6001600160a01b03191682557f8be0079c531659141344cd1fd0a4f28419497f9722a3daafe3b4186f6b6457e08280a380f35b50503461016a57602036600319011261016a5760209160029082906001600160a01b03610840610944565b168152600985522001549051908152f35b50503461016a57602036600319011261016a5760209061030f610872610944565b6001600160a01b03166000908152600960205260409020600201541590565b50503461016a578060031936011261016a57602091816108af610944565b916108b861095f565b6001600160a01b03938416825260098652828220908416825260030185522054915160089290921c168152f35b50503461016a57602036600319011261016a576020916001600160a01b039082908261090f610944565b168152600985522054169051908152f35b849134610235578260031936011261023557546001600160a01b0316815260209150f35b600435906001600160a01b038216820361095a57565b600080fd5b602435906001600160a01b038216820361095a57565b608090600319011261095a576001600160a01b0390600435828116810361095a579160243591604435828116810361095a5791606435908116810361095a5790565b60a090600319011261095a576001600160a01b03600435818116810361095a5791602435828116810361095a579160443591606435828116810361095a5791608435908116810361095a5790565b356001600160a01b038116810361095a5790565b15610a2057565b60405162461bcd60e51b815260206004820152602360248201527f536f7274656456657373656c733a20415253206d75737420626520706f73697460448201526269766560e81b6064820152608490fd5b919493909460018060a01b038084169460009788948786526020936009855260409788882093600385019360ff8b8584169b8c8152878b52205416610d3d578915610cfb578d9695949392918b8b92610acb8c1515610a19565b888c8296610adb84848484610fe3565b15610ce1575b5050505088836002999a52868b52818120948660019b8c60ff1989541617885516908115808091610cd7575b15610b8d57505050505050505050506001600160601b0360a01b868183541617825586848301918254161790555b018054918201809211610b79577fa74a9cd584cc27d44e7f746f6715fae75b600cc5eb8f85a95752788d6b4547a596979850558351928352820152a2565b634e487b7160e01b89526011600452602489fd5b15610bec57505087548554610100600160a81b03191690871660081b610100600160a81b03161790945550610bc192505050565b8254168b528452868a20830180546001600160a01b0319908116881790915581541686178155610b3b565b8b88829a94959697999a16918215600014610c5a57508a018054978d0180546001600160a01b0319908116998c169990991790558054909916845250508a52208054610100600160a81b03191660089290921b610100600160a81b0316919091179055825416179055610b3b565b8854610100600160a81b03191660089190911b610100600160a81b03161788559198509650610cc3959091500180546001600160a01b03199081168817909155958152208054610100600160a81b03191660089290921b610100600160a81b0316919091179055565b8b528684898d200191825416179055610b3b565b5088821615610b0d565b60029b50610cf0949750611337565b939097388c81610ae1565b6064888c519062461bcd60e51b825280600483015260248201527f536f7274656456657373656c733a2049642063616e6e6f74206265207a65726f6044820152fd5b8a5162461bcd60e51b815260048101899052602d60248201527f536f7274656456657373656c733a204c69737420616c726561647920636f6e7460448201526c61696e7320746865206e6f646560981b6064820152608490fd5b15610d9e57565b60405162461bcd60e51b815260206004820152602b60248201527f536f7274656456657373656c733a204c69737420646f6573206e6f7420636f6e60448201526a1d185a5b881d1a19481a5960aa1b6064820152608490fd5b91909160018060a01b038091169060009382855260209160098352604090868281208260038201951694858352808752610e3660ff8685205416610d97565b85835280875284832091600281019460019384875411600014610f8a5784828454168a14600014610ee957505460081c166001600160601b0360a01b918183825416179055845281885282868520019081541690555b858352865283822082815501558054600019810191908211610ed5577f202321eaea3aa2b5e1e2ef1dfd98a9d6ba8c90e293f5dc2755b32eb921a47797959697505551908152a2565b634e487b7160e01b88526011600452602488fd5b8091930192828454168a14600014610f2d57015482546001600160a01b031916911690811790915583528087528483208054610100600160a81b0319169055610e8c565b80548682018054851689528a89208054610100600160a81b03600894851c8816851b16610100600160a81b0319909116179055549154901c83168752888720860180546001600160a01b031916919093161790915550610e8c9050565b5050826001600160601b0360a01b9182815416815501908154169055610e8c565b90601f8019910116810190811067ffffffffffffffff821117610fcd57604052565b634e487b7160e01b600052604160045260246000fd5b6001600160a01b03939092909190848116908115808061132d575b1561102d57505050505061102a915060018060a01b031660005260096020526002604060002001541590565b90565b156110f8575050600091848416835260096020528460408420541685821614938461105c575b50505050905090565b600554604051632438f1d560e21b81526001600160a01b039283166004820152929091166024830152929491935091602091839160449183918891165af19283156110ec5780936110b6575b505010158038808080611053565b909192506020823d82116110e4575b816110d260209383610fab565b810103126103335750519038806110a8565b3d91506110c5565b604051903d90823e3d90fd5b909285811690816111bc575050600092858516845260096020528560016040862001541614938461112c5750505050905090565b600554604051632438f1d560e21b81526001600160a01b039283166004820152929091166024830152929491935091602091839160449183918891165af19283156110ec578093611186575b505011158038808080611053565b909192506020823d82116111b4575b816111a260209383610fab565b81010312610333575051903880611178565b3d9150611195565b9091959293946000938082168552602093600985526040976003898820019087528552818887205460081c1614978861129c575b5087611201575b5050505050505090565b6005548751632438f1d560e21b81526001600160a01b039384166004820152929093166024830152959650939482918591168185816044810103925af19485156112915750819461125e575b5050501015388080808080806111f7565b909180939450813d831161128a575b6112778183610fab565b810103126103335750519038808061124d565b503d61126d565b51913d9150823e3d90fd5b6005548851632438f1d560e21b81526001600160a01b0385811660048301529290921660248301529198509084908290604490829089908d165af19081156113235790869186916112f2575b50101596386111f0565b809250858092503d831161131c575b61130b8183610fab565b8101031261062957859051386112e8565b503d611301565b87513d87823e3d90fd5b5086851615610ffe565b91926001600160a01b0390808286168681611497575b505082811690816113c8575b5050848216159485806113be575b1561138f57505061138b93508083166000526009602052604060002054169161155b565b9091565b919093946000146113a557505061138b92611696565b9092166113b55761138b9261155b565b61138b9261155b565b5082821615611367565b60009184871683526020906009825260036040852001908452815260ff60408420541615918215611409575b5050611401575b80611359565b9050386113fb565b600554604051632438f1d560e21b81526001600160a01b038a811660048301529290921660248301529192509082908290604490829087908a165af191821561148c57839261145e575b5050841038806113f4565b90809250813d8311611485575b6114758183610fab565b8101031261016a57513880611453565b503d61146b565b6040513d85823e3d90fd5b60009185881683526020906009825260036040852001908452815260ff604084205416159182156114d8575b50506114d0575b8061134d565b9550386114ca565b600554604051632438f1d560e21b81526001600160a01b038b811660048301529290921660248301529192509082908290604490829087908b165af191821561148c57839261152d575b5050851138806114c3565b90809250813d8311611554575b6115448183610fab565b8101031261016a57513880611522565b503d61153a565b9092919260018060a01b03936000918584168352602090600982526040948585209688885416948981168096148061160b575b6115fd5760039098019486528484528686205497896008998a1c165b8a821691821515806115ea575b156115db57505086528484528887872054891c1680875289888820548a1c166115aa565b9a509850909650505050505050565b506115f782828888610fe3565b156115b7565b985096505050505090509190565b506005548851632438f1d560e21b81526001600160a01b0380861660048301528316602482015290869082908d16818b816044810103925af190811561168c57889161165b575b5084101561158e565b90508581813d8311611685575b6116728183610fab565b81010312611681575138611652565b8780fd5b503d611668565b89513d8a823e3d90fd5b90929160018060a01b039060008284168152602091600983526040928383209760019686888b015416938781168095148061177d575b61176f579160038997959398969492989b019284528282528587868620015416985b6116ff575b50505050505050509190565b919395979092949699878116918b828286861515938461175b575b50505050156117535750509084939291889695528282528686868620015416998a855287878787200154169897959493929190976116ee565b9850996116f3565b6117659450610fe3565b158282868f61171a565b975050505050945050509190565b506005548751632438f1d560e21b81526001600160a01b03848116600483015283166024820152908590829060449082908b908e165af19081156117fc5787916117cb575b508311156116cc565b90508481813d83116117f5575b6117e28183610fab565b810103126117f15751386117c2565b8680fd5b503d6117d8565b88513d89823e3d90fd5b1561180d57565b606460405162461bcd60e51b815260206004820152602060248201527f4f776e61626c653a2063616c6c6572206973206e6f7420746865206f776e65726044820152fd","linkReferences":{}},"methodIdentifiers":{"contains(address,address)":"ed26cae8","data(address)":"b90d3d0c","debtToken()":"f8d89898","findInsertPosition(address,uint256,address,address)":"bff365c4","getFirst(address)":"1bdb4c8d","getLast(address)":"76082715","getNext(address,address)":"39ed25cd","getPrev(address,address)":"e71b8400","getSize(address)":"504f1671","insertVault(address,address,uint256,address,address)":"eac514e0","isAddressSetupInitialized()":"c8564c62","isEmpty(address)":"3b725b23","keikoDeployer()":"ea8db462","owner()":"8da5cb5b","priceFeed()":"741bef1a","reInsertVault(address,address,uint256,address,address)":"ecf9db14","removeVault(address,address)":"b7d38243","renounceOwnership()":"715018a6","setAddresses(address[])":"b9571721","stabilityPool()":"048c661d","transferOwnership(address)":"f2fde38b","treasuryAddress()":"c5f956af","validInsertPosition(address,uint256,address,address)":"eceea2fb","vaultManager()":"8a4adf24","vaultOperations()":"9718cf59","vaultSorter()":"841f0ebb"},"id":22}