{"abi":[{"type":"constructor","inputs":[{"name":"_token1","type":"address","internalType":"address"},{"name":"_uniswapRouter","type":"address","internalType":"address"},{"name":"_uniswapFactory","type":"address","internalType":"address"}],"stateMutability":"nonpayable"},{"type":"function","name":"DEADLINE_EXTENSION","inputs":[],"outputs":[{"name":"","type":"uint256","internalType":"uint256"}],"stateMutability":"view"},{"type":"function","name":"SLIPPAGE_TOLERANCE","inputs":[],"outputs":[{"name":"","type":"uint256","internalType":"uint256"}],"stateMutability":"view"},{"type":"function","name":"addLiquidity","inputs":[{"name":"token2","type":"address","internalType":"address"}],"outputs":[],"stateMutability":"nonpayable"},{"type":"function","name":"owner","inputs":[],"outputs":[{"name":"","type":"address","internalType":"address"}],"stateMutability":"view"},{"type":"function","name":"removeLiquidity","inputs":[{"name":"recipient","type":"address","internalType":"address"},{"name":"token2","type":"address","internalType":"address"}],"outputs":[],"stateMutability":"nonpayable"},{"type":"function","name":"renounceOwnership","inputs":[],"outputs":[],"stateMutability":"nonpayable"},{"type":"function","name":"swapHalf","inputs":[{"name":"token2","type":"address","internalType":"address"}],"outputs":[],"stateMutability":"nonpayable"},{"type":"function","name":"token1","inputs":[],"outputs":[{"name":"","type":"address","internalType":"contract IERC20"}],"stateMutability":"view"},{"type":"function","name":"transferLiquidity","inputs":[{"name":"token","type":"address","internalType":"address"},{"name":"recipient","type":"address","internalType":"address"},{"name":"amount","type":"uint256","internalType":"uint256"}],"outputs":[],"stateMutability":"nonpayable"},{"type":"function","name":"transferOwnership","inputs":[{"name":"newOwner","type":"address","internalType":"address"}],"outputs":[],"stateMutability":"nonpayable"},{"type":"function","name":"uniswapFactory","inputs":[],"outputs":[{"name":"","type":"address","internalType":"contract IUniswapV2Factory"}],"stateMutability":"view"},{"type":"function","name":"uniswapRouter","inputs":[],"outputs":[{"name":"","type":"address","internalType":"contract IUniswapV2Router02"}],"stateMutability":"view"},{"type":"event","name":"LiquidityAdded","inputs":[{"name":"token2","type":"address","indexed":true,"internalType":"address"},{"name":"token1Amount","type":"uint256","indexed":false,"internalType":"uint256"},{"name":"token2Amount","type":"uint256","indexed":false,"internalType":"uint256"}],"anonymous":false},{"type":"event","name":"LiquidityRemoved","inputs":[{"name":"token2","type":"address","indexed":true,"internalType":"address"},{"name":"token1Amount","type":"uint256","indexed":false,"internalType":"uint256"},{"name":"token2Amount","type":"uint256","indexed":false,"internalType":"uint256"}],"anonymous":false},{"type":"event","name":"OwnershipTransferred","inputs":[{"name":"previousOwner","type":"address","indexed":true,"internalType":"address"},{"name":"newOwner","type":"address","indexed":true,"internalType":"address"}],"anonymous":false},{"type":"event","name":"TokenSwapped","inputs":[{"name":"fromToken","type":"address","indexed":true,"internalType":"address"},{"name":"toToken","type":"address","indexed":true,"internalType":"address"},{"name":"amountIn","type":"uint256","indexed":false,"internalType":"uint256"},{"name":"amountOut","type":"uint256","indexed":false,"internalType":"uint256"}],"anonymous":false}],"bytecode":{"object":"0x60e034620001d957601f6200142b38819003918201601f19168301916001600160401b03831184841017620001de57808492606094604052833981010312620001d9576200004d81620001f4565b906200006a60406200006260208401620001f4565b9201620001f4565b60008054336001600160a01b03198216811783556040516001600160a01b039694959094909387939192918416907f8be0079c531659141344cd1fd0a4f28419497f9722a3daafe3b4186f6b6457e09080a316918215620001975750831690811515806200018b575b15620001465760805260a0521660c05260405161122190816200020a82396080518181816101e001528181610698015281816108210152610cb4015260a051818181610331015281816108e901528181610bc10152610d00015260c05181818161027f015281816108710152610b7d0152f35b60405162461bcd60e51b815260206004820152601960248201527f496e76616c696420556e697377617020616464726573736573000000000000006044820152606490fd5b508383161515620000d3565b62461bcd60e51b815260206004820152601560248201527f496e76616c696420746f6b656e206164647265737300000000000000000000006044820152606490fd5b600080fd5b634e487b7160e01b600052604160045260246000fd5b51906001600160a01b0382168203620001d95756fe6040608081526004908136101561001557600080fd5b600091823560e01c9081633faafe6914610c6d5781634c20378614610c51578163715018a614610bf0578163735de9f714610bac5781638bdb2afa14610b685781638da5cb5b14610b405781639cf38f7c146107ce578163c053cece146106c7578163d21220a714610683578163e3412e3d14610191578163f2fde38b146100c6575063ffe6f79a146100a757600080fd5b346100c257816003193601126100c2576020905161012c8152f35b5080fd5b90503461018d57602036600319011261018d576100e1611013565b83546001600160a01b038082169391926100fc338614611044565b1693841561013b5750506001600160a01b031916821783557f8be0079c531659141344cd1fd0a4f28419497f9722a3daafe3b4186f6b6457e08380a380f35b906020608492519162461bcd60e51b8352820152602660248201527f4f776e61626c653a206e6577206f776e657220697320746865207a65726f206160448201526564647265737360d01b6064820152fd5b8280fd5b9190503461018d576020908160031936011261067f576101af611013565b845490936001600160a01b03916101c99083163314611044565b82516370a0823160e01b80825230838301526024927f0000000000000000000000000000000000000000000000000000000000000000851692909187828681875afa918215610675578a92610642575b508589169887519182523084830152888287818d5afa9182156105c3578b9261060f575b5082151580610606575b156105cd57875163e6a4390560e01b81526001600160a01b03808716868301908152921660208301529089908290819060400103818a7f0000000000000000000000000000000000000000000000000000000000000000165afa9081156105c35790879392918c91610596575b50885190630240bc6b60e21b825281868160609b8c94165afa801561050a578c918d9161053b575b50670de0b6b3a76400006001600160701b03918216818102939181159185041417156104cb57916103149161031a95949316906110c7565b916111d2565b875163095ea7b360e01b8082526001600160a01b037f0000000000000000000000000000000000000000000000000000000000000000909516948516868301908152602081018590528d92908c90829081906040010381868c5af1801561053157908c9291610514575b508a519081526001600160a01b03861687820190815260208101859052909283918290036040019082908f5af1801561050a576104dd575b50612710806103ca84611165565b04906103d583611165565b049161012c4201938442116104cb579261010495928a989795928f958f8e519c8d9b8c9a62e8e33760e81b8c528b015289015260448801526064870152608486015260a48501523060c485015260e48401525af19081156104c15786928792610469575b50507fac1d76749e5447b7b16f5ab61447e1bd502f3bb4807af3b28e620d1700a6ee45938351928352820152a280f35b8193508092503d83116104ba575b610481818361108f565b810103126104b6578051908301517fac1d76749e5447b7b16f5ab61447e1bd502f3bb4807af3b28e620d1700a6ee4538610439565b8480fd5b503d610477565b83513d88823e3d90fd5b634e487b7160e01b8e5260118752888efd5b6104fc908a3d8c11610503575b6104f4818361108f565b8101906110e7565b50386103bc565b503d6104ea565b89513d8e823e3d90fd5b61052a90833d8511610503576104f4818361108f565b5038610384565b8b513d85823e3d90fd5b809250898092503d831161058f575b610554818361108f565b8101031261058b5761056581611151565b896105718c8401611151565b92015163ffffffff8116036105875790386102dc565b8c80fd5b8b80fd5b503d61054a565b6105b691508a3d8c116105bc575b6105ae818361108f565b810190611132565b386102b4565b503d6105a4565b88513d8d823e3d90fd5b875162461bcd60e51b81528085018a905260148188015273496e73756666696369656e742062616c616e636560601b6044820152606490fd5b50811515610247565b9091508881813d831161063b575b610627818361108f565b810103126106375751903861023d565b8a80fd5b503d61061d565b9091508781813d831161066e575b61065a818361108f565b8101031261066a57519038610219565b8980fd5b503d610650565b87513d8c823e3d90fd5b8380fd5b5050346100c257816003193601126100c257517f00000000000000000000000000000000000000000000000000000000000000006001600160a01b03168152602090f35b839150346100c25760603660031901126100c2576106e3611013565b6106eb61102e565b8354604435936001600160a01b03916107079083163314611044565b6107148284161515611192565b841561078b57865163a9059cbb60e01b81526001600160a01b039093169083019081526020818101959095529193869390928592839188919083906040010393165af19081156107825750610767575080f35b61077e9060203d8111610503576104f4818361108f565b5080f35b513d84823e3d90fd5b606490602088519162461bcd60e51b8352820152601d60248201527f416d6f756e74206d7573742062652067726561746572207468616e20300000006044820152fd5b90503461018d578160031936011261018d576107e8611013565b916107f161102e565b61081360018060a01b03809561080b828954163314611044565b161515611192565b815163e6a4390560e01b81527f000000000000000000000000000000000000000000000000000000000000000085166001600160a01b038181168684019081529084166020808301919091529591929086908290819060400103818a7f0000000000000000000000000000000000000000000000000000000000000000165afa908115610b36579087918991610b19575b50168015610ad65784516370a0823160e01b81523083820152968688602481855afa978815610acc578998610a99575b508715610a5d57855163095ea7b360e01b81527f000000000000000000000000000000000000000000000000000000000000000082166001600160a01b038116858301908152602081018b90529093899183919082908e90829060400103925af1801561067557610a40575b5061012c420190814211610a2d5760e492879594928b9287519889978896635d5155ef60e11b8852870152169a8b602486015260448501528260648501528260848501523060a485015260c48401525af18015610a2357859186916109cf575b507f96cd817c6329656790ef8fba7675405193677d39619571282f5e21f3a98cd059938351928352820152a280f35b809250838092503d8311610a1c575b6109e8818361108f565b810103126104b6578051908301517f96cd817c6329656790ef8fba7675405193677d39619571282f5e21f3a98cd0596109a0565b503d6109de565b82513d87823e3d90fd5b634e487b7160e01b8a526011845260248afd5b610a5690883d8a11610503576104f4818361108f565b5038610940565b855162461bcd60e51b815280840188905260166024820152754e6f206c697175696469747920746f2072656d6f766560501b6044820152606490fd5b9097508681813d8311610ac5575b610ab1818361108f565b81010312610ac1575196386108d4565b8880fd5b503d610aa7565b86513d8b823e3d90fd5b845162461bcd60e51b8152808301879052601d60248201527f4c6971756964697479207061697220646f6573206e6f742065786973740000006044820152606490fd5b610b309150873d89116105bc576105ae818361108f565b386108a4565b85513d8a823e3d90fd5b5050346100c257816003193601126100c257905490516001600160a01b039091168152602090f35b5050346100c257816003193601126100c257517f00000000000000000000000000000000000000000000000000000000000000006001600160a01b03168152602090f35b5050346100c257816003193601126100c257517f00000000000000000000000000000000000000000000000000000000000000006001600160a01b03168152602090f35b8334610c4e5780600319360112610c4e57805481906001600160a01b03811690610c1b338314611044565b6001600160a01b03191682557f8be0079c531659141344cd1fd0a4f28419497f9722a3daafe3b4186f6b6457e08280a380f35b80fd5b5050346100c257816003193601126100c2576020905160648152f35b90503461018d576020908160031936011261067f57610c8a611013565b9260018060a01b0391610ca1838754163314611044565b81516370a0823160e01b815230828201527f00000000000000000000000000000000000000000000000000000000000000008416946024949091828187818a5afa908115610f28578991610fe6575b506001811115610fa45760011c817f000000000000000000000000000000000000000000000000000000000000000016855163095ea7b360e01b815284818c8180610d5388888d840160209093929193604081019460018060a01b031681520152565b03918d5af18015610f9a57610f7d575b50855191606083019367ffffffffffffffff9484811086821117610f6b5788526002845285840191883684378a610d99866110ff565b5281610da486611122565b9c16809c5261012c420191824211610f5957918d9492898c97878d97959751998a986338ed173960e01b8a5260a48a01948a015288015260a060448801525180915260c48601939187905b8b838310610f325750505050508380928692306064840152608483015203925af1938415610f28578994610e65575b5050507f30b60ee4dc75c0fb04420331b13e9ad7f8ff8fc51eac9c97d36fb20ccbe09d669350610e57610e50836110ff565b5192611122565b51908351928352820152a380f35b9193509193943d808a853e610e7a818561108f565b830192858185031261066a5780519085821161063757019183601f8401121561066a578251948511610f175750508260051b90855193610ebc8684018661108f565b84528480850192820101928311610ac1578401905b828210610f0857505050907f30b60ee4dc75c0fb04420331b13e9ad7f8ff8fc51eac9c97d36fb20ccbe09d66929190388080610e1e565b81518152908401908401610ed1565b634e487b7160e01b8a526041905288fd5b85513d8b823e3d90fd5b919496985092965080600192958489511681520196019201928f9694929193889694610def565b634e487b7160e01b8e52601189528a8efd5b634e487b7160e01b8d5260418852898dfd5b610f9390853d8711610503576104f4818361108f565b5038610d63565b87513d8d823e3d90fd5b845162461bcd60e51b8152808501849052601b818801527f496e73756666696369656e7420746f6b656e312062616c616e636500000000006044820152606490fd5b90508281813d831161100c575b610ffd818361108f565b81010312610ac1575138610cf0565b503d610ff3565b600435906001600160a01b038216820361102957565b600080fd5b602435906001600160a01b038216820361102957565b1561104b57565b606460405162461bcd60e51b815260206004820152602060248201527f4f776e61626c653a2063616c6c6572206973206e6f7420746865206f776e65726044820152fd5b90601f8019910116810190811067ffffffffffffffff8211176110b157604052565b634e487b7160e01b600052604160045260246000fd5b81156110d1570490565b634e487b7160e01b600052601260045260246000fd5b90816020910312611029575180151581036110295790565b80511561110c5760200190565b634e487b7160e01b600052603260045260246000fd5b80516001101561110c5760400190565b9081602091031261102957516001600160a01b03811681036110295790565b51906001600160701b038216820361102957565b906126ac9182810292818404149015171561117c57565b634e487b7160e01b600052601160045260246000fd5b1561119957565b60405162461bcd60e51b8152602060048201526011602482015270125b9d985b1a59081c9958da5c1a595b9d607a1b6044820152606490fd5b82810293929181158286048414171561117c57670de0b6b3a76400009283820282810485148315171561117c5780871161120e57505050920490565b919550915061121d92506110c7565b919056","linkReferences":{}},"methodIdentifiers":{"DEADLINE_EXTENSION()":"ffe6f79a","SLIPPAGE_TOLERANCE()":"4c203786","addLiquidity(address)":"e3412e3d","owner()":"8da5cb5b","removeLiquidity(address,address)":"9cf38f7c","renounceOwnership()":"715018a6","swapHalf(address)":"3faafe69","token1()":"d21220a7","transferLiquidity(address,address,uint256)":"c053cece","transferOwnership(address)":"f2fde38b","uniswapFactory()":"8bdb2afa","uniswapRouter()":"735de9f7"},"id":17}