{"abi":[{"type":"constructor","inputs":[],"stateMutability":"nonpayable"},{"type":"function","name":"DOMAIN_SEPARATOR","inputs":[],"outputs":[{"name":"","type":"bytes32","internalType":"bytes32"}],"stateMutability":"view"},{"type":"function","name":"allowance","inputs":[{"name":"","type":"address","internalType":"address"},{"name":"","type":"address","internalType":"address"}],"outputs":[{"name":"","type":"uint256","internalType":"uint256"}],"stateMutability":"view"},{"type":"function","name":"approve","inputs":[{"name":"spender","type":"address","internalType":"address"},{"name":"amount","type":"uint256","internalType":"uint256"}],"outputs":[{"name":"","type":"bool","internalType":"bool"}],"stateMutability":"nonpayable"},{"type":"function","name":"balanceOf","inputs":[{"name":"","type":"address","internalType":"address"}],"outputs":[{"name":"","type":"uint256","internalType":"uint256"}],"stateMutability":"view"},{"type":"function","name":"communityIncentives","inputs":[],"outputs":[{"name":"","type":"address","internalType":"address"}],"stateMutability":"view"},{"type":"function","name":"decimals","inputs":[],"outputs":[{"name":"","type":"uint8","internalType":"uint8"}],"stateMutability":"view"},{"type":"function","name":"keikoDeployer","inputs":[],"outputs":[{"name":"","type":"address","internalType":"address"}],"stateMutability":"view"},{"type":"function","name":"liquityTreasury","inputs":[],"outputs":[{"name":"","type":"address","internalType":"address"}],"stateMutability":"view"},{"type":"function","name":"name","inputs":[],"outputs":[{"name":"","type":"string","internalType":"string"}],"stateMutability":"view"},{"type":"function","name":"nonces","inputs":[{"name":"","type":"address","internalType":"address"}],"outputs":[{"name":"","type":"uint256","internalType":"uint256"}],"stateMutability":"view"},{"type":"function","name":"owner","inputs":[],"outputs":[{"name":"","type":"address","internalType":"address"}],"stateMutability":"view"},{"type":"function","name":"permit","inputs":[{"name":"owner","type":"address","internalType":"address"},{"name":"spender","type":"address","internalType":"address"},{"name":"value","type":"uint256","internalType":"uint256"},{"name":"deadline","type":"uint256","internalType":"uint256"},{"name":"v","type":"uint8","internalType":"uint8"},{"name":"r","type":"bytes32","internalType":"bytes32"},{"name":"s","type":"bytes32","internalType":"bytes32"}],"outputs":[],"stateMutability":"nonpayable"},{"type":"function","name":"protocolTreasury","inputs":[],"outputs":[{"name":"","type":"address","internalType":"address"}],"stateMutability":"view"},{"type":"function","name":"renounceOwnership","inputs":[],"outputs":[],"stateMutability":"nonpayable"},{"type":"function","name":"stabilityPoolAddress","inputs":[],"outputs":[{"name":"","type":"address","internalType":"address"}],"stateMutability":"view"},{"type":"function","name":"symbol","inputs":[],"outputs":[{"name":"","type":"string","internalType":"string"}],"stateMutability":"view"},{"type":"function","name":"tgeBatchMint","inputs":[],"outputs":[],"stateMutability":"nonpayable"},{"type":"function","name":"tokenDistributor","inputs":[],"outputs":[{"name":"","type":"address","internalType":"address"}],"stateMutability":"view"},{"type":"function","name":"totalSupply","inputs":[],"outputs":[{"name":"","type":"uint256","internalType":"uint256"}],"stateMutability":"view"},{"type":"function","name":"transfer","inputs":[{"name":"to","type":"address","internalType":"address"},{"name":"amount","type":"uint256","internalType":"uint256"}],"outputs":[{"name":"","type":"bool","internalType":"bool"}],"stateMutability":"nonpayable"},{"type":"function","name":"transferFrom","inputs":[{"name":"from","type":"address","internalType":"address"},{"name":"to","type":"address","internalType":"address"},{"name":"amount","type":"uint256","internalType":"uint256"}],"outputs":[{"name":"","type":"bool","internalType":"bool"}],"stateMutability":"nonpayable"},{"type":"function","name":"transferOwnership","inputs":[{"name":"newOwner","type":"address","internalType":"address"}],"outputs":[],"stateMutability":"nonpayable"},{"type":"function","name":"vaultManagerAddress","inputs":[],"outputs":[{"name":"","type":"address","internalType":"address"}],"stateMutability":"view"},{"type":"event","name":"Approval","inputs":[{"name":"owner","type":"address","indexed":true,"internalType":"address"},{"name":"spender","type":"address","indexed":true,"internalType":"address"},{"name":"amount","type":"uint256","indexed":false,"internalType":"uint256"}],"anonymous":false},{"type":"event","name":"OwnershipTransferred","inputs":[{"name":"previousOwner","type":"address","indexed":true,"internalType":"address"},{"name":"newOwner","type":"address","indexed":true,"internalType":"address"}],"anonymous":false},{"type":"event","name":"Transfer","inputs":[{"name":"from","type":"address","indexed":true,"internalType":"address"},{"name":"to","type":"address","indexed":true,"internalType":"address"},{"name":"amount","type":"uint256","indexed":false,"internalType":"uint256"}],"anonymous":false}],"bytecode":{"object":"0x60e0604090808252346200060057620000188162000605565b600b81526020906a25a2a4a5a7902a37b5b2b760a91b8282015282516200003f8162000605565b6005808252644b45494b4f60d81b8483015260008054336001600160a01b03198083168217845592966001600160a01b03967f8be0079c531659141344cd1fd0a4f28419497f9722a3daafe3b4186f6b6457e09694959194939092908816878a80a381516001600160401b0393848211620005ec5760019180620000c4845462000637565b95601f9687811162000598575b5088908d88841160011462000534579262000528575b5050600019600383901b1c191690831b1782555b805190858211620005145781906200011560025462000637565b868111620004c2575b5087908683116001146200045c578c9262000450575b5050600019600383901b1c191690821b176002555b60126080524660a0528951928991805490620001658262000637565b91828752888088019683831692836000146200043257505050600114620003f6575b505083601f199203011682019180831084841117620003e257828a5251902091838201927f8b73c3c69bb8fe3d512ecc4cf759cc79239f7b179b0ffacaa9a75d522b39400f8452898301527fc89efdaa54c0f20c7adf612882df0950f5a951637e0307cdcb4c672f298b8bc660608301524660808301523060a083015260a0825260c082019082821090821117620003ce57885251902060c0526200023133858754161462000674565b6200024084600b5416620006c0565b83600d541690600380549269d3c21bcecceda100000093848101809111620003ba57908291849355808952886004958685528b82208181540190558b5190815260008051602062001657833981519152958691a386600b541681546a18d0bf423c03d8de00000090818101809111620003a757848b92879286558484528882528d84208181540190558d51908152a3620002de87600a5416620006c0565b866009541681546a0b949d854f34fece00000090818101809111620003a757848b92879286558484528882528d84208181540190558d51908152a386600c54169381546a0c685fa11e01ec6f000000928382018092116200039457558489528252888820805482019055885190815287929190a38354928316926200036533851462000674565b1683558280a351610f2990816200072e823960805181610923015260a05181610d11015260c05181610d380152f35b634e487b7160e01b8b526011835260248bfd5b634e487b7160e01b8b526011875260248bfd5b634e487b7160e01b89526011600452602489fd5b634e487b7160e01b88526041600452602488fd5b634e487b7160e01b89526041600452602489fd5b9087929350818c52828c20918c925b8284106200041c5750505084010190388062000187565b8054888501860152899490930192810162000405565b925093925093945060ff191685521515901b84010190388062000187565b01519050388062000134565b60028d52888d208594509190601f1984168e5b8b828210620004ab575050841162000491575b505050811b0160025562000149565b015160001960f88460031b161c1916905538808062000482565b83850151865588979095019493840193016200046f565b90915060028c52878c2086808501871c8201928a86106200050a575b9186918695949301881c01915b828110620004fb5750506200011e565b8e8155859450869101620004eb565b92508192620004de565b634e487b7160e01b8b52604160045260248bfd5b015190503880620000e7565b9190869450601f1984168584528b8420935b8c82821062000581575050841162000567575b505050811b018255620000fb565b015160001960f88460031b161c1916905538808062000559565b838501518655899790950194938401930162000546565b909150848d52888d2087808501881c8201928b8610620005e2575b8594939101881c9091019086908f5b838210620005d357505050620000d1565b81558594508791018f620005c2565b92508192620005b3565b634e487b7160e01b8a52604160045260248afd5b600080fd5b604081019081106001600160401b038211176200062157604052565b634e487b7160e01b600052604160045260246000fd5b90600182811c9216801562000669575b60208310146200065357565b634e487b7160e01b600052602260045260246000fd5b91607f169162000647565b156200067c57565b606460405162461bcd60e51b815260206004820152602060248201527f4f776e61626c653a2063616c6c6572206973206e6f7420746865206f776e65726044820152fd5b6003546a108b2a2c280290940000009182820180921162000717576020600080516020620016578339815191529160009360035560018060a01b0316938484526004825260408420818154019055604051908152a3565b634e487b7160e01b600052601160045260246000fdfe6080604081815260048036101561001557600080fd5b600092833560e01c90816306fdde0314610b0c57508063095ea7b314610a9b5780630b622ab214610a7257806318160ddd14610a5357806318a6bc3214610a2a57806323b872dd146109705780632c2aa8e714610947578063313ce567146109095780633644e515146108e55780633d8b8cb2146108bc57806359d7bd711461089357806370a082311461085e578063715018a6146107fd5780637ecebe00146107c5578063803db96d1461079c5780638da5cb5b1461077457806395d89b4114610693578063a9059cbb14610624578063c66ac387146104a0578063d505accf1461025f578063dd62ed3e14610216578063ea8db462146101e95763f2fde38b1461012057600080fd5b346101e55760203660031901126101e557610139610c6d565b83546001600160a01b03808216939192610154338614610c9e565b169384156101935750506001600160a01b031916821783557f8be0079c531659141344cd1fd0a4f28419497f9722a3daafe3b4186f6b6457e08380a380f35b906020608492519162461bcd60e51b8352820152602660248201527f4f776e61626c653a206e6577206f776e657220697320746865207a65726f206160448201526564647265737360d01b6064820152fd5b8280fd5b50503461021257816003193601126102125760095490516001600160a01b039091168152602090f35b5080fd5b50503461021257806003193601126102125780602092610234610c6d565b61023c610c88565b6001600160a01b0391821683526005865283832091168252845220549051908152f35b50346101e55760e03660031901126101e557610279610c6d565b610281610c88565b9260443590606435936084359360ff851680950361049c57428610610459576102a8610d0c565b9660018060a01b0380921696878a5260209660068852858b20998a549a60018c019055865192858a8501957f6e71edae12b1b97f4d1f60370fef10105fa2faae0126114a169c64845d6126c987528c8a870152169b8c606086015289608086015260a085015260c084015260c0835260e0830167ffffffffffffffff9484821086831117610446578189528451902061010085019261190160f01b8452610102860152610122850152604281526101608401948186109086111761043357848852519020835261018082015260a4356101a082015260c4356101c0909101528880528590899060809060015afa15610429578751169081151580610420575b156103ec57508652600583528086208587528352808620829055519081527f8c5be1e5ebec7d5bd14f71427d1e84f3dd0314c0f7b2291e5b200ac8c7c3b9259190a380f35b825162461bcd60e51b8152908101859052600e60248201526d24a72b20a624a22fa9a4a3a722a960911b6044820152606490fd5b508582146103a7565b82513d89823e3d90fd5b634e487b7160e01b8d526041875260248dfd5b634e487b7160e01b8e526041885260248efd5b506020606492519162461bcd60e51b8352820152601760248201527f5045524d49545f444541444c494e455f455850495245440000000000000000006044820152fd5b8780fd5b5091903461021257816003193601126102125781546001600160a01b03906104cb9082163314610c9e565b6104d881600b5416610eb3565b80600d54169060039081549269d3c21bcecceda10000009384810180911161061157908392918795945580855260209485948986528782208181540190558751908152600080516020610f09833981519152968791a380600b541682546a18d0bf423c03d8de000000908181018091116105fe57858992889287558484528b82528984208181540190558951908152a361057581600a5416610eb3565b806009541682546a0b949d854f34fece000000908181018091116105fe57858992889287558484528b82528984208181540190558951908152a3600c54169381546a0c685fa11e01ec6f000000928382018092116105eb579087989197969755868652835280852082815401905551908152a380f35b634e487b7160e01b885260118952602488fd5b634e487b7160e01b895260118a52602489fd5b634e487b7160e01b875260118852602487fd5b50346101e557816003193601126101e55760209282610641610c6d565b916024359233825284875282822061065a858254610ce9565b90556001600160a01b03168082529386522080548201905582519081523390600080516020610f09833981519152908590a35160018152f35b505034610212578160031936011261021257805190826002546106b581610bb2565b8085529160019180831690811561074c57506001146106ef575b5050506106e1826106eb940383610bec565b5191829182610c24565b0390f35b9450600285527f405787fa12a823e0f2b7631cc41b3ba8828b3321ca811111fa75cd3aa3bb5ace5b828610610734575050506106e18260206106eb95820101946106cf565b80546020878701810191909152909501948101610717565b6106eb9750869350602092506106e194915060ff191682840152151560051b820101946106cf565b505034610212578160031936011261021257905490516001600160a01b039091168152602090f35b505034610212578160031936011261021257600b5490516001600160a01b039091168152602090f35b5050346102125760203660031901126102125760209181906001600160a01b036107ed610c6d565b1681526006845220549051908152f35b833461085b578060031936011261085b57805481906001600160a01b03811690610828338314610c9e565b6001600160a01b03191682557f8be0079c531659141344cd1fd0a4f28419497f9722a3daafe3b4186f6b6457e08280a380f35b80fd5b50346101e55760203660031901126101e55760209282916001600160a01b03610885610c6d565b168252845220549051908152f35b505034610212578160031936011261021257600a5490516001600160a01b039091168152602090f35b50503461021257816003193601126102125760075490516001600160a01b039091168152602090f35b505034610212578160031936011261021257602090610902610d0c565b9051908152f35b5050346102125781600319360112610212576020905160ff7f0000000000000000000000000000000000000000000000000000000000000000168152f35b505034610212578160031936011261021257600d5490516001600160a01b039091168152602090f35b50346101e55760603660031901126101e55761098a610c6d565b92600080516020610f098339815191526109a2610c88565b6044358560018060a01b0380981694858152602098899460058652838320338452865283832054856000198203610a07575b50508783528886528383206109ea868254610ce9565b905516968782528452208181540190558551908152a35160018152f35b610a1091610ce9565b8884526005875284842033855287528484205538856109d4565b505034610212578160031936011261021257600c5490516001600160a01b039091168152602090f35b5050346102125781600319360112610212576020906003549051908152f35b50503461021257816003193601126102125760085490516001600160a01b039091168152602090f35b50503461021257806003193601126102125760209181610ab9610c6d565b91602435918291338152600587528181209460018060a01b0316948582528752205582519081527f8c5be1e5ebec7d5bd14f71427d1e84f3dd0314c0f7b2291e5b200ac8c7c3b925843392a35160018152f35b849084346101e557826003193601126101e557826001805491610b2e83610bb2565b8086529282811690811561074c5750600114610b56575050506106e1826106eb940383610bec565b94508085527fb10e2d527612073b26eecdfd717e6a320cf44b4afac2b0732d9fcbe2b7fa0cf65b828610610b9a575050506106e18260206106eb95820101946106cf565b80546020878701810191909152909501948101610b7d565b90600182811c92168015610be2575b6020831014610bcc57565b634e487b7160e01b600052602260045260246000fd5b91607f1691610bc1565b90601f8019910116810190811067ffffffffffffffff821117610c0e57604052565b634e487b7160e01b600052604160045260246000fd5b6020808252825181830181905290939260005b828110610c5957505060409293506000838284010152601f8019910116010190565b818101860151848201604001528501610c37565b600435906001600160a01b0382168203610c8357565b600080fd5b602435906001600160a01b0382168203610c8357565b15610ca557565b606460405162461bcd60e51b815260206004820152602060248201527f4f776e61626c653a2063616c6c6572206973206e6f7420746865206f776e65726044820152fd5b91908203918211610cf657565b634e487b7160e01b600052601160045260246000fd5b6000467f000000000000000000000000000000000000000000000000000000000000000003610d5a57507f000000000000000000000000000000000000000000000000000000000000000090565b6040518160019182549181610d6e84610bb2565b9182825260209586830195878282169182600014610e95575050600114610e3c575b50610d9d92500382610bec565b51902091604051918201927f8b73c3c69bb8fe3d512ecc4cf759cc79239f7b179b0ffacaa9a75d522b39400f845260408301527fc89efdaa54c0f20c7adf612882df0950f5a951637e0307cdcb4c672f298b8bc660608301524660808301523060a083015260a0825260c082019082821067ffffffffffffffff831117610e28575060405251902090565b634e487b7160e01b81526041600452602490fd5b80885286915087907fb10e2d527612073b26eecdfd717e6a320cf44b4afac2b0732d9fcbe2b7fa0cf65b858310610e7d575050610d9d935082010138610d90565b80548388018501528694508893909201918101610e66565b60ff19168852610d9d95151560051b8501019250389150610d909050565b6003546a108b2a2c2802909400000091828201809211610cf6576020600080516020610f098339815191529160009360035560018060a01b0316938484526004825260408420818154019055604051908152a356feddf252ad1be2c89b69c2b068fc378daa952ba7f163c4a11628f55a4df523b3efddf252ad1be2c89b69c2b068fc378daa952ba7f163c4a11628f55a4df523b3ef","linkReferences":{}},"methodIdentifiers":{"DOMAIN_SEPARATOR()":"3644e515","allowance(address,address)":"dd62ed3e","approve(address,uint256)":"095ea7b3","balanceOf(address)":"70a08231","communityIncentives()":"59d7bd71","decimals()":"313ce567","keikoDeployer()":"ea8db462","liquityTreasury()":"2c2aa8e7","name()":"06fdde03","nonces(address)":"7ecebe00","owner()":"8da5cb5b","permit(address,address,uint256,uint256,uint8,bytes32,bytes32)":"d505accf","protocolTreasury()":"803db96d","renounceOwnership()":"715018a6","stabilityPoolAddress()":"0b622ab2","symbol()":"95d89b41","tgeBatchMint()":"c66ac387","tokenDistributor()":"18a6bc32","totalSupply()":"18160ddd","transfer(address,uint256)":"a9059cbb","transferFrom(address,address,uint256)":"23b872dd","transferOwnership(address)":"f2fde38b","vaultManagerAddress()":"3d8b8cb2"},"id":42}