{"abi":[{"type":"constructor","inputs":[],"stateMutability":"nonpayable"},{"type":"function","name":"DOMAIN_SEPARATOR","inputs":[],"outputs":[{"name":"","type":"bytes32","internalType":"bytes32"}],"stateMutability":"view"},{"type":"function","name":"allowance","inputs":[{"name":"","type":"address","internalType":"address"},{"name":"","type":"address","internalType":"address"}],"outputs":[{"name":"","type":"uint256","internalType":"uint256"}],"stateMutability":"view"},{"type":"function","name":"approve","inputs":[{"name":"spender","type":"address","internalType":"address"},{"name":"amount","type":"uint256","internalType":"uint256"}],"outputs":[{"name":"","type":"bool","internalType":"bool"}],"stateMutability":"nonpayable"},{"type":"function","name":"balanceOf","inputs":[{"name":"","type":"address","internalType":"address"}],"outputs":[{"name":"","type":"uint256","internalType":"uint256"}],"stateMutability":"view"},{"type":"function","name":"communityIncentives","inputs":[],"outputs":[{"name":"","type":"address","internalType":"address"}],"stateMutability":"view"},{"type":"function","name":"decimals","inputs":[],"outputs":[{"name":"","type":"uint8","internalType":"uint8"}],"stateMutability":"view"},{"type":"function","name":"keikoDeployer","inputs":[],"outputs":[{"name":"","type":"address","internalType":"address"}],"stateMutability":"view"},{"type":"function","name":"name","inputs":[],"outputs":[{"name":"","type":"string","internalType":"string"}],"stateMutability":"view"},{"type":"function","name":"nonces","inputs":[{"name":"","type":"address","internalType":"address"}],"outputs":[{"name":"","type":"uint256","internalType":"uint256"}],"stateMutability":"view"},{"type":"function","name":"owner","inputs":[],"outputs":[{"name":"","type":"address","internalType":"address"}],"stateMutability":"view"},{"type":"function","name":"permit","inputs":[{"name":"owner","type":"address","internalType":"address"},{"name":"spender","type":"address","internalType":"address"},{"name":"value","type":"uint256","internalType":"uint256"},{"name":"deadline","type":"uint256","internalType":"uint256"},{"name":"v","type":"uint8","internalType":"uint8"},{"name":"r","type":"bytes32","internalType":"bytes32"},{"name":"s","type":"bytes32","internalType":"bytes32"}],"outputs":[],"stateMutability":"nonpayable"},{"type":"function","name":"protocolTreasury","inputs":[],"outputs":[{"name":"","type":"address","internalType":"address"}],"stateMutability":"view"},{"type":"function","name":"renounceOwnership","inputs":[],"outputs":[],"stateMutability":"nonpayable"},{"type":"function","name":"symbol","inputs":[],"outputs":[{"name":"","type":"string","internalType":"string"}],"stateMutability":"view"},{"type":"function","name":"tgeBatchMint","inputs":[],"outputs":[],"stateMutability":"nonpayable"},{"type":"function","name":"tokenDistributor","inputs":[],"outputs":[{"name":"","type":"address","internalType":"address"}],"stateMutability":"view"},{"type":"function","name":"totalSupply","inputs":[],"outputs":[{"name":"","type":"uint256","internalType":"uint256"}],"stateMutability":"view"},{"type":"function","name":"transfer","inputs":[{"name":"to","type":"address","internalType":"address"},{"name":"amount","type":"uint256","internalType":"uint256"}],"outputs":[{"name":"","type":"bool","internalType":"bool"}],"stateMutability":"nonpayable"},{"type":"function","name":"transferFrom","inputs":[{"name":"from","type":"address","internalType":"address"},{"name":"to","type":"address","internalType":"address"},{"name":"amount","type":"uint256","internalType":"uint256"}],"outputs":[{"name":"","type":"bool","internalType":"bool"}],"stateMutability":"nonpayable"},{"type":"function","name":"transferOwnership","inputs":[{"name":"newOwner","type":"address","internalType":"address"}],"outputs":[],"stateMutability":"nonpayable"},{"type":"event","name":"Approval","inputs":[{"name":"owner","type":"address","indexed":true,"internalType":"address"},{"name":"spender","type":"address","indexed":true,"internalType":"address"},{"name":"amount","type":"uint256","indexed":false,"internalType":"uint256"}],"anonymous":false},{"type":"event","name":"OwnershipTransferred","inputs":[{"name":"previousOwner","type":"address","indexed":true,"internalType":"address"},{"name":"newOwner","type":"address","indexed":true,"internalType":"address"}],"anonymous":false},{"type":"event","name":"Transfer","inputs":[{"name":"from","type":"address","indexed":true,"internalType":"address"},{"name":"to","type":"address","indexed":true,"internalType":"address"},{"name":"amount","type":"uint256","indexed":false,"internalType":"uint256"}],"anonymous":false}],"bytecode":{"object":"0x60e0604090808252346200054257620000188162000547565b600b81526020906a25a2a4a5a7902a37b5b2b760a91b8282015282516200003f8162000547565b6005808252644b45494b4f60d81b8483015260008054336001600160a01b03198083168217845592966001600160a01b03967f8be0079c531659141344cd1fd0a4f28419497f9722a3daafe3b4186f6b6457e09694959194939092908816878a80a381516001600160401b03938482116200052e5760019180620000c4845462000579565b95601f96878111620004da575b5088908d8884116001146200047657926200046a575b5050600019600383901b1c191690831b1782555b805190858211620004565781906200011560025462000579565b86811162000404575b5087908683116001146200039e578c9262000392575b5050600019600383901b1c191690821b176002555b60126080524660a0528951928991805490620001658262000579565b9182875288808801968383169283600014620003745750505060011462000338575b505083601f1992030116820191808310848411176200032457828a5251902091838201927f8b73c3c69bb8fe3d512ecc4cf759cc79239f7b179b0ffacaa9a75d522b39400f8452898301527fc89efdaa54c0f20c7adf612882df0950f5a951637e0307cdcb4c672f298b8bc660608301524660808301523060a083015260a0825260c0820190828210908211176200031057885251902060c05262000231338587541614620005b6565b62000240846009541662000602565b8360095416906003546a18d0bf423c03d8de00000090818101809111620002fc576003558287526004825287872080548201905587519081528691600080516020620014e983398151915291a36200029c836008541662000602565b620002ab83600754166200066f565b620002ba83600a54166200066f565b835492831692620002cd338514620005b6565b1683558280a351610e229081620006c7823960805181610819015260a05181610bb5015260c05181610bdc0152f35b634e487b7160e01b88526011600452602488fd5b634e487b7160e01b88526041600452602488fd5b634e487b7160e01b89526041600452602489fd5b9087929350818c52828c20918c925b8284106200035e5750505084010190388062000187565b8054888501860152899490930192810162000347565b925093925093945060ff191685521515901b84010190388062000187565b01519050388062000134565b60028d52888d208594509190601f1984168e5b8b828210620003ed5750508411620003d3575b505050811b0160025562000149565b015160001960f88460031b161c19169055388080620003c4565b8385015186558897909501949384019301620003b1565b90915060028c52878c2086808501871c8201928a86106200044c575b9186918695949301881c01915b8281106200043d5750506200011e565b8e81558594508691016200042d565b9250819262000420565b634e487b7160e01b8b52604160045260248bfd5b015190503880620000e7565b9190869450601f1984168584528b8420935b8c828210620004c35750508411620004a9575b505050811b018255620000fb565b015160001960f88460031b161c191690553880806200049b565b838501518655899790950194938401930162000488565b909150848d52888d2087808501881c8201928b861062000524575b8594939101881c9091019086908f5b8382106200051557505050620000d1565b81558594508791018f62000504565b92508192620004f5565b634e487b7160e01b8a52604160045260248afd5b600080fd5b604081019081106001600160401b038211176200056357604052565b634e487b7160e01b600052604160045260246000fd5b90600182811c92168015620005ab575b60208310146200059557565b634e487b7160e01b600052602260045260246000fd5b91607f169162000589565b15620005be57565b606460405162461bcd60e51b815260206004820152602060248201527f4f776e61626c653a2063616c6c6572206973206e6f7420746865206f776e65726044820152fd5b6003546a108b2a2c280290940000009182820180921162000659576020600080516020620014e98339815191529160009360035560018060a01b0316938484526004825260408420818154019055604051908152a3565b634e487b7160e01b600052601160045260246000fd5b6003546a0c685fa11e01ec6f0000009182820180921162000659576020600080516020620014e98339815191529160009360035560018060a01b0316938484526004825260408420818154019055604051908152a356fe6080604081815260048036101561001557600080fd5b600092833560e01c90816306fdde03146109b057508063095ea7b31461093f57806318160ddd1461092057806318a6bc32146108f757806323b872dd1461083d578063313ce567146107ff5780633644e515146107db57806359d7bd71146107b257806370a082311461077d578063715018a61461071c5780637ecebe00146106e4578063803db96d146106bb5780638da5cb5b1461069357806395d89b41146105b2578063a9059cbb14610543578063c66ac3871461047f578063d505accf1461023e578063dd62ed3e146101f5578063ea8db462146101c85763f2fde38b146100ff57600080fd5b346101c45760203660031901126101c457610118610b11565b83546001600160a01b03808216939192610133338614610b42565b169384156101725750506001600160a01b031916821783557f8be0079c531659141344cd1fd0a4f28419497f9722a3daafe3b4186f6b6457e08380a380f35b906020608492519162461bcd60e51b8352820152602660248201527f4f776e61626c653a206e6577206f776e657220697320746865207a65726f206160448201526564647265737360d01b6064820152fd5b8280fd5b5050346101f157816003193601126101f15760075490516001600160a01b039091168152602090f35b5080fd5b5050346101f157806003193601126101f15780602092610213610b11565b61021b610b2c565b6001600160a01b0391821683526005865283832091168252845220549051908152f35b50346101c45760e03660031901126101c457610258610b11565b610260610b2c565b9260443590606435936084359360ff851680950361047b5742861061043857610287610bb0565b9660018060a01b0380921696878a5260209660068852858b20998a549a60018c019055865192858a8501957f6e71edae12b1b97f4d1f60370fef10105fa2faae0126114a169c64845d6126c987528c8a870152169b8c606086015289608086015260a085015260c084015260c0835260e0830167ffffffffffffffff9484821086831117610425578189528451902061010085019261190160f01b8452610102860152610122850152604281526101608401948186109086111761041257848852519020835261018082015260a4356101a082015260c4356101c0909101528880528590899060809060015afa156104085787511690811515806103ff575b156103cb57508652600583528086208587528352808620829055519081527f8c5be1e5ebec7d5bd14f71427d1e84f3dd0314c0f7b2291e5b200ac8c7c3b9259190a380f35b825162461bcd60e51b8152908101859052600e60248201526d24a72b20a624a22fa9a4a3a722a960911b6044820152606490fd5b50858214610386565b82513d89823e3d90fd5b634e487b7160e01b8d526041875260248dfd5b634e487b7160e01b8e526041885260248efd5b506020606492519162461bcd60e51b8352820152601760248201527f5045524d49545f444541444c494e455f455850495245440000000000000000006044820152fd5b8780fd5b509190346101f157816003193601126101f15781546001600160a01b0391906104ab9083163314610b42565b6104b88260095416610d57565b816009541690600354906a18d0bf423c03d8de0000009182810180911161053057859692600080516020610e028339815191529261052d9794602093600355868652835280852082815401905551908152a36105178160085416610d57565b6105248160075416610dac565b600a5416610dac565b80f35b634e487b7160e01b865260118752602486fd5b50346101c457816003193601126101c45760209282610560610b11565b9160243592338252848752828220610579858254610b8d565b90556001600160a01b03168082529386522080548201905582519081523390600080516020610e02833981519152908590a35160018152f35b5050346101f157816003193601126101f157805190826002546105d481610a56565b8085529160019180831690811561066b575060011461060e575b5050506106008261060a940383610a90565b5191829182610ac8565b0390f35b9450600285527f405787fa12a823e0f2b7631cc41b3ba8828b3321ca811111fa75cd3aa3bb5ace5b8286106106535750505061060082602061060a95820101946105ee565b80546020878701810191909152909501948101610636565b61060a97508693506020925061060094915060ff191682840152151560051b820101946105ee565b5050346101f157816003193601126101f157905490516001600160a01b039091168152602090f35b5050346101f157816003193601126101f15760095490516001600160a01b039091168152602090f35b5050346101f15760203660031901126101f15760209181906001600160a01b0361070c610b11565b1681526006845220549051908152f35b833461077a578060031936011261077a57805481906001600160a01b03811690610747338314610b42565b6001600160a01b03191682557f8be0079c531659141344cd1fd0a4f28419497f9722a3daafe3b4186f6b6457e08280a380f35b80fd5b50346101c45760203660031901126101c45760209282916001600160a01b036107a4610b11565b168252845220549051908152f35b5050346101f157816003193601126101f15760085490516001600160a01b039091168152602090f35b5050346101f157816003193601126101f1576020906107f8610bb0565b9051908152f35b5050346101f157816003193601126101f1576020905160ff7f0000000000000000000000000000000000000000000000000000000000000000168152f35b50346101c45760603660031901126101c457610857610b11565b92600080516020610e0283398151915261086f610b2c565b6044358560018060a01b03809816948581526020988994600586528383203384528652838320548560001982036108d4575b50508783528886528383206108b7868254610b8d565b905516968782528452208181540190558551908152a35160018152f35b6108dd91610b8d565b8884526005875284842033855287528484205538856108a1565b5050346101f157816003193601126101f157600a5490516001600160a01b039091168152602090f35b5050346101f157816003193601126101f1576020906003549051908152f35b5050346101f157806003193601126101f1576020918161095d610b11565b91602435918291338152600587528181209460018060a01b0316948582528752205582519081527f8c5be1e5ebec7d5bd14f71427d1e84f3dd0314c0f7b2291e5b200ac8c7c3b925843392a35160018152f35b849084346101c457826003193601126101c4578260018054916109d283610a56565b8086529282811690811561066b57506001146109fa575050506106008261060a940383610a90565b94508085527fb10e2d527612073b26eecdfd717e6a320cf44b4afac2b0732d9fcbe2b7fa0cf65b828610610a3e5750505061060082602061060a95820101946105ee565b80546020878701810191909152909501948101610a21565b90600182811c92168015610a86575b6020831014610a7057565b634e487b7160e01b600052602260045260246000fd5b91607f1691610a65565b90601f8019910116810190811067ffffffffffffffff821117610ab257604052565b634e487b7160e01b600052604160045260246000fd5b6020808252825181830181905290939260005b828110610afd57505060409293506000838284010152601f8019910116010190565b818101860151848201604001528501610adb565b600435906001600160a01b0382168203610b2757565b600080fd5b602435906001600160a01b0382168203610b2757565b15610b4957565b606460405162461bcd60e51b815260206004820152602060248201527f4f776e61626c653a2063616c6c6572206973206e6f7420746865206f776e65726044820152fd5b91908203918211610b9a57565b634e487b7160e01b600052601160045260246000fd5b6000467f000000000000000000000000000000000000000000000000000000000000000003610bfe57507f000000000000000000000000000000000000000000000000000000000000000090565b6040518160019182549181610c1284610a56565b9182825260209586830195878282169182600014610d39575050600114610ce0575b50610c4192500382610a90565b51902091604051918201927f8b73c3c69bb8fe3d512ecc4cf759cc79239f7b179b0ffacaa9a75d522b39400f845260408301527fc89efdaa54c0f20c7adf612882df0950f5a951637e0307cdcb4c672f298b8bc660608301524660808301523060a083015260a0825260c082019082821067ffffffffffffffff831117610ccc575060405251902090565b634e487b7160e01b81526041600452602490fd5b80885286915087907fb10e2d527612073b26eecdfd717e6a320cf44b4afac2b0732d9fcbe2b7fa0cf65b858310610d21575050610c41935082010138610c34565b80548388018501528694508893909201918101610d0a565b60ff19168852610c4195151560051b8501019250389150610c349050565b6003546a108b2a2c2802909400000091828201809211610b9a576020600080516020610e028339815191529160009360035560018060a01b0316938484526004825260408420818154019055604051908152a3565b6003546a0c685fa11e01ec6f00000091828201809211610b9a576020600080516020610e028339815191529160009360035560018060a01b0316938484526004825260408420818154019055604051908152a356feddf252ad1be2c89b69c2b068fc378daa952ba7f163c4a11628f55a4df523b3efddf252ad1be2c89b69c2b068fc378daa952ba7f163c4a11628f55a4df523b3ef","linkReferences":{}},"methodIdentifiers":{"DOMAIN_SEPARATOR()":"3644e515","allowance(address,address)":"dd62ed3e","approve(address,uint256)":"095ea7b3","balanceOf(address)":"70a08231","communityIncentives()":"59d7bd71","decimals()":"313ce567","keikoDeployer()":"ea8db462","name()":"06fdde03","nonces(address)":"7ecebe00","owner()":"8da5cb5b","permit(address,address,uint256,uint256,uint8,bytes32,bytes32)":"d505accf","protocolTreasury()":"803db96d","renounceOwnership()":"715018a6","symbol()":"95d89b41","tgeBatchMint()":"c66ac387","tokenDistributor()":"18a6bc32","totalSupply()":"18160ddd","transfer(address,uint256)":"a9059cbb","transferFrom(address,address,uint256)":"23b872dd","transferOwnership(address)":"f2fde38b"},"id":1}