{"abi":[{"type":"function","name":"P","inputs":[],"outputs":[{"name":"","type":"uint256","internalType":"uint256"}],"stateMutability":"view"},{"type":"function","name":"S","inputs":[{"name":"_depositor","type":"address","internalType":"address"},{"name":"_asset","type":"address","internalType":"address"}],"outputs":[{"name":"","type":"uint256","internalType":"uint256"}],"stateMutability":"view"},{"type":"function","name":"SCALE_FACTOR","inputs":[],"outputs":[{"name":"","type":"uint256","internalType":"uint256"}],"stateMutability":"view"},{"type":"function","name":"addCollateralType","inputs":[{"name":"_collateral","type":"address","internalType":"address"}],"outputs":[],"stateMutability":"nonpayable"},{"type":"function","name":"currentEpoch","inputs":[],"outputs":[{"name":"","type":"uint128","internalType":"uint128"}],"stateMutability":"view"},{"type":"function","name":"currentScale","inputs":[],"outputs":[{"name":"","type":"uint128","internalType":"uint128"}],"stateMutability":"view"},{"type":"function","name":"debtToken","inputs":[],"outputs":[{"name":"","type":"address","internalType":"address"}],"stateMutability":"view"},{"type":"function","name":"deposit","inputs":[{"name":"_amount","type":"uint256","internalType":"uint256"},{"name":"_assets","type":"address[]","internalType":"address[]"}],"outputs":[],"stateMutability":"nonpayable"},{"type":"function","name":"depositSnapshots","inputs":[{"name":"","type":"address","internalType":"address"}],"outputs":[{"name":"P","type":"uint256","internalType":"uint256"},{"name":"G","type":"uint256","internalType":"uint256"},{"name":"scale","type":"uint128","internalType":"uint128"},{"name":"epoch","type":"uint128","internalType":"uint128"}],"stateMutability":"view"},{"type":"function","name":"deposits","inputs":[{"name":"","type":"address","internalType":"address"}],"outputs":[{"name":"","type":"uint256","internalType":"uint256"}],"stateMutability":"view"},{"type":"function","name":"epochToScaleToG","inputs":[{"name":"","type":"uint128","internalType":"uint128"},{"name":"","type":"uint128","internalType":"uint128"}],"outputs":[{"name":"","type":"uint256","internalType":"uint256"}],"stateMutability":"view"},{"type":"function","name":"epochToScaleToSum","inputs":[{"name":"","type":"address","internalType":"address"},{"name":"","type":"uint128","internalType":"uint128"},{"name":"","type":"uint128","internalType":"uint128"}],"outputs":[{"name":"","type":"uint256","internalType":"uint256"}],"stateMutability":"view"},{"type":"function","name":"getCompoundedDebtTokenDeposits","inputs":[{"name":"_depositor","type":"address","internalType":"address"}],"outputs":[{"name":"","type":"uint256","internalType":"uint256"}],"stateMutability":"view"},{"type":"function","name":"getDepositorGains","inputs":[{"name":"_depositor","type":"address","internalType":"address"},{"name":"_assets","type":"address[]","internalType":"address[]"}],"outputs":[{"name":"","type":"address[]","internalType":"address[]"},{"name":"","type":"uint256[]","internalType":"uint256[]"}],"stateMutability":"view"},{"type":"function","name":"getTotalDebtTokenDeposits","inputs":[],"outputs":[{"name":"","type":"uint256","internalType":"uint256"}],"stateMutability":"view"},{"type":"function","name":"getValidCollateral","inputs":[],"outputs":[{"name":"","type":"address[]","internalType":"address[]"}],"stateMutability":"view"},{"type":"function","name":"isAddressSetupInitialized","inputs":[],"outputs":[{"name":"","type":"bool","internalType":"bool"}],"stateMutability":"view"},{"type":"function","name":"keikoDeployer","inputs":[],"outputs":[{"name":"","type":"address","internalType":"address"}],"stateMutability":"view"},{"type":"function","name":"lastAssetError_Offset","inputs":[{"name":"","type":"uint256","internalType":"uint256"}],"outputs":[{"name":"","type":"uint256","internalType":"uint256"}],"stateMutability":"view"},{"type":"function","name":"lastDebtTokenLossError_Offset","inputs":[],"outputs":[{"name":"","type":"uint256","internalType":"uint256"}],"stateMutability":"view"},{"type":"function","name":"offsetDebt","inputs":[{"name":"_debtToOffset","type":"uint256","internalType":"uint256"},{"name":"_asset","type":"address","internalType":"address"},{"name":"_amountAdded","type":"uint256","internalType":"uint256"}],"outputs":[],"stateMutability":"nonpayable"},{"type":"function","name":"owner","inputs":[],"outputs":[{"name":"","type":"address","internalType":"address"}],"stateMutability":"view"},{"type":"function","name":"priceFeed","inputs":[],"outputs":[{"name":"","type":"address","internalType":"address"}],"stateMutability":"view"},{"type":"function","name":"renounceOwnership","inputs":[],"outputs":[],"stateMutability":"nonpayable"},{"type":"function","name":"setAddresses","inputs":[{"name":"_addresses","type":"address[]","internalType":"address[]"}],"outputs":[],"stateMutability":"nonpayable"},{"type":"function","name":"stabilityPool","inputs":[],"outputs":[{"name":"","type":"address","internalType":"address"}],"stateMutability":"view"},{"type":"function","name":"totalDebtTokenDeposits","inputs":[],"outputs":[{"name":"","type":"uint256","internalType":"uint256"}],"stateMutability":"view"},{"type":"function","name":"transferOwnership","inputs":[{"name":"newOwner","type":"address","internalType":"address"}],"outputs":[],"stateMutability":"nonpayable"},{"type":"function","name":"treasuryAddress","inputs":[],"outputs":[{"name":"","type":"address","internalType":"address"}],"stateMutability":"view"},{"type":"function","name":"validCollaterals","inputs":[{"name":"","type":"uint256","internalType":"uint256"}],"outputs":[{"name":"","type":"address","internalType":"address"}],"stateMutability":"view"},{"type":"function","name":"vaultManager","inputs":[],"outputs":[{"name":"","type":"address","internalType":"address"}],"stateMutability":"view"},{"type":"function","name":"vaultOperations","inputs":[],"outputs":[{"name":"","type":"address","internalType":"address"}],"stateMutability":"view"},{"type":"function","name":"vaultSorter","inputs":[],"outputs":[{"name":"","type":"address","internalType":"address"}],"stateMutability":"view"},{"type":"function","name":"withdraw","inputs":[{"name":"_amount","type":"uint256","internalType":"uint256"},{"name":"_assets","type":"address[]","internalType":"address[]"}],"outputs":[],"stateMutability":"nonpayable"},{"type":"event","name":"AssetSent","inputs":[{"name":"_asset","type":"address","indexed":false,"internalType":"address"},{"name":"_to","type":"address","indexed":false,"internalType":"address"},{"name":"_amount","type":"uint256","indexed":false,"internalType":"uint256"}],"anonymous":false},{"type":"event","name":"DepositSnapshotUpdated","inputs":[{"name":"_depositor","type":"address","indexed":true,"internalType":"address"},{"name":"_P","type":"uint256","indexed":false,"internalType":"uint256"},{"name":"_G","type":"uint256","indexed":false,"internalType":"uint256"}],"anonymous":false},{"type":"event","name":"EpochUpdated","inputs":[{"name":"_currentEpoch","type":"uint128","indexed":false,"internalType":"uint128"}],"anonymous":false},{"type":"event","name":"G_Updated","inputs":[{"name":"_G","type":"uint256","indexed":false,"internalType":"uint256"},{"name":"_epoch","type":"uint128","indexed":false,"internalType":"uint128"},{"name":"_scale","type":"uint128","indexed":false,"internalType":"uint128"}],"anonymous":false},{"type":"event","name":"GainsWithdrawn","inputs":[{"name":"_depositor","type":"address","indexed":true,"internalType":"address"},{"name":"_collaterals","type":"address[]","indexed":false,"internalType":"address[]"},{"name":"_amounts","type":"uint256[]","indexed":false,"internalType":"uint256[]"},{"name":"_debtTokenLoss","type":"uint256","indexed":false,"internalType":"uint256"}],"anonymous":false},{"type":"event","name":"OwnershipTransferred","inputs":[{"name":"previousOwner","type":"address","indexed":true,"internalType":"address"},{"name":"newOwner","type":"address","indexed":true,"internalType":"address"}],"anonymous":false},{"type":"event","name":"P_Updated","inputs":[{"name":"_P","type":"uint256","indexed":false,"internalType":"uint256"}],"anonymous":false},{"type":"event","name":"S_Updated","inputs":[{"name":"_asset","type":"address","indexed":false,"internalType":"address"},{"name":"_S","type":"uint256","indexed":false,"internalType":"uint256"},{"name":"_epoch","type":"uint128","indexed":false,"internalType":"uint128"},{"name":"_scale","type":"uint128","indexed":false,"internalType":"uint128"}],"anonymous":false},{"type":"event","name":"ScaleUpdated","inputs":[{"name":"_currentScale","type":"uint128","indexed":false,"internalType":"uint128"}],"anonymous":false},{"type":"event","name":"StabilityPoolAssetBalanceUpdated","inputs":[{"name":"_asset","type":"address","indexed":false,"internalType":"address"},{"name":"_newBalance","type":"uint256","indexed":false,"internalType":"uint256"}],"anonymous":false},{"type":"event","name":"StabilityPoolDebtTokenBalanceUpdated","inputs":[{"name":"_newBalance","type":"uint256","indexed":false,"internalType":"uint256"}],"anonymous":false},{"type":"event","name":"StakeChanged","inputs":[{"name":"_newSystemStake","type":"uint256","indexed":false,"internalType":"uint256"},{"name":"_depositor","type":"address","indexed":false,"internalType":"address"}],"anonymous":false},{"type":"event","name":"SystemSnapshotUpdated","inputs":[{"name":"_P","type":"uint256","indexed":false,"internalType":"uint256"},{"name":"_G","type":"uint256","indexed":false,"internalType":"uint256"}],"anonymous":false},{"type":"event","name":"UserDepositChanged","inputs":[{"name":"_depositor","type":"address","indexed":true,"internalType":"address"},{"name":"_newDeposit","type":"uint256","indexed":false,"internalType":"uint256"}],"anonymous":false},{"type":"event","name":"UserWithdrawal","inputs":[{"name":"_user","type":"address","indexed":true,"internalType":"address"},{"name":"_amount","type":"uint256","indexed":false,"internalType":"uint256"}],"anonymous":false},{"type":"error","name":"StabilityPool__ActivePoolOnly","inputs":[{"name":"sender","type":"address","internalType":"address"},{"name":"expected","type":"address","internalType":"address"}]},{"type":"error","name":"StabilityPool__AdminContractOnly","inputs":[{"name":"sender","type":"address","internalType":"address"},{"name":"expected","type":"address","internalType":"address"}]},{"type":"error","name":"StabilityPool__ArrayNotInAscendingOrder","inputs":[]},{"type":"error","name":"StabilityPool__VesselManagerOnly","inputs":[{"name":"sender","type":"address","internalType":"address"},{"name":"expected","type":"address","internalType":"address"}]}],"bytecode":{"object":"0x608080604052346100675760008054336001600160a01b0319821681178355916001600160a01b03909116907f8be0079c531659141344cd1fd0a4f28419497f9722a3daafe3b4186f6b6457e09080a3670de0b6b3a7640000600d55611f93908161006d8239f35b600080fdfe608060408181526004918236101561001657600080fd5b600092833560e01c918263048c661d14610edf575081630a68f2d714610ec05781630d9a6b3514610ec0578163121f2b2614610e9357816313afb18814610e525781634e8338eb14610e0957816359caa99614610d83578163715018a614610d25578163741bef1a14610cfc5781637667180814610cda5781637ee4196b14610c6a57816382e0a57414610c1e578163841f0ebb14610bf557816385d7cf8614610a1057816386da0824146109ad5781638a4adf24146109845781638b8fbd92146109655781638da5cb5b1461093d5781639718cf591461091457816399eca69f146107a15781639d6aea0a1461070c578163a4e59ac8146106e4578163a7a48884146106c5578163ad3018f014610643578163b95717211461045f578163be35d3bd14610423578163c5f956af146103fa578163c8564c62146103d3578163ce4b5bbe146103b4578163ea8db4621461038b578163ec0d5e0c146102c8578163f2fde38b146101fd57508063f8d89898146101d55763fc7e286d1461019b57600080fd5b346101d15760203660031901126101d15760209181906001600160a01b036101c1610f03565b168152600b845220549051908152f35b5080fd5b50346101d157816003193601126101d15760015490516001600160a01b039091168152602090f35b9050346102c45760203660031901126102c457610218610f03565b83546001600160a01b0380821693919261023333861461116e565b169384156102725750506001600160a01b031916821783557f8be0079c531659141344cd1fd0a4f28419497f9722a3daafe3b4186f6b6457e08380a380f35b906020608492519162461bcd60e51b8352820152602660248201527f4f776e61626c653a206e6577206f776e657220697320746865207a65726f206160448201526564647265737360d01b6064820152fd5b8280fd5b8390346101d15760203660031901126101d1576102e3610f03565b82546001600160a01b0392906102fc908416331461116e565b60115490680100000000000000009182811015610378578060016103239201601155610f81565b8154906000199060031b1b19169055600a5491821015610365575080600161034e9201600a55610f34565b90928084549260031b9316831b921b191617905580f35b634e487b7160e01b855260419052602484fd5b634e487b7160e01b865260418252602486fd5b5050346101d157816003193601126101d15760085490516001600160a01b039091168152602090f35b5050346101d157816003193601126101d15760209051633b9aca008152f35b5050346101d157816003193601126101d15760209060ff60085460a01c1690519015158152f35b5050346101d157816003193601126101d15760055490516001600160a01b039091168152602090f35b9050346102c45760203660031901126102c457359160115483101561045c575061044e602092610f81565b91905490519160031b1c8152f35b80fd5b919050346102c45760203660031901126102c457813567ffffffffffffffff811161063f576104919036908401610fce565b845490936001600160a01b0392916104ac908416331461116e565b6008549460ff8660a01c166105fc5780156105d657836104cb846111b9565b16946bffffffffffffffffffffffff60a01b9586600154161760015581600110156105e957846104fd602086016111b9565b1686600254161760025581600210156105e95761051c859185016111b9565b1685600354161760035580600310156105d6578361053c606085016111b9565b1685835416178255808210156105d65783610559608085016111b9565b1685600654161760065580600510156105d6578361057960a085016111b9565b16856007541617600755600610156105c3575060c061059891016111b9565b6005805490931691161790556001600160a81b0319163360ff60a01b191617600160a01b1760085580f35b634e487b7160e01b865260329052602485fd5b634e487b7160e01b875260328252602487fd5b634e487b7160e01b885260328352602488fd5b845162461bcd60e51b8152602081840152601c60248201527f536574757020697320616c726561647920696e697469616c697a6564000000006044820152606490fd5b8380fd5b9050346102c457816003193601126102c45761065d610f03565b926024359067ffffffffffffffff821161045c573660238301121561045c57509261069761069d928560246106c1973693013591016110dc565b90611957565b6106b38394929451948486958652850190611033565b90838203602085015261113a565b0390f35b5050346101d157816003193601126101d1576020906012549051908152f35b5050346101d157816003193601126101d1576020906001600160801b03600e54169051908152f35b5050346101d157816003193601126101d157805190818093600a5490818552602080950191600a82527fc65a7bb8d6351c1cf70c95a316cc6a92839c986682d98bc35f958f4883f9d2a8915b868282106107815785906106c188610772848903856110a2565b51928284938452830190611033565b83546001600160a01b031685528895509093019260019283019201610758565b919050346102c4576107b236610fff565b338652600b60205283862054929483156108b857506107da61088093926107e09236916110dc565b33611957565b916108116107ed33611b21565b91828810156108ad576108018389926111cd565b9261080c8233611d26565b6111cd565b61081b8133611dab565b85519081527fbce78369dccab09eec1986f4d409ab09ffbb47d65423e5148fcf98411c5111c960203392a27ff20651f7c9cd4e1c112f77cbf2a13a44f79d4165dd781c41b52052bfc888174a8551806108773394878784611215565b0390a233611c08565b519081527fc7c8ab309277169a63ed070feed2a9c7de84e71be9d50f6f06c898458562561c60203392a280f35b6108018380926111cd565b608490602086519162461bcd60e51b8352820152603060248201527f53746162696c697479506f6f6c3a2055736572206d757374206861766520612060448201526f1b9bdb8b5e995c9bc819195c1bdcda5d60821b6064820152fd5b5050346101d157816003193601126101d15760075490516001600160a01b039091168152602090f35b5050346101d157816003193601126101d157905490516001600160a01b039091168152602090f35b5050346101d157816003193601126101d157602090600d549051908152f35b5050346101d157816003193601126101d15760065490516001600160a01b039091168152602090f35b5050346101d15760203660031901126101d15760809181906001600160a01b036109d5610f03565b168152600c602052206001810154916003600283015492015491815193845260208401526001600160801b03821690830152821c6060820152f35b9050346102c457610a2036610fff565b928215610ba357338652610a436107da602093600b8552878920549636916110dc565b929094610ace82610a5d610a5633611b21565b80946111cd565b96610a7481610a6e816009546111f0565b956111f0565b9584600955610a838733611dab565b610a8e888b33611c08565b6001548b516323b872dd60e01b8152339281019283523060208401526040830193909352919384926001600160a01b03169183918e918391606090910190565b03925af18015610b9957927f8c9268469ff6265448f46f8119962e815f393b25b87bb55bda5e709a412b85d781610b6696947fbce78369dccab09eec1986f4d409ab09ffbb47d65423e5148fcf98411c5111c9947ff20651f7c9cd4e1c112f77cbf2a13a44f79d4165dd781c41b52052bfc888174a9b9c97610b6c575b508651908152a183519283523392a251928392339684611215565b0390a280f35b610b8b90833d8511610b92575b610b8381836110a2565b8101906111fd565b5038610b4b565b503d610b79565b88513d8b823e3d90fd5b608490602086519162461bcd60e51b8352820152602660248201527f53746162696c697479506f6f6c3a20416d6f756e74206d757374206265206e6f6044820152656e2d7a65726f60d01b6064820152fd5b5050346101d157816003193601126101d15760035490516001600160a01b039091168152602090f35b9050346102c457816003193601126102c457356001600160801b0380821680920361063f57928291602094610c51610fb8565b9183526010865283832091168252845220549051908152f35b5050346101d15760603660031901126101d157610c85610f03565b610c8d610fb8565b604435916001600160801b0390818416809403610cd6576001600160a01b03168552600f6020908152848620919092168552815282842091845290815291819020549051908152f35b8580fd5b5050346101d157816003193601126101d157602090600e5460801c9051908152f35b5050346101d157816003193601126101d15760025490516001600160a01b039091168152602090f35b833461045c578060031936011261045c57805481906001600160a01b03811690610d5033831461116e565b6001600160a01b03191682557f8be0079c531659141344cd1fd0a4f28419497f9722a3daafe3b4186f6b6457e08280a380f35b919050346102c45760603660031901126102c457610d9f610f1e565b6007549091906001600160a01b03163303610dc7575090610dc4916044359135611243565b80f35b5162461bcd60e51b8152602081840181905260248201527f4f6e6c792063616c6c61626c65206279205661756c744f7065726174696f6e736044820152606490fd5b5050346101d157806003193601126101d15780602092610e27610f03565b610e2f610f1e565b6001600160a01b039182168352600c865283832091168252845220549051908152f35b9050346102c45760203660031901126102c4573591600a5483101561045c5750610e7d602092610f34565b905491519160018060a01b039160031b1c168152f35b5050346101d15760203660031901126101d157602090610eb9610eb4610f03565b611b21565b9051908152f35b5050346101d157816003193601126101d1576020906009549051908152f35b8491346102c457826003193601126102c457546001600160a01b0316815260209150f35b600435906001600160a01b0382168203610f1957565b600080fd5b602435906001600160a01b0382168203610f1957565b600a54811015610f6b57600a6000527fc65a7bb8d6351c1cf70c95a316cc6a92839c986682d98bc35f958f4883f9d2a80190600090565b634e487b7160e01b600052603260045260246000fd5b601154811015610f6b5760116000527f31ecc21a745e3968a04e9570e4425bc18fa8019c68028196b546d1669c200c680190600090565b602435906001600160801b0382168203610f1957565b9181601f84011215610f195782359167ffffffffffffffff8311610f19576020808501948460051b010111610f1957565b906040600319830112610f1957600435916024359067ffffffffffffffff8211610f195761102f91600401610fce565b9091565b90815180825260208080930193019160005b828110611053575050505090565b83516001600160a01b031685529381019392810192600101611045565b6020810190811067ffffffffffffffff82111761108c57604052565b634e487b7160e01b600052604160045260246000fd5b90601f8019910116810190811067ffffffffffffffff82111761108c57604052565b67ffffffffffffffff811161108c5760051b60200190565b92916110e7826110c4565b916110f560405193846110a2565b829481845260208094019160051b8101928311610f1957905b82821061111b5750505050565b81356001600160a01b0381168103610f1957815290830190830161110e565b90815180825260208080930193019160005b82811061115a575050505090565b83518552938101939281019260010161114c565b1561117557565b606460405162461bcd60e51b815260206004820152602060248201527f4f776e61626c653a2063616c6c6572206973206e6f7420746865206f776e65726044820152fd5b356001600160a01b0381168103610f195790565b919082039182116111da57565b634e487b7160e01b600052601160045260246000fd5b919082018092116111da57565b90816020910312610f1957518015158103610f195790565b93929161123e90611230604093606088526060880190611033565b90868203602088015261113a565b930152565b92916000906040908151938285019067ffffffffffffffff91868110838211176118bc5784526002865260209561053560f41b8782015284518781019063104c13eb60e21b8252876024938a858401528051908160448501528b835b8381106118a457505050916112d0606482858583819884010152601f801991011681010360448101845201826110a2565b516a636f6e736f6c652e6c6f6793845afa5085518881019063f5b1bba960e01b8252868482015283815260608101818110878211176118915788525188928392905afa506009549283158015611889575b61187d5760018060a01b038060065416938188519163b31610db60e01b835216958a8286816004998b8b8301525afa918215611873578a92611840575b50670de0b6b3a76400009182890289810484148a15171561170d57828f916113969061138985610f81565b90549060031b1c906111f0565b91116117e4578b91908f84810361177e57506113cf6113d59186946012555b6113c96113c287836118e3565b96876118d0565b906111cd565b91610f81565b819291549060031b91821b91600019901b191617905582811161173c57600d54908084039284841161172a578b938e93611474938f9360808e7fe799d8213ffd47c58af0bad222f3f83a7bacf689130d897017d6c2cb9346e8cb928a600e548b6001600160801b039d8e83169b8c93881c9d8e96888352600f85528383208884528552838320868452855261146e8d85852054926118d0565b906111f0565b938493888352600f8152838320888452815283832091835252205581519384528b840152820152866060820152a1870361168f57505050906114d67fb50f0f59e7cb5b421dc77581c3a9919e3806e076e5fa78a874c3f120cb7d874d92611903565b928b519084168152a16001600160801b03199060801b16600e557f1f9dfc70cd666adb18a39d60a797518f7b4febf4b6e24ef37d44f6e1e7219fbe8a89518b8152a15b80156116565789817fc1a9618cb59ebca77cbdbc2949f126823c407ff13edb285fd0262519a9c18e8c92600d558951908152a16115558b61191b565b60015416998a3b15611652578651632770a7eb60e21b8152308582019081526020810192909252999a98999896979687918a919082908490829060400103925af180156116485790899594939291611612575b505085516323b872dd60e01b815233918101918252306020830152604082019390935291955085918290859082906060015b03925af19182156116085750506115ef575050565b8161160592903d10610b9257610b8381836110a2565b50565b51903d90823e3d90fd5b9091969780939550959395116116375750918594939187936115da97529338806115a8565b634e487b7160e01b83526041865282fd5b87513d88823e3d90fd5b8780fd5b875162461bcd60e51b81528086018b905260148186015273053746162696c697479506f6f6c3a2050203d20360641b6044820152606490fd5b909195935061169e92506118d0565b633b9aca00908281048281101561171f575081810291818304149015171561170d57916116ef8d927f1f9dfc70cd666adb18a39d60a797518f7b4febf4b6e24ef37d44f6e1e7219fbe940494611903565b16806001600160801b0319600e541617600e558a51908152a1611519565b634e487b7160e01b8c5260118852868cfd5b945050505050611519565b634e487b7160e01b8d5260118952878dfd5b895162461bcd60e51b81528088018d90526017818801527f53746162696c697479506f6f6c3a204c6f7373203c20310000000000000000006044820152606490fd5b9092508481029080820486149015171561172a5760125461179e916111cd565b916117a984846118e3565b92600184018094116117d2576113d5916117ca6113cf9261080c88886118d0565b6012556113b5565b634e487b7160e01b8e5260118a52888efd5b50895162461bcd60e51b81528088018d90526030818801527f53746162696c697479506f6f6c3a2044656274206973206c617267657220746860448201526f616e20746f74616c4465706f7369747360801b6064820152608490fd5b9091508a81813d831161186c575b61185881836110a2565b810103126118685751903861135e565b8980fd5b503d61184e565b89513d8c823e3d90fd5b50505050505050509050565b508915611321565b634e487b7160e01b8a526041600452848afd5b828101820151868201606401528c94508d910161129f565b634e487b7160e01b86526041600452602486fd5b818102929181159184041417156111da57565b81156118ed570490565b634e487b7160e01b600052601260045260246000fd5b9060016001600160801b03809316019182116111da57565b602061194a7f8c9268469ff6265448f46f8119962e815f393b25b87bb55bda5e709a412b85d7926009546111cd565b80600955604051908152a1565b919060018060a01b03809316600090808252602090600b825260409081842054908115611ae2578493929352600c825282842091855193600195865b868110611aa057506119b4996119a8876110c4565b9383519b8c95866110a2565b878552601f196119c3896110c4565b013682870137829189880154976003810154918c8360801c956001600160801b03809516995b8d8210611a03575050505050505050505050505050509190565b611a958f93670de0b6b3a76400008f8f908f8f928f8f928f8f968f938f96633b9aca00938f9c9a611a8397611a899a8f611a4090611a8e9f611b0d565b5116855282528484205492600f83528585209085528252611a76611a7086862094898752858552878720546111cd565b97611903565b16835252205404906111f0565b906118d0565b6118e3565b0492611b0d565b52018f908e916119e9565b8a611aae828b999699611b0d565b51168b611abf60001984018c611b0d565b51161015611ad1578701959295611993565b8251637243bc1760e11b8152600490fd5b50509250509250805190611af582611070565b8382525192611b0384611070565b8084523681379190565b8051821015610f6b5760209160051b010190565b6001600160a01b03166000908152600b60205260409020548015611b5557600c6020526040600020611b5291611b5b565b90565b50600090565b9190916003600184015493015492600e548060801c8560801c10611bff576000906001600160801b038080971691160394808611611beb57633b9aca00939495168015600014611bc3575050611bb790611a89600d54856118d0565b915b048110611b555790565b600103611be35750611bdc8291611a89600d54866118d0565b0491611bb9565b905091611bb9565b634e487b7160e01b82526011600452602482fd5b50600093505050565b9080519183518303611ce157600093845b848110611c2857505050505050565b611c328183611b0d565b518015611cd757611c8e906001600160a01b03611c4f8488611b0d565b516040805163a9059cbb60e01b81526001600160a01b0389166004820152602481019490945260209490928592859291169082908d9082906044820190565b03925af1908115611cce5750906001939291611cb0575b505001935b93611c19565b81611cc692903d10610b9257610b8381836110a2565b503880611ca5565b513d8a823e3d90fd5b5060010193611caa565b60405162461bcd60e51b815260206004820152601e60248201527f53746162696c697479506f6f6c3a204c656e677468206d69736d6174636800006044820152606490fd5b908015611da75760015460405163a9059cbb60e01b81526001600160a01b039384166004820152602481018390529260209184916044918391600091165af1918215611d9b57611d7b92611d7d575b5061191b565b565b611d949060203d8111610b9257610b8381836110a2565b5038611d75565b6040513d6000823e3d90fd5b5050565b91909160018060a01b0380911690600090828252602091600b83526040928684832055835196878883600a549283815201600a86527fc65a7bb8d6351c1cf70c95a316cc6a92839c986682d98bc35f958f4883f9d2a892865b86828210611f7b57505050611e1b925003896110a2565b8751868452600c938484528681209215611efc57600e54946001600160801b038616928660801c91600d5498845b838110611eb557505050507fc48943df4095f4f20d171fd2872eafdc0eed4d9014ac3672f3bde7fd425449d598999a5081889160039493526010865281812083825286522054948660018501558560028501556001600160801b031916179101558351928352820152a2565b808f8d8f91611ec76001958792611b0d565b511690818a52600f8d52808a20898b528d52808a208b8b528d52808a2054928a52868d5289209089528b528d88205501611e49565b98919389959193955b848110611f5357505050505094806003878260017fc48943df4095f4f20d171fd2872eafdc0eed4d9014ac3672f3bde7fd425449d598999a01558260028201550155825191818352820152a2565b600190898c52828852888c2084611f6a8388611b0d565b51168d5288528b8981205501611f05565b85548a1684526001958601958e955093019201611e0456","linkReferences":{}},"methodIdentifiers":{"P()":"8b8fbd92","S(address,address)":"4e8338eb","SCALE_FACTOR()":"ce4b5bbe","addCollateralType(address)":"ec0d5e0c","currentEpoch()":"76671808","currentScale()":"a4e59ac8","debtToken()":"f8d89898","deposit(uint256,address[])":"85d7cf86","depositSnapshots(address)":"86da0824","deposits(address)":"fc7e286d","epochToScaleToG(uint128,uint128)":"82e0a574","epochToScaleToSum(address,uint128,uint128)":"7ee4196b","getCompoundedDebtTokenDeposits(address)":"121f2b26","getDepositorGains(address,address[])":"ad3018f0","getTotalDebtTokenDeposits()":"0d9a6b35","getValidCollateral()":"9d6aea0a","isAddressSetupInitialized()":"c8564c62","keikoDeployer()":"ea8db462","lastAssetError_Offset(uint256)":"be35d3bd","lastDebtTokenLossError_Offset()":"a7a48884","offsetDebt(uint256,address,uint256)":"59caa996","owner()":"8da5cb5b","priceFeed()":"741bef1a","renounceOwnership()":"715018a6","setAddresses(address[])":"b9571721","stabilityPool()":"048c661d","totalDebtTokenDeposits()":"0a68f2d7","transferOwnership(address)":"f2fde38b","treasuryAddress()":"c5f956af","validCollaterals(uint256)":"13afb188","vaultManager()":"8a4adf24","vaultOperations()":"9718cf59","vaultSorter()":"841f0ebb","withdraw(uint256,address[])":"99eca69f"},"id":23}