{"abi":[{"type":"function","name":"BASE_FEE","inputs":[],"outputs":[{"name":"","type":"uint256","internalType":"uint256"}],"stateMutability":"view"},{"type":"function","name":"LIQUIDATION_PENALTY","inputs":[],"outputs":[{"name":"","type":"uint256","internalType":"uint256"}],"stateMutability":"view"},{"type":"function","name":"MAX_CR_RANGE","inputs":[],"outputs":[{"name":"","type":"uint256","internalType":"uint256"}],"stateMutability":"view"},{"type":"function","name":"MAX_FEE","inputs":[],"outputs":[{"name":"","type":"uint256","internalType":"uint256"}],"stateMutability":"view"},{"type":"function","name":"MCR_FACTOR","inputs":[],"outputs":[{"name":"","type":"uint256","internalType":"uint256"}],"stateMutability":"view"},{"type":"function","name":"MINT_CAP_DEFAULT","inputs":[],"outputs":[{"name":"","type":"uint256","internalType":"uint256"}],"stateMutability":"view"},{"type":"function","name":"MIN_CR_RANGE","inputs":[],"outputs":[{"name":"","type":"uint256","internalType":"uint256"}],"stateMutability":"view"},{"type":"function","name":"MIN_NET_DEBT_DEFAULT","inputs":[],"outputs":[{"name":"","type":"uint256","internalType":"uint256"}],"stateMutability":"view"},{"type":"function","name":"REDEMPTION_FEE","inputs":[],"outputs":[{"name":"","type":"uint256","internalType":"uint256"}],"stateMutability":"view"},{"type":"function","name":"addNewCollateral","inputs":[{"name":"collateral","type":"address","internalType":"address"},{"name":"decimals","type":"uint256","internalType":"uint256"}],"outputs":[],"stateMutability":"nonpayable"},{"type":"function","name":"adjustVaultData","inputs":[{"name":"vaultCollateral","type":"address","internalType":"address"},{"name":"vaultOwner","type":"address","internalType":"address"},{"name":"collateralAmount","type":"uint256","internalType":"uint256"},{"name":"debtAmount","type":"uint256","internalType":"uint256"},{"name":"mcr","type":"uint256","internalType":"uint256"}],"outputs":[],"stateMutability":"nonpayable"},{"type":"function","name":"calculateARS","inputs":[{"name":"vaultCollateral","type":"address","internalType":"address"},{"name":"vaultOwner","type":"address","internalType":"address"}],"outputs":[{"name":"","type":"uint256","internalType":"uint256"}],"stateMutability":"view"},{"type":"function","name":"calculateCR","inputs":[{"name":"vaultCollateral","type":"address","internalType":"address"},{"name":"vaultOwner","type":"address","internalType":"address"}],"outputs":[{"name":"","type":"uint256","internalType":"uint256"}],"stateMutability":"view"},{"type":"function","name":"calculateNCR","inputs":[{"name":"vaultCollateral","type":"address","internalType":"address"},{"name":"vaultOwner","type":"address","internalType":"address"}],"outputs":[{"name":"","type":"uint256","internalType":"uint256"}],"stateMutability":"view"},{"type":"function","name":"checkVaultState","inputs":[{"name":"vaultCollateral","type":"address","internalType":"address"},{"name":"vaultOwner","type":"address","internalType":"address"}],"outputs":[{"name":"","type":"bool","internalType":"bool"}],"stateMutability":"view"},{"type":"function","name":"debtToken","inputs":[],"outputs":[{"name":"","type":"address","internalType":"address"}],"stateMutability":"view"},{"type":"function","name":"getBaseFee","inputs":[{"name":"_collateral","type":"address","internalType":"address"}],"outputs":[{"name":"","type":"uint256","internalType":"uint256"}],"stateMutability":"view"},{"type":"function","name":"getDecimals","inputs":[{"name":"_collateral","type":"address","internalType":"address"}],"outputs":[{"name":"","type":"uint256","internalType":"uint256"}],"stateMutability":"view"},{"type":"function","name":"getIndex","inputs":[{"name":"_collateral","type":"address","internalType":"address"}],"outputs":[{"name":"","type":"uint256","internalType":"uint256"}],"stateMutability":"view"},{"type":"function","name":"getIsActive","inputs":[{"name":"_collateral","type":"address","internalType":"address"}],"outputs":[{"name":"","type":"bool","internalType":"bool"}],"stateMutability":"view"},{"type":"function","name":"getLiquidationPenalty","inputs":[{"name":"_collateral","type":"address","internalType":"address"}],"outputs":[{"name":"","type":"uint256","internalType":"uint256"}],"stateMutability":"view"},{"type":"function","name":"getMCRFactor","inputs":[{"name":"_collateral","type":"address","internalType":"address"}],"outputs":[{"name":"","type":"uint256","internalType":"uint256"}],"stateMutability":"view"},{"type":"function","name":"getMaxFee","inputs":[{"name":"_collateral","type":"address","internalType":"address"}],"outputs":[{"name":"","type":"uint256","internalType":"uint256"}],"stateMutability":"view"},{"type":"function","name":"getMaxRange","inputs":[{"name":"_collateral","type":"address","internalType":"address"}],"outputs":[{"name":"","type":"uint256","internalType":"uint256"}],"stateMutability":"view"},{"type":"function","name":"getMinNetDebt","inputs":[{"name":"_collateral","type":"address","internalType":"address"}],"outputs":[{"name":"","type":"uint256","internalType":"uint256"}],"stateMutability":"view"},{"type":"function","name":"getMinRange","inputs":[{"name":"_collateral","type":"address","internalType":"address"}],"outputs":[{"name":"","type":"uint256","internalType":"uint256"}],"stateMutability":"view"},{"type":"function","name":"getMintCap","inputs":[{"name":"_collateral","type":"address","internalType":"address"}],"outputs":[{"name":"","type":"uint256","internalType":"uint256"}],"stateMutability":"view"},{"type":"function","name":"getRedemptionFee","inputs":[],"outputs":[{"name":"","type":"uint256","internalType":"uint256"}],"stateMutability":"view"},{"type":"function","name":"getValidCollateral","inputs":[],"outputs":[{"name":"","type":"address[]","internalType":"address[]"}],"stateMutability":"view"},{"type":"function","name":"getVaultData","inputs":[{"name":"vaultCollateral","type":"address","internalType":"address"},{"name":"vaultOwner","type":"address","internalType":"address"}],"outputs":[{"name":"","type":"uint256","internalType":"uint256"},{"name":"","type":"uint256","internalType":"uint256"},{"name":"","type":"uint256","internalType":"uint256"}],"stateMutability":"view"},{"type":"function","name":"getVaultInterestRate","inputs":[{"name":"vaultCollateral","type":"address","internalType":"address"},{"name":"vaultOwner","type":"address","internalType":"address"}],"outputs":[{"name":"","type":"uint256","internalType":"uint256"}],"stateMutability":"view"},{"type":"function","name":"isAddressSetupInitialized","inputs":[],"outputs":[{"name":"","type":"bool","internalType":"bool"}],"stateMutability":"view"},{"type":"function","name":"isAddressValid","inputs":[{"name":"_address","type":"address","internalType":"address"}],"outputs":[{"name":"","type":"bool","internalType":"bool"}],"stateMutability":"view"},{"type":"function","name":"keikoDeployer","inputs":[],"outputs":[{"name":"","type":"address","internalType":"address"}],"stateMutability":"view"},{"type":"function","name":"owner","inputs":[],"outputs":[{"name":"","type":"address","internalType":"address"}],"stateMutability":"view"},{"type":"function","name":"priceFeed","inputs":[],"outputs":[{"name":"","type":"address","internalType":"address"}],"stateMutability":"view"},{"type":"function","name":"renounceOwnership","inputs":[],"outputs":[],"stateMutability":"nonpayable"},{"type":"function","name":"setAddresses","inputs":[{"name":"_addresses","type":"address[]","internalType":"address[]"}],"outputs":[],"stateMutability":"nonpayable"},{"type":"function","name":"setBaseFee","inputs":[{"name":"collateral","type":"address","internalType":"address"},{"name":"baseFee","type":"uint256","internalType":"uint256"}],"outputs":[],"stateMutability":"nonpayable"},{"type":"function","name":"setCollateralParameters","inputs":[{"name":"_collateral","type":"address","internalType":"address"},{"name":"mcrMinRange","type":"uint256","internalType":"uint256"},{"name":"mcrMaxRange","type":"uint256","internalType":"uint256"},{"name":"mcrFactor","type":"uint256","internalType":"uint256"},{"name":"baseFee","type":"uint256","internalType":"uint256"},{"name":"maxFee","type":"uint256","internalType":"uint256"},{"name":"minNetDebt","type":"uint256","internalType":"uint256"},{"name":"mintCap","type":"uint256","internalType":"uint256"},{"name":"liquidationPenalty","type":"uint256","internalType":"uint256"}],"outputs":[],"stateMutability":"nonpayable"},{"type":"function","name":"setIsActive","inputs":[{"name":"collateral","type":"address","internalType":"address"},{"name":"active","type":"bool","internalType":"bool"}],"outputs":[],"stateMutability":"nonpayable"},{"type":"function","name":"setLiquidationPenalty","inputs":[{"name":"collateral","type":"address","internalType":"address"},{"name":"penalty","type":"uint256","internalType":"uint256"}],"outputs":[],"stateMutability":"nonpayable"},{"type":"function","name":"setMCRFactor","inputs":[{"name":"collateral","type":"address","internalType":"address"},{"name":"mcrFactor","type":"uint256","internalType":"uint256"}],"outputs":[],"stateMutability":"nonpayable"},{"type":"function","name":"setMaxFee","inputs":[{"name":"collateral","type":"address","internalType":"address"},{"name":"maxFee","type":"uint256","internalType":"uint256"}],"outputs":[],"stateMutability":"nonpayable"},{"type":"function","name":"setMaxRange","inputs":[{"name":"collateral","type":"address","internalType":"address"},{"name":"maxRange","type":"uint256","internalType":"uint256"}],"outputs":[],"stateMutability":"nonpayable"},{"type":"function","name":"setMinNetDebt","inputs":[{"name":"collateral","type":"address","internalType":"address"},{"name":"minNetDebt","type":"uint256","internalType":"uint256"}],"outputs":[],"stateMutability":"nonpayable"},{"type":"function","name":"setMinRange","inputs":[{"name":"collateral","type":"address","internalType":"address"},{"name":"minRange","type":"uint256","internalType":"uint256"}],"outputs":[],"stateMutability":"nonpayable"},{"type":"function","name":"setMintCap","inputs":[{"name":"collateral","type":"address","internalType":"address"},{"name":"mintCap","type":"uint256","internalType":"uint256"}],"outputs":[],"stateMutability":"nonpayable"},{"type":"function","name":"setRedemptionFee","inputs":[{"name":"fee","type":"uint256","internalType":"uint256"}],"outputs":[],"stateMutability":"nonpayable"},{"type":"function","name":"stabilityPool","inputs":[],"outputs":[{"name":"","type":"address","internalType":"address"}],"stateMutability":"view"},{"type":"function","name":"transferOwnership","inputs":[{"name":"newOwner","type":"address","internalType":"address"}],"outputs":[],"stateMutability":"nonpayable"},{"type":"function","name":"treasuryAddress","inputs":[],"outputs":[{"name":"","type":"address","internalType":"address"}],"stateMutability":"view"},{"type":"function","name":"userVaults","inputs":[{"name":"","type":"address","internalType":"address"},{"name":"","type":"address","internalType":"address"}],"outputs":[{"name":"collateral","type":"uint256","internalType":"uint256"},{"name":"debt","type":"uint256","internalType":"uint256"},{"name":"mcr","type":"uint256","internalType":"uint256"}],"stateMutability":"view"},{"type":"function","name":"validCollateral","inputs":[{"name":"","type":"uint256","internalType":"uint256"}],"outputs":[{"name":"","type":"address","internalType":"address"}],"stateMutability":"view"},{"type":"function","name":"vaultManager","inputs":[],"outputs":[{"name":"","type":"address","internalType":"address"}],"stateMutability":"view"},{"type":"function","name":"vaultOperations","inputs":[],"outputs":[{"name":"","type":"address","internalType":"address"}],"stateMutability":"view"},{"type":"function","name":"vaultSorter","inputs":[],"outputs":[{"name":"","type":"address","internalType":"address"}],"stateMutability":"view"},{"type":"event","name":"BaseFeeSet","inputs":[{"name":"_collateral","type":"address","indexed":false,"internalType":"address"},{"name":"_baseFee","type":"uint256","indexed":false,"internalType":"uint256"}],"anonymous":false},{"type":"event","name":"CollateralAdded","inputs":[{"name":"collateral","type":"address","indexed":true,"internalType":"address"}],"anonymous":false},{"type":"event","name":"CollateralParamsSet","inputs":[{"name":"_collateral","type":"address","indexed":true,"internalType":"address"},{"name":"mcr","type":"uint256","indexed":false,"internalType":"uint256"},{"name":"maxRange","type":"uint256","indexed":false,"internalType":"uint256"},{"name":"baseFee","type":"uint256","indexed":false,"internalType":"uint256"},{"name":"minNetDebt","type":"uint256","indexed":false,"internalType":"uint256"},{"name":"mintCap","type":"uint256","indexed":false,"internalType":"uint256"},{"name":"liquidationPenalty","type":"uint256","indexed":false,"internalType":"uint256"}],"anonymous":false},{"type":"event","name":"IsActiveSet","inputs":[{"name":"_collateral","type":"address","indexed":true,"internalType":"address"},{"name":"_active","type":"bool","indexed":false,"internalType":"bool"}],"anonymous":false},{"type":"event","name":"LiquidationPenaltyChanged","inputs":[{"name":"oldPenalty","type":"uint256","indexed":false,"internalType":"uint256"},{"name":"newPenalty","type":"uint256","indexed":false,"internalType":"uint256"}],"anonymous":false},{"type":"event","name":"MCRFactorSet","inputs":[{"name":"_collateral","type":"address","indexed":false,"internalType":"address"},{"name":"_mcrFactor","type":"uint256","indexed":false,"internalType":"uint256"}],"anonymous":false},{"type":"event","name":"MaxFeeSet","inputs":[{"name":"_collateral","type":"address","indexed":false,"internalType":"address"},{"name":"_maxFee","type":"uint256","indexed":false,"internalType":"uint256"}],"anonymous":false},{"type":"event","name":"MaxRangeSet","inputs":[{"name":"_collateral","type":"address","indexed":false,"internalType":"address"},{"name":"_maxRange","type":"uint256","indexed":false,"internalType":"uint256"}],"anonymous":false},{"type":"event","name":"MinNetDebtChanged","inputs":[{"name":"oldMinNetDebt","type":"uint256","indexed":false,"internalType":"uint256"},{"name":"newMinNetDebt","type":"uint256","indexed":false,"internalType":"uint256"}],"anonymous":false},{"type":"event","name":"MinRangeUpdated","inputs":[{"name":"_collateral","type":"address","indexed":false,"internalType":"address"},{"name":"_mcr","type":"uint256","indexed":false,"internalType":"uint256"}],"anonymous":false},{"type":"event","name":"MintCapChanged","inputs":[{"name":"oldMintCap","type":"uint256","indexed":false,"internalType":"uint256"},{"name":"newMintCap","type":"uint256","indexed":false,"internalType":"uint256"}],"anonymous":false},{"type":"event","name":"OwnershipTransferred","inputs":[{"name":"previousOwner","type":"address","indexed":true,"internalType":"address"},{"name":"newOwner","type":"address","indexed":true,"internalType":"address"}],"anonymous":false},{"type":"event","name":"RedemptionFeeSet","inputs":[{"name":"_fee","type":"uint256","indexed":false,"internalType":"uint256"}],"anonymous":false}],"bytecode":{"object":"0x608080604052346100665760008054336001600160a01b0319821681178355916001600160a01b03909116907f8be0079c531659141344cd1fd0a4f28419497f9722a3daafe3b4186f6b6457e09080a36658d15e176280006009556123a3908161006c8239f35b600080fdfe6040608081526004908136101561001557600080fd5b600091823560e01c8062e34e69146118eb578063048c661d146118c45780630bc028c21461183e5780630bd75e57146117d55780630fe66cdd1461173a57806317ae1fc5146116f857806320780e73146116cd5780632a6e76031461168d5780632fe343e01461165f5780633073753e14611631578063358749021461160d57806339c35405146114425780633d18651e14611420578063482601e3146113f557806348c3c7e31461136a5780634e1bcdfe1461133c57806352547f6d14610b955780635b372451146110ef57806360f5dfda146110c4578063715018a6146110665780637264269e14610f7c578063741bef1a14610f53578063773b2ac414610ec15780637a30512214610e9c5780637dbc1df014610def578063841f0ebb14610dc657806386d10e8c14610d9b5780638a4adf2414610d725780638c441dcd14610c885780638da5cb5b14610c6057806390e3c75414610c2b57806391bbfd0d14610c005780639718cf5914610bd75780639b8621d514610bb45780639cd6f00914610b955780639d6aea0a14610acd578063ac26a91214610aa2578063b31610db14610a77578063b4528b5c146109e0578063b9571721146107f2578063bad3867a146107ce578063bc063e1a14610617578063c06abe7714610748578063c5f20d7b1461066c578063c5f956af14610643578063c8564c621461061c578063cbe5afd114610617578063cf31ff86146105e8578063cf54aaa0146105b0578063d923acdc14610585578063e162d98b146104ee578063ea8db462146104c5578063f2ecdcae146104a1578063f2fde38b146103db578063f53e4898146102fb578063f8d89898146102ce5763fe088a471461029357600080fd5b346102ca5760203660031901126102ca5760209282906001600160a01b036102b9611e0e565b168152600b85522001549051908152f35b8280fd5b5050346102f757816003193601126102f75760015490516001600160a01b039091168152602090f35b5080fd5b508290346102f757826003193601126102f757610316611e0e565b8254602435926001600160a01b03916103329083163314611ec3565b61034361033e84611f85565b612362565b670de0b6b3a764000084106103a9575081168352600b602090815284842060030183905593516001600160a01b03909116815292830152907fa80630e44e1af72e21c72b3fc0991439ab80bd902bd8d460127124d985e5863d9080604081015b0390a180f35b606490602087519162461bcd60e51b8352820152600c60248201526b4d696e204d4352203130302560a01b6044820152fd5b50346102ca5760203660031901126102ca576103f5611e0e565b83546001600160a01b03808216939192610410338614611ec3565b1693841561044f5750506001600160a01b031916821783557f8be0079c531659141344cd1fd0a4f28419497f9722a3daafe3b4186f6b6457e08380a380f35b906020608492519162461bcd60e51b8352820152602660248201527f4f776e61626c653a206e6577206f776e657220697320746865207a65726f206160448201526564647265737360d01b6064820152fd5b5050346102f757816003193601126102f75760209051681043561a88293000008152f35b5050346102f757816003193601126102f75760085490516001600160a01b039091168152602090f35b5050346102f757806003193601126102f7577f9e9d5460f39b762bca2d14bf0b73f77900f18c6c20dba81d9370ab3c495876729061052a611e0e565b6103a36024359260018060a01b03610546818854163314611ec3565b61055261033e85611f85565b83168652600b602090815281872060060185905590516001600160a01b0390931683528201929092529081906040820190565b5050346102f75760203660031901126102f75760209160039082906001600160a01b036102b9611e0e565b5050346102f75760203660031901126102f75760209181906001600160a01b036105d8611e0e565b168152600b845220549051908152f35b5050346102f75760203660031901126102f75760209061060e610609611e0e565b611f85565b90519015158152f35b611e8c565b5050346102f757816003193601126102f75760209060ff60085460a01c1690519015158152f35b5050346102f757816003193601126102f75760075490516001600160a01b039091168152602090f35b509190346102f757806003193601126102f757610687611e0e565b926024359060018060a01b03906106a2828654163314611ec3565b670429d069189e000083116106f757507fcece6dc2cc4458d2ad01cd534f8fe8a0dfc229fc5d936da9d6709927ad0bfc619394168452600b602052600a8285200190808254925582519182526020820152a180f35b608490602085519162461bcd60e51b8352820152602560248201527f4c69717569646174696f6e2070656e616c74792063616e6e6f74206578636565604482015264642033302560d81b6064820152fd5b5050346102f757806003193601126102f7577f903452cfae6c90575a1e7327283877d56dda9ed43a4711f44bf796e103e4e12090610784611e0e565b8354602435916001600160a01b03916107a09083163314611ec3565b6107ac61033e82611f85565b168452600b60205260098285200190808254925582519182526020820152a180f35b5050346102f757816003193601126102f75760209051680821ab0d44149800008152f35b50346102ca5760203660031901126102ca5767ffffffffffffffff9080358281116109dc57366023820112156109dc57808201359283116109dc57602436818560051b840101116109d8576008549460ff8660a01c1661099657508315610985576001600160a01b039283610868848401611eaf565b16946bffffffffffffffffffffffff60a01b958660015416176001558060011015610973578461089a60448601611eaf565b16866002541617600255806002101561097357846108ba60648601611eaf565b16866003541617600355806003101561097357846108da60848601611eaf565b16868354161782558082101561097357846108f760a48601611eaf565b168660055416176005558060051015610973578461091760c48601611eaf565b168660065416176006556006101561096257505060e46109379101611eaf565b6007805490931691161790556001600160a81b0319163360ff60a01b191617600160a01b1760085580f35b634e487b7160e01b87526032905285fd5b50634e487b7160e01b87526032905285fd5b634e487b7160e01b86526032835285fd5b601c60649260208693519362461bcd60e51b85528401528201527f536574757020697320616c726561647920696e697469616c697a6564000000006044820152fd5b8580fd5b8480fd5b5050346102f757806003193601126102f7577f965fb4f519959cdbe5a1e7698e04677b27039572dfb58605a11c9bac17f8218590610a1c611e0e565b6103a36024359260018060a01b03610a38818854163314611ec3565b610a4461033e85611f85565b83168652600b602090815281872060050185905590516001600160a01b0390931683528201929092529081906040820190565b5050346102f75760203660031901126102f75760209160019082906001600160a01b036102b9611e0e565b5050346102f75760203660031901126102f757602091600a9082906001600160a01b036102b9611e0e565b828434610b925780600319360112610b9257908051918290600c549182855260208095018093600c84527fdf6966c971051c3d54ec59162606531493a51404a002842f56009d7e5cf4a8c790845b818110610b755750505081610b31910382611f63565b83519485948186019282875251809352850193925b828110610b5557505050500390f35b83516001600160a01b031685528695509381019392810192600101610b46565b82546001600160a01b031684529288019260019283019201610b1b565b80fd5b5050346102f757816003193601126102f7576020906009549051908152f35b5050346102f757816003193601126102f7576020905167016345785d8a00008152f35b5050346102f757816003193601126102f75760065490516001600160a01b039091168152602090f35b5050346102f75760203660031901126102f75760209160099082906001600160a01b036102b9611e0e565b5050346102f757806003193601126102f757602090610c59610c4b611e0e565b610c53611e29565b9061201a565b9051908152f35b5050346102f757816003193601126102f757905490516001600160a01b039091168152602090f35b508290346102f757826003193601126102f757610ca3611e0e565b8254602435926001600160a01b0391610cbf9083163314611ec3565b610ccb61033e84611f85565b670de0b6b3a76400008411610d2f575081168352600b602090815284842060070183905593516001600160a01b03909116815292830152907f36db492fe1ecdb8721a617c6a69103ea82ea3e14046360fd5dd7efef33e05b519080604081016103a3565b606490602087519162461bcd60e51b8352820152601a60248201527f4d6178206665652063616e6e6f742065786365656420313030250000000000006044820152fd5b5050346102f757816003193601126102f75760055490516001600160a01b039091168152602090f35b5050346102f75760203660031901126102f75760209160089082906001600160a01b036102b9611e0e565b5050346102f757816003193601126102f75760035490516001600160a01b039091168152602090f35b5090346102ca5760203660031901126102ca57813591610e1960018060a01b038554163314611ec3565b67016345785d8a00008311610e5a5750816020917f91cc643d187eb250905520d3dae0b1017edd16961d27ab9a4a61fea5e38f717d9360095551908152a180f35b6020606492519162461bcd60e51b8352820152602060248201527f526564656d7074696f6e206665652063616e6e6f7420657863656564203130256044820152fd5b5050346102f757816003193601126102f75760209051690a968163f0a57b4000008152f35b50346102ca57816003193601126102ca577ff7c94a8be288a8b64b3a3126b6c786e54e19f7361d92b1cd22fe84e9e3458896916103a3610eff611e0e565b91602435809460018060a01b03610f1a818a54163314611ec3565b610f2661033e87611f85565b85168852600b6020528288200155519283928360209093929193604081019460018060a01b031681520152565b5050346102f757816003193601126102f75760025490516001600160a01b039091168152602090f35b50346102ca5760a03660031901126102ca57610f96611e0e565b90610f9f611e29565b6006546001600160a01b0392919083163303611023578216908115610fea57508452600a60205282842091168352602052812060443581556064356001820155600260843591015580f35b606490602086519162461bcd60e51b8352820152601360248201527224b73b30b634b2103b30bab63a1037bbb732b960691b6044820152fd5b845162461bcd60e51b8152602081840181905260248201527f4f6e6c792063616c6c61626c65206279205661756c744f7065726174696f6e736044820152606490fd5b8334610b925780600319360112610b9257805481906001600160a01b03811690611091338314611ec3565b6001600160a01b03191682557f8be0079c531659141344cd1fd0a4f28419497f9722a3daafe3b4186f6b6457e08280a380f35b5050346102f75760203660031901126102f75760209160079082906001600160a01b036102b9611e0e565b50346102ca57816003193601126102ca57611108611e0e565b916024359160018060a01b0393611123858754163314611ec3565b601284036112e657600c54680100000000000000008110156112d357611150816001889301600c55611e3f565b969092169582549060031b9187831b921b1916179055600c5460001981019081116112c057825193610160850185811067ffffffffffffffff8211176112ad579187939185938896528652602086019081528286019184835260608701906805f68e8131ecf80000825260808801680821ab0d4414980000815260a08901926702c68af0bb1400009586855260c08b01956658d15e17628000875260e08c019788526101008c0198681043561a88293000008a526101208d019a8d690a968163f0a57b4000008d52610140019c67016345785d8a00008e528152600b602052209b518c555160018c015551151560028b0190611257919060ff801983541691151516179055565b5160038a015551908801555160058701555160068601555160078501555160088401555160098301555190600a01557f7db05e63d635a68c62fd7fd8f3107ae8ab584a383e102d1bd8a40f4c977e465f8280a280f35b634e487b7160e01b885260418452602488fd5b634e487b7160e01b865260118252602486fd5b634e487b7160e01b875260418352602487fd5b506020608492519162461bcd60e51b8352820152602a60248201527f636f6c6c61746572616c73206d7573742068617665207468652064656661756c6044820152697420646563696d616c7360b01b6064820152fd5b5050346102f757806003193601126102f757602090610c5961135c611e0e565b611364611e29565b906122d9565b5050346102f757806003193601126102f7578091611386611e0e565b6001600160a01b0380611397611e29565b168352600a6020528383209116825260205220906113f18151916113ba83611f31565b8084549384815260026001870154968760208401520154928391015251938493846040919493926060820195825260208201520152565b0390f35b5050346102f75760203660031901126102f75760209160069082906001600160a01b036102b9611e0e565b5050346102f757816003193601126102f757602090516658d15e176280008152f35b50346102ca57816003193601126102ca5761145b611e0e565b611463611e29565b9360018060a01b03918286168252602095600a8752858320938216938484528752858320916114b787519261149784611f31565b845484528860026001870154968c870197885201549401938452826121c7565b825110156115df576114c890611f85565b156115aa5751838352600b8752600386842001541161157957828252600b865260ff6002868420015416156115495751918152600b8552839020600801541161151357505160018152f35b82606492519162461bcd60e51b83528201526012602482015271125b9d985b1a59081b5a5b93995d1119589d60721b6044820152fd5b845162461bcd60e51b8152808501879052600a6024820152694e6f742061637469766560b01b6044820152606490fd5b845162461bcd60e51b8152808501879052600b60248201526a24b73b30b634b21026a1a960a91b6044820152606490fd5b855162461bcd60e51b8152808601889052600f60248201526e139bdd081dda1a5d195b1a5cdd1959608a1b6044820152606490fd5b865162461bcd60e51b8152808701899052600860248201526721a9101e1026a1a960c11b6044820152606490fd5b5050346102f757816003193601126102f757602090516805f68e8131ecf800008152f35b5050346102f757806003193601126102f757602090610c59611651611e0e565b611659611e29565b906120bb565b5050346102f757806003193601126102f757602090610c5961167f611e0e565b611687611e29565b906121c7565b50346102ca5760203660031901126102ca573591600c54831015610b9257506116b7602092611e3f565b905491519160018060a01b039160031b1c168152f35b5050346102f75760203660031901126102f75760209160059082906001600160a01b036102b9611e0e565b5050346102f75760203660031901126102f75760209160ff9060029083906001600160a01b03611726611e0e565b168152600b86522001541690519015158152f35b5050346102f757806003193601126102f757611754611e0e565b90602435918215158084036109dc577f8a5199eeb0a5b01d430359f5fb683b5fcb1e3b236c5f01179f1af82ac2c56748926117cd60209360018060a01b03906117a1828a54163314611ec3565b6117ad61033e82611f85565b1695868852600b85526002838920019060ff801983541691151516179055565b51908152a280f35b5050346102f757806003193601126102f75780916117f1611e0e565b6117f9611e29565b6001600160a01b039182168352600a60209081528484209190921683528152919020805460018201546002909201549351908152918201526040810191909152606090f35b5050346102f757806003193601126102f7577f794abdbe21b3b4556467be6af2b2d5e75ae16613bd128dbd47c3727bd52b4b559061187a611e0e565b8354602435916001600160a01b03916118969083163314611ec3565b6118a261033e82611f85565b168452600b60205260088285200190808254925582519182526020820152a180f35b50346102ca57826003193601126102ca575490516001600160a01b03909116815260209150f35b509190346102f7576101203660031901126102f757611908611e0e565b825490936001600160a01b03916119229083163314611ec3565b60a4359160843583811015611dbd5781871694858752600b6020908082526002838a2001600160ff1982541617905561195f33868b541614611ec3565b61196b61033e8b611f85565b60243596670de0b6b3a7640000808910611d8b57898b52828452848b2060030189905584516001600160a01b038d168152602081018a90528594939291907fa80630e44e1af72e21c72b3fc0991439ab80bd902bd8d460127124d985e5863d90604090a133888d5416146119de90611ec3565b6119e78d611f85565b6119f090612362565b8a8c52828452938b2060443590890181905585516001600160a01b038e168152602081018290529094907ff7c94a8be288a8b64b3a3126b6c786e54e19f7361d92b1cd22fe84e9e345889690604090a133888d541614611a4f90611ec3565b611a588d611f85565b611a6190612362565b8a8c52828452858c20606435600590910181905586516001600160a01b038f16815260208101919091527f965fb4f519959cdbe5a1e7698e04677b27039572dfb58605a11c9bac17f8218590604090a133888d541614611ac090611ec3565b611ac98d611f85565b611ad290612362565b8a8c52828452858c2060060187905585516001600160a01b038e168152602081018890527f9e9d5460f39b762bca2d14bf0b73f77900f18c6c20dba81d9370ab3c4958767290604090a133888d541614611b2b90611ec3565b611b348d611f85565b611b3d90612362565b8111611d4857898b52818352848b2060070181905584516001600160a01b038d1681526020810191909152999a98999798969795968b96611c0b9161033e917f36db492fe1ecdb8721a617c6a69103ea82ea3e14046360fd5dd7efef33e05b5190604090a1611bb0338b8b541614611ec3565b611bbc61033e82611f85565b8c89528385526106096008888b2001997f794abdbe21b3b4556467be6af2b2d5e75ae16613bd128dbd47c3727bd52b4b55898c5460c435809e5581519081528d8a820152a1548b163314611ec3565b898b52808252611c5a6009858d2001977f903452cfae6c90575a1e7327283877d56dda9ed43a4711f44bf796e103e4e120868a5460e435809c5581519081528b87820152a18c54163314611ec3565b6101043597670429d069189e00008911611cf757509183917fcece6dc2cc4458d2ad01cd534f8fe8a0dfc229fc5d936da9d6709927ad0bfc6183600a60c09b99978f8f987f6a9be8a25d3f9d94b8876b8ba57bf2155b35c596274a1b8c4dec9fe209ffd7679f9d9b99825286522001898154915581519081528984820152a182519788528701528501526060840152608083015260a0820152a280f35b845162461bcd60e51b8152908101839052602560248201527f4c69717569646174696f6e2070656e616c74792063616e6e6f74206578636565604482015264642033302560d81b6064820152608490fd5b845162461bcd60e51b8152808901849052601a60248201527f4d6178206665652063616e6e6f742065786365656420313030250000000000006044820152606490fd5b845162461bcd60e51b8152808901859052600c60248201526b4d696e204d4352203130302560a01b6044820152606490fd5b845162461bcd60e51b8152602081850152602560248201527f4261736520666565206d75737420626520736d616c6c6572207468616e206d61604482015264782066656560d81b6064820152608490fd5b600435906001600160a01b0382168203611e2457565b600080fd5b602435906001600160a01b0382168203611e2457565b600c54811015611e7657600c6000527fdf6966c971051c3d54ec59162606531493a51404a002842f56009d7e5cf4a8c70190600090565b634e487b7160e01b600052603260045260246000fd5b34611e24576000366003190112611e245760206040516702c68af0bb1400008152f35b356001600160a01b0381168103611e245790565b15611eca57565b606460405162461bcd60e51b815260206004820152602060248201527f4f776e61626c653a2063616c6c6572206973206e6f7420746865206f776e65726044820152fd5b91908203918211611f1b57565b634e487b7160e01b600052601160045260246000fd5b6060810190811067ffffffffffffffff821117611f4d57604052565b634e487b7160e01b600052604160045260246000fd5b90601f8019910116810190811067ffffffffffffffff821117611f4d57604052565b600c54919060005b838110611f9c57506000925050565b611fa581611e3f565b905460039190911b1c6001600160a01b0390811690831614611fd2576000198114611f1b57600101611f8d565b506001925050565b81810292918115918404141715611f1b57565b8115611ff7570490565b634e487b7160e01b600052601260045260246000fd5b91908201809211611f1b57565b61207a60018060a01b03926005604060008684168152600a60205281812096861696878252602052818120968260028151996120558b611f31565b80548b52600181015460208c0152015498019788528152600b602052200154926122d9565b91600019831480156120b3575b6120ae576120a46120ab9392670de0b6b3a7640000925190611fda565b049061200d565b90565b505090565b508115612087565b9060018060a01b0380600092168252600a602052604082209216918282526020526040812091604060028151946120f186611f31565b8054865260018101546020870152015493019283528152600b60205260408120906006820154906007830154936003600485015494015490519081156121be57848210156121b55780821161214857505050505090565b9091929395948461215891611f0e565b90670de0b6b3a764000093848302928084048614901517156121a157506120a492612195889361218f61219b946120ab9a9b611f0e565b90611fed565b92611f0e565b90611fda565b634e487b7160e01b81526011600452602490fd5b50505091505090565b50509250505090565b6001600160a01b039182166000908152600a60209081526040808320938516808452938252808320815193969590949391929061220383611f31565b85548352600186015482840181815260029097015485850152156122cc57819060025416946024855180978193635670bcc760e11b835260048301525afa9283156122c357508692612291575b5061225c925051611fda565b9060648202918083046064149015171561227d576120ab9293505190611fed565b634e487b7160e01b84526011600452602484fd5b90915082813d83116122bc575b6122a88183611f63565b810103126109dc5761225c91519038612250565b503d61229e565b513d88823e3d90fd5b5060001996505050505050565b91909160018060a01b0380600094168452600a6020526040842091168352602052604082206040519061230b82611f31565b805491828152600182015490604060026020830194848652015491015215156000146123595768056bc75e2d631000009182810292818404149015171561227d576120ab9293505190611fed565b50600019925050565b1561236957565b60405162461bcd60e51b8152602060048201526012602482015271125b9d985b1a590818dbdb1b185d195c985b60721b6044820152606490fd","linkReferences":{}},"methodIdentifiers":{"BASE_FEE()":"3d18651e","LIQUIDATION_PENALTY()":"9b8621d5","MAX_CR_RANGE()":"bad3867a","MAX_FEE()":"bc063e1a","MCR_FACTOR()":"cbe5afd1","MINT_CAP_DEFAULT()":"7a305122","MIN_CR_RANGE()":"35874902","MIN_NET_DEBT_DEFAULT()":"f2ecdcae","REDEMPTION_FEE()":"52547f6d","addNewCollateral(address,uint256)":"5b372451","adjustVaultData(address,address,uint256,uint256,uint256)":"7264269e","calculateARS(address,address)":"90e3c754","calculateCR(address,address)":"2fe343e0","calculateNCR(address,address)":"4e1bcdfe","checkVaultState(address,address)":"39c35405","debtToken()":"f8d89898","getBaseFee(address)":"482601e3","getDecimals(address)":"cf54aaa0","getIndex(address)":"b31610db","getIsActive(address)":"17ae1fc5","getLiquidationPenalty(address)":"ac26a912","getMCRFactor(address)":"20780e73","getMaxFee(address)":"60f5dfda","getMaxRange(address)":"fe088a47","getMinNetDebt(address)":"86d10e8c","getMinRange(address)":"d923acdc","getMintCap(address)":"91bbfd0d","getRedemptionFee()":"9cd6f009","getValidCollateral()":"9d6aea0a","getVaultData(address,address)":"48c3c7e3","getVaultInterestRate(address,address)":"3073753e","isAddressSetupInitialized()":"c8564c62","isAddressValid(address)":"cf31ff86","keikoDeployer()":"ea8db462","owner()":"8da5cb5b","priceFeed()":"741bef1a","renounceOwnership()":"715018a6","setAddresses(address[])":"b9571721","setBaseFee(address,uint256)":"e162d98b","setCollateralParameters(address,uint256,uint256,uint256,uint256,uint256,uint256,uint256,uint256)":"00e34e69","setIsActive(address,bool)":"0fe66cdd","setLiquidationPenalty(address,uint256)":"c5f20d7b","setMCRFactor(address,uint256)":"b4528b5c","setMaxFee(address,uint256)":"8c441dcd","setMaxRange(address,uint256)":"773b2ac4","setMinNetDebt(address,uint256)":"0bc028c2","setMinRange(address,uint256)":"f53e4898","setMintCap(address,uint256)":"c06abe77","setRedemptionFee(uint256)":"7dbc1df0","stabilityPool()":"048c661d","transferOwnership(address)":"f2fde38b","treasuryAddress()":"c5f956af","userVaults(address,address)":"0bd75e57","validCollateral(uint256)":"2a6e7603","vaultManager()":"8a4adf24","vaultOperations()":"9718cf59","vaultSorter()":"841f0ebb"},"id":19}