{"abi":[{"type":"function","name":"BASE_FEE","inputs":[],"outputs":[{"name":"","type":"uint256","internalType":"uint256"}],"stateMutability":"view"},{"type":"function","name":"LIQUIDATION_PENALTY","inputs":[],"outputs":[{"name":"","type":"uint256","internalType":"uint256"}],"stateMutability":"view"},{"type":"function","name":"MAX_CR_RANGE","inputs":[],"outputs":[{"name":"","type":"uint256","internalType":"uint256"}],"stateMutability":"view"},{"type":"function","name":"MAX_FEE","inputs":[],"outputs":[{"name":"","type":"uint256","internalType":"uint256"}],"stateMutability":"view"},{"type":"function","name":"MCR_FACTOR","inputs":[],"outputs":[{"name":"","type":"uint256","internalType":"uint256"}],"stateMutability":"view"},{"type":"function","name":"MINT_CAP_DEFAULT","inputs":[],"outputs":[{"name":"","type":"uint256","internalType":"uint256"}],"stateMutability":"view"},{"type":"function","name":"MIN_CR_RANGE","inputs":[],"outputs":[{"name":"","type":"uint256","internalType":"uint256"}],"stateMutability":"view"},{"type":"function","name":"MIN_NET_DEBT_DEFAULT","inputs":[],"outputs":[{"name":"","type":"uint256","internalType":"uint256"}],"stateMutability":"view"},{"type":"function","name":"REDEMPTION_FEE","inputs":[],"outputs":[{"name":"","type":"uint256","internalType":"uint256"}],"stateMutability":"view"},{"type":"function","name":"addNewCollateral","inputs":[{"name":"collateral","type":"address","internalType":"address"},{"name":"decimals","type":"uint256","internalType":"uint256"}],"outputs":[],"stateMutability":"nonpayable"},{"type":"function","name":"adjustVaultData","inputs":[{"name":"vaultCollateral","type":"address","internalType":"address"},{"name":"vaultOwner","type":"address","internalType":"address"},{"name":"collateralAmount","type":"uint256","internalType":"uint256"},{"name":"debtAmount","type":"uint256","internalType":"uint256"},{"name":"mcr","type":"uint256","internalType":"uint256"}],"outputs":[],"stateMutability":"nonpayable"},{"type":"function","name":"calculateARS","inputs":[{"name":"vaultCollateral","type":"address","internalType":"address"},{"name":"vaultOwner","type":"address","internalType":"address"}],"outputs":[{"name":"","type":"uint256","internalType":"uint256"}],"stateMutability":"view"},{"type":"function","name":"calculateCR","inputs":[{"name":"vaultCollateral","type":"address","internalType":"address"},{"name":"vaultOwner","type":"address","internalType":"address"}],"outputs":[{"name":"","type":"uint256","internalType":"uint256"}],"stateMutability":"view"},{"type":"function","name":"calculateNCR","inputs":[{"name":"vaultCollateral","type":"address","internalType":"address"},{"name":"vaultOwner","type":"address","internalType":"address"}],"outputs":[{"name":"","type":"uint256","internalType":"uint256"}],"stateMutability":"view"},{"type":"function","name":"checkVaultState","inputs":[{"name":"vaultCollateral","type":"address","internalType":"address"},{"name":"vaultOwner","type":"address","internalType":"address"}],"outputs":[{"name":"","type":"bool","internalType":"bool"}],"stateMutability":"view"},{"type":"function","name":"debtToken","inputs":[],"outputs":[{"name":"","type":"address","internalType":"address"}],"stateMutability":"view"},{"type":"function","name":"getBaseFee","inputs":[{"name":"_collateral","type":"address","internalType":"address"}],"outputs":[{"name":"","type":"uint256","internalType":"uint256"}],"stateMutability":"view"},{"type":"function","name":"getDecimals","inputs":[{"name":"_collateral","type":"address","internalType":"address"}],"outputs":[{"name":"","type":"uint256","internalType":"uint256"}],"stateMutability":"view"},{"type":"function","name":"getIndex","inputs":[{"name":"_collateral","type":"address","internalType":"address"}],"outputs":[{"name":"","type":"uint256","internalType":"uint256"}],"stateMutability":"view"},{"type":"function","name":"getIsActive","inputs":[{"name":"_collateral","type":"address","internalType":"address"}],"outputs":[{"name":"","type":"bool","internalType":"bool"}],"stateMutability":"view"},{"type":"function","name":"getLiquidationPenalty","inputs":[{"name":"_collateral","type":"address","internalType":"address"}],"outputs":[{"name":"","type":"uint256","internalType":"uint256"}],"stateMutability":"view"},{"type":"function","name":"getMCRFactor","inputs":[{"name":"_collateral","type":"address","internalType":"address"}],"outputs":[{"name":"","type":"uint256","internalType":"uint256"}],"stateMutability":"view"},{"type":"function","name":"getMaxFee","inputs":[{"name":"_collateral","type":"address","internalType":"address"}],"outputs":[{"name":"","type":"uint256","internalType":"uint256"}],"stateMutability":"view"},{"type":"function","name":"getMaxRange","inputs":[{"name":"_collateral","type":"address","internalType":"address"}],"outputs":[{"name":"","type":"uint256","internalType":"uint256"}],"stateMutability":"view"},{"type":"function","name":"getMinNetDebt","inputs":[{"name":"_collateral","type":"address","internalType":"address"}],"outputs":[{"name":"","type":"uint256","internalType":"uint256"}],"stateMutability":"view"},{"type":"function","name":"getMinRange","inputs":[{"name":"_collateral","type":"address","internalType":"address"}],"outputs":[{"name":"","type":"uint256","internalType":"uint256"}],"stateMutability":"view"},{"type":"function","name":"getMintCap","inputs":[{"name":"_collateral","type":"address","internalType":"address"}],"outputs":[{"name":"","type":"uint256","internalType":"uint256"}],"stateMutability":"view"},{"type":"function","name":"getRedemptionFee","inputs":[],"outputs":[{"name":"","type":"uint256","internalType":"uint256"}],"stateMutability":"view"},{"type":"function","name":"getValidCollateral","inputs":[],"outputs":[{"name":"","type":"address[]","internalType":"address[]"}],"stateMutability":"view"},{"type":"function","name":"getVaultData","inputs":[{"name":"vaultCollateral","type":"address","internalType":"address"},{"name":"vaultOwner","type":"address","internalType":"address"}],"outputs":[{"name":"","type":"uint256","internalType":"uint256"},{"name":"","type":"uint256","internalType":"uint256"},{"name":"","type":"uint256","internalType":"uint256"}],"stateMutability":"view"},{"type":"function","name":"getVaultInterestRate","inputs":[{"name":"vaultCollateral","type":"address","internalType":"address"},{"name":"vaultOwner","type":"address","internalType":"address"}],"outputs":[{"name":"","type":"uint256","internalType":"uint256"}],"stateMutability":"view"},{"type":"function","name":"isAddressSetupInitialized","inputs":[],"outputs":[{"name":"","type":"bool","internalType":"bool"}],"stateMutability":"view"},{"type":"function","name":"isAddressValid","inputs":[{"name":"_address","type":"address","internalType":"address"}],"outputs":[{"name":"","type":"bool","internalType":"bool"}],"stateMutability":"view"},{"type":"function","name":"keikoDeployer","inputs":[],"outputs":[{"name":"","type":"address","internalType":"address"}],"stateMutability":"view"},{"type":"function","name":"owner","inputs":[],"outputs":[{"name":"","type":"address","internalType":"address"}],"stateMutability":"view"},{"type":"function","name":"priceFeed","inputs":[],"outputs":[{"name":"","type":"address","internalType":"address"}],"stateMutability":"view"},{"type":"function","name":"renounceOwnership","inputs":[],"outputs":[],"stateMutability":"nonpayable"},{"type":"function","name":"setAddresses","inputs":[{"name":"_addresses","type":"address[]","internalType":"address[]"}],"outputs":[],"stateMutability":"nonpayable"},{"type":"function","name":"setBaseFee","inputs":[{"name":"collateral","type":"address","internalType":"address"},{"name":"baseFee","type":"uint256","internalType":"uint256"}],"outputs":[],"stateMutability":"nonpayable"},{"type":"function","name":"setCollateralParameters","inputs":[{"name":"_collateral","type":"address","internalType":"address"},{"name":"mcrMinRange","type":"uint256","internalType":"uint256"},{"name":"mcrMaxRange","type":"uint256","internalType":"uint256"},{"name":"mcrFactor","type":"uint256","internalType":"uint256"},{"name":"baseFee","type":"uint256","internalType":"uint256"},{"name":"maxFee","type":"uint256","internalType":"uint256"},{"name":"minNetDebt","type":"uint256","internalType":"uint256"},{"name":"mintCap","type":"uint256","internalType":"uint256"},{"name":"liquidationPenalty","type":"uint256","internalType":"uint256"}],"outputs":[],"stateMutability":"nonpayable"},{"type":"function","name":"setIsActive","inputs":[{"name":"collateral","type":"address","internalType":"address"},{"name":"active","type":"bool","internalType":"bool"}],"outputs":[],"stateMutability":"nonpayable"},{"type":"function","name":"setLiquidationPenalty","inputs":[{"name":"collateral","type":"address","internalType":"address"},{"name":"penalty","type":"uint256","internalType":"uint256"}],"outputs":[],"stateMutability":"nonpayable"},{"type":"function","name":"setMCRFactor","inputs":[{"name":"collateral","type":"address","internalType":"address"},{"name":"mcrFactor","type":"uint256","internalType":"uint256"}],"outputs":[],"stateMutability":"nonpayable"},{"type":"function","name":"setMaxFee","inputs":[{"name":"collateral","type":"address","internalType":"address"},{"name":"maxFee","type":"uint256","internalType":"uint256"}],"outputs":[],"stateMutability":"nonpayable"},{"type":"function","name":"setMaxRange","inputs":[{"name":"collateral","type":"address","internalType":"address"},{"name":"maxRange","type":"uint256","internalType":"uint256"}],"outputs":[],"stateMutability":"nonpayable"},{"type":"function","name":"setMinNetDebt","inputs":[{"name":"collateral","type":"address","internalType":"address"},{"name":"minNetDebt","type":"uint256","internalType":"uint256"}],"outputs":[],"stateMutability":"nonpayable"},{"type":"function","name":"setMinRange","inputs":[{"name":"collateral","type":"address","internalType":"address"},{"name":"minRange","type":"uint256","internalType":"uint256"}],"outputs":[],"stateMutability":"nonpayable"},{"type":"function","name":"setMintCap","inputs":[{"name":"collateral","type":"address","internalType":"address"},{"name":"mintCap","type":"uint256","internalType":"uint256"}],"outputs":[],"stateMutability":"nonpayable"},{"type":"function","name":"setRedemptionFee","inputs":[{"name":"fee","type":"uint256","internalType":"uint256"}],"outputs":[],"stateMutability":"nonpayable"},{"type":"function","name":"stabilityPool","inputs":[],"outputs":[{"name":"","type":"address","internalType":"address"}],"stateMutability":"view"},{"type":"function","name":"transferOwnership","inputs":[{"name":"newOwner","type":"address","internalType":"address"}],"outputs":[],"stateMutability":"nonpayable"},{"type":"function","name":"treasuryAddress","inputs":[],"outputs":[{"name":"","type":"address","internalType":"address"}],"stateMutability":"view"},{"type":"function","name":"userVaults","inputs":[{"name":"","type":"address","internalType":"address"},{"name":"","type":"address","internalType":"address"}],"outputs":[{"name":"collateral","type":"uint256","internalType":"uint256"},{"name":"debt","type":"uint256","internalType":"uint256"},{"name":"mcr","type":"uint256","internalType":"uint256"}],"stateMutability":"view"},{"type":"function","name":"validCollateral","inputs":[{"name":"","type":"uint256","internalType":"uint256"}],"outputs":[{"name":"","type":"address","internalType":"address"}],"stateMutability":"view"},{"type":"function","name":"vaultManager","inputs":[],"outputs":[{"name":"","type":"address","internalType":"address"}],"stateMutability":"view"},{"type":"function","name":"vaultOperations","inputs":[],"outputs":[{"name":"","type":"address","internalType":"address"}],"stateMutability":"view"},{"type":"function","name":"vaultSorter","inputs":[],"outputs":[{"name":"","type":"address","internalType":"address"}],"stateMutability":"view"},{"type":"event","name":"BaseFeeSet","inputs":[{"name":"_collateral","type":"address","indexed":false,"internalType":"address"},{"name":"_baseFee","type":"uint256","indexed":false,"internalType":"uint256"}],"anonymous":false},{"type":"event","name":"CollateralAdded","inputs":[{"name":"collateral","type":"address","indexed":true,"internalType":"address"}],"anonymous":false},{"type":"event","name":"CollateralParamsSet","inputs":[{"name":"_collateral","type":"address","indexed":true,"internalType":"address"},{"name":"mcr","type":"uint256","indexed":false,"internalType":"uint256"},{"name":"maxRange","type":"uint256","indexed":false,"internalType":"uint256"},{"name":"baseFee","type":"uint256","indexed":false,"internalType":"uint256"},{"name":"minNetDebt","type":"uint256","indexed":false,"internalType":"uint256"},{"name":"mintCap","type":"uint256","indexed":false,"internalType":"uint256"},{"name":"liquidationPenalty","type":"uint256","indexed":false,"internalType":"uint256"}],"anonymous":false},{"type":"event","name":"IsActiveSet","inputs":[{"name":"_collateral","type":"address","indexed":true,"internalType":"address"},{"name":"_active","type":"bool","indexed":false,"internalType":"bool"}],"anonymous":false},{"type":"event","name":"LiquidationPenaltyChanged","inputs":[{"name":"oldPenalty","type":"uint256","indexed":false,"internalType":"uint256"},{"name":"newPenalty","type":"uint256","indexed":false,"internalType":"uint256"}],"anonymous":false},{"type":"event","name":"MCRFactorSet","inputs":[{"name":"_collateral","type":"address","indexed":false,"internalType":"address"},{"name":"_mcrFactor","type":"uint256","indexed":false,"internalType":"uint256"}],"anonymous":false},{"type":"event","name":"MaxFeeSet","inputs":[{"name":"_collateral","type":"address","indexed":false,"internalType":"address"},{"name":"_maxFee","type":"uint256","indexed":false,"internalType":"uint256"}],"anonymous":false},{"type":"event","name":"MaxRangeSet","inputs":[{"name":"_collateral","type":"address","indexed":false,"internalType":"address"},{"name":"_maxRange","type":"uint256","indexed":false,"internalType":"uint256"}],"anonymous":false},{"type":"event","name":"MinNetDebtChanged","inputs":[{"name":"oldMinNetDebt","type":"uint256","indexed":false,"internalType":"uint256"},{"name":"newMinNetDebt","type":"uint256","indexed":false,"internalType":"uint256"}],"anonymous":false},{"type":"event","name":"MinRangeUpdated","inputs":[{"name":"_collateral","type":"address","indexed":false,"internalType":"address"},{"name":"_mcr","type":"uint256","indexed":false,"internalType":"uint256"}],"anonymous":false},{"type":"event","name":"MintCapChanged","inputs":[{"name":"oldMintCap","type":"uint256","indexed":false,"internalType":"uint256"},{"name":"newMintCap","type":"uint256","indexed":false,"internalType":"uint256"}],"anonymous":false},{"type":"event","name":"OwnershipTransferred","inputs":[{"name":"previousOwner","type":"address","indexed":true,"internalType":"address"},{"name":"newOwner","type":"address","indexed":true,"internalType":"address"}],"anonymous":false},{"type":"event","name":"RedemptionFeeSet","inputs":[{"name":"_fee","type":"uint256","indexed":false,"internalType":"uint256"}],"anonymous":false}],"bytecode":{"object":"0x608080604052346100665760008054336001600160a01b0319821681178355916001600160a01b03909116907f8be0079c531659141344cd1fd0a4f28419497f9722a3daafe3b4186f6b6457e09080a36658d15e176280006009556123be908161006c8239f35b600080fdfe6040608081526004908136101561001557600080fd5b600091823560e01c8062e34e69146118ec578063048c661d146118c55780630bc028c21461183f5780630bd75e57146117d65780630fe66cdd1461173b57806317ae1fc5146116f957806320780e73146116ce5780632a6e76031461168e5780632fe343e0146116605780633073753e14611632578063358749021461160e57806339c35405146114435780633d18651e14611421578063482601e3146113f657806348c3c7e31461136b5780634e1bcdfe1461133d57806352547f6d14610b965780635b372451146110f057806360f5dfda146110c5578063715018a6146110675780637264269e14610f7d578063741bef1a14610f54578063773b2ac414610ec25780637a30512214610e9d5780637dbc1df014610df0578063841f0ebb14610dc757806386d10e8c14610d9c5780638a4adf2414610d735780638c441dcd14610c895780638da5cb5b14610c6157806390e3c75414610c2c57806391bbfd0d14610c015780639718cf5914610bd85780639b8621d514610bb55780639cd6f00914610b965780639d6aea0a14610ace578063ac26a91214610aa3578063b31610db14610a78578063b4528b5c146109e1578063b9571721146107f3578063bad3867a146107cf578063bc063e1a14610618578063c06abe7714610749578063c5f20d7b1461066d578063c5f956af14610644578063c8564c621461061d578063cbe5afd114610618578063cf31ff86146105e9578063cf54aaa0146105b1578063d923acdc14610586578063e162d98b146104ef578063ea8db462146104c6578063f2ecdcae146104a2578063f2fde38b146103dc578063f53e4898146102fb578063f8d89898146102ce5763fe088a471461029357600080fd5b346102ca5760203660031901126102ca5760209282906001600160a01b036102b9611e29565b168152600b85522001549051908152f35b8280fd5b5050346102f757816003193601126102f75760015490516001600160a01b039091168152602090f35b5080fd5b508290346102f757826003193601126102f757610316611e29565b8254602435926001600160a01b03916103329083163314611ede565b61034361033e84611fa0565b61237d565b68056bc75e2d6310000084106103aa575081168352600b602090815284842060030183905593516001600160a01b03909116815292830152907fa80630e44e1af72e21c72b3fc0991439ab80bd902bd8d460127124d985e5863d9080604081015b0390a180f35b606490602087519162461bcd60e51b8352820152600c60248201526b4d696e204d4352203130302560a01b6044820152fd5b50346102ca5760203660031901126102ca576103f6611e29565b83546001600160a01b03808216939192610411338614611ede565b169384156104505750506001600160a01b031916821783557f8be0079c531659141344cd1fd0a4f28419497f9722a3daafe3b4186f6b6457e08380a380f35b906020608492519162461bcd60e51b8352820152602660248201527f4f776e61626c653a206e6577206f776e657220697320746865207a65726f206160448201526564647265737360d01b6064820152fd5b5050346102f757816003193601126102f75760209051681043561a88293000008152f35b5050346102f757816003193601126102f75760085490516001600160a01b039091168152602090f35b5050346102f757806003193601126102f7577f9e9d5460f39b762bca2d14bf0b73f77900f18c6c20dba81d9370ab3c495876729061052b611e29565b6103a46024359260018060a01b03610547818854163314611ede565b61055361033e85611fa0565b83168652600b602090815281872060060185905590516001600160a01b0390931683528201929092529081906040820190565b5050346102f75760203660031901126102f75760209160039082906001600160a01b036102b9611e29565b5050346102f75760203660031901126102f75760209181906001600160a01b036105d9611e29565b168152600b845220549051908152f35b5050346102f75760203660031901126102f75760209061060f61060a611e29565b611fa0565b90519015158152f35b611ea7565b5050346102f757816003193601126102f75760209060ff60085460a01c1690519015158152f35b5050346102f757816003193601126102f75760075490516001600160a01b039091168152602090f35b509190346102f757806003193601126102f757610688611e29565b926024359060018060a01b03906106a3828654163314611ede565b670429d069189e000083116106f857507fcece6dc2cc4458d2ad01cd534f8fe8a0dfc229fc5d936da9d6709927ad0bfc619394168452600b602052600a8285200190808254925582519182526020820152a180f35b608490602085519162461bcd60e51b8352820152602560248201527f4c69717569646174696f6e2070656e616c74792063616e6e6f74206578636565604482015264642033302560d81b6064820152fd5b5050346102f757806003193601126102f7577f903452cfae6c90575a1e7327283877d56dda9ed43a4711f44bf796e103e4e12090610785611e29565b8354602435916001600160a01b03916107a19083163314611ede565b6107ad61033e82611fa0565b168452600b60205260098285200190808254925582519182526020820152a180f35b5050346102f757816003193601126102f75760209051680821ab0d44149800008152f35b50346102ca5760203660031901126102ca5767ffffffffffffffff9080358281116109dd57366023820112156109dd57808201359283116109dd57602436818560051b840101116109d9576008549460ff8660a01c1661099757508315610986576001600160a01b039283610869848401611eca565b16946bffffffffffffffffffffffff60a01b958660015416176001558060011015610974578461089b60448601611eca565b16866002541617600255806002101561097457846108bb60648601611eca565b16866003541617600355806003101561097457846108db60848601611eca565b16868354161782558082101561097457846108f860a48601611eca565b168660055416176005558060051015610974578461091860c48601611eca565b168660065416176006556006101561096357505060e46109389101611eca565b6007805490931691161790556001600160a81b0319163360ff60a01b191617600160a01b1760085580f35b634e487b7160e01b87526032905285fd5b50634e487b7160e01b87526032905285fd5b634e487b7160e01b86526032835285fd5b601c60649260208693519362461bcd60e51b85528401528201527f536574757020697320616c726561647920696e697469616c697a6564000000006044820152fd5b8580fd5b8480fd5b5050346102f757806003193601126102f7577f965fb4f519959cdbe5a1e7698e04677b27039572dfb58605a11c9bac17f8218590610a1d611e29565b6103a46024359260018060a01b03610a39818854163314611ede565b610a4561033e85611fa0565b83168652600b602090815281872060050185905590516001600160a01b0390931683528201929092529081906040820190565b5050346102f75760203660031901126102f75760209160019082906001600160a01b036102b9611e29565b5050346102f75760203660031901126102f757602091600a9082906001600160a01b036102b9611e29565b828434610b935780600319360112610b9357908051918290600c549182855260208095018093600c84527fdf6966c971051c3d54ec59162606531493a51404a002842f56009d7e5cf4a8c790845b818110610b765750505081610b32910382611f7e565b83519485948186019282875251809352850193925b828110610b5657505050500390f35b83516001600160a01b031685528695509381019392810192600101610b47565b82546001600160a01b031684529288019260019283019201610b1c565b80fd5b5050346102f757816003193601126102f7576020906009549051908152f35b5050346102f757816003193601126102f7576020905167016345785d8a00008152f35b5050346102f757816003193601126102f75760065490516001600160a01b039091168152602090f35b5050346102f75760203660031901126102f75760209160099082906001600160a01b036102b9611e29565b5050346102f757806003193601126102f757602090610c5a610c4c611e29565b610c54611e44565b90612035565b9051908152f35b5050346102f757816003193601126102f757905490516001600160a01b039091168152602090f35b508290346102f757826003193601126102f757610ca4611e29565b8254602435926001600160a01b0391610cc09083163314611ede565b610ccc61033e84611fa0565b670de0b6b3a76400008411610d30575081168352600b602090815284842060070183905593516001600160a01b03909116815292830152907f36db492fe1ecdb8721a617c6a69103ea82ea3e14046360fd5dd7efef33e05b519080604081016103a4565b606490602087519162461bcd60e51b8352820152601a60248201527f4d6178206665652063616e6e6f742065786365656420313030250000000000006044820152fd5b5050346102f757816003193601126102f75760055490516001600160a01b039091168152602090f35b5050346102f75760203660031901126102f75760209160089082906001600160a01b036102b9611e29565b5050346102f757816003193601126102f75760035490516001600160a01b039091168152602090f35b5090346102ca5760203660031901126102ca57813591610e1a60018060a01b038554163314611ede565b67016345785d8a00008311610e5b5750816020917f91cc643d187eb250905520d3dae0b1017edd16961d27ab9a4a61fea5e38f717d9360095551908152a180f35b6020606492519162461bcd60e51b8352820152602060248201527f526564656d7074696f6e206665652063616e6e6f7420657863656564203130256044820152fd5b5050346102f757816003193601126102f75760209051690a968163f0a57b4000008152f35b50346102ca57816003193601126102ca577ff7c94a8be288a8b64b3a3126b6c786e54e19f7361d92b1cd22fe84e9e3458896916103a4610f00611e29565b91602435809460018060a01b03610f1b818a54163314611ede565b610f2761033e87611fa0565b85168852600b6020528288200155519283928360209093929193604081019460018060a01b031681520152565b5050346102f757816003193601126102f75760025490516001600160a01b039091168152602090f35b50346102ca5760a03660031901126102ca57610f97611e29565b90610fa0611e44565b6006546001600160a01b0392919083163303611024578216908115610feb57508452600a60205282842091168352602052812060443581556064356001820155600260843591015580f35b606490602086519162461bcd60e51b8352820152601360248201527224b73b30b634b2103b30bab63a1037bbb732b960691b6044820152fd5b845162461bcd60e51b8152602081840181905260248201527f4f6e6c792063616c6c61626c65206279205661756c744f7065726174696f6e736044820152606490fd5b8334610b935780600319360112610b9357805481906001600160a01b03811690611092338314611ede565b6001600160a01b03191682557f8be0079c531659141344cd1fd0a4f28419497f9722a3daafe3b4186f6b6457e08280a380f35b5050346102f75760203660031901126102f75760209160079082906001600160a01b036102b9611e29565b50346102ca57816003193601126102ca57611109611e29565b916024359160018060a01b0393611124858754163314611ede565b601284036112e757600c54680100000000000000008110156112d457611151816001889301600c55611e5a565b969092169582549060031b9187831b921b1916179055600c5460001981019081116112c157825193610160850185811067ffffffffffffffff8211176112ae579187939185938896528652602086019081528286019184835260608701906805f68e8131ecf80000825260808801680821ab0d4414980000815260a08901926702c68af0bb1400009586855260c08b01956658d15e17628000875260e08c019788526101008c0198681043561a88293000008a526101208d019a8d690a968163f0a57b4000008d52610140019c67016345785d8a00008e528152600b602052209b518c555160018c015551151560028b0190611258919060ff801983541691151516179055565b5160038a015551908801555160058701555160068601555160078501555160088401555160098301555190600a01557f7db05e63d635a68c62fd7fd8f3107ae8ab584a383e102d1bd8a40f4c977e465f8280a280f35b634e487b7160e01b885260418452602488fd5b634e487b7160e01b865260118252602486fd5b634e487b7160e01b875260418352602487fd5b506020608492519162461bcd60e51b8352820152602a60248201527f636f6c6c61746572616c73206d7573742068617665207468652064656661756c6044820152697420646563696d616c7360b01b6064820152fd5b5050346102f757806003193601126102f757602090610c5a61135d611e29565b611365611e44565b906122f4565b5050346102f757806003193601126102f7578091611387611e29565b6001600160a01b0380611398611e44565b168352600a6020528383209116825260205220906113f28151916113bb83611f4c565b8084549384815260026001870154968760208401520154928391015251938493846040919493926060820195825260208201520152565b0390f35b5050346102f75760203660031901126102f75760209160069082906001600160a01b036102b9611e29565b5050346102f757816003193601126102f757602090516658d15e176280008152f35b50346102ca57816003193601126102ca5761145c611e29565b611464611e44565b9360018060a01b03918286168252602095600a8752858320938216938484528752858320916114b887519261149884611f4c565b845484528860026001870154968c870197885201549401938452826121e2565b825110156115e0576114c990611fa0565b156115ab5751838352600b8752600386842001541161157a57828252600b865260ff60028684200154161561154a5751918152600b8552839020600801541161151457505160018152f35b82606492519162461bcd60e51b83528201526012602482015271125b9d985b1a59081b5a5b93995d1119589d60721b6044820152fd5b845162461bcd60e51b8152808501879052600a6024820152694e6f742061637469766560b01b6044820152606490fd5b845162461bcd60e51b8152808501879052600b60248201526a24b73b30b634b21026a1a960a91b6044820152606490fd5b855162461bcd60e51b8152808601889052600f60248201526e139bdd081dda1a5d195b1a5cdd1959608a1b6044820152606490fd5b865162461bcd60e51b8152808701899052600860248201526721a9101e1026a1a960c11b6044820152606490fd5b5050346102f757816003193601126102f757602090516805f68e8131ecf800008152f35b5050346102f757806003193601126102f757602090610c5a611652611e29565b61165a611e44565b906120d6565b5050346102f757806003193601126102f757602090610c5a611680611e29565b611688611e44565b906121e2565b50346102ca5760203660031901126102ca573591600c54831015610b9357506116b8602092611e5a565b905491519160018060a01b039160031b1c168152f35b5050346102f75760203660031901126102f75760209160059082906001600160a01b036102b9611e29565b5050346102f75760203660031901126102f75760209160ff9060029083906001600160a01b03611727611e29565b168152600b86522001541690519015158152f35b5050346102f757806003193601126102f757611755611e29565b90602435918215158084036109dd577f8a5199eeb0a5b01d430359f5fb683b5fcb1e3b236c5f01179f1af82ac2c56748926117ce60209360018060a01b03906117a2828a54163314611ede565b6117ae61033e82611fa0565b1695868852600b85526002838920019060ff801983541691151516179055565b51908152a280f35b5050346102f757806003193601126102f75780916117f2611e29565b6117fa611e44565b6001600160a01b039182168352600a60209081528484209190921683528152919020805460018201546002909201549351908152918201526040810191909152606090f35b5050346102f757806003193601126102f7577f794abdbe21b3b4556467be6af2b2d5e75ae16613bd128dbd47c3727bd52b4b559061187b611e29565b8354602435916001600160a01b03916118979083163314611ede565b6118a361033e82611fa0565b168452600b60205260088285200190808254925582519182526020820152a180f35b50346102ca57826003193601126102ca575490516001600160a01b03909116815260209150f35b50346102ca576101203660031901126102ca57611907611e29565b906024359160443591606435946084359060a4359460c435938960e43596610104359861193f60018060a01b03809454163314611ede565b80871015611dd85791818b93828f9694169d8e875268056bc75e2d63100000600b96611986602099898b5260028d822001600160ff19825416179055873391541614611ede565b61199261033e86611fa0565b10611da6578f8f8f611ad784611b479560058f8f8f8f918f8f8f908d61060a917ff7c94a8be288a8b64b3a3126b6c786e54e19f7361d92b1cd22fe84e9e34588968f7f965fb4f519959cdbe5a1e7698e04677b27039572dfb58605a11c9bac17f821859f978061033e98837fa80630e44e1af72e21c72b3fc0991439ab80bd902bd8d460127124d985e5863d8f9c8f8f611aaf9f838f93828f600392611a5b96611aa29f835252200155519283928360209093929193604081019460018060a01b031681520152565b0390a1611a6c33888a541614611ede565b611a7861033e8b611fa0565b87528c8c528d872001558b516001600160a01b038816815260208101919091529081906040820190565b0390a13391541614611ede565b888a5252872001558d516001600160a01b038916815260208101919091529081906040820190565b0390a1611ae8338784541614611ede565b611af461033e86611fa0565b81528688528981206006018b905589516001600160a01b0385168152602081018c90527f9e9d5460f39b762bca2d14bf0b73f77900f18c6c20dba81d9370ab3c4958767290604090a15484163314611ede565b611b5361033e83611fa0565b670de0b6b3a76400008111611d635791611c328f928f907f794abdbe21b3b4556467be6af2b2d5e75ae16613bd128dbd47c3727bd52b4b558b8e847f36db492fe1ecdb8721a617c6a69103ea82ea3e14046360fd5dd7efef33e05b51611bec8b8f9c8f87611c7a9f8f909260079361033e9e8352522001558551918291898360209093929193604081019460018060a01b031681520152565b0390a1611bfd33898b541614611ede565b611c0961033e86611fa0565b88528a8c5260088289200190808254925582519182528c820152a161060a338587541614611ede565b8d82528486527f903452cfae6c90575a1e7327283877d56dda9ed43a4711f44bf796e103e4e120886009818520018d8154915581519081528d89820152a13391541614611ede565b670429d069189e00008911611d1257509183917fcece6dc2cc4458d2ad01cd534f8fe8a0dfc229fc5d936da9d6709927ad0bfc6183600a60c09b99978f8f987f6a9be8a25d3f9d94b8876b8ba57bf2155b35c596274a1b8c4dec9fe209ffd7679f9d9b99825286522001898154915581519081528984820152a182519788528701528501526060840152608083015260a0820152a280f35b845162461bcd60e51b8152908101839052602560248201527f4c69717569646174696f6e2070656e616c74792063616e6e6f74206578636565604482015264642033302560d81b6064820152608490fd5b875162461bcd60e51b8152808501879052601a60248201527f4d6178206665652063616e6e6f742065786365656420313030250000000000006044820152606490fd5b885162461bcd60e51b8152808601889052600c60248201526b4d696e204d4352203130302560a01b6044820152606490fd5b855162461bcd60e51b8152602081860152602560248201527f4261736520666565206d75737420626520736d616c6c6572207468616e206d61604482015264782066656560d81b6064820152608490fd5b600435906001600160a01b0382168203611e3f57565b600080fd5b602435906001600160a01b0382168203611e3f57565b600c54811015611e9157600c6000527fdf6966c971051c3d54ec59162606531493a51404a002842f56009d7e5cf4a8c70190600090565b634e487b7160e01b600052603260045260246000fd5b34611e3f576000366003190112611e3f5760206040516702c68af0bb1400008152f35b356001600160a01b0381168103611e3f5790565b15611ee557565b606460405162461bcd60e51b815260206004820152602060248201527f4f776e61626c653a2063616c6c6572206973206e6f7420746865206f776e65726044820152fd5b91908203918211611f3657565b634e487b7160e01b600052601160045260246000fd5b6060810190811067ffffffffffffffff821117611f6857604052565b634e487b7160e01b600052604160045260246000fd5b90601f8019910116810190811067ffffffffffffffff821117611f6857604052565b600c54919060005b838110611fb757506000925050565b611fc081611e5a565b905460039190911b1c6001600160a01b0390811690831614611fed576000198114611f3657600101611fa8565b506001925050565b81810292918115918404141715611f3657565b8115612012570490565b634e487b7160e01b600052601260045260246000fd5b91908201809211611f3657565b61209560018060a01b03926005604060008684168152600a60205281812096861696878252602052818120968260028151996120708b611f4c565b80548b52600181015460208c0152015498019788528152600b602052200154926122f4565b91600019831480156120ce575b6120c9576120bf6120c69392670de0b6b3a7640000925190611ff5565b0490612028565b90565b505090565b5081156120a2565b9060018060a01b0380600092168252600a6020526040822092169182825260205260408120916040600281519461210c86611f4c565b8054865260018101546020870152015493019283528152600b60205260408120906006820154906007830154936003600485015494015490519081156121d957848210156121d05780821161216357505050505090565b9091929395948461217391611f29565b90670de0b6b3a764000093848302928084048614901517156121bc57506120bf926121b088936121aa6121b6946120c69a9b611f29565b90612008565b92611f29565b90611ff5565b634e487b7160e01b81526011600452602490fd5b50505091505090565b50509250505090565b6001600160a01b039182166000908152600a60209081526040808320938516808452938252808320815193969590949391929061221e83611f4c565b85548352600186015482840181815260029097015485850152156122e757819060025416946024855180978193635670bcc760e11b835260048301525afa9283156122de575086926122ac575b50612277925051611ff5565b90606482029180830460641490151715612298576120c69293505190612008565b634e487b7160e01b84526011600452602484fd5b90915082813d83116122d7575b6122c38183611f7e565b810103126109dd576122779151903861226b565b503d6122b9565b513d88823e3d90fd5b5060001996505050505050565b91909160018060a01b0380600094168452600a6020526040842091168352602052604082206040519061232682611f4c565b805491828152600182015490604060026020830194848652015491015215156000146123745768056bc75e2d6310000091828102928184041490151715612298576120c69293505190612008565b50600019925050565b1561238457565b60405162461bcd60e51b8152602060048201526012602482015271125b9d985b1a590818dbdb1b185d195c985b60721b6044820152606490fd","linkReferences":{}},"methodIdentifiers":{"BASE_FEE()":"3d18651e","LIQUIDATION_PENALTY()":"9b8621d5","MAX_CR_RANGE()":"bad3867a","MAX_FEE()":"bc063e1a","MCR_FACTOR()":"cbe5afd1","MINT_CAP_DEFAULT()":"7a305122","MIN_CR_RANGE()":"35874902","MIN_NET_DEBT_DEFAULT()":"f2ecdcae","REDEMPTION_FEE()":"52547f6d","addNewCollateral(address,uint256)":"5b372451","adjustVaultData(address,address,uint256,uint256,uint256)":"7264269e","calculateARS(address,address)":"90e3c754","calculateCR(address,address)":"2fe343e0","calculateNCR(address,address)":"4e1bcdfe","checkVaultState(address,address)":"39c35405","debtToken()":"f8d89898","getBaseFee(address)":"482601e3","getDecimals(address)":"cf54aaa0","getIndex(address)":"b31610db","getIsActive(address)":"17ae1fc5","getLiquidationPenalty(address)":"ac26a912","getMCRFactor(address)":"20780e73","getMaxFee(address)":"60f5dfda","getMaxRange(address)":"fe088a47","getMinNetDebt(address)":"86d10e8c","getMinRange(address)":"d923acdc","getMintCap(address)":"91bbfd0d","getRedemptionFee()":"9cd6f009","getValidCollateral()":"9d6aea0a","getVaultData(address,address)":"48c3c7e3","getVaultInterestRate(address,address)":"3073753e","isAddressSetupInitialized()":"c8564c62","isAddressValid(address)":"cf31ff86","keikoDeployer()":"ea8db462","owner()":"8da5cb5b","priceFeed()":"741bef1a","renounceOwnership()":"715018a6","setAddresses(address[])":"b9571721","setBaseFee(address,uint256)":"e162d98b","setCollateralParameters(address,uint256,uint256,uint256,uint256,uint256,uint256,uint256,uint256)":"00e34e69","setIsActive(address,bool)":"0fe66cdd","setLiquidationPenalty(address,uint256)":"c5f20d7b","setMCRFactor(address,uint256)":"b4528b5c","setMaxFee(address,uint256)":"8c441dcd","setMaxRange(address,uint256)":"773b2ac4","setMinNetDebt(address,uint256)":"0bc028c2","setMinRange(address,uint256)":"f53e4898","setMintCap(address,uint256)":"c06abe77","setRedemptionFee(uint256)":"7dbc1df0","stabilityPool()":"048c661d","transferOwnership(address)":"f2fde38b","treasuryAddress()":"c5f956af","userVaults(address,address)":"0bd75e57","validCollateral(uint256)":"2a6e7603","vaultManager()":"8a4adf24","vaultOperations()":"9718cf59","vaultSorter()":"841f0ebb"},"id":19}