{"abi":[{"type":"function","name":"BASE_FEE","inputs":[],"outputs":[{"name":"","type":"uint256","internalType":"uint256"}],"stateMutability":"view"},{"type":"function","name":"LIQUIDATION_PENALTY","inputs":[],"outputs":[{"name":"","type":"uint256","internalType":"uint256"}],"stateMutability":"view"},{"type":"function","name":"MAX_CR_RANGE","inputs":[],"outputs":[{"name":"","type":"uint256","internalType":"uint256"}],"stateMutability":"view"},{"type":"function","name":"MAX_FEE","inputs":[],"outputs":[{"name":"","type":"uint256","internalType":"uint256"}],"stateMutability":"view"},{"type":"function","name":"MCR_FACTOR","inputs":[],"outputs":[{"name":"","type":"uint256","internalType":"uint256"}],"stateMutability":"view"},{"type":"function","name":"MINT_CAP_DEFAULT","inputs":[],"outputs":[{"name":"","type":"uint256","internalType":"uint256"}],"stateMutability":"view"},{"type":"function","name":"MIN_CR_RANGE","inputs":[],"outputs":[{"name":"","type":"uint256","internalType":"uint256"}],"stateMutability":"view"},{"type":"function","name":"MIN_NET_DEBT_DEFAULT","inputs":[],"outputs":[{"name":"","type":"uint256","internalType":"uint256"}],"stateMutability":"view"},{"type":"function","name":"REDEMPTION_FEE","inputs":[],"outputs":[{"name":"","type":"uint256","internalType":"uint256"}],"stateMutability":"view"},{"type":"function","name":"addNewCollateral","inputs":[{"name":"collateral","type":"address","internalType":"address"},{"name":"decimals","type":"uint256","internalType":"uint256"}],"outputs":[],"stateMutability":"nonpayable"},{"type":"function","name":"adjustVaultData","inputs":[{"name":"vaultCollateral","type":"address","internalType":"address"},{"name":"vaultOwner","type":"address","internalType":"address"},{"name":"collateralAmount","type":"uint256","internalType":"uint256"},{"name":"debtAmount","type":"uint256","internalType":"uint256"},{"name":"mcr","type":"uint256","internalType":"uint256"}],"outputs":[],"stateMutability":"nonpayable"},{"type":"function","name":"calculateARS","inputs":[{"name":"vaultCollateral","type":"address","internalType":"address"},{"name":"vaultOwner","type":"address","internalType":"address"}],"outputs":[{"name":"","type":"uint256","internalType":"uint256"}],"stateMutability":"view"},{"type":"function","name":"calculateCR","inputs":[{"name":"vaultCollateral","type":"address","internalType":"address"},{"name":"vaultOwner","type":"address","internalType":"address"}],"outputs":[{"name":"","type":"uint256","internalType":"uint256"}],"stateMutability":"view"},{"type":"function","name":"calculateNCR","inputs":[{"name":"vaultCollateral","type":"address","internalType":"address"},{"name":"vaultOwner","type":"address","internalType":"address"}],"outputs":[{"name":"","type":"uint256","internalType":"uint256"}],"stateMutability":"view"},{"type":"function","name":"changePrice","inputs":[{"name":"newPrice","type":"uint256","internalType":"uint256"}],"outputs":[],"stateMutability":"nonpayable"},{"type":"function","name":"checkVault","inputs":[{"name":"coll","type":"address","internalType":"address"},{"name":"owner","type":"address","internalType":"address"}],"outputs":[{"name":"","type":"uint256","internalType":"uint256"},{"name":"","type":"uint256","internalType":"uint256"},{"name":"","type":"uint256","internalType":"uint256"}],"stateMutability":"view"},{"type":"function","name":"checkVaultState","inputs":[{"name":"vaultCollateral","type":"address","internalType":"address"},{"name":"vaultOwner","type":"address","internalType":"address"}],"outputs":[{"name":"","type":"bool","internalType":"bool"}],"stateMutability":"view"},{"type":"function","name":"collPrice","inputs":[],"outputs":[{"name":"","type":"uint256","internalType":"uint256"}],"stateMutability":"view"},{"type":"function","name":"debtToken","inputs":[],"outputs":[{"name":"","type":"address","internalType":"address"}],"stateMutability":"view"},{"type":"function","name":"getBaseFee","inputs":[{"name":"_collateral","type":"address","internalType":"address"}],"outputs":[{"name":"","type":"uint256","internalType":"uint256"}],"stateMutability":"view"},{"type":"function","name":"getDecimals","inputs":[{"name":"_collateral","type":"address","internalType":"address"}],"outputs":[{"name":"","type":"uint256","internalType":"uint256"}],"stateMutability":"view"},{"type":"function","name":"getIndex","inputs":[{"name":"_collateral","type":"address","internalType":"address"}],"outputs":[{"name":"","type":"uint256","internalType":"uint256"}],"stateMutability":"view"},{"type":"function","name":"getIsActive","inputs":[{"name":"_collateral","type":"address","internalType":"address"}],"outputs":[{"name":"","type":"bool","internalType":"bool"}],"stateMutability":"view"},{"type":"function","name":"getLiquidationPenalty","inputs":[{"name":"_collateral","type":"address","internalType":"address"}],"outputs":[{"name":"","type":"uint256","internalType":"uint256"}],"stateMutability":"view"},{"type":"function","name":"getMCRFactor","inputs":[{"name":"_collateral","type":"address","internalType":"address"}],"outputs":[{"name":"","type":"uint256","internalType":"uint256"}],"stateMutability":"view"},{"type":"function","name":"getMaxFee","inputs":[{"name":"_collateral","type":"address","internalType":"address"}],"outputs":[{"name":"","type":"uint256","internalType":"uint256"}],"stateMutability":"view"},{"type":"function","name":"getMaxRange","inputs":[{"name":"_collateral","type":"address","internalType":"address"}],"outputs":[{"name":"","type":"uint256","internalType":"uint256"}],"stateMutability":"view"},{"type":"function","name":"getMinNetDebt","inputs":[{"name":"_collateral","type":"address","internalType":"address"}],"outputs":[{"name":"","type":"uint256","internalType":"uint256"}],"stateMutability":"view"},{"type":"function","name":"getMinRange","inputs":[{"name":"_collateral","type":"address","internalType":"address"}],"outputs":[{"name":"","type":"uint256","internalType":"uint256"}],"stateMutability":"view"},{"type":"function","name":"getMintCap","inputs":[{"name":"_collateral","type":"address","internalType":"address"}],"outputs":[{"name":"","type":"uint256","internalType":"uint256"}],"stateMutability":"view"},{"type":"function","name":"getRedemptionFee","inputs":[],"outputs":[{"name":"","type":"uint256","internalType":"uint256"}],"stateMutability":"view"},{"type":"function","name":"getValidCollateral","inputs":[],"outputs":[{"name":"","type":"address[]","internalType":"address[]"}],"stateMutability":"view"},{"type":"function","name":"getVaultData","inputs":[{"name":"vaultCollateral","type":"address","internalType":"address"},{"name":"vaultOwner","type":"address","internalType":"address"}],"outputs":[{"name":"","type":"uint256","internalType":"uint256"},{"name":"","type":"uint256","internalType":"uint256"},{"name":"","type":"uint256","internalType":"uint256"}],"stateMutability":"view"},{"type":"function","name":"getVaultInterestRate","inputs":[{"name":"vaultCollateral","type":"address","internalType":"address"},{"name":"vaultOwner","type":"address","internalType":"address"}],"outputs":[{"name":"","type":"uint256","internalType":"uint256"}],"stateMutability":"view"},{"type":"function","name":"isAddressSetupInitialized","inputs":[],"outputs":[{"name":"","type":"bool","internalType":"bool"}],"stateMutability":"view"},{"type":"function","name":"isAddressValid","inputs":[{"name":"_address","type":"address","internalType":"address"}],"outputs":[{"name":"","type":"bool","internalType":"bool"}],"stateMutability":"view"},{"type":"function","name":"keikoDeployer","inputs":[],"outputs":[{"name":"","type":"address","internalType":"address"}],"stateMutability":"view"},{"type":"function","name":"owner","inputs":[],"outputs":[{"name":"","type":"address","internalType":"address"}],"stateMutability":"view"},{"type":"function","name":"priceFeed","inputs":[],"outputs":[{"name":"","type":"address","internalType":"address"}],"stateMutability":"view"},{"type":"function","name":"renounceOwnership","inputs":[],"outputs":[],"stateMutability":"nonpayable"},{"type":"function","name":"setAddresses","inputs":[{"name":"_addresses","type":"address[]","internalType":"address[]"}],"outputs":[],"stateMutability":"nonpayable"},{"type":"function","name":"setBaseFee","inputs":[{"name":"collateral","type":"address","internalType":"address"},{"name":"baseFee","type":"uint256","internalType":"uint256"}],"outputs":[],"stateMutability":"nonpayable"},{"type":"function","name":"setCollateralParameters","inputs":[{"name":"_collateral","type":"address","internalType":"address"},{"name":"mcrMinRange","type":"uint256","internalType":"uint256"},{"name":"mcrMaxRange","type":"uint256","internalType":"uint256"},{"name":"mcrFactor","type":"uint256","internalType":"uint256"},{"name":"baseFee","type":"uint256","internalType":"uint256"},{"name":"maxFee","type":"uint256","internalType":"uint256"},{"name":"minNetDebt","type":"uint256","internalType":"uint256"},{"name":"mintCap","type":"uint256","internalType":"uint256"},{"name":"liquidationPenalty","type":"uint256","internalType":"uint256"}],"outputs":[],"stateMutability":"nonpayable"},{"type":"function","name":"setIsActive","inputs":[{"name":"collateral","type":"address","internalType":"address"},{"name":"active","type":"bool","internalType":"bool"}],"outputs":[],"stateMutability":"nonpayable"},{"type":"function","name":"setLiquidationPenalty","inputs":[{"name":"collateral","type":"address","internalType":"address"},{"name":"penalty","type":"uint256","internalType":"uint256"}],"outputs":[],"stateMutability":"nonpayable"},{"type":"function","name":"setMCRFactor","inputs":[{"name":"collateral","type":"address","internalType":"address"},{"name":"mcrFactor","type":"uint256","internalType":"uint256"}],"outputs":[],"stateMutability":"nonpayable"},{"type":"function","name":"setMaxFee","inputs":[{"name":"collateral","type":"address","internalType":"address"},{"name":"maxFee","type":"uint256","internalType":"uint256"}],"outputs":[],"stateMutability":"nonpayable"},{"type":"function","name":"setMaxRange","inputs":[{"name":"collateral","type":"address","internalType":"address"},{"name":"maxRange","type":"uint256","internalType":"uint256"}],"outputs":[],"stateMutability":"nonpayable"},{"type":"function","name":"setMinNetDebt","inputs":[{"name":"collateral","type":"address","internalType":"address"},{"name":"minNetDebt","type":"uint256","internalType":"uint256"}],"outputs":[],"stateMutability":"nonpayable"},{"type":"function","name":"setMinRange","inputs":[{"name":"collateral","type":"address","internalType":"address"},{"name":"minRange","type":"uint256","internalType":"uint256"}],"outputs":[],"stateMutability":"nonpayable"},{"type":"function","name":"setMintCap","inputs":[{"name":"collateral","type":"address","internalType":"address"},{"name":"mintCap","type":"uint256","internalType":"uint256"}],"outputs":[],"stateMutability":"nonpayable"},{"type":"function","name":"setRedemptionFee","inputs":[{"name":"fee","type":"uint256","internalType":"uint256"}],"outputs":[],"stateMutability":"nonpayable"},{"type":"function","name":"stabilityPool","inputs":[],"outputs":[{"name":"","type":"address","internalType":"address"}],"stateMutability":"view"},{"type":"function","name":"transferOwnership","inputs":[{"name":"newOwner","type":"address","internalType":"address"}],"outputs":[],"stateMutability":"nonpayable"},{"type":"function","name":"treasuryAddress","inputs":[],"outputs":[{"name":"","type":"address","internalType":"address"}],"stateMutability":"view"},{"type":"function","name":"userVaults","inputs":[{"name":"","type":"address","internalType":"address"},{"name":"","type":"address","internalType":"address"}],"outputs":[{"name":"collateral","type":"uint256","internalType":"uint256"},{"name":"debt","type":"uint256","internalType":"uint256"},{"name":"mcr","type":"uint256","internalType":"uint256"}],"stateMutability":"view"},{"type":"function","name":"validCollateral","inputs":[{"name":"","type":"uint256","internalType":"uint256"}],"outputs":[{"name":"","type":"address","internalType":"address"}],"stateMutability":"view"},{"type":"function","name":"vaultManager","inputs":[],"outputs":[{"name":"","type":"address","internalType":"address"}],"stateMutability":"view"},{"type":"function","name":"vaultOperations","inputs":[],"outputs":[{"name":"","type":"address","internalType":"address"}],"stateMutability":"view"},{"type":"function","name":"vaultSorter","inputs":[],"outputs":[{"name":"","type":"address","internalType":"address"}],"stateMutability":"view"},{"type":"event","name":"BaseFeeSet","inputs":[{"name":"_collateral","type":"address","indexed":false,"internalType":"address"},{"name":"_baseFee","type":"uint256","indexed":false,"internalType":"uint256"}],"anonymous":false},{"type":"event","name":"CollateralAdded","inputs":[{"name":"collateral","type":"address","indexed":true,"internalType":"address"}],"anonymous":false},{"type":"event","name":"CollateralParamsSet","inputs":[{"name":"_collateral","type":"address","indexed":true,"internalType":"address"},{"name":"mcr","type":"uint256","indexed":false,"internalType":"uint256"},{"name":"maxRange","type":"uint256","indexed":false,"internalType":"uint256"},{"name":"baseFee","type":"uint256","indexed":false,"internalType":"uint256"},{"name":"minNetDebt","type":"uint256","indexed":false,"internalType":"uint256"},{"name":"mintCap","type":"uint256","indexed":false,"internalType":"uint256"},{"name":"liquidationPenalty","type":"uint256","indexed":false,"internalType":"uint256"}],"anonymous":false},{"type":"event","name":"IsActiveSet","inputs":[{"name":"_collateral","type":"address","indexed":true,"internalType":"address"},{"name":"_active","type":"bool","indexed":false,"internalType":"bool"}],"anonymous":false},{"type":"event","name":"LiquidationPenaltyChanged","inputs":[{"name":"oldPenalty","type":"uint256","indexed":false,"internalType":"uint256"},{"name":"newPenalty","type":"uint256","indexed":false,"internalType":"uint256"}],"anonymous":false},{"type":"event","name":"MCRFactorSet","inputs":[{"name":"_collateral","type":"address","indexed":false,"internalType":"address"},{"name":"_mcrFactor","type":"uint256","indexed":false,"internalType":"uint256"}],"anonymous":false},{"type":"event","name":"MCRUpdated","inputs":[{"name":"_collateral","type":"address","indexed":false,"internalType":"address"},{"name":"_mcr","type":"uint256","indexed":false,"internalType":"uint256"}],"anonymous":false},{"type":"event","name":"MaxFeeSet","inputs":[{"name":"_collateral","type":"address","indexed":false,"internalType":"address"},{"name":"_maxFee","type":"uint256","indexed":false,"internalType":"uint256"}],"anonymous":false},{"type":"event","name":"MaxRangeSet","inputs":[{"name":"_collateral","type":"address","indexed":false,"internalType":"address"},{"name":"_maxRange","type":"uint256","indexed":false,"internalType":"uint256"}],"anonymous":false},{"type":"event","name":"MinNetDebtChanged","inputs":[{"name":"oldMinNetDebt","type":"uint256","indexed":false,"internalType":"uint256"},{"name":"newMinNetDebt","type":"uint256","indexed":false,"internalType":"uint256"}],"anonymous":false},{"type":"event","name":"MintCapChanged","inputs":[{"name":"oldMintCap","type":"uint256","indexed":false,"internalType":"uint256"},{"name":"newMintCap","type":"uint256","indexed":false,"internalType":"uint256"}],"anonymous":false},{"type":"event","name":"OwnershipTransferred","inputs":[{"name":"previousOwner","type":"address","indexed":true,"internalType":"address"},{"name":"newOwner","type":"address","indexed":true,"internalType":"address"}],"anonymous":false},{"type":"event","name":"RedemptionFeeSet","inputs":[{"name":"_fee","type":"uint256","indexed":false,"internalType":"uint256"}],"anonymous":false}],"bytecode":{"object":"0x608080604052346100725760008054336001600160a01b0319821681178355916001600160a01b03909116907f8be0079c531659141344cd1fd0a4f28419497f9722a3daafe3b4186f6b6457e09080a36658d15e176280006009556753444835ec580000600a5561239190816100788239f35b600080fdfe6040608081526004908136101561001557600080fd5b600091823560e01c8062e34e69146118ec57806302d34464146113ed578063048c661d146118c55780630bc028c21461183f5780630bd75e57146117d25780630fe66cdd1461173757806317ae1fc5146116f557806320780e73146116ca5780632a6e76031461168a5780632fe343e01461165c5780633073753e1461162e578063358749021461160a57806339c354051461143f5780633d18651e1461141d578063482601e3146113f257806348c3c7e3146113ed5780634cff70e1146113ce5780634e1bcdfe146113a057806352547f6d14610bf95780635b3724511461115357806360f5dfda14611128578063715018a6146110ca5780637264269e14610fe0578063741bef1a14610fb7578063773b2ac414610f255780637a30512214610f005780637dbc1df014610e53578063841f0ebb14610e2a57806386d10e8c14610dff5780638a4adf2414610dd65780638c441dcd14610cec5780638da5cb5b14610cc457806390e3c75414610c8f57806391bbfd0d14610c645780639718cf5914610c3b5780639b8621d514610c185780639cd6f00914610bf95780639d6aea0a14610b06578063a2b40d1914610aec578063ac26a91214610ac1578063b31610db14610a96578063b4528b5c146109ff578063b957172114610813578063bad3867a146107ef578063bc063e1a14610638578063c06abe7714610769578063c5f20d7b1461068d578063c5f956af14610664578063c8564c621461063d578063cbe5afd114610638578063cf31ff8614610609578063cf54aaa0146105d1578063d923acdc146105a6578063e162d98b1461050f578063ea8db462146104e6578063f2ecdcae146104c2578063f2fde38b146103fc578063f53e48981461031c578063f8d89898146102ef5763fe088a47146102b457600080fd5b346102eb5760203660031901126102eb5760209282906001600160a01b036102da611e0d565b168152600c85522001549051908152f35b8280fd5b50503461031857816003193601126103185760015490516001600160a01b039091168152602090f35b5080fd5b50829034610318578260031936011261031857610337611e0d565b8254602435926001600160a01b03916103539083163314611f39565b61036461035f84611fed565b612350565b670de0b6b3a764000084106103ca575081168352600c602090815284842060030183905593516001600160a01b03909116815292830152907fc2508dc7abc1a4ac7c53aadd0ed40cde5689e67cd6d7bfc7a6740464242b86019080604081015b0390a180f35b606490602087519162461bcd60e51b8352820152600c60248201526b4d696e204d4352203130302560a01b6044820152fd5b50346102eb5760203660031901126102eb57610416611e0d565b83546001600160a01b03808216939192610431338614611f39565b169384156104705750506001600160a01b031916821783557f8be0079c531659141344cd1fd0a4f28419497f9722a3daafe3b4186f6b6457e08380a380f35b906020608492519162461bcd60e51b8352820152602660248201527f4f776e61626c653a206e6577206f776e657220697320746865207a65726f206160448201526564647265737360d01b6064820152fd5b50503461031857816003193601126103185760209051681043561a88293000008152f35b50503461031857816003193601126103185760085490516001600160a01b039091168152602090f35b5050346103185780600319360112610318577f9e9d5460f39b762bca2d14bf0b73f77900f18c6c20dba81d9370ab3c495876729061054b611e0d565b6103c46024359260018060a01b03610567818854163314611f39565b61057361035f85611fed565b83168652600c602090815281872060060185905590516001600160a01b0390931683528201929092529081906040820190565b5050346103185760203660031901126103185760209160039082906001600160a01b036102da611e0d565b5050346103185760203660031901126103185760209181906001600160a01b036105f9611e0d565b168152600c845220549051908152f35b5050346103185760203660031901126103185760209061062f61062a611e0d565b611fed565b90519015158152f35b611f16565b50503461031857816003193601126103185760209060ff60085460a01c1690519015158152f35b50503461031857816003193601126103185760055490516001600160a01b039091168152602090f35b509190346103185780600319360112610318576106a8611e0d565b926024359060018060a01b03906106c3828654163314611f39565b670429d069189e0000831161071857507fcece6dc2cc4458d2ad01cd534f8fe8a0dfc229fc5d936da9d6709927ad0bfc619394168452600c602052600a8285200190808254925582519182526020820152a180f35b608490602085519162461bcd60e51b8352820152602560248201527f4c69717569646174696f6e2070656e616c74792063616e6e6f74206578636565604482015264642033302560d81b6064820152fd5b5050346103185780600319360112610318577f903452cfae6c90575a1e7327283877d56dda9ed43a4711f44bf796e103e4e120906107a5611e0d565b8354602435916001600160a01b03916107c19083163314611f39565b6107cd61035f82611fed565b168452600c60205260098285200190808254925582519182526020820152a180f35b50503461031857816003193601126103185760209051680821ab0d44149800008152f35b50346102eb5760203660031901126102eb5767ffffffffffffffff9080358281116109fb57366023820112156109fb57808201359283116109fb57602436818560051b840101116109f75785546001600160a01b0393906108779085163314611f39565b6008549560ff8760a01c166109b6575084156109935783610899838501611f84565b16946bffffffffffffffffffffffff60a01b9586600154161760015580600110156109a457846108cb60448601611f84565b1686600254161760025580600210156109a457846108eb60648601611f84565b1686600354161760035580600310156109a4578461090b60848601611f84565b1686835416178255808210156109a4578461092860a48601611f84565b1686600654161760065580600510156109a4578461094860c48601611f84565b168660075416176007556006101561099357505060e46109689101611f84565b6005805490931691161790556001600160a81b0319163360ff60a01b191617600160a01b1760085580f35b634e487b7160e01b87526032905285fd5b50634e487b7160e01b87526032905285fd5b6064926020601c92519362461bcd60e51b85528401528201527f536574757020697320616c726561647920696e697469616c697a6564000000006044820152fd5b8580fd5b8480fd5b5050346103185780600319360112610318577f965fb4f519959cdbe5a1e7698e04677b27039572dfb58605a11c9bac17f8218590610a3b611e0d565b6103c46024359260018060a01b03610a57818854163314611f39565b610a6361035f85611fed565b83168652600c602090815281872060050185905590516001600160a01b0390931683528201929092529081906040820190565b5050346103185760203660031901126103185760209160019082906001600160a01b036102da611e0d565b50503461031857602036600319011261031857602091600a9082906001600160a01b036102da611e0d565b8382346103185760203660031901126103185735600a5580f35b509134610bf65780600319360112610bf65781518091600d549384835260208093018095600d84527fd7b6990105719101dabeb77144f2a3385c8033acd3af97e9423a695e81ad1eb590845b86828210610bd95750505050849003601f01601f191684019567ffffffffffffffff871185881017610bc6575085815282865292518583018190528594938501939290915b828110610ba657505050500390f35b83516001600160a01b031685528695509381019392810192600101610b97565b634e487b7160e01b835260419052602482fd5b83546001600160a01b031685529093019260019283019201610b52565b80fd5b5050346103185781600319360112610318576020906009549051908152f35b5050346103185781600319360112610318576020905167016345785d8a00008152f35b50503461031857816003193601126103185760075490516001600160a01b039091168152602090f35b5050346103185760203660031901126103185760209160099082906001600160a01b036102da611e0d565b505034610318578060031936011261031857602090610cbd610caf611e0d565b610cb7611e28565b90612082565b9051908152f35b505034610318578160031936011261031857905490516001600160a01b039091168152602090f35b50829034610318578260031936011261031857610d07611e0d565b8254602435926001600160a01b0391610d239083163314611f39565b610d2f61035f84611fed565b670de0b6b3a76400008411610d93575081168352600c602090815284842060070183905593516001600160a01b03909116815292830152907f36db492fe1ecdb8721a617c6a69103ea82ea3e14046360fd5dd7efef33e05b519080604081016103c4565b606490602087519162461bcd60e51b8352820152601a60248201527f4d6178206665652063616e6e6f742065786365656420313030250000000000006044820152fd5b50503461031857816003193601126103185760065490516001600160a01b039091168152602090f35b5050346103185760203660031901126103185760209160089082906001600160a01b036102da611e0d565b50503461031857816003193601126103185760035490516001600160a01b039091168152602090f35b5090346102eb5760203660031901126102eb57813591610e7d60018060a01b038554163314611f39565b67016345785d8a00008311610ebe5750816020917f91cc643d187eb250905520d3dae0b1017edd16961d27ab9a4a61fea5e38f717d9360095551908152a180f35b6020606492519162461bcd60e51b8352820152602060248201527f526564656d7074696f6e206665652063616e6e6f7420657863656564203130256044820152fd5b50503461031857816003193601126103185760209051690a968163f0a57b4000008152f35b50346102eb57816003193601126102eb577ff7c94a8be288a8b64b3a3126b6c786e54e19f7361d92b1cd22fe84e9e3458896916103c4610f63611e0d565b91602435809460018060a01b03610f7e818a54163314611f39565b610f8a61035f87611fed565b85168852600c6020528288200155519283928360209093929193604081019460018060a01b031681520152565b50503461031857816003193601126103185760025490516001600160a01b039091168152602090f35b50346102eb5760a03660031901126102eb57610ffa611e0d565b90611003611e28565b6007546001600160a01b039291908316330361108757821690811561104e57508452600b60205282842091168352602052812060443581556064356001820155600260843591015580f35b606490602086519162461bcd60e51b8352820152601360248201527224b73b30b634b2103b30bab63a1037bbb732b960691b6044820152fd5b845162461bcd60e51b8152602081840181905260248201527f4f6e6c792063616c6c61626c65206279205661756c744f7065726174696f6e736044820152606490fd5b8334610bf65780600319360112610bf657805481906001600160a01b038116906110f5338314611f39565b6001600160a01b03191682557f8be0079c531659141344cd1fd0a4f28419497f9722a3daafe3b4186f6b6457e08280a380f35b5050346103185760203660031901126103185760209160079082906001600160a01b036102da611e0d565b50346102eb57816003193601126102eb5761116c611e0d565b916024359160018060a01b0393611187858754163314611f39565b6012840361134a57600d5468010000000000000000811015611337576111b4816001889301600d55611ec9565b969092169582549060031b9187831b921b1916179055600d54600019810190811161132457825193610160850185811067ffffffffffffffff821117611311579187939185938896528652602086019081528286019184835260608701906805f68e8131ecf80000825260808801680821ab0d4414980000815260a08901926702c68af0bb1400009586855260c08b01956658d15e17628000875260e08c019788526101008c0198681043561a88293000008a526101208d019a8d690a968163f0a57b4000008d52610140019c67016345785d8a00008e528152600c602052209b518c555160018c015551151560028b01906112bb919060ff801983541691151516179055565b5160038a015551908801555160058701555160068601555160078501555160088401555160098301555190600a01557f7db05e63d635a68c62fd7fd8f3107ae8ab584a383e102d1bd8a40f4c977e465f8280a280f35b634e487b7160e01b885260418452602488fd5b634e487b7160e01b865260118252602486fd5b634e487b7160e01b875260418352602487fd5b506020608492519162461bcd60e51b8352820152602a60248201527f636f6c6c61746572616c73206d7573742068617665207468652064656661756c6044820152697420646563696d616c7360b01b6064820152fd5b505034610318578060031936011261031857602090610cbd6113c0611e0d565b6113c8611e28565b906122d0565b505034610318578160031936011261031857602090600a549051908152f35b611e3e565b5050346103185760203660031901126103185760209160069082906001600160a01b036102da611e0d565b505034610318578160031936011261031857602090516658d15e176280008152f35b50346102eb57816003193601126102eb57611458611e0d565b611460611e28565b9360018060a01b03918286168252602095600b8752858320938216938484528752858320916114b487519261149484611f98565b845484528860026001870154968c8701978852015494019384528261222f565b825110156115dc576114c590611fed565b156115a75751838352600c8752600386842001541161157657828252600c865260ff6002868420015416156115465751918152600c8552839020600801541161151057505160018152f35b82606492519162461bcd60e51b83528201526012602482015271125b9d985b1a59081b5a5b93995d1119589d60721b6044820152fd5b845162461bcd60e51b8152808501879052600a6024820152694e6f742061637469766560b01b6044820152606490fd5b845162461bcd60e51b8152808501879052600b60248201526a24b73b30b634b21026a1a960a91b6044820152606490fd5b855162461bcd60e51b8152808601889052600f60248201526e139bdd081dda1a5d195b1a5cdd1959608a1b6044820152606490fd5b865162461bcd60e51b8152808701899052600860248201526721a9101e1026a1a960c11b6044820152606490fd5b505034610318578160031936011261031857602090516805f68e8131ecf800008152f35b505034610318578060031936011261031857602090610cbd61164e611e0d565b611656611e28565b90612123565b505034610318578060031936011261031857602090610cbd61167c611e0d565b611684611e28565b9061222f565b50346102eb5760203660031901126102eb573591600d54831015610bf657506116b4602092611ec9565b905491519160018060a01b039160031b1c168152f35b5050346103185760203660031901126103185760209160059082906001600160a01b036102da611e0d565b5050346103185760203660031901126103185760209160ff9060029083906001600160a01b03611723611e0d565b168152600c86522001541690519015158152f35b505034610318578060031936011261031857611751611e0d565b90602435918215158084036109fb577f8a5199eeb0a5b01d430359f5fb683b5fcb1e3b236c5f01179f1af82ac2c56748926117ca60209360018060a01b039061179e828a54163314611f39565b6117aa61035f82611fed565b1695868852600c85526002838920019060ff801983541691151516179055565b51908152a280f35b50503461031857806003193601126103185780916117ee611e0d565b6117f6611e28565b6001600160a01b039182168352600b60209081528484209190921683528152919020805460018201546002909201549351908152918201526040810191909152606090f35b0390f35b5050346103185780600319360112610318577f794abdbe21b3b4556467be6af2b2d5e75ae16613bd128dbd47c3727bd52b4b559061187b611e0d565b8354602435916001600160a01b03916118979083163314611f39565b6118a361035f82611fed565b168452600c60205260088285200190808254925582519182526020820152a180f35b50346102eb57826003193601126102eb575490516001600160a01b03909116815260209150f35b509190346103185761012036600319011261031857611909611e0d565b825490936001600160a01b03916119239083163314611f39565b60a4359160843583811015611dbc5781871694858752600c6020908082526002838a2001600160ff1982541617905561196033868b541614611f39565b61196c61035f8b611fed565b60243596670de0b6b3a7640000808910611d8c57898b52828452848b2060030189905584516001600160a01b038d168152602081018a90528594939291907fc2508dc7abc1a4ac7c53aadd0ed40cde5689e67cd6d7bfc7a6740464242b860190604090a133888d5416146119df90611f39565b6119e88d611fed565b6119f190612350565b8a8c52828452938b2060443590890181905585516001600160a01b038e168152602081018290529094907ff7c94a8be288a8b64b3a3126b6c786e54e19f7361d92b1cd22fe84e9e345889690604090a133888d541614611a5090611f39565b611a598d611fed565b611a6290612350565b8a8c52828452858c20606435600590910181905586516001600160a01b038f16815260208101919091527f965fb4f519959cdbe5a1e7698e04677b27039572dfb58605a11c9bac17f8218590604090a133888d541614611ac190611f39565b611aca8d611fed565b611ad390612350565b8a8c52828452858c2060060187905585516001600160a01b038e168152602081018890527f9e9d5460f39b762bca2d14bf0b73f77900f18c6c20dba81d9370ab3c4958767290604090a133888d541614611b2c90611f39565b611b358d611fed565b611b3e90612350565b8111611d4957898b52818352848b2060070181905584516001600160a01b038d1681526020810191909152999a98999798969795968b96611c0c9161035f917f36db492fe1ecdb8721a617c6a69103ea82ea3e14046360fd5dd7efef33e05b5190604090a1611bb1338b8b541614611f39565b611bbd61035f82611fed565b8c895283855261062a6008888b2001997f794abdbe21b3b4556467be6af2b2d5e75ae16613bd128dbd47c3727bd52b4b55898c5460c435809e5581519081528d8a820152a1548b163314611f39565b898b52808252611c5b6009858d2001977f903452cfae6c90575a1e7327283877d56dda9ed43a4711f44bf796e103e4e120868a5460e435809c5581519081528b87820152a18c54163314611f39565b6101043597670429d069189e00008911611cf857509183917fcece6dc2cc4458d2ad01cd534f8fe8a0dfc229fc5d936da9d6709927ad0bfc6183600a60c09b99978f8f987f6a9be8a25d3f9d94b8876b8ba57bf2155b35c596274a1b8c4dec9fe209ffd7679f9d9b99825286522001898154915581519081528984820152a182519788528701528501526060840152608083015260a0820152a280f35b845162461bcd60e51b8152908101839052602560248201527f4c69717569646174696f6e2070656e616c74792063616e6e6f74206578636565604482015264642033302560d81b6064820152608490fd5b845162461bcd60e51b8152808901849052601a60248201527f4d6178206665652063616e6e6f742065786365656420313030250000000000006044820152606490fd5b606488848688519262461bcd60e51b845283015260248201526b4d696e204d4352203130302560a01b6044820152fd5b845162461bcd60e51b8152602081850152602560248201527f4261736520666565206d75737420626520736d616c6c6572207468616e206d61604482015264782066656560d81b6064820152608490fd5b600435906001600160a01b0382168203611e2357565b600080fd5b602435906001600160a01b0382168203611e2357565b34611e2357604080600319360112611e2357611e58611e0d565b6001600160a01b0380611e69611e28565b16600052600b602052826000209116600052602052806000209061183b815191611e9283611f98565b8084549384815260026001870154968760208401520154928391015251938493846040919493926060820195825260208201520152565b600d54811015611f0057600d6000527fd7b6990105719101dabeb77144f2a3385c8033acd3af97e9423a695e81ad1eb50190600090565b634e487b7160e01b600052603260045260246000fd5b34611e23576000366003190112611e235760206040516702c68af0bb1400008152f35b15611f4057565b606460405162461bcd60e51b815260206004820152602060248201527f4f776e61626c653a2063616c6c6572206973206e6f7420746865206f776e65726044820152fd5b356001600160a01b0381168103611e235790565b6060810190811067ffffffffffffffff821117611fb457604052565b634e487b7160e01b600052604160045260246000fd5b91908203918211611fd757565b634e487b7160e01b600052601160045260246000fd5b600d54919060005b83811061200457506000925050565b61200d81611ec9565b905460039190911b1c6001600160a01b039081169083161461203a576000198114611fd757600101611ff5565b506001925050565b81810292918115918404141715611fd757565b811561205f570490565b634e487b7160e01b600052601260045260246000fd5b91908201809211611fd757565b6120e260018060a01b03926005604060008684168152600b60205281812096861696878252602052818120968260028151996120bd8b611f98565b80548b52600181015460208c0152015498019788528152600c602052200154926122d0565b916000198314801561211b575b6121165761210c6121139392670de0b6b3a7640000925190612042565b0490612075565b90565b505090565b5081156120ef565b9060018060a01b0380600092168252600b6020526040822092169182825260205260408120916040600281519461215986611f98565b8054865260018101546020870152015493019283528152600c6020526040812090600682015490600783015493600360048501549401549051908115612226578482101561221d578082116121b057505050505090565b909192939594846121c091611fca565b90670de0b6b3a76400009384830292808404861490151715612209575061210c926121fd88936121f7612203946121139a9b611fca565b90612055565b92611fca565b90612042565b634e487b7160e01b81526011600452602490fd5b50505091505090565b50509250505090565b91909160018060a01b0380600094168452600b60205260408420911683526020526040822060405161226081611f98565b815490818152600183015490604060026020830195848752015491015215156000146122c757600a5461229291612042565b906064820291808304606414901517156122b3576121139293505190612055565b634e487b7160e01b84526011600452602484fd5b50600019925050565b91909160018060a01b0380600094168452600b6020526040842091168352602052604082206040519061230282611f98565b805491828152600182015490604060026020830194848652015491015215156000146122c75768056bc75e2d63100000918281029281840414901517156122b3576121139293505190612055565b1561235757565b60405162461bcd60e51b8152602060048201526012602482015271125b9d985b1a590818dbdb1b185d195c985b60721b6044820152606490fd","linkReferences":{}},"methodIdentifiers":{"BASE_FEE()":"3d18651e","LIQUIDATION_PENALTY()":"9b8621d5","MAX_CR_RANGE()":"bad3867a","MAX_FEE()":"bc063e1a","MCR_FACTOR()":"cbe5afd1","MINT_CAP_DEFAULT()":"7a305122","MIN_CR_RANGE()":"35874902","MIN_NET_DEBT_DEFAULT()":"f2ecdcae","REDEMPTION_FEE()":"52547f6d","addNewCollateral(address,uint256)":"5b372451","adjustVaultData(address,address,uint256,uint256,uint256)":"7264269e","calculateARS(address,address)":"90e3c754","calculateCR(address,address)":"2fe343e0","calculateNCR(address,address)":"4e1bcdfe","changePrice(uint256)":"a2b40d19","checkVault(address,address)":"02d34464","checkVaultState(address,address)":"39c35405","collPrice()":"4cff70e1","debtToken()":"f8d89898","getBaseFee(address)":"482601e3","getDecimals(address)":"cf54aaa0","getIndex(address)":"b31610db","getIsActive(address)":"17ae1fc5","getLiquidationPenalty(address)":"ac26a912","getMCRFactor(address)":"20780e73","getMaxFee(address)":"60f5dfda","getMaxRange(address)":"fe088a47","getMinNetDebt(address)":"86d10e8c","getMinRange(address)":"d923acdc","getMintCap(address)":"91bbfd0d","getRedemptionFee()":"9cd6f009","getValidCollateral()":"9d6aea0a","getVaultData(address,address)":"48c3c7e3","getVaultInterestRate(address,address)":"3073753e","isAddressSetupInitialized()":"c8564c62","isAddressValid(address)":"cf31ff86","keikoDeployer()":"ea8db462","owner()":"8da5cb5b","priceFeed()":"741bef1a","renounceOwnership()":"715018a6","setAddresses(address[])":"b9571721","setBaseFee(address,uint256)":"e162d98b","setCollateralParameters(address,uint256,uint256,uint256,uint256,uint256,uint256,uint256,uint256)":"00e34e69","setIsActive(address,bool)":"0fe66cdd","setLiquidationPenalty(address,uint256)":"c5f20d7b","setMCRFactor(address,uint256)":"b4528b5c","setMaxFee(address,uint256)":"8c441dcd","setMaxRange(address,uint256)":"773b2ac4","setMinNetDebt(address,uint256)":"0bc028c2","setMinRange(address,uint256)":"f53e4898","setMintCap(address,uint256)":"c06abe77","setRedemptionFee(uint256)":"7dbc1df0","stabilityPool()":"048c661d","transferOwnership(address)":"f2fde38b","treasuryAddress()":"c5f956af","userVaults(address,address)":"0bd75e57","validCollateral(uint256)":"2a6e7603","vaultManager()":"8a4adf24","vaultOperations()":"9718cf59","vaultSorter()":"841f0ebb"},"id":25}