{"abi":[{"type":"function","name":"activeVaults","inputs":[],"outputs":[{"name":"","type":"uint256","internalType":"uint256"}],"stateMutability":"view"},{"type":"function","name":"adjustVault","inputs":[{"name":"vaultCollateral","type":"address","internalType":"address"},{"name":"addCollateral","type":"uint256","internalType":"uint256"},{"name":"withdrawCollateral","type":"uint256","internalType":"uint256"},{"name":"addDebt","type":"uint256","internalType":"uint256"},{"name":"repaidDebt","type":"uint256","internalType":"uint256"},{"name":"prevId","type":"address","internalType":"address"},{"name":"nextId","type":"address","internalType":"address"}],"outputs":[],"stateMutability":"nonpayable"},{"type":"function","name":"adjustVaultMCR","inputs":[{"name":"vaultCollateral","type":"address","internalType":"address"},{"name":"mcr","type":"uint256","internalType":"uint256"},{"name":"prevId","type":"address","internalType":"address"},{"name":"nextId","type":"address","internalType":"address"}],"outputs":[],"stateMutability":"nonpayable"},{"type":"function","name":"closeVault","inputs":[{"name":"vaultCollateral","type":"address","internalType":"address"}],"outputs":[],"stateMutability":"nonpayable"},{"type":"function","name":"createVault","inputs":[{"name":"vaultCollateral","type":"address","internalType":"address"},{"name":"collatAmount","type":"uint256","internalType":"uint256"},{"name":"debtAmount","type":"uint256","internalType":"uint256"},{"name":"vaultMCR","type":"uint256","internalType":"uint256"},{"name":"prevId","type":"address","internalType":"address"},{"name":"nextId","type":"address","internalType":"address"}],"outputs":[],"stateMutability":"nonpayable"},{"type":"function","name":"debtToken","inputs":[],"outputs":[{"name":"","type":"address","internalType":"address"}],"stateMutability":"view"},{"type":"function","name":"defaultInterestRecipient","inputs":[],"outputs":[{"name":"","type":"address","internalType":"address"}],"stateMutability":"view"},{"type":"function","name":"getLastUpdatedDebtTime","inputs":[{"name":"vaultCollateral","type":"address","internalType":"address"},{"name":"vaultOwner","type":"address","internalType":"address"}],"outputs":[{"name":"","type":"uint256","internalType":"uint256"}],"stateMutability":"view"},{"type":"function","name":"isAddressSetupInitialized","inputs":[],"outputs":[{"name":"","type":"bool","internalType":"bool"}],"stateMutability":"view"},{"type":"function","name":"keikoDeployer","inputs":[],"outputs":[{"name":"","type":"address","internalType":"address"}],"stateMutability":"view"},{"type":"function","name":"lastDebtUpdateTime","inputs":[{"name":"","type":"address","internalType":"address"},{"name":"","type":"address","internalType":"address"}],"outputs":[{"name":"","type":"uint256","internalType":"uint256"}],"stateMutability":"view"},{"type":"function","name":"liquidateVault","inputs":[{"name":"vaultCollateral","type":"address","internalType":"address"},{"name":"vaultOwner","type":"address","internalType":"address"},{"name":"prevId","type":"address","internalType":"address"},{"name":"nextId","type":"address","internalType":"address"}],"outputs":[],"stateMutability":"nonpayable"},{"type":"function","name":"mintRecipients","inputs":[{"name":"","type":"uint256","internalType":"uint256"}],"outputs":[{"name":"recipient","type":"address","internalType":"address"},{"name":"percentage","type":"uint256","internalType":"uint256"}],"stateMutability":"view"},{"type":"function","name":"mintVaultsInterest","inputs":[],"outputs":[],"stateMutability":"nonpayable"},{"type":"function","name":"owner","inputs":[],"outputs":[{"name":"","type":"address","internalType":"address"}],"stateMutability":"view"},{"type":"function","name":"priceFeed","inputs":[],"outputs":[{"name":"","type":"address","internalType":"address"}],"stateMutability":"view"},{"type":"function","name":"redeemVault","inputs":[{"name":"vaultCollateral","type":"address","internalType":"address"},{"name":"redemptionAmount","type":"uint256","internalType":"uint256"},{"name":"prevId","type":"address","internalType":"address"},{"name":"nextId","type":"address","internalType":"address"}],"outputs":[],"stateMutability":"nonpayable"},{"type":"function","name":"renounceOwnership","inputs":[],"outputs":[],"stateMutability":"nonpayable"},{"type":"function","name":"setAddresses","inputs":[{"name":"_addresses","type":"address[]","internalType":"address[]"}],"outputs":[],"stateMutability":"nonpayable"},{"type":"function","name":"setDefaultInterestRecipient","inputs":[{"name":"_recipient","type":"address","internalType":"address"}],"outputs":[],"stateMutability":"nonpayable"},{"type":"function","name":"setMintRecipients","inputs":[{"name":"_recipients","type":"tuple[]","internalType":"struct VaultOperations.MintRecipient[]","components":[{"name":"recipient","type":"address","internalType":"address"},{"name":"percentage","type":"uint256","internalType":"uint256"}]}],"outputs":[],"stateMutability":"nonpayable"},{"type":"function","name":"stabilityPool","inputs":[],"outputs":[{"name":"","type":"address","internalType":"address"}],"stateMutability":"view"},{"type":"function","name":"totalAccruedDebt","inputs":[],"outputs":[{"name":"","type":"uint256","internalType":"uint256"}],"stateMutability":"view"},{"type":"function","name":"totalCollateral","inputs":[{"name":"","type":"address","internalType":"address"}],"outputs":[{"name":"","type":"uint256","internalType":"uint256"}],"stateMutability":"view"},{"type":"function","name":"totalDebt","inputs":[{"name":"","type":"address","internalType":"address"}],"outputs":[{"name":"","type":"uint256","internalType":"uint256"}],"stateMutability":"view"},{"type":"function","name":"totalProtocolDebt","inputs":[],"outputs":[{"name":"","type":"uint256","internalType":"uint256"}],"stateMutability":"view"},{"type":"function","name":"transferOwnership","inputs":[{"name":"newOwner","type":"address","internalType":"address"}],"outputs":[],"stateMutability":"nonpayable"},{"type":"function","name":"transferVaultOwnership","inputs":[{"name":"vaultCollateral","type":"address","internalType":"address"},{"name":"recipient","type":"address","internalType":"address"},{"name":"prevId","type":"address","internalType":"address"},{"name":"nextId","type":"address","internalType":"address"}],"outputs":[],"stateMutability":"nonpayable"},{"type":"function","name":"treasuryAddress","inputs":[],"outputs":[{"name":"","type":"address","internalType":"address"}],"stateMutability":"view"},{"type":"function","name":"updateVaultInterest","inputs":[{"name":"vaultCollateral","type":"address","internalType":"address"},{"name":"vaultOwner","type":"address","internalType":"address"}],"outputs":[{"name":"","type":"uint256","internalType":"uint256"},{"name":"","type":"uint256","internalType":"uint256"},{"name":"","type":"uint256","internalType":"uint256"}],"stateMutability":"nonpayable"},{"type":"function","name":"vaultManager","inputs":[],"outputs":[{"name":"","type":"address","internalType":"address"}],"stateMutability":"view"},{"type":"function","name":"vaultOperations","inputs":[],"outputs":[{"name":"","type":"address","internalType":"address"}],"stateMutability":"view"},{"type":"function","name":"vaultSorter","inputs":[],"outputs":[{"name":"","type":"address","internalType":"address"}],"stateMutability":"view"},{"type":"event","name":"OwnershipTransferred","inputs":[{"name":"previousOwner","type":"address","indexed":true,"internalType":"address"},{"name":"newOwner","type":"address","indexed":true,"internalType":"address"}],"anonymous":false},{"type":"event","name":"VaultAdjusted","inputs":[{"name":"vaultOwner","type":"address","indexed":true,"internalType":"address"},{"name":"vaultCollateral","type":"address","indexed":true,"internalType":"address"},{"name":"addCollateral","type":"uint256","indexed":false,"internalType":"uint256"},{"name":"withdrawCollateral","type":"uint256","indexed":false,"internalType":"uint256"},{"name":"addDebt","type":"uint256","indexed":false,"internalType":"uint256"},{"name":"repaidDebt","type":"uint256","indexed":false,"internalType":"uint256"}],"anonymous":false},{"type":"event","name":"VaultClosed","inputs":[{"name":"vaultOwner","type":"address","indexed":true,"internalType":"address"},{"name":"vaultCollateral","type":"address","indexed":true,"internalType":"address"},{"name":"collatAmount","type":"uint256","indexed":false,"internalType":"uint256"},{"name":"debtAmount","type":"uint256","indexed":false,"internalType":"uint256"}],"anonymous":false},{"type":"event","name":"VaultCreated","inputs":[{"name":"vaultOwner","type":"address","indexed":true,"internalType":"address"},{"name":"vaultCollateral","type":"address","indexed":true,"internalType":"address"},{"name":"collatAmount","type":"uint256","indexed":false,"internalType":"uint256"},{"name":"debtAmount","type":"uint256","indexed":false,"internalType":"uint256"}],"anonymous":false},{"type":"event","name":"VaultInterestMinted","inputs":[{"name":"amount","type":"uint256","indexed":false,"internalType":"uint256"}],"anonymous":false},{"type":"event","name":"VaultLiquidated","inputs":[{"name":"vaultOwner","type":"address","indexed":true,"internalType":"address"},{"name":"vaultCollateral","type":"address","indexed":true,"internalType":"address"},{"name":"liquidator","type":"address","indexed":true,"internalType":"address"}],"anonymous":false},{"type":"event","name":"VaultRedeemed","inputs":[{"name":"vaultOwner","type":"address","indexed":true,"internalType":"address"},{"name":"vaultCollateral","type":"address","indexed":false,"internalType":"address"},{"name":"redeemer","type":"address","indexed":false,"internalType":"address"},{"name":"amount","type":"uint256","indexed":false,"internalType":"uint256"},{"name":"vaultARS","type":"uint256","indexed":false,"internalType":"uint256"}],"anonymous":false},{"type":"event","name":"VaultTransfered","inputs":[{"name":"oldOwner","type":"address","indexed":true,"internalType":"address"},{"name":"vaultCollateral","type":"address","indexed":true,"internalType":"address"},{"name":"newOwner","type":"address","indexed":true,"internalType":"address"}],"anonymous":false}],"bytecode":{"object":"0x6080806040523461005b5760008054336001600160a01b0319821681178355916001600160a01b03909116907f8be0079c531659141344cd1fd0a4f28419497f9722a3daafe3b4186f6b6457e09080a36138d790816100618239f35b600080fdfe6080604052600436101561001257600080fd5b6000803560e01c806303cdb30c14612cbe578063048c661d14612c9557806317a0814914612c44578063186ee8a414612c265780631b393eda146125f95780631d1a012c146122af5780631ff517ff146122765780633fa6b819146122365780634b8fed1b14611b2b57806353c0870a146116755780637110ccd514611626578063715018a6146115c757806373147f461461157a578063741bef1a146115515780637e059b2214611518578063841f0ebb146114ef57806387543b19146114d15780638a4adf24146114a85780638da5cb5b146114815780639718cf59146114585780639797a53e14610c3f5780639a3236ce14610c16578063b05b99d414610a0f578063b957172114610826578063bd8bcd8914610808578063c5f956af146107df578063c616bcb614610795578063c8564c621461076f578063c99cb2b714610509578063ea8db462146104e0578063ed961cc914610281578063f2fde38b146101b35763f8d898981461018857600080fd5b346101b057806003193601126101b0576001546040516001600160a01b039091168152602090f35b80fd5b50346101b05760203660031901126101b0576101cd613091565b81546001600160a01b039182916101e79083163314613447565b1690811561022d57600054826001600160601b0360a01b821617600055167f8be0079c531659141344cd1fd0a4f28419497f9722a3daafe3b4186f6b6457e0600080a380f35b60405162461bcd60e51b815260206004820152602660248201527f4f776e61626c653a206e6577206f776e657220697320746865207a65726f206160448201526564647265737360d01b6064820152608490fd5b50346101b057610290366131ba565b92918061029d33856134a6565b909391921461048c576005546001600160a01b03938893918516803b1561047d57849283896102e460405197889687958694633932134f60e11b8652339060048701613233565b03925af1801561048157610469575b50600554604051632438f1d560e21b81526001600160a01b03861660048201523360248201526020969091879083906044908290879089165af19182156103fd578392610432575b508360035416803b156104215761036f9584809460405198899586948593633b3e76c560e21b85528d33906004870161331a565b03925af1928315610425578593610408575b50506005546040516339c3540560e01b81526001600160a01b0394909416600485015233602485015283916044918391165afa9081156103fd576103cd9284926103d0575b505061327d565b80f35b6103ef9250803d106103f6575b6103e78183613148565b810190613265565b38806103c6565b503d6103dd565b6040513d85823e3d90fd5b6104149192935061311e565b6104215782908438610381565b8380fd5b50604051903d90823e3d90fd5b925090508582813d8111610462575b61044b8183613148565b8101031261045d57869151903861033b565b600080fd5b503d610441565b6104729061311e565b61047d5784386102f3565b8480fd5b6040513d84823e3d90fd5b60405162461bcd60e51b815260206004820152602660248201527f4e6577204d4352206973207468652073616d65206173207468652063757272656044820152656e74206f6e6560d01b6064820152608490fd5b50346101b057806003193601126101b0576008546040516001600160a01b039091168152602090f35b50346101b05760208060031936011261072057610524613091565b9061052f33836134a6565b50909161053d83151561334d565b60018060a01b0380851694858752600e83526040872061055e86825461338f565b9055858752600d83526040872061057685825461338f565b905561058484600a5461338f565b600a55600954600019810190811161075b5790879291600955338352600f845260408320876000528452826040600020558160055416803b1561042157836040518092633932134f60e11b82528183816105e233896004840161339c565b03925af1908115610750578491610738575b50508160035416803b156104215760405163b7d3824360e01b81526001600160a01b0392909216600483015233602483015283908290604490829084905af19081156103fd578391610724575b505060015416803b1561072057604051632770a7eb60e21b8152336004820152602481018590529082908290604490829084905af180156104815761070c575b505060405163a9059cbb60e01b815233600482015260248101849052818160448189895af18015610701576106e4575b506040519283528201527f334dd65867efbcc88bc2965ef9dbc4055ad0d8d389e79ec058fe03c07ffffc8360403392a380f35b6106fa90823d84116103f6576103e78183613148565b50386106b1565b6040513d88823e3d90fd5b6107159061311e565b61047d578438610681565b5080fd5b61072d9061311e565b610720578138610641565b6107419061311e565b61074c5782386105f4565b8280fd5b6040513d86823e3d90fd5b634e487b7160e01b88526011600452602488fd5b50346101b057806003193601126101b057602060ff60085460a01c166040519015158152f35b50346101b05760203660031901126101b0576107af613091565b81546001600160a01b0391906107c89083163314613447565b166001600160601b0360a01b601154161760115580f35b50346101b057806003193601126101b0576007546040516001600160a01b039091168152602090f35b50346101b057806003193601126101b0576020600a54604051908152f35b50346101b05760203660031901126101b05760043567ffffffffffffffff80821161074c573660238301121561074c57816004013590811161074c57602436818360051b85010111610421576008549260ff8460a01c166109cb5782156109b8576001600160a01b03918261089c8383016131fc565b16936001600160601b0360a01b9485600154161760015580600110156109a557836108c9604485016131fc565b1685600254161760025580600210156109a557836108e9606485016131fc565b1685600354161760035580600310156109a55783610909608485016131fc565b1685600454161760045580600410156109a5578361092960a485016131fc565b1685600554161760055580600510156109a5578361094960c485016131fc565b1685600654161760065560061015610993575060e461096891016131fc565b6007805490931691161790556001600160a81b0319163360ff60a01b191617600160a01b1760085580f35b634e487b7160e01b8652603260045285fd5b50634e487b7160e01b8652603260045285fd5b50634e487b7160e01b8452603260045283fd5b60405162461bcd60e51b815260206004820152601c818401527f536574757020697320616c726561647920696e697469616c697a6564000000006044820152606490fd5b50346101b057806003193601126101b057600b5490610a30600c548361338f565b918215610bdb57600c5581815b601054811015610b1a57610a508161316a565b50612710610a63600180930154876133ea565b049081610a7b575b5050610a7690613438565b610a3d565b54919290916001600160a01b0390811690610a958561316a565b505416813b15610b16576040516340c10f1960e01b81526001600160a01b03919091166004820152602481018490529085908290604490829084905af18015610b0b57908591610af7575b5050610a7691610aef9161338f565b919038610a6b565b610b009061311e565b610421578338610ae0565b6040513d87823e3d90fd5b8580fd5b5081839180151580610bc7575b610b5b575b507f097a1c65a819d6da300e068538fa6f8649069550c48a22ab7eec23829fa25834602083604051908152a180f35b6001546011546001600160a01b0391821692911690823b15610421576040516340c10f1960e01b81526001600160a01b0392909216600483015260248201529082908290604490829084905af180156104815715610b2c57610bbc9061311e565b610720578183610b2c565b506011546001600160a01b03161515610b27565b60405162461bcd60e51b8152602060048201526013602482015272139bc81a5b9d195c995cdd081d1bc81b5a5b9d606a1b6044820152606490fd5b50346101b057806003193601126101b0576011546040516001600160a01b039091168152602090f35b50346101b057610c4e366131ba565b82919392911561141357600354604051637608271560e01b81526001600160a01b03858116600483015290939160209185916024918391165afa9283156107015786936113f2575b506001600160a01b038316156113a257600554604051639cd6f00960e01b81529190602090839060049082906001600160a01b03165afa918215611397578792611362575b50600254604051635670bcc760e11b81526001600160a01b03878116600483015293949093909160209185916024918391165afa928315611357578893611323575b508794919385925b8986151580611311575b1561123a5750610d3f81896134a6565b989190958887106000146112335786995b670de0b6b3a7640000610d6e81610d67898f6133ea565b048d61338f565b81810291818304149015171561121f5789610d88916133fd565b938385116111ce578b9a8f93610d9f878e94613210565b9c610da991613210565b9c610db39161338f565b988d600160a01b6001900360055416604051808093632438f1d560e21b82528b6004830191610dfa9290602090939293604083019460018060a01b03809216845216910152565b0381885a94602095f18015610b0b578f918691611196575b506040519160018060a01b0316825233602083015283604083015260608201527f6bc6d368a99d59874dbc7f78ab398d829abf6db26544f2ae6143640ed6865988608060018060a01b038a1692a28915611027575050505090610e749161338f565b6005549091908b906001600160a01b0316803b15610720578183610eb0928d83604051809681958294633932134f60e11b84526004840161339c565b03925af1801561048157611013575b506003546001600160a01b0316803b156107205760405163b7d3824360e01b81526001600160a01b038c81166004830152841660248201529082908290604490829084905af1801561048157610ffb575b505060405163a9059cbb60e01b81526001600160a01b0390911660048201526024810191909152602081806044810103818d6001600160a01b038d165af18015610fd157610fdc575b50600354604051637608271560e01b81526001600160a01b038981166004830152909160209183916024918391165afa908115610fd1578a91610fa2575b50955b929495610d25565b610fc4915060203d602011610fca575b610fbc8183613148565b8101906133cb565b38610f97565b503d610fb2565b6040513d8c823e3d90fd5b610ff49060203d6020116103f6576103e78183613148565b5038610f59565b6110049061311e565b61100f578a38610f10565b8a80fd5b61101c9061311e565b61100f578a38610ebf565b9091929461104390600180989e9860a01b03600554169561338f565b918082111561118d576110559161338f565b925b803b1561047d578b858e611083829660405198899788968795633932134f60e11b875260048701613233565b03925af1801561048157611179575b50600554604051632438f1d560e21b81526001600160a01b038b811660048301528a811660248301529091602091839160449183918791165af1908115610481578291611144575b506003546001600160a01b0316803b1561074c578b9183918b838e6111168b60405198899788968795633b3e76c560e21b87526004870161331a565b03925af180156104815761112c575b5050610f9a565b6111359061311e565b611140578938611125565b8980fd5b9150506020813d602011611171575b8161116060209383613148565b8101031261045d578a9051386110da565b3d9150611153565b6111829061311e565b611140578938611092565b50508392611057565b955050506020843d6020116111c6575b816111b360209383613148565b8101031261045d578f938e905138610e12565b3d91506111a6565b60405162461bcd60e51b8152602060048201526024808201527f496e73756666696369656e7420636f6c6c61746572616c20696e207468652076604482015263185d5b1d60e21b6064820152608490fd5b634e487b7160e01b8f52601160045260248ffd5b8899610d50565b80898987806112aa575b508061124e575050f35b60405163a9059cbb60e01b815233600482015260248101919091529160209183916044918391906001600160a01b03165af180156104815761128e575080f35b6112a69060203d6020116103f6576103e78183613148565b5080f35b6001546001600160a01b0316803b1561047d57604051632770a7eb60e21b8152336004820152602481019290925284908290604490829084905af19081156107505784916112f9575b50611244565b6113029061311e565b61130d5782856112f3565b5050fd5b506001600160a01b0382161515610d2f565b9092506020813d60201161134f575b8161133f60209383613148565b8101031261045d57519138610d1d565b3d9150611332565b6040513d8a823e3d90fd5b91506020823d60201161138f575b8161137d60209383613148565b8101031261045d576024915191610cdb565b3d9150611370565b6040513d89823e3d90fd5b60405162461bcd60e51b815260206004820152602260248201527f4e6f207661756c747320617661696c61626c6520666f7220726564656d70746960448201526137b760f11b6064820152608490fd5b61140c91935060203d602011610fca57610fbc8183613148565b9138610c96565b60405162461bcd60e51b815260206004820152601760248201527f416d6f756e74206d75737420626520706f7369746976650000000000000000006044820152606490fd5b50346101b057806003193601126101b0576006546040516001600160a01b039091168152602090f35b50346101b057806003193601126101b057546040516001600160a01b039091168152602090f35b50346101b057806003193601126101b0576005546040516001600160a01b039091168152602090f35b50346101b057806003193601126101b0576020600b54604051908152f35b50346101b057806003193601126101b0576003546040516001600160a01b039091168152602090f35b50346101b05760203660031901126101b0576020906040906001600160a01b03611540613091565b168152600e83522054604051908152f35b50346101b057806003193601126101b0576002546040516001600160a01b039091168152602090f35b50346101b05760203660031901126101b057600435601054811015610720576115a29061316a565b508054600190910154604080516001600160a01b039093168352602083019190915290f35b50346101b057806003193601126101b057600060018060a01b036115ef818454163314613447565b81546001600160a01b031981168355167f8be0079c531659141344cd1fd0a4f28419497f9722a3daafe3b4186f6b6457e08280a380f35b50346101b05760403660031901126101b057611640613091565b604061164a6130bd565b9260018060a01b038093168152600f6020522091166000526020526020604060002054604051908152f35b50346101b057611684366130d3565b919061169394939433866134a6565b6005546040516348c3c7e360e01b81526001600160a01b038a8116600483015287811660248301529499909794909116929091606088604481875afa978815611b20578998611aee575b50604051632438f1d560e21b81526001600160a01b038416600482015233602482015260209890948990869060449082908e905af1948515610fd1578a95611abf575b50611a7c576001600160a01b0387163314611a375760055460405163017f1a1f60e51b81526001600160a01b0385811660048301523360248301529091169a9089816044818f5afa908115611a2c579083918c916119fb575b5011156119c4578a8a9b9a98999a3b156119c0576040518981633932134f60e11b938482528183816117af338d6004840161339c565b03925af1908115610fd1578a916119ac575b50506005546001600160a01b031690813b1561114057898b916117f582966040519889978896879586528c60048701613233565b03925af1908115610701578691611998575b505033808652600f80895260408088206001600160a01b038581166000818152928d52838320548c8316808d52868f52858d208386528f5285852091909155958b52938c52828a208483528c529082902089905560055491516339c3540560e01b815260048101849052602481019490945291999291839183916044918391165afa908115611397576118a19288926103d057505061327d565b6003546001600160a01b0316803b15610b165760405163b7d3824360e01b81526001600160a01b03831660048201523360248201529086908290604490829084905af1908115610701578691611984575b50506003546001600160a01b031690813b15610b165785879161192d82966040519889978896879563075628a760e51b87526004870161331a565b03925af1801561048157611970575b50506001600160a01b031690337fe1eb0bb645fadf6a3ae58b423e1d50ce18b9a83a81928ecb0dd527f1ddeddfd08480a480f35b6119799061311e565b61074c57823861193c565b61198d9061311e565b61047d5784386118f2565b6119a19061311e565b61047d578438611807565b6119b59061311e565b6119c05788386117c1565b8880fd5b60405162461bcd60e51b8152600481018a9052600f60248201526e2b30bab63a103132b637bb9026a1a960891b6044820152606490fd5b8092508b8092503d8311611a25575b611a148183613148565b8101031261045d5782905138611779565b503d611a0a565b6040513d8d823e3d90fd5b60405162461bcd60e51b815260048101899052601f60248201527f43616e74207472616e73666572207661756c7420746f20796f757273656c66006044820152606490fd5b6064886040519062461bcd60e51b825280600483015260248201527f54686973206164647265737320616c7265616479206861732061207661756c746044820152fd5b9094508881813d8311611ae7575b611ad78183613148565b8101031261045d57519338611720565b503d611acd565b611b1091985060603d8111611b19575b611b088183613148565b81019061341d565b505096386116dd565b503d611afe565b6040513d8b823e3d90fd5b50346101b05760e03660031901126101b057611b45613091565b611b4d6130a7565b9060c4356001600160a01b038116900361045d57611b6b33826134a6565b9091611b7881151561334d565b60443581106121de576024351591821592836121d4575b1561219057608435159384159485612186575b156121415760843581106120f0578792846120c5575b8560443561209b575b61205f575b606435611f9a575b6005546001600160a01b031690611c0a90611bf99060443590611bf49060243590613210565b61338f565b92611bf46084359160643590613210565b90803b1561047d5784928389611c3860405197889687958694633932134f60e11b8652339060048701613233565b03925af1801561048157611f86575b5050611f21575b604435611ec3575b611e5f575b606435611dfb575b600554604051632438f1d560e21b81526001600160a01b038381166004830152336024830152602094869390918691849160449183918891165af19182156103fd578392611dc9575b506003546001600160a01b031691823b1561042157611cea92849283604051809681958294633b3e76c560e21b845260c43591338d6004870161331a565b03925af1801561048157611db5575b50506005546040516339c3540560e01b81526001600160a01b0383811660048301523360248301529091849183916044918391165afa801561075057611d46918591611d98575b5061327d565b604051916024358352604435908301526064356040830152608435606083015260018060a01b0316907ffe9df43b874715fa9ed4210e8c6e239b1e63e2ae74be19cdfbe48b4bb3b0e4f260803392a380f35b611daf9150843d86116103f6576103e78183613148565b38611d40565b611dbe9061311e565b61074c578238611cf9565b925090508382813d8111611df4575b611de28183613148565b8101031261045d578491519038611cac565b503d611dd8565b60015483906001600160a01b0316803b15610720576040516340c10f1960e01b815233600482015260643560248201529082908290604490829084905af1801561048157611e4b575b5050611c63565b611e549061311e565b61074c578238611e44565b60015483906001600160a01b0316803b1561072057604051632770a7eb60e21b815233600482015260843560248201529082908290604490829084905af1801561048157611eaf575b5050611c5b565b611eb89061311e565b61074c578238611ea8565b60405163a9059cbb60e01b8152336004820152604480356024830152602090829081886001600160a01b0388165af18015610b0b57611f03575b50611c56565b611f1a9060203d81116103f6576103e78183613148565b5038611efd565b6040516323b872dd60e01b815233600482015230602480830191909152356044820152602081606481886001600160a01b0388165af18015610b0b57611f68575b50611c4e565b611f7f9060203d81116103f6576103e78183613148565b5038611f62565b611f8f9061311e565b61047d578438611c47565b6001600160a01b038716808552600d602052604085208054611fbf9060643590613210565b9055611fcf606435600a54613210565b600a55808552600d6020526040852054602060018060a01b0360055416926024604051809581936391bbfd0d60e01b835260048301525afa918215610701578692612027575b50906120229111156132c2565b611bce565b915094506020813d602011612057575b8161204460209383613148565b8101031261045d57518994612022612015565b3d9150612037565b6001600160a01b0387168452600d602052604084208054612083906084359061338f565b9055612093608435600a5461338f565b600a55611bc6565b5060018060a01b0387168452600e60205285604085206120be604435825461338f565b9055611bc1565b6001600160a01b0387168452600e6020526040842080546120e99060243590613210565b9055611bb8565b60405162461bcd60e51b8152602060048201526024808201527f436f6c6c61746572616c4d616e616765723a20496e73756666696369656e74206044820152631919589d60e21b6064820152608490fd5b60405162461bcd60e51b815260206004820152601860248201527f43616e7420726570617920616e642074616b65206465627400000000000000006044820152606490fd5b5060643515611ba2565b606460405162461bcd60e51b815260206004820152602060248201527f43616e742061646420616e6420776974686472617720636f6c6c61746572616c6044820152fd5b5060443515611b8f565b60405162461bcd60e51b815260206004820152602a60248201527f436f6c6c61746572616c4d616e616765723a20496e73756666696369656e742060448201526918dbdb1b185d195c985b60b21b6064820152608490fd5b50346101b05760403660031901126101b0576060612263612255613091565b61225d6130bd565b906134a6565b9060405192835260208301526040820152f35b50346101b05760203660031901126101b0576020906040906001600160a01b0361229e613091565b168152600d83522054604051908152f35b50346101b057602080600319360112610720576004359167ffffffffffffffff918284116107205736602385011215610720578360040135938385116125e55760405193612302838760051b0186613148565b858552828501906024809760061b84010192368411610b16578701915b83831061258357505083546001600160a01b03939250612343915083163314613447565b601091825484845580612514575b50839484955b81518710156124b5578261236b8884613492565b51511615612471578361237e8884613492565b510151156124235761239e90846123958985613492565b51015190613210565b956123a98183613492565b51855468010000000000000000811015612410576123cd600191828101895561316a565b9290926123fd57805183546001600160a01b0319169087161783558601519101556123f790613438565b95612357565b634e487b7160e01b895260048990528a89fd5b634e487b7160e01b885260416004528988fd5b60405162461bcd60e51b8152600481018590526021818a01527f50657263656e74616765206d7573742062652067726561746572207468616e206044820152600360fc1b6064820152608490fd5b60405162461bcd60e51b8152600481018590526019818a01527f496e76616c696420726563697069656e742061646472657373000000000000006044820152606490fd5b83886127108893116124c5578280f35b9060236084926040519262461bcd60e51b845260048401528201527f546f74616c2070657263656e746167652063616e6e6f7420657863656564203160448201526230302560e81b6064820152fd5b6001600160ff1b03811681036125705783855260017f1b6847dc741a1b0cd08d278845f9d819d87b734759afb55fe2de5cb82a9ae67291811b8201915b82811061255f575050612351565b808760029255878382015501612551565b634e487b7160e01b855260116004528685fd5b604083360312610b16576040519060408201828110848211176125d0576040528335906001600160a01b038216820361045d5782879260409452828601358382015281520192019161231f565b89634e487b7160e01b60005260416004526000fd5b634e487b7160e01b83526041600452602483fd5b50346101b057612608366130d3565b939261261483826134a6565b60055460405163017f1a1f60e51b81526001600160a01b0386811660048301528881166024830152929960209793969287169591949388866044818a5afa8015611a2c578b90612bf8575b60048054604051630d9a6b3560e01b815298508b91899182908d165afa968715612bed578c97612bbe575b508315612b84578c1115612b31578515612aec578495858110612ae4575b506126b486848661379d565b9c909787870361296b5750505050600954996000198b019a8b1161295757899a60099a9798999a55878a168752600f89526040872088841690816000528a52876040600020558860035416803b156119c05760405163b7d3824360e01b81526001600160a01b0386811660048301528d1660248201529089908290604490829084905af1908115611b20578991612943575b5050886005541692833b156119c0578861277981958e604051978880948193633932134f60e11b83528c6004840161339c565b03925af1958615611b2057898c958c98612921575b50839052600d85526127a560408b2091825461338f565b9055818952600e84526127bd60408a2091825461338f565b9055816128bc575b5050505b6127d583600a5461338f565b600a556004805460405163095ea7b360e01b81529088166001600160a01b03169181019190915260248101859052911695908181604481888b5af18015610b0b5761289e575b5050836004541691823b156104215760648492836040519586948593632ce554cb60e11b855260048501528a602485015260448401525af180156104815761288a575b50503392167f0ff40ba5ee9f4b99e3c53710d079022c1f2072f8dad2d242216ee8bd01f4b67b8480a480f35b6128939061311e565b61042157833861285e565b816128b492903d106103f6576103e78183613148565b50388061281b565b60405163a9059cbb60e01b81526001600160a01b038c16600482015260248101929092529093508390604490829089905af1918215610b0b578692612904575b8088916127c5565b61291a90883d8a116103f6576103e78183613148565b50386128fc565b9092975061293091955061311e565b61293f5788948a93893861278e565b8780fd5b61294c9061311e565b61293f578738612746565b634e487b7160e01b8a52601160045260248afd5b9092958c9d92945087612982919d9a9b9c9d61338f565b90803b15611140578992838e6129af60405197889687958694633932134f60e11b86528d60048701613233565b03925af1908115611397578791612ad0575b50600554604051632438f1d560e21b81526001600160a01b0385811660048301528c16602482015292918a9184916044918391908d165af1918215611397578792612a9e575b508760035416803b1561293f578792838c612a3960405198899687958694633b3e76c560e21b86528b6004870161331a565b03925af18015610b0b5786928691612a85575b5050818116808652600d885260408620612a6785825461338f565b90558552600e875260408520612a7e85825461338f565b90556127c9565b612a919192935061311e565b6104215784908438612a4c565b965090508786813d8111612ac9575b612ab78183613148565b8101031261045d578995519038612a07565b503d612aad565b612ad99061311e565b610b165785386129c1565b9550386126a8565b60405162461bcd60e51b8152600481018a9052601760248201527f53746162696c69747920706f6f6c20697320656d7074790000000000000000006044820152606490fd5b60405162461bcd60e51b8152600481018a9052602560248201527f436f6c6c61746572616c697a6174696f6e20726174696f2061626f7665206d696044820152646e696d756d60d81b6064820152608490fd5b60405162461bcd60e51b8152600481018b9052601260248201527115985d5b1d08191bd95cdb9d08195e1a5cdd60721b6044820152606490fd5b9096508981813d8311612be6575b612bd68183613148565b8101031261045d5751953861268a565b503d612bcc565b6040513d8e823e3d90fd5b508886813d8311612c1f575b612c0e8183613148565b8101031261045d576004955161265f565b503d612c04565b50346101b057806003193601126101b0576020600954604051908152f35b50346101b05760403660031901126101b057612c5e613091565b906001600160a01b039060409082612c746130bd565b168152600f6020522091166000526020526020604060002054604051908152f35b50346101b057806003193601126101b0576004546040516001600160a01b039091168152602090f35b50346101b05760c03660031901126101b057612cd8613091565b6024356044356084356001600160a01b038082168203610b1657612cfa6130a7565b612d0433876134a6565b50506130405781861695868852602093600e855260408920612d27888254613210565b9055878952600d855260408920612d3f878254613210565b9055612d4d86600a54613210565b600a556009546001810180911161295757600955836005541689813b156101b05788612d97928983604051809681958294633932134f60e11b845260643591338d60048701613233565b03925af18015610fd157613027575b506005546040516339c3540560e01b81526001600160a01b03841660048201523360248201528a95949392918516908781604481855afa801561139757612df3918891613010575061327d565b898652600d87526040862054604051906391bbfd0d60e01b82528b60048301528882602481865afa918215611357578892612fdc575b5090612e369111156132c2565b604051632438f1d560e21b81526001600160a01b0384166004820152336024820152908790829060449082908a905af1908115610701578691612fab575b50846003541690813b15612fa757868094612ea76040519788968795869463075628a760e51b865233906004870161331a565b03925af19081156103fd578391612f93575b50506040516323b872dd60e01b8152336004820152306024820152604481018690528381606481868b5af180156103fd57612f76575b5060015416803b15610720576040516340c10f1960e01b8152336004820152602481018590529082908290604490829084905af1801561048157612f62575b50506040519283528201527fa28dca8eb29fc00aa90ca34a94ceb2d4eef6c73d46ee64d3b3834ff1fb6d166860403392a380f35b612f6b9061311e565b61047d578438612f2e565b612f8c90843d86116103f6576103e78183613148565b5038612eef565b612f9c9061311e565b610720578138612eb9565b8680fd5b809650878092503d8311612fd5575b612fc48183613148565b8101031261045d5789945138612e74565b503d612fba565b89809299508193503d8311613009575b612ff68183613148565b8101031261045d57518b96612e36612e29565b503d612fec565b611daf9150893d8b116103f6576103e78183613148565b6130369099919493929961311e565b9790919238612da6565b60405162461bcd60e51b815260206004820152602360248201527f5661756c7420616c72656164792065786973747320666f7220746869732061736044820152621cd95d60ea1b6064820152608490fd5b600435906001600160a01b038216820361045d57565b60a435906001600160a01b038216820361045d57565b602435906001600160a01b038216820361045d57565b608090600319011261045d576001600160a01b0390600435828116810361045d5791602435818116810361045d5791604435828116810361045d5791606435908116810361045d5790565b67ffffffffffffffff811161313257604052565b634e487b7160e01b600052604160045260246000fd5b90601f8019910116810190811067ffffffffffffffff82111761313257604052565b6010548110156131a457601060005260011b7f1b6847dc741a1b0cd08d278845f9d819d87b734759afb55fe2de5cb82a9ae6720190600090565b634e487b7160e01b600052603260045260246000fd5b608090600319011261045d576001600160a01b0390600435828116810361045d579160243591604435828116810361045d5791606435908116810361045d5790565b356001600160a01b038116810361045d5790565b9190820180921161321d57565b634e487b7160e01b600052601160045260246000fd5b6001600160a01b0391821681529116602082015260408101919091526060810191909152608081019190915260a00190565b9081602091031261045d5751801515810361045d5790565b1561328457565b60405162461bcd60e51b8152602060048201526016602482015275125b9d985c9a585b9d0818da1958dac819985a5b195960521b6044820152606490fd5b156132c957565b60405162461bcd60e51b8152602060048201526024808201527f4d6178696d756d206465627420666f72207468697320617373657420657863656044820152631959195960e21b6064820152608490fd5b6001600160a01b039182168152918116602083015260408201929092529181166060830152909116608082015260a00190565b1561335457565b60405162461bcd60e51b81526020600482015260136024820152725661756c7420646f65736e742065786973747360681b6044820152606490fd5b9190820391821161321d57565b6001600160a01b0391821681529116602082015260006040820181905260608201819052608082015260a00190565b9081602091031261045d57516001600160a01b038116810361045d5790565b8181029291811591840414171561321d57565b8115613407570490565b634e487b7160e01b600052601260045260246000fd5b9081606091031261045d578051916040602083015192015190565b600019811461321d5760010190565b1561344e57565b606460405162461bcd60e51b815260206004820152602060248201527f4f776e61626c653a2063616c6c6572206973206e6f7420746865206f776e65726044820152fd5b80518210156131a45760209160051b010190565b600554604080516348c3c7e360e01b81526001600160a01b038481166004830152858116602483015293959390928116906000606085604481865afa9687156136aa57819582908399613683575b50809984831692838552602095600f87528886209781841698898852885261351f8a8820544261338f565b9081613546575b5050505050509084918152600f8352209160005252429060002055929190565b8a51631839ba9f60e11b81526001600160a01b03868116600483015285166024820152959e5095969593949293919290918890829060449082905afa908115613679578e908792613647575b506135da926135ab926135a4926136b6565b809e613210565b9c6135b881600b54613210565b600b55888652600d88528986206135d0828254613210565b9055600a54613210565b600a556005541691823b15610421578b928492838b936136108f8d5198899788968795633932134f60e11b875260048701613233565b03925af1801561363d57908693929161362e575b8193818080613526565b6136379061311e565b38613624565b86513d84823e3d90fd5b809250898092503d8311613672575b6136608183613148565b81010312610b1657518d6135da613592565b503d613656565b8a513d88823e3d90fd5b919650506136a091975060603d8111611b1957611b088183613148565b97919590386134f4565b508351903d90823e3d90fd5b9092919281158015613795575b801561378d575b613785576301e13380670de0b6b3a7640000910481019384821161321d5760405194631bea64b560e21b86526004860152602485015260208460448173__$c8869418d2acef885eac47ad962ec789ad$__5af493841561377957600094613744575b5061373b6137419394836133ea565b0461338f565b90565b936020853d8211613771575b8161375d60209383613148565b810103126101b0575092519261373b61372c565b3d9150613750565b6040513d6000823e3d90fd5b506000925050565b5083156136ca565b5080156136c3565b600254604051635670bcc760e11b81526001600160a01b03928316600482018190529395949093909260209283908690602490829085165afa948515613779576000956138a8575b5082906005541691602460405180948193635613548960e11b835260048301525afa91821561377957600092613877575b50506138329161383991670de0b6b3a7640000938491836133ea565b0490613210565b8161384484876133ea565b04811161386f5781810291818304149015171561321d5761374191613868916133fd565b809361338f565b505050600090565b81819392933d83116138a1575b61388e8183613148565b810103126101b057505181613839613816565b503d613884565b90948382813d83116138d0575b6138bf8183613148565b810103126101b057505193826137e5565b503d6138b556","linkReferences":{"src/dependencies/VaultMath.sol":{"VaultMath":[{"start":14185,"length":20}]}}},"methodIdentifiers":{"activeVaults()":"186ee8a4","adjustVault(address,uint256,uint256,uint256,uint256,address,address)":"4b8fed1b","adjustVaultMCR(address,uint256,address,address)":"ed961cc9","closeVault(address)":"c99cb2b7","createVault(address,uint256,uint256,uint256,address,address)":"03cdb30c","debtToken()":"f8d89898","defaultInterestRecipient()":"9a3236ce","getLastUpdatedDebtTime(address,address)":"17a08149","isAddressSetupInitialized()":"c8564c62","keikoDeployer()":"ea8db462","lastDebtUpdateTime(address,address)":"7110ccd5","liquidateVault(address,address,address,address)":"1b393eda","mintRecipients(uint256)":"73147f46","mintVaultsInterest()":"b05b99d4","owner()":"8da5cb5b","priceFeed()":"741bef1a","redeemVault(address,uint256,address,address)":"9797a53e","renounceOwnership()":"715018a6","setAddresses(address[])":"b9571721","setDefaultInterestRecipient(address)":"c616bcb6","setMintRecipients((address,uint256)[])":"1d1a012c","stabilityPool()":"048c661d","totalAccruedDebt()":"87543b19","totalCollateral(address)":"7e059b22","totalDebt(address)":"1ff517ff","totalProtocolDebt()":"bd8bcd89","transferOwnership(address)":"f2fde38b","transferVaultOwnership(address,address,address,address)":"53c0870a","treasuryAddress()":"c5f956af","updateVaultInterest(address,address)":"3fa6b819","vaultManager()":"8a4adf24","vaultOperations()":"9718cf59","vaultSorter()":"841f0ebb"},"id":20}