{"abi":[{"type":"function","name":"PERP_CONVERSION_BASE","inputs":[],"outputs":[{"name":"","type":"uint256","internalType":"uint256"}],"stateMutability":"view"},{"type":"function","name":"SPOT_CONVERSION_BASE","inputs":[],"outputs":[{"name":"","type":"uint256","internalType":"uint256"}],"stateMutability":"view"},{"type":"function","name":"SYSTEM_TO_WAD","inputs":[],"outputs":[{"name":"","type":"uint256","internalType":"uint256"}],"stateMutability":"view"},{"type":"function","name":"TARGET_DIGITS","inputs":[],"outputs":[{"name":"","type":"uint256","internalType":"uint256"}],"stateMutability":"view"},{"type":"function","name":"fetchPrice","inputs":[{"name":"_token","type":"address","internalType":"address"}],"outputs":[{"name":"","type":"uint256","internalType":"uint256"}],"stateMutability":"view"},{"type":"function","name":"lastCorrectPrice","inputs":[{"name":"","type":"address","internalType":"address"}],"outputs":[{"name":"","type":"uint256","internalType":"uint256"}],"stateMutability":"view"},{"type":"function","name":"oracles","inputs":[{"name":"","type":"address","internalType":"address"}],"outputs":[{"name":"oracleAddress","type":"address","internalType":"address"},{"name":"timeoutSeconds","type":"uint256","internalType":"uint256"},{"name":"decimals","type":"uint8","internalType":"uint8"},{"name":"isEthIndexed","type":"bool","internalType":"bool"},{"name":"oracleType","type":"uint8","internalType":"enum IPriceFeed.OracleType"},{"name":"szDecimals","type":"uint8","internalType":"uint8"},{"name":"priceIndex","type":"uint256","internalType":"uint256"}],"stateMutability":"view"},{"type":"function","name":"setChainlinkOracle","inputs":[{"name":"_token","type":"address","internalType":"address"},{"name":"_chainlinkOracle","type":"address","internalType":"address"},{"name":"_timeoutSeconds","type":"uint256","internalType":"uint256"},{"name":"_isEthIndexed","type":"bool","internalType":"bool"}],"outputs":[],"stateMutability":"nonpayable"},{"type":"function","name":"setSystemOracle","inputs":[{"name":"_token","type":"address","internalType":"address"},{"name":"_systemOracle","type":"address","internalType":"address"},{"name":"_priceIndex","type":"uint256","internalType":"uint256"},{"name":"_szDecimals","type":"uint8","internalType":"uint8"}],"outputs":[],"stateMutability":"nonpayable"},{"type":"event","name":"ChainlinkOracleSet","inputs":[{"name":"token","type":"address","indexed":true,"internalType":"address"},{"name":"oracle","type":"address","indexed":true,"internalType":"address"},{"name":"timeout","type":"uint256","indexed":false,"internalType":"uint256"},{"name":"isEthIndexed","type":"bool","indexed":false,"internalType":"bool"}],"anonymous":false},{"type":"event","name":"SystemOracleSet","inputs":[{"name":"token","type":"address","indexed":true,"internalType":"address"},{"name":"oracle","type":"address","indexed":true,"internalType":"address"},{"name":"priceIndex","type":"uint256","indexed":false,"internalType":"uint256"},{"name":"szDecimals","type":"uint8","indexed":false,"internalType":"uint8"}],"anonymous":false},{"type":"error","name":"PriceFeed__ExistingOracleRequired","inputs":[]},{"type":"error","name":"PriceFeed__InvalidDecimalsError","inputs":[]},{"type":"error","name":"PriceFeed__InvalidOracleResponseError","inputs":[{"name":"token","type":"address","internalType":"address"}]},{"type":"error","name":"PriceFeed__TimelockOnlyError","inputs":[]},{"type":"error","name":"PriceFeed__UnknownAssetError","inputs":[]}],"bytecode":{"object":"0x6080806040523461001657610a40908161001c8239f35b600080fdfe608060408181526004918236101561001657600080fd5b600092833560e01c9182631bb86ef914610346575081631be5c92f1461032a5781633e4190d21461030e578163538686ca146101d7578163551f0543146101b4578163ac1a28601461017c578163ace1798e1461014f578163addd5099146100a6575063d6512e701461008857600080fd5b346100a257816003193601126100a2576020905160068152f35b5080fd5b82843461014c57602036600319011261014c576001600160a01b0391826100cb6104ef565b168252816020528082209283541692600181015492600282015492600360ff8560101c16930154948151968752602087015260ff84169086015260ff8360081c161515606086015260028210156101395760e0858560ff8686608085015260181c1660a083015260c0820152f35b634e487b7160e01b815260218652602490fd5b80fd5b5050346100a25760203660031901126100a2576020906101756101706104ef565b6108a6565b9051908152f35b5050346100a25760203660031901126100a25760209181906001600160a01b036101a46104ef565b1681526001845220549051908152f35b5050346100a257816003193601126100a25760209051670de0b6b3a76400008152f35b8383346100a25760803660031901126100a2576101f26104ef565b6101fa61050a565b916064359260ff841680940361030a5781519361021685610520565b60018060a01b0380921685526020850192610e10845280860193878552606087019388855260808801926001845260a0890194855260c0890197604435895261025e8a610596565b156102f25782168a528960205289209751166bffffffffffffffffffffffff60a01b88541617875551600187015560ff6002870194511661ff0085549451151560081b1691519260028410156102df576003979899509063ff00000062ff000093925160181b169463ffffffff191617179160101b16171790555191015580f35b634e487b7160e01b895260218a52602489fd5b905163283f5cb560e01b8152908216818c0152602490fd5b8480fd5b5050346100a257816003193601126100a2576020905160088152f35b5050346100a257816003193601126100a2576020905160128152f35b838591346104eb5760803660031901126104eb576103626104ef565b9061036b61050a565b90606435908115158092036104e75763313ce56760e01b81526001600160a01b039283169460209182818a818a5afa80156104dd5788906104a1575b60ff915016938415610491578151966103bf88610520565b875282870190604435825282880195865260608801948552608088019289845260a08901948a865260c08a01988b8a526103f88b610596565b156104795790838c921682525289209751166bffffffffffffffffffffffff60a01b88541617875551600187015560ff6002870194511661ff0085549451151560081b1691519260028410156102df576003979899509063ff00000062ff000093925160181b169463ffffffff191617179160101b16171790555191015580f35b825163283f5cb560e01b8152908416818e0152602490fd5b815163ee65a7e560e01b81528990fd5b508281813d83116104d6575b6104b78183610552565b810103126104d2575160ff811681036104d25760ff906103a7565b8780fd5b503d6104ad565b82513d8a823e3d90fd5b8580fd5b8280fd5b600435906001600160a01b038216820361050557565b600080fd5b602435906001600160a01b038216820361050557565b60e0810190811067ffffffffffffffff82111761053c57604052565b634e487b7160e01b600052604160045260246000fd5b90601f8019910116810190811067ffffffffffffffff82111761053c57604052565b60028210156105805752565b634e487b7160e01b600052602160045260246000fd5b80516001600160a01b03908116156108945760808201516002811015610580576106cb57815116600090600460a060009260405192838092633fabe5a360e21b82525afa90828284928594610674575b50610632575b5050508115159081610619575b50610605575050600090565b60ff60406106169301511690610a0e565b90565b905061062a602084015191426109a1565b1115386105f9565b69ffffffffffffffffffff1615158061066b575b80610662575b610657575b806105ec565b925090503880610651565b5080151561064c565b50811515610646565b925092505060a0813d82116106c3575b8161069160a09383610552565b810103126104eb576106a2816109f7565b6020820151906106b96080606085015194016109f7565b50909192386105e6565b3d9150610684565b8151169060c081015191600460ff60a08401511693600094600080946040519485809263077cb06160e31b82525afa9283156108895784936107de575b5082518210806107cb575b61074a575b5050508215159182610731575b50506106165750600090565b60200151915061074190426109a1565b11153880610725565b90919293945060080391600883116107b757604d83116107b7579061076e91610977565b5191670de0b6b3a7640000928381029381850414901517156107a357509061079991600a0a906109d7565b9042388080610718565b634e487b7160e01b81526011600452602490fd5b634e487b7160e01b84526011600452602484fd5b506107d68284610977565b511515610713565b9092503d8085833e6107f08183610552565b810160209081838203126104e757825167ffffffffffffffff938482116104d2570181601f82011215610885578051938411610871578360051b906040519461083b85840187610552565b855283808601928201019283116104d2578301905b82821061086257505050509138610708565b81518152908301908301610850565b634e487b7160e01b87526041600452602487fd5b8680fd5b6040513d86823e3d90fd5b604051632e054cdf60e21b8152600490fd5b60018060a01b038082166000526000602052610926604060002091604051906108ce82610520565b835416815260018301546020820152600360028401549360ff8516604084015260ff6060840195818160081c1615158752610911828260101c1660808701610574565b60181c1660a0840152015460c0820152610596565b908161094d5760405163283f5cb560e01b81526001600160a01b0384166004820152602490fd5b51909150156106165761096060006108a6565b670de0b6b3a764000091610973916109c4565b0490565b805182101561098b5760209160051b010190565b634e487b7160e01b600052603260045260246000fd5b919082039182116109ae57565b634e487b7160e01b600052601160045260246000fd5b818102929181159184041417156109ae57565b81156109e1570490565b634e487b7160e01b600052601260045260246000fd5b519069ffffffffffffffffffff8216820361050557565b906012811115610a2a57906106169160111901600a0a906109d7565b60128110610a36575090565b601203600a0a029056","linkReferences":{}},"methodIdentifiers":{"PERP_CONVERSION_BASE()":"d6512e70","SPOT_CONVERSION_BASE()":"3e4190d2","SYSTEM_TO_WAD()":"551f0543","TARGET_DIGITS()":"1be5c92f","fetchPrice(address)":"ace1798e","lastCorrectPrice(address)":"ac1a2860","oracles(address)":"addd5099","setChainlinkOracle(address,address,uint256,bool)":"1bb86ef9","setSystemOracle(address,address,uint256,uint8)":"538686ca"},"id":18}