{"abi":[{"type":"function","name":"PERP_CONVERSION_BASE","inputs":[],"outputs":[{"name":"","type":"uint256","internalType":"uint256"}],"stateMutability":"view"},{"type":"function","name":"SPOT_CONVERSION_BASE","inputs":[],"outputs":[{"name":"","type":"uint256","internalType":"uint256"}],"stateMutability":"view"},{"type":"function","name":"SYSTEM_TO_WAD","inputs":[],"outputs":[{"name":"","type":"uint256","internalType":"uint256"}],"stateMutability":"view"},{"type":"function","name":"TARGET_DIGITS","inputs":[],"outputs":[{"name":"","type":"uint256","internalType":"uint256"}],"stateMutability":"view"},{"type":"function","name":"fetchPrice","inputs":[{"name":"_token","type":"address","internalType":"address"}],"outputs":[{"name":"","type":"uint256","internalType":"uint256"}],"stateMutability":"view"},{"type":"function","name":"lastCorrectPrice","inputs":[{"name":"","type":"address","internalType":"address"}],"outputs":[{"name":"","type":"uint256","internalType":"uint256"}],"stateMutability":"view"},{"type":"function","name":"oracles","inputs":[{"name":"","type":"address","internalType":"address"}],"outputs":[{"name":"oracleAddress","type":"address","internalType":"address"},{"name":"timeoutSeconds","type":"uint256","internalType":"uint256"},{"name":"decimals","type":"uint8","internalType":"uint8"},{"name":"isEthIndexed","type":"bool","internalType":"bool"},{"name":"oracleType","type":"uint8","internalType":"enum IPriceFeed.OracleType"},{"name":"szDecimals","type":"uint8","internalType":"uint8"},{"name":"priceIndex","type":"uint256","internalType":"uint256"},{"name":"pythPriceId","type":"bytes32","internalType":"bytes32"}],"stateMutability":"view"},{"type":"function","name":"owner","inputs":[],"outputs":[{"name":"","type":"address","internalType":"address"}],"stateMutability":"view"},{"type":"function","name":"renounceOwnership","inputs":[],"outputs":[],"stateMutability":"nonpayable"},{"type":"function","name":"setChainlinkOracle","inputs":[{"name":"_token","type":"address","internalType":"address"},{"name":"_chainlinkOracle","type":"address","internalType":"address"},{"name":"_timeoutSeconds","type":"uint256","internalType":"uint256"},{"name":"_isEthIndexed","type":"bool","internalType":"bool"}],"outputs":[],"stateMutability":"nonpayable"},{"type":"function","name":"setPythOracle","inputs":[{"name":"_token","type":"address","internalType":"address"},{"name":"_pythOracle","type":"address","internalType":"address"},{"name":"_priceId","type":"bytes32","internalType":"bytes32"},{"name":"_timeoutSeconds","type":"uint256","internalType":"uint256"},{"name":"_isEthIndexed","type":"bool","internalType":"bool"}],"outputs":[],"stateMutability":"nonpayable"},{"type":"function","name":"setSystemOracle","inputs":[{"name":"_token","type":"address","internalType":"address"},{"name":"_systemOracle","type":"address","internalType":"address"},{"name":"_priceIndex","type":"uint256","internalType":"uint256"},{"name":"_szDecimals","type":"uint8","internalType":"uint8"}],"outputs":[],"stateMutability":"nonpayable"},{"type":"function","name":"transferOwnership","inputs":[{"name":"newOwner","type":"address","internalType":"address"}],"outputs":[],"stateMutability":"nonpayable"},{"type":"event","name":"ChainlinkOracleSet","inputs":[{"name":"token","type":"address","indexed":true,"internalType":"address"},{"name":"oracle","type":"address","indexed":true,"internalType":"address"},{"name":"timeout","type":"uint256","indexed":false,"internalType":"uint256"},{"name":"isEthIndexed","type":"bool","indexed":false,"internalType":"bool"}],"anonymous":false},{"type":"event","name":"OwnershipTransferred","inputs":[{"name":"previousOwner","type":"address","indexed":true,"internalType":"address"},{"name":"newOwner","type":"address","indexed":true,"internalType":"address"}],"anonymous":false},{"type":"event","name":"PythOracleSet","inputs":[{"name":"token","type":"address","indexed":true,"internalType":"address"},{"name":"oracle","type":"address","indexed":true,"internalType":"address"},{"name":"priceId","type":"bytes32","indexed":true,"internalType":"bytes32"},{"name":"timeout","type":"uint256","indexed":false,"internalType":"uint256"},{"name":"isEthIndexed","type":"bool","indexed":false,"internalType":"bool"}],"anonymous":false},{"type":"event","name":"SystemOracleSet","inputs":[{"name":"token","type":"address","indexed":true,"internalType":"address"},{"name":"oracle","type":"address","indexed":true,"internalType":"address"},{"name":"priceIndex","type":"uint256","indexed":false,"internalType":"uint256"},{"name":"szDecimals","type":"uint8","indexed":false,"internalType":"uint8"}],"anonymous":false},{"type":"error","name":"PriceFeed__ExistingOracleRequired","inputs":[]},{"type":"error","name":"PriceFeed__InvalidDecimalsError","inputs":[]},{"type":"error","name":"PriceFeed__InvalidExponent","inputs":[]},{"type":"error","name":"PriceFeed__InvalidOracleResponseError","inputs":[{"name":"token","type":"address","internalType":"address"}]},{"type":"error","name":"PriceFeed__InvalidPythPrice","inputs":[]},{"type":"error","name":"PriceFeed__PythPriceStale","inputs":[]},{"type":"error","name":"PriceFeed__TimelockOnlyError","inputs":[]},{"type":"error","name":"PriceFeed__UnknownAssetError","inputs":[]}],"bytecode":{"object":"0x6080806040523461005b5760008054336001600160a01b0319821681178355916001600160a01b03909116907f8be0079c531659141344cd1fd0a4f28419497f9722a3daafe3b4186f6b6457e09080a36111ab90816100618239f35b600080fdfe6080604052600436101561001257600080fd5b60003560e01c80631bb86ef9146107845780631be5c92f146107685780633e4190d21461074c5780633f9ed14c146104c9578063538686ca14610354578063551f054314610331578063715018a6146102d45780638da5cb5b146102ab578063ac1a286014610271578063ace1798e14610246578063addd509914610193578063d6512e70146101775763f2fde38b146100ab57600080fd5b34610172576020366003190112610172576100c461098e565b600054906001600160a01b03808316916100df338414610af9565b1691821561011e576001600160a01b031916821760009081557f8be0079c531659141344cd1fd0a4f28419497f9722a3daafe3b4186f6b6457e09080a3005b60405162461bcd60e51b815260206004820152602660248201527f4f776e61626c653a206e6577206f776e657220697320746865207a65726f206160448201526564647265737360d01b6064820152608490fd5b600080fd5b3461017257600036600319011261017257602060405160068152f35b34610172576020366003190112610172576001600160a01b03806101b561098e565b166000526001602052604060002090815416600182015460028301549260ff8460101c166004600383015492015492604051948552602085015260ff8516604085015260ff8560081c16151560608501526003811015610230576101009460ff91608086015260181c1660a084015260c083015260e0820152f35b634e487b7160e01b600052602160045260246000fd5b3461017257602036600319011261017257602061026961026461098e565b610a1b565b604051908152f35b34610172576020366003190112610172576001600160a01b0361029261098e565b1660005260026020526020604060002054604051908152f35b34610172576000366003190112610172576000546040516001600160a01b039091168152602090f35b3461017257600036600319011261017257600080546001600160a01b038116906102ff338314610af9565b6001600160a01b03191682557f8be0079c531659141344cd1fd0a4f28419497f9722a3daafe3b4186f6b6457e08280a3005b34610172576000366003190112610172576020604051670de0b6b3a76400008152f35b346101725760803660031901126101725761036d61098e565b6103756109a4565b90604435906064359260ff8416809403610172576000546001600160a01b0393906103a39085163314610af9565b83604051926103b1846109c6565b16948583526020830192610e10845260408101946000865260608201906000825260808301956001875260a084019785895260c085019187835260e0860193600085526103fd87610b44565b156104af578b169a8b600052600160205260406000209651166001600160601b0360a01b87541617865551600186015560ff600286019151169361ff0082549151151560081b16985160038110156102305762ff000060409a60049763ff0000007fce35da0f9895e2ddaa81a17d9a084e9f2d984153276ed335ccb85fe2f2c3feae9e5160181b169463ffffffff191617179160101b16171790555160038401555191015582519182526020820152a3005b60405163283f5cb560e01b8152908c166004820152602490fd5b346101725760a0366003190112610172576104e261098e565b6104ea6109a4565b9060843515159081608435036101725761050f60018060a01b03600054163314610af9565b6001600160a01b0383161561070757604435156106cf5760643515610698576040519061053b826109c6565b60018060a01b0384168252602082019160643583526040810190600082526060810194855260808101926002845260a08201926000845260c08301916000835260443560e085015261058c84610b44565b156106765760018060a01b03169687600052600160205260406000209660018060a01b038551166001600160601b0360a01b89541617885551600188015560ff600288019251169461ff0083549251151560081b1696519060038210156102305760049760e09763ff00000062ff0000935160181b169463ffffffff191617179160101b16171790555160038501550151910155604051907f3ff2afe32d0a54614957391cf4a52f868c3c7d4ba98d4bd2d48e114e66bf87de6044359360018060a01b0316928061067160843560643583909291602090604083019483521515910152565b0390a4005b60405163283f5cb560e01b81526001600160a01b039091166004820152602490fd5b60405162461bcd60e51b815260206004820152600f60248201526e125b9d985b1a59081d1a5b595bdd5d608a1b6044820152606490fd5b60405162461bcd60e51b815260206004820152601060248201526f125b9d985b1a59081c1c9a58d948125160821b6044820152606490fd5b60405162461bcd60e51b815260206004820152601b60248201527f496e76616c69642050797468206f7261636c65206164647265737300000000006044820152606490fd5b3461017257600036600319011261017257602060405160088152f35b3461017257600036600319011261017257602060405160128152f35b346101725760803660031901126101725761079d61098e565b6107a56109a4565b9060443560643580151591828203610172576000546001600160a01b039586916107d29083163314610af9565b16946040519463313ce56760e01b865260209586816004818b5afa80156109825760009061094a575b60ff9150169081156109385760405192610814846109c6565b88845287840192858452604085019081526060850197885260808501976000895260a08601946000865260c08701936000855260e08801956000875261085989610b44565b1561091f5781600191169c8d6000525260406000209751166001600160601b0360a01b88541617875551600187015560ff600287019251169461ff0083549251151560081b169951906003821015610230577f41adae14f21a2babb6bfb8541d1fa747ab330364f0634e3a83b6a964bc2ae2e89a60049763ff00000062ff0000935160181b169463ffffffff191617179160101b16171790555160038401555191015561091a60405192839283909291602090604083019483521515910152565b0390a3005b60405163283f5cb560e01b815291166004820152602490fd5b60405163ee65a7e560e01b8152600490fd5b508681813d831161097b575b61096081836109f9565b81010312610172575160ff811681036101725760ff906107fb565b503d610956565b6040513d6000823e3d90fd5b600435906001600160a01b038216820361017257565b602435906001600160a01b038216820361017257565b60038210156102305752565b610100810190811067ffffffffffffffff8211176109e357604052565b634e487b7160e01b600052604160045260246000fd5b90601f8019910116810190811067ffffffffffffffff8211176109e357604052565b60018060a01b038082166000526001602052610aa560406000209160405190610a43826109c6565b835416815260018301546020820152600460028401549360ff8516604084015260ff6060840195818160081c1615158752610a86828260101c16608087016109ba565b60181c1660a0840152600381015460c0840152015460e0820152610b44565b9081610acc5760405163283f5cb560e01b81526001600160a01b0384166004820152602490fd5b5190915015610af657610adf6000610a1b565b670de0b6b3a764000091610af291611125565b0490565b90565b15610b0057565b606460405162461bcd60e51b815260206004820152602060248201527f4f776e61626c653a2063616c6c6572206973206e6f7420746865206f776e65726044820152fd5b80516001600160a01b03908116156110c2576080908183018051600381101561023057610c805750825116600460009260a060009360405193848092633fabe5a360e21b82525afa9182849185938695610c25575b5050610be3575b5050508115159081610bca575b50610bb9575050600090565b60ff6040610af69301511690611179565b9050610bdb60208401519142611118565b111538610bad565b69ffffffffffffffffffff16151580610c1c575b80610c13575b610c08575b80610ba0565b925090503880610c02565b50828113610bfd565b50811515610bf7565b92509250925060a0823d8211610c78575b81610c4360a093836109f9565b81010312610c7457610c5482611138565b610c6960208401519260608501519401611138565b509091923880610b99565b8380fd5b3d9150610c36565b8051600381101561023057600103610e61575090508151169060c081015191600460ff60a08401511693600094600080946040519485809263077cb06160e31b82525afa928315610e56578493610da3575b508251821080610d90575b610d14575b5050508215159182610cfb575b5050610af65750600090565b602001519150610d0b9042611118565b11153880610cef565b909193945060080360088111610d7c5790610d31610d37926110d4565b9361114f565b5190670de0b6b3a764000091828102928184041490151715610d68575090610d5e916110f8565b9042388080610ce2565b634e487b7160e01b81526011600452602490fd5b634e487b7160e01b83526011600452602483fd5b50610d9b828461114f565b511515610cdd565b9092503d8085833e610db581836109f9565b81016020908183820312610e5257825167ffffffffffffffff93848211610e36570181601f82011215610e4e578051938411610e3a578360051b9060405194610e00858401876109f9565b85528380860192820101928311610e36578301905b828210610e2757505050509138610cd2565b81518152908301908301610e15565b8780fd5b634e487b7160e01b87526041600452602487fd5b8680fd5b8580fd5b6040513d86823e3d90fd5b51600381101561023057600214610e7b575b505050600090565b82939192511691602060e08501519401519260009082604095604487518094819363052571af60e51b835260049b8c84015260248301525afa928391839461101d575b5050610ed45750505051638f55b46360e01b8152fd5b6060829492959395015115801561100f575b61100157835160070b93818512610ff2578201518060030b91808312600014610f8f575050637fffffff198114610f7a5760000363ffffffff169060128211610f6b57506012039060128211610f56575090610f44610f4a926110d4565b90611125565b80610af6578080610e73565b601190634e487b7160e01b6000525260246000fd5b51633c3d310560e01b81529050fd5b601183634e487b7160e01b6000525260246000fd5b91509163ffffffff959493958093169060128211610fe3575060120190828211610fd05750610fcb93945090610fc591166110d4565b906110f8565b610f4a565b634e487b7160e01b815260118652602490fd5b51633c3d310560e01b81528690fd5b505051638f55b46360e01b8152fd5b5051638f55b46360e01b8152fd5b5080845160070b1315610ee6565b908092945081813d83116110bb575b61103681836109f9565b810103126110b757855191820167ffffffffffffffff90838110828211176110a457875281518060070b81036110a057835260208201519081168103610c74576020830152858101518060030b8103610c7457906060918784015201516060820152913880610ebe565b8480fd5b634e487b7160e01b855260418952602485fd5b8280fd5b503d61102c565b604051632e054cdf60e21b8152600490fd5b604d81116110e257600a0a90565b634e487b7160e01b600052601160045260246000fd5b8115611102570490565b634e487b7160e01b600052601260045260246000fd5b919082039182116110e257565b818102929181159184041417156110e257565b519069ffffffffffffffffffff8216820361017257565b80518210156111635760209160051b010190565b634e487b7160e01b600052603260045260246000fd5b9060128111156111955790610af69160111901600a0a906110f8565b601281106111a1575090565b601203600a0a029056","linkReferences":{}},"methodIdentifiers":{"PERP_CONVERSION_BASE()":"d6512e70","SPOT_CONVERSION_BASE()":"3e4190d2","SYSTEM_TO_WAD()":"551f0543","TARGET_DIGITS()":"1be5c92f","fetchPrice(address)":"ace1798e","lastCorrectPrice(address)":"ac1a2860","oracles(address)":"addd5099","owner()":"8da5cb5b","renounceOwnership()":"715018a6","setChainlinkOracle(address,address,uint256,bool)":"1bb86ef9","setPythOracle(address,address,bytes32,uint256,bool)":"3f9ed14c","setSystemOracle(address,address,uint256,uint8)":"538686ca","transferOwnership(address)":"f2fde38b"},"id":18}