{"abi":[{"type":"constructor","inputs":[],"stateMutability":"nonpayable"},{"type":"function","name":"DOMAIN_SEPARATOR","inputs":[],"outputs":[{"name":"","type":"bytes32","internalType":"bytes32"}],"stateMutability":"view"},{"type":"function","name":"addWhitelist","inputs":[{"name":"_address","type":"address","internalType":"address"}],"outputs":[],"stateMutability":"nonpayable"},{"type":"function","name":"allowance","inputs":[{"name":"","type":"address","internalType":"address"},{"name":"","type":"address","internalType":"address"}],"outputs":[{"name":"","type":"uint256","internalType":"uint256"}],"stateMutability":"view"},{"type":"function","name":"allowanceWhitelist","inputs":[{"name":"","type":"address","internalType":"address"}],"outputs":[{"name":"","type":"bool","internalType":"bool"}],"stateMutability":"view"},{"type":"function","name":"approve","inputs":[{"name":"spender","type":"address","internalType":"address"},{"name":"amount","type":"uint256","internalType":"uint256"}],"outputs":[{"name":"","type":"bool","internalType":"bool"}],"stateMutability":"nonpayable"},{"type":"function","name":"balanceOf","inputs":[{"name":"","type":"address","internalType":"address"}],"outputs":[{"name":"","type":"uint256","internalType":"uint256"}],"stateMutability":"view"},{"type":"function","name":"burn","inputs":[{"name":"from","type":"address","internalType":"address"},{"name":"amount","type":"uint256","internalType":"uint256"}],"outputs":[],"stateMutability":"nonpayable"},{"type":"function","name":"debtToken","inputs":[],"outputs":[{"name":"","type":"address","internalType":"address"}],"stateMutability":"view"},{"type":"function","name":"decimals","inputs":[],"outputs":[{"name":"","type":"uint8","internalType":"uint8"}],"stateMutability":"view"},{"type":"function","name":"emergencyStopBurn","inputs":[],"outputs":[{"name":"","type":"bool","internalType":"bool"}],"stateMutability":"view"},{"type":"function","name":"emergencyStopMinting","inputs":[],"outputs":[{"name":"","type":"bool","internalType":"bool"}],"stateMutability":"view"},{"type":"function","name":"isAddressSetupInitialized","inputs":[],"outputs":[{"name":"","type":"bool","internalType":"bool"}],"stateMutability":"view"},{"type":"function","name":"isWhitelisted","inputs":[{"name":"addy","type":"address","internalType":"address"}],"outputs":[{"name":"","type":"bool","internalType":"bool"}],"stateMutability":"view"},{"type":"function","name":"keikoDeployer","inputs":[],"outputs":[{"name":"","type":"address","internalType":"address"}],"stateMutability":"view"},{"type":"function","name":"mint","inputs":[{"name":"recipient","type":"address","internalType":"address"},{"name":"amount","type":"uint256","internalType":"uint256"}],"outputs":[],"stateMutability":"nonpayable"},{"type":"function","name":"mintWhitelist","inputs":[{"name":"","type":"address","internalType":"address"}],"outputs":[{"name":"","type":"bool","internalType":"bool"}],"stateMutability":"view"},{"type":"function","name":"name","inputs":[],"outputs":[{"name":"","type":"string","internalType":"string"}],"stateMutability":"view"},{"type":"function","name":"nonces","inputs":[{"name":"","type":"address","internalType":"address"}],"outputs":[{"name":"","type":"uint256","internalType":"uint256"}],"stateMutability":"view"},{"type":"function","name":"owner","inputs":[],"outputs":[{"name":"","type":"address","internalType":"address"}],"stateMutability":"view"},{"type":"function","name":"permit","inputs":[{"name":"owner","type":"address","internalType":"address"},{"name":"spender","type":"address","internalType":"address"},{"name":"value","type":"uint256","internalType":"uint256"},{"name":"deadline","type":"uint256","internalType":"uint256"},{"name":"v","type":"uint8","internalType":"uint8"},{"name":"r","type":"bytes32","internalType":"bytes32"},{"name":"s","type":"bytes32","internalType":"bytes32"}],"outputs":[],"stateMutability":"nonpayable"},{"type":"function","name":"priceFeed","inputs":[],"outputs":[{"name":"","type":"address","internalType":"address"}],"stateMutability":"view"},{"type":"function","name":"removeWhitelist","inputs":[{"name":"_address","type":"address","internalType":"address"}],"outputs":[],"stateMutability":"nonpayable"},{"type":"function","name":"renounceOwnership","inputs":[],"outputs":[],"stateMutability":"nonpayable"},{"type":"function","name":"setAddresses","inputs":[{"name":"_addresses","type":"address[]","internalType":"address[]"}],"outputs":[],"stateMutability":"nonpayable"},{"type":"function","name":"stabilityPool","inputs":[],"outputs":[{"name":"","type":"address","internalType":"address"}],"stateMutability":"view"},{"type":"function","name":"symbol","inputs":[],"outputs":[{"name":"","type":"string","internalType":"string"}],"stateMutability":"view"},{"type":"function","name":"timelock","inputs":[{"name":"","type":"address","internalType":"address"}],"outputs":[{"name":"","type":"uint256","internalType":"uint256"}],"stateMutability":"view"},{"type":"function","name":"totalSupply","inputs":[],"outputs":[{"name":"","type":"uint256","internalType":"uint256"}],"stateMutability":"view"},{"type":"function","name":"transfer","inputs":[{"name":"to","type":"address","internalType":"address"},{"name":"amount","type":"uint256","internalType":"uint256"}],"outputs":[{"name":"","type":"bool","internalType":"bool"}],"stateMutability":"nonpayable"},{"type":"function","name":"transferFrom","inputs":[{"name":"from","type":"address","internalType":"address"},{"name":"to","type":"address","internalType":"address"},{"name":"amount","type":"uint256","internalType":"uint256"}],"outputs":[{"name":"","type":"bool","internalType":"bool"}],"stateMutability":"nonpayable"},{"type":"function","name":"transferOwnership","inputs":[{"name":"newOwner","type":"address","internalType":"address"}],"outputs":[],"stateMutability":"nonpayable"},{"type":"function","name":"treasuryAddress","inputs":[],"outputs":[{"name":"","type":"address","internalType":"address"}],"stateMutability":"view"},{"type":"function","name":"vaultManager","inputs":[],"outputs":[{"name":"","type":"address","internalType":"address"}],"stateMutability":"view"},{"type":"function","name":"vaultOperations","inputs":[],"outputs":[{"name":"","type":"address","internalType":"address"}],"stateMutability":"view"},{"type":"function","name":"vaultSorter","inputs":[],"outputs":[{"name":"","type":"address","internalType":"address"}],"stateMutability":"view"},{"type":"event","name":"Approval","inputs":[{"name":"owner","type":"address","indexed":true,"internalType":"address"},{"name":"spender","type":"address","indexed":true,"internalType":"address"},{"name":"amount","type":"uint256","indexed":false,"internalType":"uint256"}],"anonymous":false},{"type":"event","name":"OwnershipTransferred","inputs":[{"name":"previousOwner","type":"address","indexed":true,"internalType":"address"},{"name":"newOwner","type":"address","indexed":true,"internalType":"address"}],"anonymous":false},{"type":"event","name":"Transfer","inputs":[{"name":"from","type":"address","indexed":true,"internalType":"address"},{"name":"to","type":"address","indexed":true,"internalType":"address"},{"name":"amount","type":"uint256","indexed":false,"internalType":"uint256"}],"anonymous":false},{"type":"event","name":"WhitelistChanged","inputs":[{"name":"_address","type":"address","indexed":true,"internalType":"address"},{"name":"_status","type":"bool","indexed":false,"internalType":"bool"}],"anonymous":false}],"bytecode":{"object":"0x60e0604090808252346200050a5762000018816200050f565b600e81526020906d25a2a49029ba30b13632b1b7b4b760911b82820152825162000042816200050f565b6003808252624b454960e81b8483015260008054336001600160a01b0319821681178355929591949192906001600160a01b03167f8be0079c531659141344cd1fd0a4f28419497f9722a3daafe3b4186f6b6457e08680a380516001600160401b0393848211620003025760019180620000bd845462000541565b94601f95868111620004b7575b5086908683116001146200045457899262000448575b5050600019828a1b1c191690831b1782555b805190858211620004345781906200010c60025462000541565b858111620003e0575b5085908583116001146200037b5788926200036f575b505060001982891b1c191690821b176002555b60126080524660a05286519185908254926200015a8462000541565b90818652868601948782821691826000146200035257505060011462000316575b505083601f199203011682019180831085841117620003025782885251902090828101917f8b73c3c69bb8fe3d512ecc4cf759cc79239f7b179b0ffacaa9a75d522b39400f8352878201527fc89efdaa54c0f20c7adf612882df0950f5a951637e0307cdcb4c672f298b8bc660608201524660808201523060a082015260a0815260c081019381851090851117620002ee5783875251902060c052835469d3c21bcecceda100000090818101809111620002da5785553384526004825285842081815401905582527fddf252ad1be2c89b69c2b068fc378daa952ba7f163c4a11628f55a4df523b3ef918383833393a3835469010f0cf064dd5920000094858201809211620002da575573ab8483f64d9c6d1ecf9b849ae677dd3315835cb293848452600482528584208181540190558551908152a3516113a090816200057f823960805181610da0015260a051816111dd015260c051816112040152f35b634e487b7160e01b85526011600452602485fd5b634e487b7160e01b85526041600452602485fd5b634e487b7160e01b86526041600452602486fd5b90869293508189528289209189925b8284106200033c575050508401019038806200017b565b8054888501860152889490930192810162000325565b92509394505060ff19168452151560051b8401019038806200017b565b0151905038806200012b565b600289528689208594509190601f1984168a5b89828210620003c95750508411620003b0575b505050811b016002556200013e565b0151600019838b1b60f8161c19169055388080620003a1565b83850151865588979095019493840193016200038e565b909150600288528588208580850160051c8201928886106200042a575b918691869594930160051c01915b8281106200041b57505062000115565b8a81558594508691016200040b565b92508192620003fd565b634e487b7160e01b87526041600452602487fd5b015190503880620000e0565b858a52878a208694509190601f1984168b5b8a828210620004a0575050841162000487575b505050811b018255620000f2565b0151600019838c1b60f8161c1916905538808062000479565b838501518655899790950194938401930162000466565b9091508489528689208680850160051c82019289861062000500575b918791869594930160051c01915b828110620004f1575050620000ca565b8b8155859450879101620004e1565b92508192620004d3565b600080fd5b604081019081106001600160401b038211176200052b57604052565b634e487b7160e01b600052604160045260246000fd5b90600182811c9216801562000573575b60208310146200055d57565b634e487b7160e01b600052602260045260246000fd5b91607f16916200055156fe608060408181526004918236101561001657600080fd5b600092833560e01c918263048c661d14610f755750816306fdde0314610ecd578163095ea7b314610e5c5781630ba84e8514610e1e57816316f9e75514610d2457816318160ddd14610dff57816323b872dd14610dc4578163313ce56714610d865781633644e51514610d625781633af32abf14610d2457816340c10f1914610c535781636b143bb814610c1b57816370a0823114610be5578163715018a614610b84578163741bef1a14610b5b578163756089c714610b3757816378c8cda714610ac35781637ecebe0014610a8b578163841f0ebb14610a625781638a4adf2414610a395781638da5cb5b14610a1157816395d89b41146109305781639718cf5914610907578382639dc29fac1461089f57508163a9059cbb1461082f578163b4cb0b2c14610808578163b957172114610619578163c5f956af146105f0578163c8564c62146105c9578163d505accf14610387578163dd62ed3e1461033e578163ea8db46214610315578163f2fde38b1461024a57508063f80f5dd5146101d35763f8d89898146101a857600080fd5b346101cf57816003193601126101cf5760075490516001600160a01b039091168152602090f35b5080fd5b50346101cf5760203660031901126101cf577fb840a1dbd8b09a3dc45161bba92dfb9aba643c0e44c085a447f839d1d02cf13b60206001600160a01b03610218611055565b16928385526010825280852060ff1990600182825416179055601183526001828720918254161790555160018152a280f35b90503461031157602036600319011261031157610265611055565b83546001600160a01b03808216939192610280338614611086565b169384156102bf5750506001600160a01b031916821783557f8be0079c531659141344cd1fd0a4f28419497f9722a3daafe3b4186f6b6457e08380a380f35b906020608492519162461bcd60e51b8352820152602660248201527f4f776e61626c653a206e6577206f776e657220697320746865207a65726f206160448201526564647265737360d01b6064820152fd5b8280fd5b5050346101cf57816003193601126101cf57600e5490516001600160a01b039091168152602090f35b5050346101cf57806003193601126101cf578060209261035c611055565b610364611070565b6001600160a01b0391821683526005865283832091168252845220549051908152f35b9050346103115760e0366003190112610311576103a2611055565b6103aa611070565b9260443590606435936084359360ff85168095036105c557428610610582576103d16111d8565b9660018060a01b0380921696878a5260209660068852858b20998a549a60018c019055865192858a8501957f6e71edae12b1b97f4d1f60370fef10105fa2faae0126114a169c64845d6126c987528c8a870152169b8c606086015289608086015260a085015260c084015260c0835260e0830167ffffffffffffffff948482108683111761056f578189528451902061010085019261190160f01b8452610102860152610122850152604281526101608401948186109086111761055c57848852519020835261018082015260a4356101a082015260c4356101c0909101528880528590899060809060015afa15610552578751169081151580610549575b1561051557508652600583528086208587528352808620829055519081527f8c5be1e5ebec7d5bd14f71427d1e84f3dd0314c0f7b2291e5b200ac8c7c3b9259190a380f35b825162461bcd60e51b8152908101859052600e60248201526d24a72b20a624a22fa9a4a3a722a960911b6044820152606490fd5b508582146104d0565b82513d89823e3d90fd5b634e487b7160e01b8d526041875260248dfd5b634e487b7160e01b8e526041885260248efd5b506020606492519162461bcd60e51b8352820152601760248201527f5045524d49545f444541444c494e455f455850495245440000000000000000006044820152fd5b8780fd5b5050346101cf57816003193601126101cf5760209060ff600e5460a01c1690519015158152f35b5050346101cf57816003193601126101cf57600b5490516001600160a01b039091168152602090f35b9050346103115760203660031901126103115767ffffffffffffffff9080358281116108045736602382011215610804578082013592831161080457602436818560051b840101116108005785546001600160a01b03939061067e9085163314611086565b600e549560ff8760a01c166107bf5750841561079c57836106a08385016110d1565b16946bffffffffffffffffffffffff60a01b9586600754161760075580600110156107ad57846106d2604486016110d1565b1686600854161760085580600210156107ad57846106f2606486016110d1565b1686600954161760095580600310156107ad5784610712608486016110d1565b1686600a541617600a55808210156107ad578461073160a486016110d1565b1686600c541617600c5580600510156107ad578461075160c486016110d1565b1686600d541617600d556006101561079c57505060e461077191016110d1565b600b805490931691161790556001600160a81b0319163360ff60a01b191617600160a01b17600e5580f35b634e487b7160e01b87526032905285fd5b50634e487b7160e01b87526032905285fd5b6064926020601c92519362461bcd60e51b85528401528201527f536574757020697320616c726561647920696e697469616c697a6564000000006044820152fd5b8580fd5b8480fd5b5050346101cf57816003193601126101cf5760209060ff60125460081c1690519015158152f35b9050346103115781600319360112610311576020928261084d611055565b91602435923382528487528282206108668582546110e5565b90556001600160a01b03168082529386522080548201905582519081523390600080516020611380833981519152908590a35160018152f35b809184346109035780600319360112610903576020600080516020611380833981519152916108cc611055565b6001600160a01b031680865293825280852080546024359291906108f19084906110e5565b9055816003540360035551908152a380f35b5050fd5b5050346101cf57816003193601126101cf57600d5490516001600160a01b039091168152602090f35b5050346101cf57816003193601126101cf578051908260025461095281610f9a565b808552916001918083169081156109e9575060011461098c575b50505061097e82610988940383610fd4565b519182918261100c565b0390f35b9450600285527f405787fa12a823e0f2b7631cc41b3ba8828b3321ca811111fa75cd3aa3bb5ace5b8286106109d15750505061097e826020610988958201019461096c565b805460208787018101919091529095019481016109b4565b61098897508693506020925061097e94915060ff191682840152151560051b8201019461096c565b5050346101cf57816003193601126101cf57905490516001600160a01b039091168152602090f35b5050346101cf57816003193601126101cf57600c5490516001600160a01b039091168152602090f35b5050346101cf57816003193601126101cf5760095490516001600160a01b039091168152602090f35b5050346101cf5760203660031901126101cf5760209181906001600160a01b03610ab3611055565b1681526006845220549051908152f35b5050346101cf5760203660031901126101cf577fb840a1dbd8b09a3dc45161bba92dfb9aba643c0e44c085a447f839d1d02cf13b60206001600160a01b03610b09611055565b16928385526010825280852060ff19908181541690556011835260018287209182541617905551848152a280f35b5050346101cf57816003193601126101cf5760209060ff6012541690519015158152f35b5050346101cf57816003193601126101cf5760085490516001600160a01b039091168152602090f35b8334610be25780600319360112610be257805481906001600160a01b03811690610baf338314611086565b6001600160a01b03191682557f8be0079c531659141344cd1fd0a4f28419497f9722a3daafe3b4186f6b6457e08280a380f35b80fd5b9050346103115760203660031901126103115760209282916001600160a01b03610c0d611055565b168252845220549051908152f35b5050346101cf5760203660031901126101cf5760209181906001600160a01b03610c43611055565b168152600f845220549051908152f35b91905034610311578060031936011261031157610c6e611055565b9060243591338552601160205260ff828620541615610ce157600354838101809111610cce576003556001600160a01b0316808552602093845281852080548401905590519182529183916000805160206113808339815191529190a380f35b634e487b7160e01b865260118552602486fd5b815162461bcd60e51b8152602081860152601760248201527f4e6f742077686974656c697374656420746f206d696e740000000000000000006044820152606490fd5b5050346101cf5760203660031901126101cf5760209160ff9082906001600160a01b03610d4f611055565b1681526010855220541690519015158152f35b5050346101cf57816003193601126101cf57602090610d7f6111d8565b9051908152f35b5050346101cf57816003193601126101cf576020905160ff7f0000000000000000000000000000000000000000000000000000000000000000168152f35b5050346101cf5760603660031901126101cf57602090610df6610de5611055565b610ded611070565b60443591611108565b90519015158152f35b5050346101cf57816003193601126101cf576020906003549051908152f35b5050346101cf5760203660031901126101cf5760209160ff9082906001600160a01b03610e49611055565b1681526011855220541690519015158152f35b5050346101cf57806003193601126101cf5760209181610e7a611055565b91602435918291338152600587528181209460018060a01b0316948582528752205582519081527f8c5be1e5ebec7d5bd14f71427d1e84f3dd0314c0f7b2291e5b200ac8c7c3b925843392a35160018152f35b5050346101cf57816003193601126101cf57805190826001805491610ef183610f9a565b808652928281169081156109e95750600114610f195750505061097e82610988940383610fd4565b94508085527fb10e2d527612073b26eecdfd717e6a320cf44b4afac2b0732d9fcbe2b7fa0cf65b828610610f5d5750505061097e826020610988958201019461096c565b80546020878701810191909152909501948101610f40565b8490346101cf57816003193601126101cf57600a546001600160a01b03168152602090f35b90600182811c92168015610fca575b6020831014610fb457565b634e487b7160e01b600052602260045260246000fd5b91607f1691610fa9565b90601f8019910116810190811067ffffffffffffffff821117610ff657604052565b634e487b7160e01b600052604160045260246000fd5b6020808252825181830181905290939260005b82811061104157505060409293506000838284010152601f8019910116010190565b81810186015184820160400152850161101f565b600435906001600160a01b038216820361106b57565b600080fd5b602435906001600160a01b038216820361106b57565b1561108d57565b606460405162461bcd60e51b815260206004820152602060248201527f4f776e61626c653a2063616c6c6572206973206e6f7420746865206f776e65726044820152fd5b356001600160a01b038116810361106b5790565b919082039182116110f257565b634e487b7160e01b600052601160045260246000fd5b60008051602061138083398151915290600093338552602091601083526040809160ff82892054166000146111735760018060a01b0380911696878952600486528289206111578682546110e5565b90551696878152600485522082815401905551908152a3600190565b6001600160a01b0390811680895260058652828920338a5286528289205490979085600182016111b5575b5050878952600486528289206111578682546110e5565b6111be916110e5565b888a5260058752838a20338b528752838a2055388561119e565b6000467f00000000000000000000000000000000000000000000000000000000000000000361122657507f000000000000000000000000000000000000000000000000000000000000000090565b604051816001918254918161123a84610f9a565b9182825260209586830195878282169182600014611361575050600114611308575b5061126992500382610fd4565b51902091604051918201927f8b73c3c69bb8fe3d512ecc4cf759cc79239f7b179b0ffacaa9a75d522b39400f845260408301527fc89efdaa54c0f20c7adf612882df0950f5a951637e0307cdcb4c672f298b8bc660608301524660808301523060a083015260a0825260c082019082821067ffffffffffffffff8311176112f4575060405251902090565b634e487b7160e01b81526041600452602490fd5b80885286915087907fb10e2d527612073b26eecdfd717e6a320cf44b4afac2b0732d9fcbe2b7fa0cf65b85831061134957505061126993508201013861125c565b80548388018501528694508893909201918101611332565b60ff1916885261126995151560051b850101925038915061125c905056feddf252ad1be2c89b69c2b068fc378daa952ba7f163c4a11628f55a4df523b3ef","linkReferences":{}},"methodIdentifiers":{"DOMAIN_SEPARATOR()":"3644e515","addWhitelist(address)":"f80f5dd5","allowance(address,address)":"dd62ed3e","allowanceWhitelist(address)":"16f9e755","approve(address,uint256)":"095ea7b3","balanceOf(address)":"70a08231","burn(address,uint256)":"9dc29fac","debtToken()":"f8d89898","decimals()":"313ce567","emergencyStopBurn()":"b4cb0b2c","emergencyStopMinting()":"756089c7","isAddressSetupInitialized()":"c8564c62","isWhitelisted(address)":"3af32abf","keikoDeployer()":"ea8db462","mint(address,uint256)":"40c10f19","mintWhitelist(address)":"0ba84e85","name()":"06fdde03","nonces(address)":"7ecebe00","owner()":"8da5cb5b","permit(address,address,uint256,uint256,uint8,bytes32,bytes32)":"d505accf","priceFeed()":"741bef1a","removeWhitelist(address)":"78c8cda7","renounceOwnership()":"715018a6","setAddresses(address[])":"b9571721","stabilityPool()":"048c661d","symbol()":"95d89b41","timelock(address)":"6b143bb8","totalSupply()":"18160ddd","transfer(address,uint256)":"a9059cbb","transferFrom(address,address,uint256)":"23b872dd","transferOwnership(address)":"f2fde38b","treasuryAddress()":"c5f956af","vaultManager()":"8a4adf24","vaultOperations()":"9718cf59","vaultSorter()":"841f0ebb"},"id":23}