{"abi":[{"type":"function","name":"contains","inputs":[{"name":"_asset","type":"address","internalType":"address"},{"name":"_id","type":"address","internalType":"address"}],"outputs":[{"name":"","type":"bool","internalType":"bool"}],"stateMutability":"view"},{"type":"function","name":"data","inputs":[{"name":"","type":"address","internalType":"address"}],"outputs":[{"name":"head","type":"address","internalType":"address"},{"name":"tail","type":"address","internalType":"address"},{"name":"size","type":"uint256","internalType":"uint256"}],"stateMutability":"view"},{"type":"function","name":"debtToken","inputs":[],"outputs":[{"name":"","type":"address","internalType":"address"}],"stateMutability":"view"},{"type":"function","name":"findInsertPosition","inputs":[{"name":"_asset","type":"address","internalType":"address"},{"name":"_ARS","type":"uint256","internalType":"uint256"},{"name":"_prevId","type":"address","internalType":"address"},{"name":"_nextId","type":"address","internalType":"address"}],"outputs":[{"name":"","type":"address","internalType":"address"},{"name":"","type":"address","internalType":"address"}],"stateMutability":"nonpayable"},{"type":"function","name":"getFirst","inputs":[{"name":"_asset","type":"address","internalType":"address"}],"outputs":[{"name":"","type":"address","internalType":"address"}],"stateMutability":"view"},{"type":"function","name":"getLast","inputs":[{"name":"_asset","type":"address","internalType":"address"}],"outputs":[{"name":"","type":"address","internalType":"address"}],"stateMutability":"view"},{"type":"function","name":"getNext","inputs":[{"name":"_asset","type":"address","internalType":"address"},{"name":"_id","type":"address","internalType":"address"}],"outputs":[{"name":"","type":"address","internalType":"address"}],"stateMutability":"view"},{"type":"function","name":"getPrev","inputs":[{"name":"_asset","type":"address","internalType":"address"},{"name":"_id","type":"address","internalType":"address"}],"outputs":[{"name":"","type":"address","internalType":"address"}],"stateMutability":"view"},{"type":"function","name":"getSize","inputs":[{"name":"_asset","type":"address","internalType":"address"}],"outputs":[{"name":"","type":"uint256","internalType":"uint256"}],"stateMutability":"view"},{"type":"function","name":"insertVault","inputs":[{"name":"_asset","type":"address","internalType":"address"},{"name":"_id","type":"address","internalType":"address"},{"name":"_ARS","type":"uint256","internalType":"uint256"},{"name":"_prevId","type":"address","internalType":"address"},{"name":"_nextId","type":"address","internalType":"address"}],"outputs":[],"stateMutability":"nonpayable"},{"type":"function","name":"isAddressSetupInitialized","inputs":[],"outputs":[{"name":"","type":"bool","internalType":"bool"}],"stateMutability":"view"},{"type":"function","name":"isEmpty","inputs":[{"name":"_asset","type":"address","internalType":"address"}],"outputs":[{"name":"","type":"bool","internalType":"bool"}],"stateMutability":"view"},{"type":"function","name":"keikoDeployer","inputs":[],"outputs":[{"name":"","type":"address","internalType":"address"}],"stateMutability":"view"},{"type":"function","name":"owner","inputs":[],"outputs":[{"name":"","type":"address","internalType":"address"}],"stateMutability":"view"},{"type":"function","name":"priceFeed","inputs":[],"outputs":[{"name":"","type":"address","internalType":"address"}],"stateMutability":"view"},{"type":"function","name":"reInsertVault","inputs":[{"name":"_asset","type":"address","internalType":"address"},{"name":"_id","type":"address","internalType":"address"},{"name":"_newARS","type":"uint256","internalType":"uint256"},{"name":"_prevId","type":"address","internalType":"address"},{"name":"_nextId","type":"address","internalType":"address"}],"outputs":[],"stateMutability":"nonpayable"},{"type":"function","name":"removeVault","inputs":[{"name":"_asset","type":"address","internalType":"address"},{"name":"_id","type":"address","internalType":"address"}],"outputs":[],"stateMutability":"nonpayable"},{"type":"function","name":"renounceOwnership","inputs":[],"outputs":[],"stateMutability":"nonpayable"},{"type":"function","name":"setAddresses","inputs":[{"name":"_addresses","type":"address[]","internalType":"address[]"}],"outputs":[],"stateMutability":"nonpayable"},{"type":"function","name":"stabilityPool","inputs":[],"outputs":[{"name":"","type":"address","internalType":"address"}],"stateMutability":"view"},{"type":"function","name":"transferOwnership","inputs":[{"name":"newOwner","type":"address","internalType":"address"}],"outputs":[],"stateMutability":"nonpayable"},{"type":"function","name":"treasuryAddress","inputs":[],"outputs":[{"name":"","type":"address","internalType":"address"}],"stateMutability":"view"},{"type":"function","name":"validInsertPosition","inputs":[{"name":"_asset","type":"address","internalType":"address"},{"name":"_ARS","type":"uint256","internalType":"uint256"},{"name":"_prevId","type":"address","internalType":"address"},{"name":"_nextId","type":"address","internalType":"address"}],"outputs":[{"name":"","type":"bool","internalType":"bool"}],"stateMutability":"nonpayable"},{"type":"function","name":"vaultManager","inputs":[],"outputs":[{"name":"","type":"address","internalType":"address"}],"stateMutability":"view"},{"type":"function","name":"vaultOperations","inputs":[],"outputs":[{"name":"","type":"address","internalType":"address"}],"stateMutability":"view"},{"type":"function","name":"vaultSorter","inputs":[],"outputs":[{"name":"","type":"address","internalType":"address"}],"stateMutability":"view"},{"type":"event","name":"NodeAdded","inputs":[{"name":"_asset","type":"address","indexed":true,"internalType":"address"},{"name":"_id","type":"address","indexed":false,"internalType":"address"},{"name":"_NICR","type":"uint256","indexed":false,"internalType":"uint256"}],"anonymous":false},{"type":"event","name":"NodeRemoved","inputs":[{"name":"_asset","type":"address","indexed":true,"internalType":"address"},{"name":"_id","type":"address","indexed":false,"internalType":"address"}],"anonymous":false},{"type":"event","name":"OwnershipTransferred","inputs":[{"name":"previousOwner","type":"address","indexed":true,"internalType":"address"},{"name":"newOwner","type":"address","indexed":true,"internalType":"address"}],"anonymous":false}],"bytecode":{"object":"0x6080806040523461005b5760008054336001600160a01b0319821681178355916001600160a01b03909116907f8be0079c531659141344cd1fd0a4f28419497f9722a3daafe3b4186f6b6457e09080a361184f90816100618239f35b600080fdfe608060408181526004918236101561001657600080fd5b600092833560e01c918263048c661d1461091e575081631bdb4c8d146108e357816339ed25cd1461088f5781633b725b231461084f578163504f167114610813578163715018a6146107b5578163741bef1a1461078c578163760827151461074d578163841f0ebb146107245781638a4adf24146106fb5781638da5cb5b146106d35781639718cf59146106aa578163b7d3824314610680578163b90d3d0c1461062b578163b957172114610443578163bff365c4146103ff578163c5f956af146103d6578163c8564c62146103af578163e71b84001461035f578163ea8db46214610336578163eac514e014610318578163eceea2fb146102f0578163ecf9db141461028a578163ed26cae814610239578163f2fde38b1461016e575063f8d898981461014357600080fd5b3461016a578160031936011261016a5760015490516001600160a01b039091168152602090f35b5080fd5b90503461023557602036600319011261023557610189610942565b83546001600160a01b038082169391926101a4338614610a03565b169384156101e35750506001600160a01b031916821783557f8be0079c531659141344cd1fd0a4f28419497f9722a3daafe3b4186f6b6457e08380a380f35b906020608492519162461bcd60e51b8352820152602660248201527f4f776e61626c653a206e6577206f776e657220697320746865207a65726f206160448201526564647265737360d01b6064820152fd5b8280fd5b50503461016a578060031936011261016a5760ff81602093610259610942565b61026161095d565b6001600160a01b0391821683526009875283832091168252600301855220549151911615158152f35b50503461016a576102d36102ed9160ff6102a3366109b5565b969194909560018060a09695961b038085168b5260096020526003828c20019086168b5260205289205416610de0565b6102de831515610a62565b6102e88282610e40565b610aba565b80f35b50503461016a5760209061030f61030636610973565b9291909161102c565b90519015158152f35b8334610333576102ed61032a366109b5565b93929092610aba565b80fd5b50503461016a578160031936011261016a5760085490516001600160a01b039091168152602090f35b50503461016a578060031936011261016a5760209160018261037f610942565b9261038861095d565b838060a01b0380951682526009875284600384842001911682528652200154169051908152f35b50503461016a578160031936011261016a5760209060ff60085460a01c1690519015158152f35b50503461016a578160031936011261016a5760055490516001600160a01b039091168152602090f35b50503461016a5761043f9061041f61041636610973565b92919091611380565b91516001600160a01b039182168152911660208201529081906040820190565b0390f35b9050346102355760203660031901126102355767ffffffffffffffff9080358281116106275736602382011215610627578082013592831161062757602436818560051b840101116106235785546001600160a01b0393906104a89085163314610a03565b6008549560ff8760a01c166105e2575084156105bf57836104ca838501610a4e565b16946001600160601b0360a01b9586600154161760015580600110156105d057846104f760448601610a4e565b1686600254161760025580600210156105d0578461051760648601610a4e565b1686600354161760035580600310156105d0578461053760848601610a4e565b1686835416178255808210156105d0578461055460a48601610a4e565b1686600654161760065580600510156105d0578461057460c48601610a4e565b16866007541617600755600610156105bf57505060e46105949101610a4e565b6005805490931691161790556001600160a81b0319163360ff60a01b191617600160a01b1760085580f35b634e487b7160e01b87526032905285fd5b50634e487b7160e01b87526032905285fd5b6064926020601c92519362461bcd60e51b85528401528201527f536574757020697320616c726561647920696e697469616c697a6564000000006044820152fd5b8580fd5b8480fd5b50503461016a57602036600319011261016a576060916001600160a01b039190819083610656610942565b16815260096020522090600283835416936001840154169201549181519384526020840152820152f35b50503461016a57366003190112610333576102ed61069c610942565b6106a461095d565b90610e40565b50503461016a578160031936011261016a5760075490516001600160a01b039091168152602090f35b50503461016a578160031936011261016a57905490516001600160a01b039091168152602090f35b50503461016a578160031936011261016a5760065490516001600160a01b039091168152602090f35b50503461016a578160031936011261016a5760035490516001600160a01b039091168152602090f35b50503461016a57602036600319011261016a576020916001600160a01b039060019083908361077a610942565b16815260098652200154169051908152f35b50503461016a578160031936011261016a5760025490516001600160a01b039091168152602090f35b8334610333578060031936011261033357805481906001600160a01b038116906107e0338314610a03565b6001600160a01b03191682557f8be0079c531659141344cd1fd0a4f28419497f9722a3daafe3b4186f6b6457e08280a380f35b50503461016a57602036600319011261016a5760209160029082906001600160a01b0361083e610942565b168152600985522001549051908152f35b50503461016a57602036600319011261016a5760209061030f610870610942565b6001600160a01b03166000908152600960205260409020600201541590565b50503461016a578060031936011261016a57602091816108ad610942565b916108b661095d565b6001600160a01b03938416825260098652828220908416825260030185522054915160089290921c168152f35b50503461016a57602036600319011261016a576020916001600160a01b039082908261090d610942565b168152600985522054169051908152f35b849134610235578260031936011261023557546001600160a01b0316815260209150f35b600435906001600160a01b038216820361095857565b600080fd5b602435906001600160a01b038216820361095857565b6080906003190112610958576001600160a01b039060043582811681036109585791602435916044358281168103610958579160643590811681036109585790565b60a0906003190112610958576001600160a01b036004358181168103610958579160243582811681036109585791604435916064358281168103610958579160843590811681036109585790565b15610a0a57565b606460405162461bcd60e51b815260206004820152602060248201527f4f776e61626c653a2063616c6c6572206973206e6f7420746865206f776e65726044820152fd5b356001600160a01b03811681036109585790565b15610a6957565b60405162461bcd60e51b815260206004820152602360248201527f536f7274656456657373656c733a20415253206d75737420626520706f73697460448201526269766560e81b6064820152608490fd5b919493909460018060a01b038084169460009788948786526020936009855260409788882093600385019360ff8b8584169b8c8152878b52205416610d86578915610d44578d9695949392918b8b92610b148c1515610a62565b888c8296610b248484848461102c565b15610d2a575b5050505088836002999a52868b52818120948660019b8c60ff1989541617885516908115808091610d20575b15610bd657505050505050505050506001600160601b0360a01b868183541617825586848301918254161790555b018054918201809211610bc2577fa74a9cd584cc27d44e7f746f6715fae75b600cc5eb8f85a95752788d6b4547a596979850558351928352820152a2565b634e487b7160e01b89526011600452602489fd5b15610c3557505087548554610100600160a81b03191690871660081b610100600160a81b03161790945550610c0a92505050565b8254168b528452868a20830180546001600160a01b0319908116881790915581541686178155610b84565b8b88829a94959697999a16918215600014610ca357508a018054978d0180546001600160a01b0319908116998c169990991790558054909916845250508a52208054610100600160a81b03191660089290921b610100600160a81b0316919091179055825416179055610b84565b8854610100600160a81b03191660089190911b610100600160a81b03161788559198509650610d0c959091500180546001600160a01b03199081168817909155958152208054610100600160a81b03191660089290921b610100600160a81b0316919091179055565b8b528684898d200191825416179055610b84565b5088821615610b56565b60029b50610d39949750611380565b939097388c81610b2a565b6064888c519062461bcd60e51b825280600483015260248201527f536f7274656456657373656c733a2049642063616e6e6f74206265207a65726f6044820152fd5b8a5162461bcd60e51b815260048101899052602d60248201527f536f7274656456657373656c733a204c69737420616c726561647920636f6e7460448201526c61696e7320746865206e6f646560981b6064820152608490fd5b15610de757565b60405162461bcd60e51b815260206004820152602b60248201527f536f7274656456657373656c733a204c69737420646f6573206e6f7420636f6e60448201526a1d185a5b881d1a19481a5960aa1b6064820152608490fd5b91909160018060a01b038091169060009382855260209160098352604090868281208260038201951694858352808752610e7f60ff8685205416610de0565b85835280875284832091600281019460019384875411600014610fd35784828454168a14600014610f3257505460081c166001600160601b0360a01b918183825416179055845281885282868520019081541690555b858352865283822082815501558054600019810191908211610f1e577f202321eaea3aa2b5e1e2ef1dfd98a9d6ba8c90e293f5dc2755b32eb921a47797959697505551908152a2565b634e487b7160e01b88526011600452602488fd5b8091930192828454168a14600014610f7657015482546001600160a01b031916911690811790915583528087528483208054610100600160a81b0319169055610ed5565b80548682018054851689528a89208054610100600160a81b03600894851c8816851b16610100600160a81b0319909116179055549154901c83168752888720860180546001600160a01b031916919093161790915550610ed59050565b5050826001600160601b0360a01b9182815416815501908154169055610ed5565b90601f8019910116810190811067ffffffffffffffff82111761101657604052565b634e487b7160e01b600052604160045260246000fd5b6001600160a01b039390929091908481169081158080611376575b15611076575050505050611073915060018060a01b031660005260096020526002604060002001541590565b90565b1561114157505060009184841683526009602052846040842054168582161493846110a5575b50505050905090565b600654604051632438f1d560e21b81526001600160a01b039283166004820152929091166024830152929491935091602091839160449183918891165af19283156111355780936110ff575b50501015803880808061109c565b909192506020823d821161112d575b8161111b60209383610ff4565b810103126103335750519038806110f1565b3d915061110e565b604051903d90823e3d90fd5b9092858116908161120557505060009285851684526009602052856001604086200154161493846111755750505050905090565b600654604051632438f1d560e21b81526001600160a01b039283166004820152929091166024830152929491935091602091839160449183918891165af19283156111355780936111cf575b50501115803880808061109c565b909192506020823d82116111fd575b816111eb60209383610ff4565b810103126103335750519038806111c1565b3d91506111de565b9091959293946000938082168552602093600985526040976003898820019087528552818887205460081c161497886112e5575b508761124a575b5050505050505090565b6006548751632438f1d560e21b81526001600160a01b039384166004820152929093166024830152959650939482918591168185816044810103925af19485156112da575081946112a7575b505050101538808080808080611240565b909180939450813d83116112d3575b6112c08183610ff4565b8101031261033357505190388080611296565b503d6112b6565b51913d9150823e3d90fd5b6006548851632438f1d560e21b81526001600160a01b0385811660048301529290921660248301529198509084908290604490829089908d165af190811561136c57908691869161133b575b5010159638611239565b809250858092503d8311611365575b6113548183610ff4565b810103126106275785905138611331565b503d61134a565b87513d87823e3d90fd5b5086851615611047565b91926001600160a01b03908082861686816114e0575b50508281169081611411575b505084821615948580611407575b156113d85750506113d49350808316600052600960205260406000205416916115a4565b9091565b919093946000146113ee5750506113d4926116df565b9092166113fe576113d4926115a4565b6113d4926115a4565b50828216156113b0565b60009184871683526020906009825260036040852001908452815260ff60408420541615918215611452575b505061144a575b806113a2565b905038611444565b600654604051632438f1d560e21b81526001600160a01b038a811660048301529290921660248301529192509082908290604490829087908a165af19182156114d55783926114a7575b50508410388061143d565b90809250813d83116114ce575b6114be8183610ff4565b8101031261016a5751388061149c565b503d6114b4565b6040513d85823e3d90fd5b60009185881683526020906009825260036040852001908452815260ff60408420541615918215611521575b5050611519575b80611396565b955038611513565b600654604051632438f1d560e21b81526001600160a01b038b811660048301529290921660248301529192509082908290604490829087908b165af19182156114d5578392611576575b50508511388061150c565b90809250813d831161159d575b61158d8183610ff4565b8101031261016a5751388061156b565b503d611583565b9092919260018060a01b039360009185841683526020906009825260409485852096888854169489811680961480611654575b6116465760039098019486528484528686205497896008998a1c165b8a82169182151580611633575b1561162457505086528484528887872054891c1680875289888820548a1c166115f3565b9a509850909650505050505050565b506116408282888861102c565b15611600565b985096505050505090509190565b506006548851632438f1d560e21b81526001600160a01b0380861660048301528316602482015290869082908d16818b816044810103925af19081156116d55788916116a4575b508410156115d7565b90508581813d83116116ce575b6116bb8183610ff4565b810103126116ca57513861169b565b8780fd5b503d6116b1565b89513d8a823e3d90fd5b90929160018060a01b039060008284168152602091600983526040928383209760019686888b01541693878116809514806117c6575b6117b8579160038997959398969492989b019284528282528587868620015416985b611748575b50505050505050509190565b919395979092949699878116918b82828686151593846117a4575b505050501561179c5750509084939291889695528282528686868620015416998a85528787878720015416989795949392919097611737565b98509961173c565b6117ae945061102c565b158282868f611763565b975050505050945050509190565b506006548751632438f1d560e21b81526001600160a01b03848116600483015283166024820152908590829060449082908b908e165af1908115611845578791611814575b50831115611715565b90508481813d831161183e575b61182b8183610ff4565b8101031261183a57513861180b565b8680fd5b503d611821565b88513d89823e3d90fd","linkReferences":{}},"methodIdentifiers":{"contains(address,address)":"ed26cae8","data(address)":"b90d3d0c","debtToken()":"f8d89898","findInsertPosition(address,uint256,address,address)":"bff365c4","getFirst(address)":"1bdb4c8d","getLast(address)":"76082715","getNext(address,address)":"39ed25cd","getPrev(address,address)":"e71b8400","getSize(address)":"504f1671","insertVault(address,address,uint256,address,address)":"eac514e0","isAddressSetupInitialized()":"c8564c62","isEmpty(address)":"3b725b23","keikoDeployer()":"ea8db462","owner()":"8da5cb5b","priceFeed()":"741bef1a","reInsertVault(address,address,uint256,address,address)":"ecf9db14","removeVault(address,address)":"b7d38243","renounceOwnership()":"715018a6","setAddresses(address[])":"b9571721","stabilityPool()":"048c661d","transferOwnership(address)":"f2fde38b","treasuryAddress()":"c5f956af","validInsertPosition(address,uint256,address,address)":"eceea2fb","vaultManager()":"8a4adf24","vaultOperations()":"9718cf59","vaultSorter()":"841f0ebb"},"id":28}