{"abi":[{"type":"function","name":"TARGET_DIGITS","inputs":[],"outputs":[{"name":"","type":"uint256","internalType":"uint256"}],"stateMutability":"view"},{"type":"function","name":"fetchPrice","inputs":[{"name":"_token","type":"address","internalType":"address"}],"outputs":[{"name":"","type":"uint256","internalType":"uint256"}],"stateMutability":"view"},{"type":"function","name":"lastCorrectPrice","inputs":[{"name":"","type":"address","internalType":"address"}],"outputs":[{"name":"","type":"uint256","internalType":"uint256"}],"stateMutability":"view"},{"type":"function","name":"oracles","inputs":[{"name":"","type":"address","internalType":"address"}],"outputs":[{"name":"oracleAddress","type":"address","internalType":"address"},{"name":"timeoutSeconds","type":"uint256","internalType":"uint256"},{"name":"decimals","type":"uint256","internalType":"uint256"},{"name":"isEthIndexed","type":"bool","internalType":"bool"}],"stateMutability":"view"},{"type":"function","name":"setOracle","inputs":[{"name":"_token","type":"address","internalType":"address"},{"name":"_oracle","type":"address","internalType":"address"},{"name":"_timeoutSeconds","type":"uint256","internalType":"uint256"},{"name":"_isEthIndexed","type":"bool","internalType":"bool"}],"outputs":[],"stateMutability":"nonpayable"},{"type":"event","name":"NewOracleRegistered","inputs":[{"name":"token","type":"address","indexed":false,"internalType":"address"},{"name":"oracleAddress","type":"address","indexed":false,"internalType":"address"},{"name":"isEthIndexed","type":"bool","indexed":false,"internalType":"bool"},{"name":"isFallback","type":"bool","indexed":false,"internalType":"bool"}],"anonymous":false},{"type":"error","name":"PriceFeed__ExistingOracleRequired","inputs":[]},{"type":"error","name":"PriceFeed__InvalidDecimalsError","inputs":[]},{"type":"error","name":"PriceFeed__InvalidOracleResponseError","inputs":[{"name":"token","type":"address","internalType":"address"}]},{"type":"error","name":"PriceFeed__TimelockOnlyError","inputs":[]},{"type":"error","name":"PriceFeed__UnknownAssetError","inputs":[]}],"bytecode":{"object":"0x6080806040523461001657610571908161001c8239f35b600080fdfe60806040818152600436101561001457600080fd5b600091823560e01c9081631be5c92f1461028557508063a913b27914610120578063ac1a2860146100e9578063ace1798e146100bd5763addd50991461005957600080fd5b346100b95760203660031901126100b9576080916001600160a01b0391908190836100826102a0565b1681528060205220918254169160018101549160ff6003600284015493015416928151948552602085015283015215156060820152f35b5080fd5b50346100b95760203660031901126100b9576020906100e26100dd6102a0565b61030f565b9051908152f35b50346100b95760203660031901126100b95760209181906001600160a01b036101106102a0565b1681526001845220549051908152f35b5090346102825760803660031901126102825761013b6102a0565b6024356001600160a01b038181169182900361027e576064359283151580940361027a57855163313ce56760e01b8152602092908381600481885afa8015610270578790610234575b60ff9150169283156102235787519461019c866102bb565b8552808501926044358452888601948552606086019687526101bd866103a1565b1561020a579680989183600398991682525287209351166bffffffffffffffffffffffff60a01b845416178355516001830155516002820155019051151560ff8019835416911617905580f35b885163283f5cb560e01b81529083166004820152602490fd5b875163ee65a7e560e01b8152600490fd5b508381813d8311610269575b61024a81836102ed565b81010312610265575160ff811681036102655760ff90610184565b8680fd5b503d610240565b88513d89823e3d90fd5b8480fd5b8380fd5b80fd5b8390346100b957816003193601126100b95780601260209252f35b600435906001600160a01b03821682036102b657565b600080fd5b6080810190811067ffffffffffffffff8211176102d757604052565b634e487b7160e01b600052604160045260246000fd5b90601f8019910116810190811067ffffffffffffffff8211176102d757604052565b60018060a01b03808216600052600060205261036560ff600360406000206040519461033a866102bb565b81541685526001810154602086015260028101546040860152015416916060810192151583526103a1565b908161038c5760405163283f5cb560e01b81526001600160a01b0384166004820152602490fd5b519091501561039e5761039e90610501565b90565b80516001600160a01b03908116156104d857815116600090600460a060009260405192838092633fabe5a360e21b82525afa9082828492859461047d575b5061043b575b505050811515908161040c575b506103fe575050600090565b604061039e92015190610529565b90506020830151904203428111610425571115386103f2565b634e487b7160e01b600052601160045260246000fd5b69ffffffffffffffffffff16151580610474575b8061046b575b610460575b806103e5565b92509050388061045a565b50801515610455565b5081151561044f565b925092505060a0813d82116104d0575b8161049a60a093836102ed565b810103126104cc576104ab816104ea565b6020820151906104c26080606085015194016104ea565b50909192386103df565b8280fd5b3d915061048d565b604051632e054cdf60e21b8152600490fd5b519069ffffffffffffffffffff821682036102b657565b61050b600061030f565b81810291818304149015171561042557670de0b6b3a7640000900490565b90601281111561055b5760111901600a0a908115610545570490565b634e487b7160e01b600052601260045260246000fd5b60128110610567575090565b601203600a0a029056","linkReferences":{}},"methodIdentifiers":{"TARGET_DIGITS()":"1be5c92f","fetchPrice(address)":"ace1798e","lastCorrectPrice(address)":"ac1a2860","oracles(address)":"addd5099","setOracle(address,address,uint256,bool)":"a913b279"},"id":24}