{"abi":[{"type":"function","name":"activeVaults","inputs":[],"outputs":[{"name":"","type":"uint256","internalType":"uint256"}],"stateMutability":"view"},{"type":"function","name":"adjustVault","inputs":[{"name":"vaultCollateral","type":"address","internalType":"address"},{"name":"addCollateral","type":"uint256","internalType":"uint256"},{"name":"withdrawCollateral","type":"uint256","internalType":"uint256"},{"name":"addDebt","type":"uint256","internalType":"uint256"},{"name":"repaidDebt","type":"uint256","internalType":"uint256"},{"name":"prevId","type":"address","internalType":"address"},{"name":"nextId","type":"address","internalType":"address"}],"outputs":[],"stateMutability":"nonpayable"},{"type":"function","name":"adjustVaultMCR","inputs":[{"name":"vaultCollateral","type":"address","internalType":"address"},{"name":"mcr","type":"uint256","internalType":"uint256"},{"name":"prevId","type":"address","internalType":"address"},{"name":"nextId","type":"address","internalType":"address"}],"outputs":[],"stateMutability":"nonpayable"},{"type":"function","name":"closeVault","inputs":[{"name":"vaultCollateral","type":"address","internalType":"address"}],"outputs":[],"stateMutability":"nonpayable"},{"type":"function","name":"createVault","inputs":[{"name":"vaultCollateral","type":"address","internalType":"address"},{"name":"collatAmount","type":"uint256","internalType":"uint256"},{"name":"debtAmount","type":"uint256","internalType":"uint256"},{"name":"vaultMCR","type":"uint256","internalType":"uint256"},{"name":"prevId","type":"address","internalType":"address"},{"name":"nextId","type":"address","internalType":"address"}],"outputs":[],"stateMutability":"nonpayable"},{"type":"function","name":"debtToken","inputs":[],"outputs":[{"name":"","type":"address","internalType":"address"}],"stateMutability":"view"},{"type":"function","name":"defaultInterestRecipient","inputs":[],"outputs":[{"name":"","type":"address","internalType":"address"}],"stateMutability":"view"},{"type":"function","name":"getLastUpdatedDebtTime","inputs":[{"name":"vaultCollateral","type":"address","internalType":"address"},{"name":"vaultOwner","type":"address","internalType":"address"}],"outputs":[{"name":"","type":"uint256","internalType":"uint256"}],"stateMutability":"view"},{"type":"function","name":"isAddressSetupInitialized","inputs":[],"outputs":[{"name":"","type":"bool","internalType":"bool"}],"stateMutability":"view"},{"type":"function","name":"keikoDeployer","inputs":[],"outputs":[{"name":"","type":"address","internalType":"address"}],"stateMutability":"view"},{"type":"function","name":"lastDebtUpdateTime","inputs":[{"name":"","type":"address","internalType":"address"},{"name":"","type":"address","internalType":"address"}],"outputs":[{"name":"","type":"uint256","internalType":"uint256"}],"stateMutability":"view"},{"type":"function","name":"liquidateVault","inputs":[{"name":"vaultCollateral","type":"address","internalType":"address"},{"name":"vaultOwner","type":"address","internalType":"address"},{"name":"prevId","type":"address","internalType":"address"},{"name":"nextId","type":"address","internalType":"address"}],"outputs":[],"stateMutability":"nonpayable"},{"type":"function","name":"mintRecipients","inputs":[{"name":"","type":"uint256","internalType":"uint256"}],"outputs":[{"name":"recipient","type":"address","internalType":"address"},{"name":"percentage","type":"uint256","internalType":"uint256"}],"stateMutability":"view"},{"type":"function","name":"mintVaultsInterest","inputs":[],"outputs":[],"stateMutability":"nonpayable"},{"type":"function","name":"owner","inputs":[],"outputs":[{"name":"","type":"address","internalType":"address"}],"stateMutability":"view"},{"type":"function","name":"priceFeed","inputs":[],"outputs":[{"name":"","type":"address","internalType":"address"}],"stateMutability":"view"},{"type":"function","name":"redeemVault","inputs":[{"name":"vaultCollateral","type":"address","internalType":"address"},{"name":"redemptionAmount","type":"uint256","internalType":"uint256"},{"name":"prevId","type":"address","internalType":"address"},{"name":"nextId","type":"address","internalType":"address"}],"outputs":[],"stateMutability":"nonpayable"},{"type":"function","name":"renounceOwnership","inputs":[],"outputs":[],"stateMutability":"nonpayable"},{"type":"function","name":"setAddresses","inputs":[{"name":"_addresses","type":"address[]","internalType":"address[]"}],"outputs":[],"stateMutability":"nonpayable"},{"type":"function","name":"setDefaultInterestRecipient","inputs":[{"name":"_recipient","type":"address","internalType":"address"}],"outputs":[],"stateMutability":"nonpayable"},{"type":"function","name":"setMintRecipients","inputs":[{"name":"_recipients","type":"tuple[]","internalType":"struct VaultOperations.MintRecipient[]","components":[{"name":"recipient","type":"address","internalType":"address"},{"name":"percentage","type":"uint256","internalType":"uint256"}]}],"outputs":[],"stateMutability":"nonpayable"},{"type":"function","name":"stabilityPool","inputs":[],"outputs":[{"name":"","type":"address","internalType":"address"}],"stateMutability":"view"},{"type":"function","name":"totalAccruedDebt","inputs":[],"outputs":[{"name":"","type":"uint256","internalType":"uint256"}],"stateMutability":"view"},{"type":"function","name":"totalCollateral","inputs":[{"name":"","type":"address","internalType":"address"}],"outputs":[{"name":"","type":"uint256","internalType":"uint256"}],"stateMutability":"view"},{"type":"function","name":"totalDebt","inputs":[{"name":"","type":"address","internalType":"address"}],"outputs":[{"name":"","type":"uint256","internalType":"uint256"}],"stateMutability":"view"},{"type":"function","name":"totalProtocolDebt","inputs":[],"outputs":[{"name":"","type":"uint256","internalType":"uint256"}],"stateMutability":"view"},{"type":"function","name":"transferOwnership","inputs":[{"name":"newOwner","type":"address","internalType":"address"}],"outputs":[],"stateMutability":"nonpayable"},{"type":"function","name":"transferVaultOwnership","inputs":[{"name":"vaultCollateral","type":"address","internalType":"address"},{"name":"recipient","type":"address","internalType":"address"},{"name":"prevId","type":"address","internalType":"address"},{"name":"nextId","type":"address","internalType":"address"}],"outputs":[],"stateMutability":"nonpayable"},{"type":"function","name":"treasuryAddress","inputs":[],"outputs":[{"name":"","type":"address","internalType":"address"}],"stateMutability":"view"},{"type":"function","name":"updateVaultInterest","inputs":[{"name":"vaultCollateral","type":"address","internalType":"address"},{"name":"vaultOwner","type":"address","internalType":"address"}],"outputs":[{"name":"","type":"uint256","internalType":"uint256"},{"name":"","type":"uint256","internalType":"uint256"},{"name":"","type":"uint256","internalType":"uint256"}],"stateMutability":"nonpayable"},{"type":"function","name":"vaultManager","inputs":[],"outputs":[{"name":"","type":"address","internalType":"address"}],"stateMutability":"view"},{"type":"function","name":"vaultOperations","inputs":[],"outputs":[{"name":"","type":"address","internalType":"address"}],"stateMutability":"view"},{"type":"function","name":"vaultSorter","inputs":[],"outputs":[{"name":"","type":"address","internalType":"address"}],"stateMutability":"view"},{"type":"event","name":"OwnershipTransferred","inputs":[{"name":"previousOwner","type":"address","indexed":true,"internalType":"address"},{"name":"newOwner","type":"address","indexed":true,"internalType":"address"}],"anonymous":false},{"type":"event","name":"VaultAdjusted","inputs":[{"name":"user","type":"address","indexed":true,"internalType":"address"},{"name":"addCollateral","type":"uint256","indexed":false,"internalType":"uint256"},{"name":"withdrawCollateral","type":"uint256","indexed":false,"internalType":"uint256"},{"name":"addDebt","type":"uint256","indexed":false,"internalType":"uint256"},{"name":"repaidDebt","type":"uint256","indexed":false,"internalType":"uint256"}],"anonymous":false},{"type":"event","name":"VaultClosed","inputs":[{"name":"user","type":"address","indexed":true,"internalType":"address"},{"name":"collatAmount","type":"uint256","indexed":false,"internalType":"uint256"},{"name":"debtAmount","type":"uint256","indexed":false,"internalType":"uint256"}],"anonymous":false},{"type":"event","name":"VaultCreated","inputs":[{"name":"user","type":"address","indexed":true,"internalType":"address"},{"name":"collatAmount","type":"uint256","indexed":false,"internalType":"uint256"},{"name":"debtAmount","type":"uint256","indexed":false,"internalType":"uint256"}],"anonymous":false},{"type":"event","name":"VaultInterestMinted","inputs":[{"name":"amount","type":"uint256","indexed":false,"internalType":"uint256"}],"anonymous":false},{"type":"event","name":"VaultLiquidated","inputs":[{"name":"vaultOwner","type":"address","indexed":true,"internalType":"address"},{"name":"vaultCollateral","type":"address","indexed":false,"internalType":"address"},{"name":"liquidator","type":"address","indexed":true,"internalType":"address"}],"anonymous":false},{"type":"event","name":"VaultRedeemed","inputs":[{"name":"vaultCollateral","type":"address","indexed":true,"internalType":"address"},{"name":"amount","type":"uint256","indexed":false,"internalType":"uint256"}],"anonymous":false},{"type":"event","name":"VaultTransfered","inputs":[{"name":"vaultCollateral","type":"address","indexed":true,"internalType":"address"},{"name":"vaultOwner","type":"address","indexed":true,"internalType":"address"},{"name":"recipient","type":"address","indexed":true,"internalType":"address"}],"anonymous":false}],"bytecode":{"object":"0x6080806040523461005b5760008054336001600160a01b0319821681178355916001600160a01b03909116907f8be0079c531659141344cd1fd0a4f28419497f9722a3daafe3b4186f6b6457e09080a361373090816100618239f35b600080fdfe60a0604052600436101561001257600080fd5b6000803560e01c806303cdb30c14612b3a578063048c661d14612b1157806317a0814914612ac0578063186ee8a414612aa25780631b393eda146124225780631d1a012c146120d85780631ff517ff1461209f5780633fa6b8191461205f5780634b8fed1b1461195857806353c0870a146114815780637110ccd514611432578063715018a6146113d357806373147f4614611386578063741bef1a1461135d5780637e059b2214611324578063841f0ebb146112fb57806387543b19146112dd5780638a4adf24146112b45780638da5cb5b1461128d5780639718cf59146112645780639797a53e14610c585780639a3236ce14610c2f578063b05b99d414610a33578063b95717211461084c578063bd8bcd891461082e578063c5f956af14610805578063c616bcb6146107bb578063c8564c6214610795578063c99cb2b714610509578063ea8db462146104e0578063ed961cc914610281578063f2fde38b146101b35763f8d898981461018857600080fd5b346101b057806003193601126101b0576001546040516001600160a01b039091168152602090f35b80fd5b50346101b05760203660031901126101b0576101cd612f20565b81546001600160a01b039182916101e7908316331461308b565b1690811561022d57600054826001600160601b0360a01b821617600055167f8be0079c531659141344cd1fd0a4f28419497f9722a3daafe3b4186f6b6457e0600080a380f35b60405162461bcd60e51b815260206004820152602660248201527f4f776e61626c653a206e6577206f776e657220697320746865207a65726f206160448201526564647265737360d01b6064820152608490fd5b50346101b05761029036613049565b92918061029d3385613306565b909391921461048c576005546001600160a01b03938893918516803b1561047d57849283896102e460405197889687958694633932134f60e11b865233906004870161310d565b03925af1801561048157610469575b50600554604051632438f1d560e21b81526001600160a01b03861660048201523360248201526020969091879083906044908290879089165af19182156103fd578392610432575b508360035416803b156104215761036f9584809460405198899586948593633b3e76c560e21b85528d3390600487016131f4565b03925af1928315610425578593610408575b50506005546040516339c3540560e01b81526001600160a01b0394909416600485015233602485015283916044918391165afa9081156103fd576103cd9284926103d0575b5050613157565b80f35b6103ef9250803d106103f6575b6103e78183612fd7565b81019061313f565b38806103c6565b503d6103dd565b6040513d85823e3d90fd5b61041491929350612fad565b6104215782908438610381565b8380fd5b50604051903d90823e3d90fd5b925090508582813d8111610462575b61044b8183612fd7565b8101031261045d57869151903861033b565b600080fd5b503d610441565b61047290612fad565b61047d5784386102f3565b8480fd5b6040513d84823e3d90fd5b60405162461bcd60e51b815260206004820152602660248201527f4e6577204d4352206973207468652073616d65206173207468652063757272656044820152656e74206f6e6560d01b6064820152608490fd5b50346101b057806003193601126101b0576008546040516001600160a01b039091168152602090f35b50346101b05760208060031936011261074657610524612f20565b9061052f3383613306565b5091909261053e841515613227565b60018060a01b0380821691828752600e84526040872061055f878254613269565b9055828752600d845260408720610577868254613269565b905561058585600a54613269565b600a5560095460001981019081116107815790879291600955338352600f855260408320846000528552826040600020558160055416803b1561042157604051633932134f60e11b81526001600160a01b0383166004820152336024820152600060448201819052606482018190526084820152908490829060a490829084905af190811561077657849161075e575b50508160035416803b156104215760405163b7d3824360e01b81526001600160a01b0392909216600483015233602483015283908290604490829084905af19081156103fd57839161074a575b505060015416803b1561074657604051632770a7eb60e21b8152336004820152602481018690529082908290604490829084905af1801561048157610732575b505060405163a9059cbb60e01b8152336004820152602481018590529082908290604490829089905af180156107275761070a575b506040519283528201527f887972e72bb5f71189d8c5cec21d9a66433e2dc5c12a17a453decf826e9e32b260403392a280f35b61072090823d84116103f6576103e78183612fd7565b50386106d7565b6040513d87823e3d90fd5b61073b90612fad565b61047d5784386106a2565b5080fd5b61075390612fad565b610746578138610662565b61076790612fad565b610772578238610615565b8280fd5b6040513d86823e3d90fd5b634e487b7160e01b88526011600452602488fd5b50346101b057806003193601126101b057602060ff60085460a01c166040519015158152f35b50346101b05760203660031901126101b0576107d5612f20565b81546001600160a01b0391906107ee908316331461308b565b166001600160601b0360a01b601154161760115580f35b50346101b057806003193601126101b0576007546040516001600160a01b039091168152602090f35b50346101b057806003193601126101b0576020600a54604051908152f35b50346101b05760203660031901126101b05760043567ffffffffffffffff80821161077257366023830112156107725781600401359081116107725760249136838360051b830101116104215783546001600160a01b0391906108b2908316331461308b565b6008549360ff8560a01c166109ef5783156109ca57826108d38284016130d6565b16936001600160601b0360a01b9485600154161760015580600110156109dc5783610900604485016130d6565b1685600254161760025580600210156109dc5783610920606485016130d6565b1685600354161760035580600310156109dc5783610940608485016130d6565b1685600454161760045580600410156109dc578361096060a485016130d6565b1685600554161760055580600510156109dc578361098060c485016130d6565b16856006541617600655600610156109ca575060e461099f91016130d6565b6007805490931691161790556001600160a81b0319163360ff60a01b191617600160a01b1760085580f35b634e487b7160e01b8652603260045285fd5b50634e487b7160e01b8652603260045285fd5b606490601c6040519162461bcd60e51b8352602060048401528201527f536574757020697320616c726561647920696e697469616c697a6564000000006044820152fd5b50346101b057806003193601126101b057600b5490610a54600c5483613269565b918215610bf457600c5581815b601054811015610b3357610a7481612ff9565b50612710610a87600180930154876132df565b049081610a9f575b5050610a9a906132d0565b610a61565b54919290916001600160a01b0390811690610ab985612ff9565b505416813b15610b2f576040516340c10f1960e01b81526001600160a01b03919091166004820152602481018490529085908290604490829084905af1801561072757908591610b1b575b5050610a9a91610b1391613269565b919038610a8f565b610b2490612fad565b610421578338610b04565b8580fd5b5081839180151580610be0575b610b74575b507f097a1c65a819d6da300e068538fa6f8649069550c48a22ab7eec23829fa25834602083604051908152a180f35b6001546011546001600160a01b0391821692911690823b15610421576040516340c10f1960e01b81526001600160a01b0392909216600483015260248201529082908290604490829084905af180156104815715610b4557610bd590612fad565b610746578183610b45565b506011546001600160a01b03161515610b40565b60405162461bcd60e51b8152602060048201526013602482015272139bc81a5b9d195c995cdd081d1bc81b5a5b9d606a1b6044820152606490fd5b50346101b057806003193601126101b0576011546040516001600160a01b039091168152602090f35b50346101b057610c6736613049565b9092608052919091821561121f57600354604051637608271560e01b81526080516001600160a01b03908116600483015290939160209185916024918391165afa9283156107275785936111fe575b506001600160a01b038316156111ae57600554604051639cd6f00960e01b815290602090829060049082906001600160a01b03165afa9081156111a3578691611171575b50600254604051635670bcc760e11b81526080516001600160a01b039081166004830152909160209183916024918391165afa908115611166578791611134575b50869594865b86918988151580611122575b156110555750610d5f81608051613306565b9094908a86101561104e5785925b610d8788670de0b6b3a7640000808c880204870302613295565b818111610ffd576005549681019d85019c859003978f976001600160a01b031690869081811115610ff45703915b813b15610fa757888094610de460405197889687958694633932134f60e11b8652038d6080516004870161310d565b03925af1908115610727578591610fe0575b505014610ef1576003546001600160a01b0316803b156107725760405163b7d3824360e01b81526080516001600160a01b03908116600483015292909216602483015282908290604490829084905af1801561048157610ed9575b5050600354604051637608271560e01b81526080516001600160a01b039081166004830152909160209183916024918391165afa908115610ece578991610e9f575b50955b96959095610d41565b610ec1915060203d602011610ec7575b610eb98183612fd7565b810190613276565b38610e93565b503d610eaf565b6040513d8b823e3d90fd5b610ee290612fad565b610eed578738610e51565b8780fd5b600554604051632438f1d560e21b81526080516001600160a01b0390811660048301528381166024830152929993929091602091839160449183918791165af1908115610481578291610fab575b506003546001600160a01b0316803b15610772578783918a93838d610f7d60405197889687958694633b3e76c560e21b8652608051600487016131f4565b03925af1801561048157610f93575b5050610e96565b610f9c90612fad565b610fa7578838610f8c565b8880fd5b9150506020813d602011610fd8575b81610fc760209383612fd7565b8101031261045d5789905138610f3f565b3d9150610fba565b610fe990612fad565b610421578338610df6565b50508791610db5565b60405162461bcd60e51b8152602060048201526024808201527f496e73756666696369656e7420636f6c6c61746572616c20696e207468652076604482015263185d5b1d60e21b6064820152608490fd5b8a92610d6d565b82818b806110c8575b505080611069575080f35b60405163a9059cbb60e01b815233600482015260248101919091526080516020908290604490829086906001600160a01b03165af18015610481576110ac575080f35b6110c49060203d6020116103f6576103e78183612fd7565b5080f35b6001546001600160a01b0316803b1561077257604051632770a7eb60e21b8152336004820152602481019290925282908290604490829084905af18015610481571561105e5761111790612fad565b61074657818361105e565b506001600160a01b0382161515610d4d565b90506020813d60201161115e575b8161114f60209383612fd7565b8101031261045d575138610d3b565b3d9150611142565b6040513d89823e3d90fd5b90506020813d60201161119b575b8161118c60209383612fd7565b8101031261045d575138610cfa565b3d915061117f565b6040513d88823e3d90fd5b60405162461bcd60e51b815260206004820152602260248201527f4e6f207661756c747320617661696c61626c6520666f7220726564656d70746960448201526137b760f11b6064820152608490fd5b61121891935060203d602011610ec757610eb98183612fd7565b9138610cb6565b60405162461bcd60e51b815260206004820152601760248201527f416d6f756e74206d75737420626520706f7369746976650000000000000000006044820152606490fd5b50346101b057806003193601126101b0576006546040516001600160a01b039091168152602090f35b50346101b057806003193601126101b057546040516001600160a01b039091168152602090f35b50346101b057806003193601126101b0576005546040516001600160a01b039091168152602090f35b50346101b057806003193601126101b0576020600b54604051908152f35b50346101b057806003193601126101b0576003546040516001600160a01b039091168152602090f35b50346101b05760203660031901126101b0576020906040906001600160a01b0361134c612f20565b168152600e83522054604051908152f35b50346101b057806003193601126101b0576002546040516001600160a01b039091168152602090f35b50346101b05760203660031901126101b057600435601054811015610746576113ae90612ff9565b508054600190910154604080516001600160a01b039093168352602083019190915290f35b50346101b057806003193601126101b057600060018060a01b036113fb81845416331461308b565b81546001600160a01b031981168355167f8be0079c531659141344cd1fd0a4f28419497f9722a3daafe3b4186f6b6457e08280a380f35b50346101b05760403660031901126101b05761144c612f20565b6040611456612f4c565b9260018060a01b038093168152600f6020522091166000526020526020604060002054604051908152f35b50346101b05761149036612f62565b919061149f9493943386613306565b6005546040516348c3c7e360e01b81526001600160a01b038a8116600483015287811660248301529499909794909116929091606088604481875afa978815610ece578998611926575b50604051632438f1d560e21b81526001600160a01b038416600482015233602482015260209890948990869060449082908e905af19485156117f1578a956118f7575b506118b4576001600160a01b038716331461186f5760055460405163017f1a1f60e51b81526001600160a01b0385811660048301523360248301529091169a9089816044818f5afa908115611864579083918c91611833575b5011156117fc578a8a9b9a98999a3b15610fa757604051633932134f60e11b8082526001600160a01b0387166004830152336024830152600060448301819052606483018190526084830152918a90829060a490829084905af19081156117f1578a916117dd575b50506005546001600160a01b031690813b156117d957898b9161162182966040519889978896879586528c6004870161310d565b03925af19081156111a35786916117c5575b505033808652600f80895260408088206001600160a01b038581166000818152928d52838320548c8316808d52868f52858d208386528f5285852091909155958b52938c52828a208483528c529082902089905560055491516339c3540560e01b815260048101849052602481019490945291999291839183916044918391165afa908115611166576116cd9288926103d0575050613157565b6003546001600160a01b0316803b15610b2f5760405163b7d3824360e01b81526001600160a01b03831660048201523360248201529086908290604490829084905af19081156111a35786916117b1575b50506003546001600160a01b031690813b15610b2f5785879161175982966040519889978896879563075628a760e51b8752600487016131f4565b03925af180156104815761179d575b50506001600160a01b03169033907fe1eb0bb645fadf6a3ae58b423e1d50ce18b9a83a81928ecb0dd527f1ddeddfd08480a480f35b6117a690612fad565b610772578238611768565b6117ba90612fad565b61047d57843861171e565b6117ce90612fad565b61047d578438611633565b8980fd5b6117e690612fad565b610fa75788386115ed565b6040513d8c823e3d90fd5b60405162461bcd60e51b8152600481018a9052600f60248201526e2b30bab63a103132b637bb9026a1a960891b6044820152606490fd5b8092508b8092503d831161185d575b61184c8183612fd7565b8101031261045d5782905138611585565b503d611842565b6040513d8d823e3d90fd5b60405162461bcd60e51b815260048101899052601f60248201527f43616e74207472616e73666572207661756c7420746f20796f757273656c66006044820152606490fd5b6064886040519062461bcd60e51b825280600483015260248201527f54686973206164647265737320616c7265616479206861732061207661756c746044820152fd5b9094508881813d831161191f575b61190f8183612fd7565b8101031261045d5751933861152c565b503d611905565b61194891985060603d8111611951575b6119408183612fd7565b8101906132b5565b505096386114e9565b503d611936565b50346101b05760e03660031901126101b057611972612f20565b61197a612f36565b9060c4356001600160a01b038116900361045d576119983382613306565b90916119a5811515613227565b604435811061200757602435159182159283611ffd575b15611fb957608435159384159485611faf575b15611f6a576084358110611f1957879284611eee575b85604435611ec4575b611e88575b606435611dc3575b6005546001600160a01b031690611a3790611a269060443590611a2190602435906130ea565b613269565b92611a2160843591606435906130ea565b90803b1561047d5784928389611a6560405197889687958694633932134f60e11b865233906004870161310d565b03925af1801561048157611daf575b5050611d4a575b604435611cec575b611c88575b606435611c24575b600554604051632438f1d560e21b81526001600160a01b03838116600483015233602483015260209491928692918691859160449183918791165af1928315610481578293611bf1575b506003546001600160a01b031692833b1561077257611b1893839283604051809781958294633b3e76c560e21b845260c43591338d600487016131f4565b03925af1918215610425578492611bda575b50506005546040516339c3540560e01b81526001600160a01b0393841660048201523360248201529283916044918391165afa80156103fd57611b74918491611bbd575b50613157565b60405190602435825260443590820152606435604082015260843560608201527f0bed804e684e361074fe3f0957c800c149cd27859791872ea08625e8c6f5c1c060803392a280f35b611bd49150833d85116103f6576103e78183612fd7565b38611b6e565b611be5919250612fad565b61077257818338611b2a565b85809294508193503d8311611c1d575b611c0b8183612fd7565b8101031261045d578490519138611ada565b503d611c01565b60015483906001600160a01b0316803b15610746576040516340c10f1960e01b815233600482015260643560248201529082908290604490829084905af1801561048157611c74575b5050611a90565b611c7d90612fad565b610772578238611c6d565b60015483906001600160a01b0316803b1561074657604051632770a7eb60e21b815233600482015260843560248201529082908290604490829084905af1801561048157611cd8575b5050611a88565b611ce190612fad565b610772578238611cd1565b60405163a9059cbb60e01b8152336004820152604480356024830152602090829081886001600160a01b0388165af1801561072757611d2c575b50611a83565b611d439060203d81116103f6576103e78183612fd7565b5038611d26565b6040516323b872dd60e01b815233600482015230602480830191909152356044820152602081606481886001600160a01b0388165af1801561072757611d91575b50611a7b565b611da89060203d81116103f6576103e78183612fd7565b5038611d8b565b611db890612fad565b61047d578438611a74565b6001600160a01b038716808552600d602052604085208054611de890606435906130ea565b9055611df8606435600a546130ea565b600a55808552600d6020526040852054602060018060a01b0360055416926024604051809581936391bbfd0d60e01b835260048301525afa9182156111a3578692611e50575b5090611e4b91111561319c565b6119fb565b915094506020813d602011611e80575b81611e6d60209383612fd7565b8101031261045d57518994611e4b611e3e565b3d9150611e60565b6001600160a01b0387168452600d602052604084208054611eac9060843590613269565b9055611ebc608435600a54613269565b600a556119f3565b5060018060a01b0387168452600e6020528560408520611ee76044358254613269565b90556119ee565b6001600160a01b0387168452600e602052604084208054611f1290602435906130ea565b90556119e5565b60405162461bcd60e51b8152602060048201526024808201527f436f6c6c61746572616c4d616e616765723a20496e73756666696369656e74206044820152631919589d60e21b6064820152608490fd5b60405162461bcd60e51b815260206004820152601860248201527f43616e7420726570617920616e642074616b65206465627400000000000000006044820152606490fd5b50606435156119cf565b606460405162461bcd60e51b815260206004820152602060248201527f43616e742061646420616e6420776974686472617720636f6c6c61746572616c6044820152fd5b50604435156119bc565b60405162461bcd60e51b815260206004820152602a60248201527f436f6c6c61746572616c4d616e616765723a20496e73756666696369656e742060448201526918dbdb1b185d195c985b60b21b6064820152608490fd5b50346101b05760403660031901126101b057606061208c61207e612f20565b612086612f4c565b90613306565b9060405192835260208301526040820152f35b50346101b05760203660031901126101b0576020906040906001600160a01b036120c7612f20565b168152600d83522054604051908152f35b50346101b057602080600319360112610746576004359167ffffffffffffffff9182841161074657366023850112156107465783600401359383851161240e576040519361212b838760051b0186612fd7565b858552828501906024809760061b84010192368411610b2f578701915b8383106123ac57505083546001600160a01b0393925061216c91508316331461308b565b60109182548484558061233d575b50839484955b81518710156122de578261219488846132f2565b5151161561229a57836121a788846132f2565b5101511561224c576121c790846121be89856132f2565b510151906130ea565b956121d281836132f2565b51855468010000000000000000811015612239576121f66001918281018955612ff9565b92909261222657805183546001600160a01b031916908716178355860151910155612220906132d0565b95612180565b634e487b7160e01b895260048990528a89fd5b634e487b7160e01b885260416004528988fd5b60405162461bcd60e51b8152600481018590526021818a01527f50657263656e74616765206d7573742062652067726561746572207468616e206044820152600360fc1b6064820152608490fd5b60405162461bcd60e51b8152600481018590526019818a01527f496e76616c696420726563697069656e742061646472657373000000000000006044820152606490fd5b83886127108893116122ee578280f35b9060236084926040519262461bcd60e51b845260048401528201527f546f74616c2070657263656e746167652063616e6e6f7420657863656564203160448201526230302560e81b6064820152fd5b6001600160ff1b03811681036123995783855260017f1b6847dc741a1b0cd08d278845f9d819d87b734759afb55fe2de5cb82a9ae67291811b8201915b82811061238857505061217a565b80876002925587838201550161237a565b634e487b7160e01b855260116004528685fd5b604083360312610b2f576040519060408201828110848211176123f9576040528335906001600160a01b038216820361045d57828792604094528286013583820152815201920191612148565b89634e487b7160e01b60005260416004526000fd5b634e487b7160e01b83526041600452602483fd5b50346101b05761248961243436612f62565b9193906124418585613306565b60055460405163017f1a1f60e51b81526001600160a01b03808a1660048301528a811660248301529098909760209792891696949591949193909288908b9081906044820190565b03818a5afa8015612a97578c90612a69575b60048054604051630d9a6b3560e01b81529c508a918d9182908e165afa9a8b15612a5e578d9b612a2f575b5084156129f5578111156129a257891561295d57908b9291869a878110612955575b506124f48b8688613600565b978b8881036127d75750505050505060095460001981019081116127c3579089949392916009558689168552600f86526125438460408720928985169384600052895287604060002055613269565b8760035416803b156127ab5760405163b7d3824360e01b81526001600160a01b0385811660048301528c1660248201529087908290604490829084905af19081156111665787916127af575b5050876005541691823b156127ab57604051633932134f60e11b81526001600160a01b0385811660048301528c166024820152600060448201819052606482018190526084820152928790849060a490829084905af1948515611166578789948b9761278d575b50829052600d845261260d60408920918254613269565b9055808752600e835260408720612625878254613269565b905581612728575b5050505b61263d87600a54613269565b600a556004805460405163095ea7b360e01b81529088166001600160a01b03169181019190915260248101849052911695908481604481878b5af180156107765761270b575b50846004541691823b156104215760648492836040519586948593632ce554cb60e11b855260048501528b602485015260448401525af18015610481576126f7575b50507f0ff40ba5ee9f4b99e3c53710d079022c1f2072f8dad2d242216ee8bd01f4b67b9160405193845233941692a380f35b61270090612fad565b61047d5784386126c5565b61272190853d87116103f6576103e78183612fd7565b5038612683565b60405163a9059cbb60e01b81526001600160a01b038c16600482015260248101929092529093508390604490829088905af1918215610776578692612770575b80869161262d565b61278690863d88116103f6576103e78183612fd7565b5038612768565b9092965061279c919450612fad565b610b2f578793879287386125f6565b8680fd5b6127b890612fad565b610b2f57853861258f565b634e487b7160e01b8a52601160045260248afd5b6127ed8a6127f393949699989b9a95979b613269565b93613269565b90803b15610fa7578892838e61282060405197889687958694633932134f60e11b86528d6004870161310d565b03925af19081156111a3578691612941575b50600554604051632438f1d560e21b81526001600160a01b0385811660048301528c1660248201529291889184916044918391908d165af19182156111a357869261290f575b508760035416803b156127ab578692838c6128aa60405198899687958694633b3e76c560e21b86528b600487016131f4565b03925af1801561077657869285916128f6575b5050818116808552600d8652604085206128d8898254613269565b90558452600e8552604084206128ef848254613269565b9055612631565b61290291929350612fad565b61077257849083386128bd565b955090508585813d811161293a575b6129288183612fd7565b8101031261045d578994519038612878565b503d61291e565b61294a90612fad565b61047d578438612832565b9a50386124e8565b60405162461bcd60e51b815260048101899052601760248201527f53746162696c69747920706f6f6c20697320656d7074790000000000000000006044820152606490fd5b60405162461bcd60e51b815260048101899052602560248201527f436f6c6c61746572616c697a6174696f6e20726174696f2061626f7665206d696044820152646e696d756d60d81b6064820152608490fd5b60405162461bcd60e51b8152600481018a9052601260248201527115985d5b1d08191bd95cdb9d08195e1a5cdd60721b6044820152606490fd5b909a508881813d8311612a57575b612a478183612fd7565b8101031261045d575199386124c6565b503d612a3d565b6040513d8f823e3d90fd5b50878a813d8311612a90575b612a7f8183612fd7565b8101031261045d576004995161249b565b503d612a75565b6040513d8e823e3d90fd5b50346101b057806003193601126101b0576020600954604051908152f35b50346101b05760403660031901126101b057612ada612f20565b906001600160a01b039060409082612af0612f4c565b168152600f6020522091166000526020526020604060002054604051908152f35b50346101b057806003193601126101b0576004546040516001600160a01b039091168152602090f35b50346101b05760c03660031901126101b057612b54612f20565b6024359060443590608435906001600160a01b03908183168303610b2f57612b7a612f36565b612b843383613306565b5050612ecf5782821691828852602094600e865260408920612ba78982546130ea565b9055838952600d865260408920612bbf8882546130ea565b9055612bcd87600a546130ea565b600a55600954600181018091116127c357600955846005541689813b156101b05789612c17928a83604051809681958294633932134f60e11b845260643591338d6004870161310d565b03925af180156117f157612eb4575b506005546040516339c3540560e01b81526001600160a01b03841660048201523360248201528a9695949392918616908881604481855afa8015612ea957612c74918991612e925750613157565b848752600d88526040872054604051906391bbfd0d60e01b82528660048301528982602481865afa918215610ece578992612e5e575b5090612cb791111561319c565b604051632438f1d560e21b81526001600160a01b0384166004820152336024820152908890829060449082908b905af1908115611166578791612e2d575b50856003541690813b15610eed57878094612d286040519788968795869463075628a760e51b86523390600487016131f4565b03925af1908115610776578491612e19575b50506040516323b872dd60e01b8152336004820152306024820152604481018790529084908290606490829087905af180156103fd57612dfc575b5060015416803b15610746576040516340c10f1960e01b8152336004820152602481018590529082908290604490829084905af1801561048157612de8575b50506040519283528201527f482cfbeb47f8c37dbc7f6d858203153f1728e4ea8f3343f4a3ffc6e7a615713460403392a280f35b612df190612fad565b610421578338612db4565b612e1290843d86116103f6576103e78183612fd7565b5038612d75565b612e2290612fad565b610772578238612d3a565b809750888092503d8311612e57575b612e468183612fd7565b8101031261045d5789955138612cf5565b503d612e3c565b8a80929a508193503d8311612e8b575b612e788183612fd7565b8101031261045d57518b97612cb7612caa565b503d612e6e565b611bd491508a3d8c116103f6576103e78183612fd7565b6040513d8a823e3d90fd5b612ec49099919594939299612fad565b979091929338612c26565b60405162461bcd60e51b815260206004820152602360248201527f5661756c7420616c72656164792065786973747320666f7220746869732061736044820152621cd95d60ea1b6064820152608490fd5b600435906001600160a01b038216820361045d57565b60a435906001600160a01b038216820361045d57565b602435906001600160a01b038216820361045d57565b608090600319011261045d576001600160a01b0390600435828116810361045d5791602435818116810361045d5791604435828116810361045d5791606435908116810361045d5790565b67ffffffffffffffff8111612fc157604052565b634e487b7160e01b600052604160045260246000fd5b90601f8019910116810190811067ffffffffffffffff821117612fc157604052565b60105481101561303357601060005260011b7f1b6847dc741a1b0cd08d278845f9d819d87b734759afb55fe2de5cb82a9ae6720190600090565b634e487b7160e01b600052603260045260246000fd5b608090600319011261045d576001600160a01b0390600435828116810361045d579160243591604435828116810361045d5791606435908116810361045d5790565b1561309257565b606460405162461bcd60e51b815260206004820152602060248201527f4f776e61626c653a2063616c6c6572206973206e6f7420746865206f776e65726044820152fd5b356001600160a01b038116810361045d5790565b919082018092116130f757565b634e487b7160e01b600052601160045260246000fd5b6001600160a01b0391821681529116602082015260408101919091526060810191909152608081019190915260a00190565b9081602091031261045d5751801515810361045d5790565b1561315e57565b60405162461bcd60e51b8152602060048201526016602482015275125b9d985c9a585b9d0818da1958dac819985a5b195960521b6044820152606490fd5b156131a357565b60405162461bcd60e51b8152602060048201526024808201527f4d6178696d756d206465627420666f72207468697320617373657420657863656044820152631959195960e21b6064820152608490fd5b6001600160a01b039182168152918116602083015260408201929092529181166060830152909116608082015260a00190565b1561322e57565b60405162461bcd60e51b81526020600482015260136024820152725661756c7420646f65736e742065786973747360681b6044820152606490fd5b919082039182116130f757565b9081602091031261045d57516001600160a01b038116810361045d5790565b811561329f570490565b634e487b7160e01b600052601260045260246000fd5b9081606091031261045d578051916040602083015192015190565b60001981146130f75760010190565b818102929181159184041417156130f757565b80518210156130335760209160051b010190565b600554604080516348c3c7e360e01b81526001600160a01b038481166004830152858116602483015293959390928116906000606085604481865afa96871561350a578195829083996134e3575b50809984831692838552602095600f87528886209781841698898852885261337f8a88205442613269565b90816133a6575b5050505050509084918152600f8352209160005252429060002055929190565b8a51631839ba9f60e11b81526001600160a01b03868116600483015285166024820152959e5095969593949293919290918890829060449082905afa9081156134d9578e9087926134a7575b5061343a9261340b9261340492613516565b809e6130ea565b9c61341881600b546130ea565b600b55888652600d88528986206134308282546130ea565b9055600a546130ea565b600a556005541691823b15610421578b928492838b936134708f8d5198899788968795633932134f60e11b87526004870161310d565b03925af1801561349d57908693929161348e575b8193818080613386565b61349790612fad565b38613484565b86513d84823e3d90fd5b809250898092503d83116134d2575b6134c08183612fd7565b81010312610b2f57518d61343a6133f2565b503d6134b6565b8a513d88823e3d90fd5b9196505061350091975060603d8111611951576119408183612fd7565b9791959038613354565b508351903d90823e3d90fd5b90929192811580156135f8575b80156135f0575b6135e85762080520670de0b6b3a764000091048101938482116130f757603c9060405195631bea64b560e21b8752600487015204602485015260208460448173__$c8869418d2acef885eac47ad962ec789ad$__5af49384156135dc576000946135a7575b5061359e6135a49394836132df565b04613269565b90565b936020853d82116135d4575b816135c060209383612fd7565b810103126101b0575092519261359e61358f565b3d91506135b3565b6040513d6000823e3d90fd5b506000925050565b50831561352a565b508015613523565b600254604051635670bcc760e11b81526001600160a01b039283166004820181905294959490939260209283908690602490829085165afa9485156135dc57600095613701575b5082906005541691602460405180948193635613548960e11b835260048301525afa9182156135dc576000926136d0575b5050613695939461369c91670de0b6b3a7640000958691836132df565b04906130ea565b90836136a884836132df565b0482116136c957508281029281840414901517156130f7576135a491613295565b9250505090565b81819392933d83116136fa575b6136e78183612fd7565b810103126101b05750518461369c613678565b503d6136dd565b90948382813d8311613729575b6137188183612fd7565b810103126101b05750519382613647565b503d61370e56","linkReferences":{"src/dependencies/VaultMath.sol":{"VaultMath":[{"start":13772,"length":20}]}}},"methodIdentifiers":{"activeVaults()":"186ee8a4","adjustVault(address,uint256,uint256,uint256,uint256,address,address)":"4b8fed1b","adjustVaultMCR(address,uint256,address,address)":"ed961cc9","closeVault(address)":"c99cb2b7","createVault(address,uint256,uint256,uint256,address,address)":"03cdb30c","debtToken()":"f8d89898","defaultInterestRecipient()":"9a3236ce","getLastUpdatedDebtTime(address,address)":"17a08149","isAddressSetupInitialized()":"c8564c62","keikoDeployer()":"ea8db462","lastDebtUpdateTime(address,address)":"7110ccd5","liquidateVault(address,address,address,address)":"1b393eda","mintRecipients(uint256)":"73147f46","mintVaultsInterest()":"b05b99d4","owner()":"8da5cb5b","priceFeed()":"741bef1a","redeemVault(address,uint256,address,address)":"9797a53e","renounceOwnership()":"715018a6","setAddresses(address[])":"b9571721","setDefaultInterestRecipient(address)":"c616bcb6","setMintRecipients((address,uint256)[])":"1d1a012c","stabilityPool()":"048c661d","totalAccruedDebt()":"87543b19","totalCollateral(address)":"7e059b22","totalDebt(address)":"1ff517ff","totalProtocolDebt()":"bd8bcd89","transferOwnership(address)":"f2fde38b","transferVaultOwnership(address,address,address,address)":"53c0870a","treasuryAddress()":"c5f956af","updateVaultInterest(address,address)":"3fa6b819","vaultManager()":"8a4adf24","vaultOperations()":"9718cf59","vaultSorter()":"841f0ebb"},"id":38}