{"abi":[{"type":"function","name":"decPow","inputs":[{"name":"_base","type":"uint256","internalType":"uint256"},{"name":"_minutes","type":"uint256","internalType":"uint256"}],"outputs":[{"name":"","type":"uint256","internalType":"uint256"}],"stateMutability":"pure"}],"bytecode":{"object":"0x6080806040523461001a576101439081610020823930815050f35b600080fdfe6080604052600436101561001257600080fd5b60003560e01c636fa992d41461002757600080fd5b604036600319011261004b576020610043602435600435610050565b604051908152f35b600080fd5b919091631f5405008084116100f5575b5082156100e757670de0b6b3a764000090925b600193848211156100d757818516610099578061008f916100fd565b931c925b92610073565b916100a76100ae91846100fd565b92806100fd565b9360001982019182116100c2571c92610093565b60246000634e487b7160e01b81526011600452fd5b90506100e49293506100fd565b90565b50670de0b6b3a76400009150565b925038610060565b81810291818304149015171561012d576706f05b59d3b20000810180911161012d57670de0b6b3a7640000900490565b634e487b7160e01b600052601160045260246000fd","linkReferences":{}},"methodIdentifiers":{"decPow(uint256,uint256)":"6fa992d4"},"id":52}