{"abi":[{"type":"function","name":"debtToken","inputs":[],"outputs":[{"name":"","type":"address","internalType":"address"}],"stateMutability":"view"},{"type":"function","name":"isAddressSetupInitialized","inputs":[],"outputs":[{"name":"","type":"bool","internalType":"bool"}],"stateMutability":"view"},{"type":"function","name":"keikoDeployer","inputs":[],"outputs":[{"name":"","type":"address","internalType":"address"}],"stateMutability":"view"},{"type":"function","name":"owner","inputs":[],"outputs":[{"name":"","type":"address","internalType":"address"}],"stateMutability":"view"},{"type":"function","name":"priceFeed","inputs":[],"outputs":[{"name":"","type":"address","internalType":"address"}],"stateMutability":"view"},{"type":"function","name":"renounceOwnership","inputs":[],"outputs":[],"stateMutability":"nonpayable"},{"type":"function","name":"setAddresses","inputs":[{"name":"_addresses","type":"address[]","internalType":"address[]"}],"outputs":[],"stateMutability":"nonpayable"},{"type":"function","name":"stabilityPool","inputs":[],"outputs":[{"name":"","type":"address","internalType":"address"}],"stateMutability":"view"},{"type":"function","name":"transferOwnership","inputs":[{"name":"newOwner","type":"address","internalType":"address"}],"outputs":[],"stateMutability":"nonpayable"},{"type":"function","name":"treasuryAddress","inputs":[],"outputs":[{"name":"","type":"address","internalType":"address"}],"stateMutability":"view"},{"type":"function","name":"vaultManager","inputs":[],"outputs":[{"name":"","type":"address","internalType":"address"}],"stateMutability":"view"},{"type":"function","name":"vaultOperations","inputs":[],"outputs":[{"name":"","type":"address","internalType":"address"}],"stateMutability":"view"},{"type":"function","name":"vaultSorter","inputs":[],"outputs":[{"name":"","type":"address","internalType":"address"}],"stateMutability":"view"},{"type":"event","name":"OwnershipTransferred","inputs":[{"name":"previousOwner","type":"address","indexed":true,"internalType":"address"},{"name":"newOwner","type":"address","indexed":true,"internalType":"address"}],"anonymous":false}],"bytecode":{"object":"0x6080806040523461005b5760008054336001600160a01b0319821681178355916001600160a01b03909116907f8be0079c531659141344cd1fd0a4f28419497f9722a3daafe3b4186f6b6457e09080a36105ca90816100618239f35b600080fdfe608060408181526004918236101561001657600080fd5b600092833560e01c918263048c661d1461054257508163715018a6146104e1578163741bef1a146104b8578163841f0ebb1461048f5781638a4adf24146104665781638da5cb5b1461043e5781639718cf5914610415578163b95717211461022a578163c5f956af14610201578163c8564c62146101da578163ea8db462146101b1578163f2fde38b146100df575063f8d89898146100b457600080fd5b346100db57816003193601126100db5760015490516001600160a01b039091168152602090f35b5080fd5b919050346101ad5760203660031901126101ad576001600160a01b03823581811693908490036101a95784549182169261011a33851461057f565b84156101575750506001600160a01b031916821783557f8be0079c531659141344cd1fd0a4f28419497f9722a3daafe3b4186f6b6457e08380a380f35b906020608492519162461bcd60e51b8352820152602660248201527f4f776e61626c653a206e6577206f776e657220697320746865207a65726f206160448201526564647265737360d01b6064820152fd5b8480fd5b8280fd5b5050346100db57816003193601126100db5760085490516001600160a01b039091168152602090f35b5050346100db57816003193601126100db5760209060ff60085460a01c1690519015158152f35b5050346100db57816003193601126100db5760075490516001600160a01b039091168152602090f35b9050346101ad5760203660031901126101ad5767ffffffffffffffff9080358281116101a957366023820112156101a957808201359283116101a957602436818560051b84010111610411576008549460ff8660a01c166103cf575083156103be576001600160a01b0392836102a1848401610566565b16946bffffffffffffffffffffffff60a01b9586600154161760015580600110156103ac57846102d360448601610566565b1686600254161760025580600210156103ac57846102f360648601610566565b1686600354161760035580600310156103ac578461031360848601610566565b1686835416178255808210156103ac578461033060a48601610566565b1686600554161760055580600510156103ac578461035060c48601610566565b168660065416176006556006101561039b57505060e46103709101610566565b6007805490931691161790556001600160a81b0319163360ff60a01b191617600160a01b1760085580f35b634e487b7160e01b87526032905285fd5b50634e487b7160e01b87526032905285fd5b634e487b7160e01b86526032835285fd5b601c60649260208693519362461bcd60e51b85528401528201527f536574757020697320616c726561647920696e697469616c697a6564000000006044820152fd5b8580fd5b5050346100db57816003193601126100db5760065490516001600160a01b039091168152602090f35b5050346100db57816003193601126100db57905490516001600160a01b039091168152602090f35b5050346100db57816003193601126100db5760055490516001600160a01b039091168152602090f35b5050346100db57816003193601126100db5760035490516001600160a01b039091168152602090f35b5050346100db57816003193601126100db5760025490516001600160a01b039091168152602090f35b833461053f578060031936011261053f57805481906001600160a01b0381169061050c33831461057f565b6001600160a01b03191682557f8be0079c531659141344cd1fd0a4f28419497f9722a3daafe3b4186f6b6457e08280a380f35b80fd5b8491346101ad57826003193601126101ad57546001600160a01b0316815260209150f35b356001600160a01b038116810361057a5790565b600080fd5b1561058657565b606460405162461bcd60e51b815260206004820152602060248201527f4f776e61626c653a2063616c6c6572206973206e6f7420746865206f776e65726044820152fd","linkReferences":{}},"methodIdentifiers":{"debtToken()":"f8d89898","isAddressSetupInitialized()":"c8564c62","keikoDeployer()":"ea8db462","owner()":"8da5cb5b","priceFeed()":"741bef1a","renounceOwnership()":"715018a6","setAddresses(address[])":"b9571721","stabilityPool()":"048c661d","transferOwnership(address)":"f2fde38b","treasuryAddress()":"c5f956af","vaultManager()":"8a4adf24","vaultOperations()":"9718cf59","vaultSorter()":"841f0ebb"},"id":17}